:100000000C94BA010C94EB010C94EB010C94EB01F1
:100010000C94EB010C94EB010C94EB010C94EB01B0
:100020000C94EB010C94EB010C94EB010C94EB01A0
:100030000C94EB010C9493150C94EB010C94EB01D4
:100040000C94EB010C94EB010C94EB010C94EB0180
:100050000C94EB010C94EB010C94EB010C944915FE
:100060000C94EB010C94C90D0C949F0D0C94EB01B6
:100070000C94EB010C94EB010C94EB010C94EB0150
:100080000C94EB010C94EB010C94EB010C94EB0140
:100090000C94EB010C94EB010C94EB010C94FF0D10
:1000A0000C94EB010C94EB010C94EB010C94EB0120
:1000B0000C94EB010C94EB010C94EB010C94EB0110
:1000C0000C94EB010C94EB010C94EB010C94EB0100
:1000D0000C94EB010C94EB010C94EB010C94EB01F0
:1000E0000C94EB017802800289029D02B702C602DD
:1000F000E00200030F032F0319131C130B130F133C
:1001000015135313201324132A132E1332133813E9
:100110003C134013531346134A134E13084AD73B5C
:100120003BCE016E84BCBFFDC12F3D6C74319ABDC6
:1001300056833DDA3D00C77F11BED9E4BB4C3E91EA
:100140006BAAAABE000000803F000C94F7010C943B
:10015000D7170C94ED010C94530B0C940B130C94C7
:100160000C0C0C94C6020C94BF0B0C94670C0C94F2
:1001700000030C94E0020C94680C0C94370D0C9462
:10018000520B0C942A130C94510B0C949D020C945A
:1001900046130C94790B0C94C90C0C94550B0C94CD
:1001A000540B0C9419130C943B0B0C944A130C94A1
:1001B000770C0C94940C0C9442040C944E130C94F5
:1001C000250D0C9432160C9490030C94DB170C94B0
:1001D00089020C9435160C9415130C948B0C0C940A
:1001E000350D0C94B7020C9432130C94470B0C94FD
:1001F00078020C94F1070C94790F0C940F130C9463
:1002000053130C94560B0C9424130C9420130C943D
:100210003C130C94650B0C94F3010C9440130C9458
:1002200079120C94F5010C94870B0C941C130C940C
:10023000F60C0C94F1010C9438130C94EF010C940F
:100240002F030C9480020C940F030C942E130000C7
:1002500020002300260029002C002F00320000017E
:100260000000030106010901050505050705080849
:100270000808020202020A0A080804040404010130
:100280000101010101010303030303030303040745
:1002900007070C0C0C0C0C0C0C0C020202020606DC
:1002A0000606060606060B0B0B0B0B0B0B0B0102CF
:1002B0001020200808102040102040800201020178
:1002C0000804020101020408102040808040201030
:1002D0000804020180040201804020100804020189
:1002E00008040201010204081020408001020408F1
:1002F0001020408000000A0B02090C0D0E080703B5
:1003000004010000000000000000000000000000E8
:1003100000000000000000000000000000000000DD
:10032000121110000000000000000000000000009A
:100330000000000000000000000002000021002476
:100340000027002A002D00300033000101000004C6
:100350000107010A0100002200250028002B002EC1
:10036000003100340002010000050108010B01000A
:10037000DB17D71711241FBECFEFD1E2DEBFCDBFF1
:1003800000E00CBF25E0A2EBB2E001C01D92A73255
:10039000B207E1F712E0A0E0B2E0E2E3FBE300E045
:1003A0000BBF02C007900D92A23BB107D9F711E035
:1003B000C9EBD1E000E006C021970109802FFE01C2
:1003C0000E94231CC83BD10780E00807A9F70E94C0
:1003D00038160C94871D0C9400000C94F91C0C9496
:1003E000F91C0C94F91C0C94F91C0C94F91CAF9298
:1003F000BF92CF92DF92EF92FF920F931F93CF9312
:10040000DF932091CD023091CE022230310509F0E8
:100410007CC1DC015C962C91222309F476C1EC01AD
:100420000E943D150F8D18A129A13AA1DC01CB0135
:10043000801B910BA20BB30B893E9340A105B10524
:1004400008F040C114C021503109398F288F888DA0
:10045000998D892B31F483E090E09093CE028093C4
:10046000CD020E943D156F8F78A389A39AA3CA8CF1
:10047000DB8C8601000F111F0C0F1D1F8EEF9FEFED
:100480005C01AC1ABD0A1C141D040CF03EC1E12C29
:10049000F12CEE85FF85EE0DFF1D60E080810E944E
:1004A0005413F2E0EF0EF11C20E1E216F10489F79B
:1004B0007501E00EF11EEC85FD85EE0DFF1D60E07F
:1004C00080810E94541381E0C81AD108D8011E9679
:1004D000ED91FC911F97EA30F10508F0E1C0AE857F
:1004E000BF8561E08827EE58FF4F8F4F0C94231C87
:1004F0008C910E945413EE85FF8561E082859CC03B
:1005000012968C910E945413EE85FF8561E08481E0
:10051000C5C08C910E945413EE85FF8561E08281F5
:100520000E945413EE85FF8561E086810E9454137A
:10053000EE85FF8561E0808513C08C910E94541385
:10054000EE85FF8561E082810E945413EE85FF8570
:1005500061E084810E945413EE85FF8561E086810D
:100560000E945413EE85FF8561E0848597C0129642
:100570008C910E945413EE85FF8561E084810E9476
:100580005413EE85FF8561E08285EACF8C910E944D
:100590005413EE85FF8561E082850E945413EE8539
:1005A000FF8561E084850E945413EE85FF8561E03C
:1005B00084810E945413EE85FF8561E086816EC0C0
:1005C0008C910E945413EE85FF8561E082850E9424
:1005D0005413EE85FF8561E084850E945413EE85F7
:1005E000FF8561E084810E945413EE85FF8561E000
:1005F00086810E945413EE85FF8561E080854EC0A0
:1006000012968C910E945413EE85FF8561E08481DF
:100610000E945413EE85FF8561E080813FC08C917C
:100620000E945413EE85FF8561E082850E94541379
:10063000EE85FF8561E084850E945413EE85FF8579
:1006400061E084810E945413EE85FF8561E086811C
:100650000E945413EE85FF8561E0808519C08C915E
:100660000E945413EE85FF8561E082850E94541339
:10067000EE85FF8561E084850E945413EE85FF8539
:1006800061E084810E945413EE85FF8561E08681DC
:100690000E945413EE85FF8561E082810E9454130D
:1006A00061E070E080E090E00E9403158C859D85FC
:1006B000FC01EE0DFF1D61E080810E945413025089
:1006C0001109E1CE288D398D2031B7E23B0708F0C2
:1006D000BECE1B8E1A8EC9010AE010E0009709F405
:1006E000B2CEEA8CFB8CF7013896EE0FFF1FEC0FB1
:1006F000FD1FB8010E94F01B91838083CB01A701ED
:100700004F5F5F4F5B8F4A8FE9CFDF91CF911F9192
:100710000F91FF90EF90DF90CF90BF90AF90089532
:100720006F927F928F929F92AF92CF92EF92FF92B1
:100730000F931F93CF93DF9300D01F92CDB7DEB7F7
:100740004C013C014AE0640E711CC3010E94370D4C
:10075000882309F486C0C3010E94250D882309F46B
:1007600080C080E589831A829E012D5F3F4F42E061
:10077000BE016F5F7F4FC3010E942D0F81110FC01B
:10078000A12CC12CE12CF12C00E010E020E030E0A5
:1007900044E0BE016F5F7F4FC3010E94B513F401B7
:1007A0003D96D4011C968C9190E08150904E23E0B0
:1007B000880F991F2A95E1F700E010E09801883F23
:1007C000BFEF9B0791F0419150E060E070E0082E90
:1007D00004C0440F551F661F771F0A94D2F7042BDD
:1007E000152B262B372B0897EACF093D1A4D2944A4
:1007F0003D4C71F52091CD023091CE02A9014250BD
:10080000510991E04230510508F090E081E0211556
:10081000310509F080E0892BD4015C969C915C97AE
:10082000981770F45A968D919C915B97DC01ED912D
:10083000FC910190F081E02D199581E090E00DC0D0
:100840002130310571F41092CE021092CD0209C010
:1008500081E0F401848F83E090E09093CE02809356
:10086000CD020F900F900F900F90DF91CF911F91BD
:100870000F91FF90EF90CF90AF909F908F907F90CF
:100880006F9008952F923F924F925F926F927F9256
:100890008F929F92AF92BF92CF92DF92EF92FF9290
:1008A0000F931F93CF93DF93CDB7DEB760970FB64B
:1008B000F894DEBF0FBECDBF2091CD023091CE02A5
:1008C000232B09F075C31C0121E02093F60438E6C0
:1008D000309318051092F70410921905DC011A964E
:1008E0008D919C911B97DC01ED91FC910190F08121
:1008F000E02D6BE319950E94A31241E066E088E6C3
:100900000E9412121092CC028093CB02F1018285D8
:100910009385DC01ED91FC910284F385E02D19951E
:10092000182FF10182859385DC01ED91FC91028401
:10093000F385E02D199520E030E0312F822B932BA9
:10094000F10195A384A382859385DC01ED91FC914F
:100950000284F385E02D1995182FF1018285938586
:10096000DC01ED91FC910284F385E02D199520E0E6
:1009700030E0312F822B932BF10197A386A3828540
:100980009385DC01ED91FC910284F385E02D1995AE
:10099000182FF10182859385DC01ED91FC91028491
:1009A000F385E02D199520E030E0312F822B932B39
:1009B000F10191A780A7F1E0F093F60428E62093D7
:1009C00018051092F70410921905D1011A968D910D
:1009D0009C911B97DC01ED91FC910190F081E02D41
:1009E00063E419950E94A31241E066E088E60E9444
:1009F00012121092CC028093CB02F1018285938572
:100A0000DC01ED91FC910284F385E02D1995898339
:100A1000F10182859385DC01ED91FC910284F385DF
:100A2000E02D199520E030E03981822B932BF101E4
:100A300093A782A782859385DC01ED91FC910284C6
:100A4000F385E02D19958983F10182859385DC0179
:100A5000ED91FC910284F385E02D199520E030E0C2
:100A60003981822B932BF10195A784A782859385E9
:100A7000DC01ED91FC910284F385E02D1995182F8E
:100A8000F10182859385DC01ED91FC910284F3856F
:100A9000E02D19951A831982E981FA81E82BF92B47
:100AA000FA87E987D1019F96FC93EE939E979496DF
:100AB0006D917C919597072E000C880B990B0E94E5
:100AC0004A19F101208D318D428D538D0E94671A94
:100AD00020E030E040E858E30E94A9194B015C0196
:100AE000D101D0966D937D938D939C93D3979696D9
:100AF0006D917C919797072E000C880B990B0E94A3
:100B00004A19F101248D358D468D578D0E94671A43
:100B100020E030E040E858E30E94A9196B017C0115
:100B2000D101D4966D937D938D939C93D79798968E
:100B30000D911C91999790964D905D906D907C9041
:100B40009397B801012E000C880B990B0E944A194B
:100B5000A30192010E94671A20E030E040E858E3C8
:100B60000E94A919F10160AF71AF82AF93AF62A586
:100B700073A5072E000C880B990B0E944A19D1010E
:100B80001C962D913D914D915C911F970E94671A83
:100B90002FE632E143E852E40E94461BF10164AFC4
:100BA00075AF86AF97AF9101205C3F4F3A832983A1
:100BB00064A575A5072E000C880B990B0E944A1995
:100BC000D10150962D913D914D915C9153970E948A
:100BD000671A2FE632E143E852E40E94461BE9819E
:100BE000FA81608371838283938391012C5B3F4FF1
:100BF0003E832D83A985BA85BD01BB0F880B990B58
:100C00000E944A19F10124893589468957890E9431
:100C1000671A2FE632E143E852E40E94461BAD8199
:100C2000BE816D937D938D939C93139760E070E4E8
:100C3000601B710B072E000C880B990B0E944A1940
:100C4000A30192010E94671A20E030E040E858E3D7
:100C50000E94A9192B013C0177FA709477F87094DF
:100C6000F7FAF094F7F8F094A3019201C701B601E6
:100C70000E94E71A8101045A1F4F21EE3EE245E629
:100C800052E40E94A919F8016083718382839383DF
:100C9000B7FAB094B7F8B094A3019201C501B401BA
:100CA0000E94E71A9101205A3F4F3A87298721EE87
:100CB0003EE245E652E40E94A919A985BA856D93E2
:100CC0007D938D939C931397A5019401C701B60161
:100CD0000E94E71AF101EC59FF4FFC87EB8721EEE8
:100CE0003EE245E652E40E94A919AB85BC856D93AE
:100CF0007D938D939C9313970E943D15F101E85BC2
:100D0000FF4FFE87ED87C080D180E280F3806C19B1
:100D10007D098E099F090E9448192FE632E143E8B8
:100D20005AE30E94A9196B017C01F101E45BFF4FBA
:100D30006083718382839383D101DC962D913D91F1
:100D40004D915C91DF970E94A9194B015C01F10163
:100D5000E05BFF4FF88BEF879B01AC0160817181F5
:100D6000828193810E94681AAF85B8896D937D93C3
:100D70008D939C931397E981FA812081318142817F
:100D80005381C701B6010E94A91969837A838B83B5
:100D90009C8391012C5A3F4F388B2F879B01AC01CC
:100DA000AF85B8896D917D918D919C910E94681A53
:100DB000EF85F8896083718382839383AD81BE81DF
:100DC0002D913D914D915C91C701B6010E94A919E9
:100DD0006D837E838F839887F101E85AFF4FF88BEC
:100DE000EF879B01AC0160817181828193810E94B8
:100DF000681AAF85B8896D937D938D939C931397F3
:100E0000F101E859FF4F4080518062807380349631
:100E1000C080D180E280F3803496F88BEF87208108
:100E2000318142815381C501B4010E94681AA70132
:100E300096010E94A9194B015C01D8012D913D91A9
:100E40004D915C91C301B2010E94A9199B01AC01B3
:100E5000C501B4010E94681AEF85F8896083718327
:100E60008283938391012C583F4F388B2F87D90170
:100E70002D913D914D915C9169817A818B819C810D
:100E80000E94681AA70196010E94A9194B015C01F2
:100E9000E985FA852081318142815381C301B20104
:100EA0000E94A9199B01AC01C501B4010E94681AF6
:100EB000AF85B8896D937D938D939C931397F101C2
:100EC000E858FF4FFA83E9832081318142815381C1
:100ED0006D817E818F8198850E94681AA701960195
:100EE0000E94A9196B017C01AB85BC852D913D91B8
:100EF0004D915C91C301B2010E94A9199B01AC0103
:100F0000C701B6010E94681AE981FA816083718382
:100F1000828393830E943D15AD85BE856D937D933D
:100F20008D939C931397F10180A891A8A2A8B3A8D0
:100F3000C4A8D5A8E6A8F7A8F1E0F9832DEC3CEC0D
:100F40004CE45DE3C501B4010E94DF1B18160CF0F0
:100F500019822DEC3CEC4CE45DEBC501B4010E9420
:100F60004319881F8827881F2981282B2D8331E06A
:100F700039832DEC3CEC4CE45DE3C701B6010E94E3
:100F8000DF1B18160CF0198289819D81892B51F481
:100F90002DEC3CEC4CE45DEBC701B6010E9443191B
:100FA00087FF06C082E090E09093CE028093CD024E
:100FB00060960FB6F894DEBF0FBECDBFDF91CF9124
:100FC0001F910F91FF90EF90DF90CF90BF90AF9067
:100FD0009F908F907F906F905F904F903F902F9059
:100FE00008958F929F92AF92BF92CF92DF92EF922D
:100FF000FF921F93CF93DF93FC018485843008F028
:101000001486848591E0980F9487DF01A80FB11DA5
:10101000A80FB11D1D96CD91DC911E9782859385F9
:1010200020911802281721F02F3F09F0D2C204C0E6
:10103000EAE3F3E01491EAC080931802EAE3F3E0F4
:1010400014911F3F09F4C5C2123009F472C048F56B
:10105000112309F451C0113009F0D8C0109280005A
:1010600010928100209181002860209381002091BE
:1010700081002160209381009C013327F901E85908
:10108000FD4FE491F0E0EE0FFF1FEB5AFC4F45914E
:101090005491F901E255FD4FE491E093B50211E05E
:1010A00059C1143009F48FC008F46AC0153009F032
:1010B000ADC01092200110922101209121012860E1
:1010C00020932101209121012160209321019C0185
:1010D0003327F901E859FD4FE491F0E0EE0FFF1FCF
:1010E000EB5AFC4F45915491F901E255FD4FE491C3
:1010F000E093B20215E02EC114BC15BC24B52260E9
:1011000024BD25B5216025BD9C013327F901E8598F
:10111000FD4FE491F0E0EE0FFF1FEB5AFC4F4591BD
:101120005491F901E255FD4FE491E093B60210E0CD
:101130004CC21092B0001092B1002091B000226019
:101140002093B0002091B10021602093B1009C0158
:101150003327F901E859FD4FE491F0E0EE0FFF1F4E
:10116000EB5AFC4F459154915093F0044093EF0497
:10117000F901E255FD4FE491E093F10412E025C23C
:10118000109290001092910020919100286020937D
:101190009100209191002160209391009C013327C0
:1011A000F901E859FD4FE491F0E0EE0FFF1FEB5A13
:1011B000FC4F45915491F901E255FD4FE491E093C4
:1011C000B40213E0C7C01092A0001092A1002091B9
:1011D000A10028602093A1002091A100216020930C
:1011E000A1009C013327F901E859FD4FE491F0E09B
:1011F000EE0FFF1FEB5AFC4F45915491F901E25558
:10120000FD4FE491E093B30214E0A4C017FDE1C1E7
:1012100061E00E94C714812F8D7F09F09EC06E018E
:10122000E12CF12C60E072E18AE790E0A7019601E1
:101230000E94041C49015A01BA01A90141505109F7
:10124000610971094F3F51056105710509F008F405
:1012500045C060E472E48FE090E0A70196010E942F
:10126000041CBA01A90141505109610971091230E8
:10127000E9F44F3F51056105710509F008F445C1D6
:1012800060E970ED83E090E0A70196010E94041CE4
:10129000BA01A90141505109610971094F3F510536
:1012A0006105710509F020F583E04DC04F3F510500
:1012B00061057105A9F0A0F068E478EE81E090E0A6
:1012C000A70196010E94041CBA01A90141505109CD
:1012D00061097109112309F449C140C181E001C0CC
:1012E00082E0111130C095B5987F892B85BD92C0E1
:1012F00068E478EE81E090E0A70196010E94041C6A
:10130000BA01A90141505109610971094F3F5105C5
:101310006105710509F008F4F6C064E274EF80E03D
:1013200090E0A70196010E94041CBA01A901415056
:101330005109610971094F3F51056105710511F0AE
:1013400008F0E5C085E09091B100987F892B8093EB
:10135000B1004FC061E00E94C7146E01E12CF12C76
:1013600060E072E18AE790E0A70196010E94041C08
:10137000BA01A9014150510961097109411551058D
:1013800081E06807710580F068E478EE81E090E024
:10139000A70196010E94041CBA01A90141505109FC
:1013A0006109710983E001C081E0113039F4909145
:1013B0008100987F892B809381003EC0133039F4DF
:1013C00090919100987F892B809391005DC014309B
:1013D00039F49091A100987F892B8093A10069C076
:1013E000153039F490912101987F892B8093210148
:1013F00075C01230B1F134F4112361F0113009F0ED
:10140000E8C01AC0143009F454C0F4F1153009F4DE
:1014100065C0DFC047BD8FEF9FEFDC018093C7023F
:101420009093C802A093C902B093CA0280916E0043
:10143000826080936E00CDC05093890040938800F5
:101440008FEF9FEFDC018093C3029093C402A093BF
:10145000C502B093C60280916F00826080936F00D6
:10146000B8C04093B3008FEF9FEFDC018093F2048C
:101470009093F304A093F404B093F504809170006A
:10148000826080937000A5C05093990040939800AB
:101490008FEF9FEFDC018093BF029093C002A09377
:1014A000C102B093C202809171008260809371008A
:1014B00090C05093A9004093A8008FEF9FEFDC01EC
:1014C0008093BB029093BC02A093BD02B093BE0276
:1014D000809172008260809372007BC050932901DA
:1014E000409328018FEF9FEFDC018093B702909328
:1014F000B802A093B902B093BA02809173008260DF
:101500008093730066C084E01ECF82E01CCF62E14E
:101510007AE780E090E0A70196010E94041CBA01DE
:10152000A90141505109610971094F3F51056105F8
:10153000710591F088F0D501C4012AE0B595A79511
:10154000979587952A95D1F7AC01BD014150510976
:101550006109710987E0F7CE86E0F5CE4F3F51056E
:101560006105710509F098F684E0BBCE4F3F510547
:101570006105710541F138F162E17AE780E090E0C0
:10158000A70196010E94041CBA01A901415051090A
:10159000610971094F3F51056105710591F088F0AE
:1015A000D501C4013AE0B595A795979587953A95E9
:1015B000D1F7AC01BD01415051096109710985E0C4
:1015C00092CE84E090CE83E08ECE61E00E94C7147C
:1015D00026CEDF91CF911F91FF90EF90DF90CF90BB
:1015E000BF90AF909F908F90089508958EBD00009A
:1015F0000DB407FEFDCF8EB508958CBD9DBD089539
:101600001F93CF93DF93EC01162F83E590E00E94A8
:10161000FD0A60E08E850E945413812F80680E942D
:10162000F60A80E00E94F60A182F61E08E850E947B
:101630005413812FDF91CF911F9108950F931F9322
:10164000CF93DF93EC01062F142F83E590E00E94E7
:10165000FD0A60E08E850E945413802F0E94F60AD6
:10166000812F0E94F60A61E08E85DF91CF911F9154
:101670000F910C9454132FE432E0FC01318320834A
:1016800082819381009711F00C94F91C0895CF93F7
:10169000DF93EC010E943B0BCE01DF91CF910C94C4
:1016A000F91C08950895089508950895FC01538D37
:1016B000448D252F30E0842F90E0821B930B54172C
:1016C00010F0CF96089501970895FC01918D828DB9
:1016D000981761F0828DDF01A80FB11D5D968C9186
:1016E000928D9F5F9F73928F90E008958FEF9FEF91
:1016F0000895FC01918D828D981731F0828DE80F4D
:10170000F11D858D90E008958FEF9FEF0895FC0106
:10171000918D228D892F90E0805C9F4F821B9109D3
:101720008F73992708958AE593E00E94870B21E043
:10173000892B09F420E0822F0895FC01848DDF01BC
:10174000A80FB11DA35ABF4F2C91848D90E0019634
:101750008F739927848FA689B7892C93A089B18923
:101760008C91837080648C93938D848D981306C0C4
:101770000288F389E02D80818F7D80830895EF9228
:10178000FF920F931F93CF93DF93EC0181E0888F3B
:101790009B8D8C8D981305C0E889F989808185FD22
:1017A00026C0F62E0B8D10E00F5F1F4F0F73112711
:1017B000E02E8C8DE8120CC00FB607FCFACFE8893A
:1017C000F989808185FFF5CFCE010E949D0BF1CF75
:1017D0008B8DFE01E80FF11DE35AFF4FF0829FB79A
:1017E000F8940B8FEA89FB89808180620AC09FB7D9
:1017F000F894EE89FF896083E889F9898081837094
:10180000806480839FBF81E090E0DF91CF911F9142
:101810000F91FF90EF900895CF93DF93EC01888DA7
:101820008823C9F0EA89FB89808185FD05C0A889E4
:10183000B9898C9186FD0FC00FB607FCF5CF80816A
:1018400085FFF2CFA889B9898C9185FFEDCFCE01B4
:101850000E949D0BE7CFDF91CF91089580E090E04B
:10186000892B21F00E94930B811125C080E090E02C
:10187000892B41F080E090E0892B21F00E9400004C
:1018800081111CC080E090E0892B41F080E090E065
:10189000892B21F00E940000811113C080E090E0AC
:1018A000892BA1F080E090E0892B81F00E9400005C
:1018B00081110AC008950E940000D8CF0E94000044
:1018C000E1CF0E940000EACF0C9400000895089533
:1018D000E091CC028091CB02E81730F4F0E0ED5EAD
:1018E000FC4F808190E008958FEF9FEF08959091D5
:1018F000CC028091CB02981750F4E92FF0E0ED5E16
:10190000FC4F208130E09F5F9093CC0202C02FEF0C
:101910003FEFC90108958091CB0290E02091CC0265
:10192000821B91090895089580E090E0089585ED67
:101930008093BC008091BC0084FDFCCF10925903C1
:1019400008954091EF02262F30E0240F311D2132FF
:101950003105DCF4209159032430C9F4FC0180E006
:1019600090E0861758F43091EF022191DC01A153E9
:10197000BD4FA30FB11D2C930196F3CF8091EF02C1
:10198000680F6093EF0280E0089581E0089582E09F
:101990000895CF92DF92EF92FF920F931F93CF9310
:1019A000DF937C01CB018A012091F604222389F088
:1019B000EB016B01C40ED51ECC15DD0569F06991F4
:1019C000D701ED91FC910190F081E02DC7011995AF
:1019D000F3CF642F0E94A10CC801DF91CF911F911A
:1019E0000F91FF90EF90DF90CF900895CF93DF930A
:1019F0001F92CDB7DEB769832091F6042223D1F080
:101A000020911905203240F021E030E0FC013383C1
:101A1000228380E090E015C08091F704E82FF0E089
:101A2000E850FB4F998190838F5F8093F7048093F8
:101A3000190505C061E0CE0101960E94A10C81E06C
:101A400090E00F90DF91CF910895BC016E5F7F4FC2
:101A5000DC01ED91FC910190F081E02D40E01995C1
:101A600091E0811190E0892F08950E94821D8F924C
:101A70009F92AF92CF92EF92FF920F931F93CF93CB
:101A8000DF9300D01F921F92CDB7DEB74C0182E0EA
:101A90008D8340E064E2C4010E941E0B40E066E2D8
:101AA000C4010E941E0B46E268E4C4010E941E0BA2
:101AB00086E28B838D81823040F16CE1C4010E940B
:101AC000000B482F4F776CE1C4010E941E0B87E08A
:101AD0008C83A12CC12CCE0104967C018E010B5F5E
:101AE0001F4F9E012F5F3F4F41E0BE016D5F7F4F53
:101AF000C4010E94B51381110BC08D81823039F46D
:101B000081E09C81911104C008C084E001C081E0A3
:101B100091E0823019F090E001C091E0892F0F90A0
:101B20000F900F900F900F90DF91CF911F910F9119
:101B3000FF90EF90CF90AF909F908F9008951F925D
:101B40000F920FB60F9211240BB60F922F933F9363
:101B50004F935F936F937F938F939F93AF93BF93B5
:101B6000EF93FF938AE593E00E949D0BFF91EF9125
:101B7000BF91AF919F918F917F916F915F914F91A5
:101B80003F912F910F900BBE0F900FBE0F901F90A3
:101B900018951F920F920FB60F9211240BB60F9249
:101BA0002F938F939F93EF93FF93E0916A03F091AC
:101BB0006B038081E0917003F091710382FD12C08C
:101BC0009081809173038F5F8F73209174038217CC
:101BD00051F0E0917303F0E0E65AFC4F958F80934B
:101BE000730301C08081FF91EF919F918F912F919D
:101BF0000F900BBE0F900FBE0F901F9018951F9265
:101C00000F920FB60F9211240BB60F922F933F93A2
:101C10004F935F936F937F938F939F93AF93BF93F4
:101C2000EF93FF938091B900887F803609F49CC0C0
:101C300068F5883209F45BC090F4803109F454C02F
:101C400038F4882309F4F2C0883009F44DC0F2C09A
:101C5000883109F44CC0803209F45DC0EBC0803497
:101C600009F468C048F4803309F455C0883309F09A
:101C7000E1C080935703D4C0803509F44FC0883544
:101C800009F45DC0883409F0D5C0D2C0883909F4A0
:101C9000C3C0A8F4883709F467C038F4883609F45B
:101CA00063C0803709F460C0C5C0883809F4B4C087
:101CB000803909F45FC0803809F0BCC05BC0803B4C
:101CC00009F484C038F4803A09F466C0883A09F40B
:101CD0007DC0B0C0803C09F4A3C0883C09F4A0C01A
:101CE000883B09F486C0A6C08091540310C090912F
:101CF000560380915503981770F5E091560381E0E3
:101D00008E0F80935603F0E0ED5CFC4F8081809352
:101D1000BB0085EC82C0809357038AC0E0915603D4
:101D200081E08E0F809356038091BB00F0E0ED5C64
:101D3000FC4F808390915603809155036AC0E091D7
:101D4000560381E08E0F809356038091BB00F0E034
:101D5000ED5CFC4F808380915803811169C081E064
:101D60008093530384EA5DC083E08093590310920B
:101D70001103CFCF80911103803208F04DC0E09164
:101D8000110381E08E0F809311038091BB00F0E07E
:101D9000EF50FD4F8083BDCF85EC8093BC00109247
:101DA000590380911103803230F4E0911103F0E087
:101DB000EF50FD4F10826091110370E081EF92E0CF
:101DC000E0E0F0E019951092110334C084E08093B4
:101DD00059031092F0021092EF02E0E0F0E0199542
:101DE0008091EF02811105C081E08093EF02109293
:101DF000CF02E091F00281E08E0F8093F002F0E0DC
:101E0000E153FD4F80818093BB009091F00280915F
:101E1000EF02981708F47DCF85E88093BC000AC0D4
:101E200085EC8093BC001092590304C010925703B4
:101E30000E94970CFF91EF91BF91AF919F918F916D
:101E40007F916F915F914F913F912F910F900BBEBA
:101E50000F900FBE0F901F901895CF92DF92EF92C8
:101E6000FF920F931F93CF93DF93EC016B01142F1D
:101E7000790140E062E00E941E0B44E06AE0CE017E
:101E80000E941E0B40E864E1CE010E941E0BA601D9
:101E9000612FCE010E94831343E062E0CE010E94D5
:101EA0001E0B08E813E16AE0CE010E94000B82FFDE
:101EB00013C040E062E0CE010E941E0B64E4CE013C
:101EC0000E94000BF701808362E4CE010E94000BA8
:101ED000F701818380E004C00150110921F783E0FC
:101EE000DF91CF911F910F91FF90EF90DF90CF90F6
:101EF00008952F923F924F925F926F927F928F92AE
:101F00009F92AF92BF92CF92DF92EF92FF920F9388
:101F10001F93CF93DF93CDB7DEB72C970FB6F8940E
:101F2000DEBF0FBECDBF413508F00BC1342E3B01E3
:101F30004C016CE10E94000B482F4F776CE1C4010B
:101F40000E941E0B2224239432E0231691F083E09A
:101F50002816E1F091E02912F6C083E98983332045
:101F6000D1F081E0F3019081953008F480E0B12C4C
:101F700017C0F5E9F983332081F081E0F301908106
:101F8000983008F480E043E0B42E0AC087E98983E2
:101F900036E0B32E04C0B12C02C023E0B22E80E0A4
:101FA000D32CF8E0BF9ED0181124D7FCD12C882365
:101FB00021F098E89B8333E001C032E021E09D2DC1
:101FC000977009F420E09D2D959595959595290F8D
:101FD00031F4882309F492C038E0D30E8FC0811108
:101FE00002C094E001C093E0291708F4922FEB2D72
:101FF000F0E03196E60DF71D232F4191A1E0B0E00E
:10200000AC0FBD1FA20FB11D4C932F5F422F431B7E
:10201000491798F3DECF8111DEC09FE19D150CF4C6
:1020200094C080E2D82E90E79A839B818C81892787
:102030009D8189279E8189278F839E01285F3F4F3D
:1020400047E0BE016F5F7F4FC4010E942D0F8111D9
:10205000A3C01A86E3E0EB87CE0107962C0199E036
:102060009C87CA844C2D4295407F4C0D6AE1C40187
:102070000E941E0BA12CCE010A967C018E01055FE9
:102080001F4F92014C85BE016F5F7F4FC4010E94BC
:10209000B513182F823009F0BECF6CE1C4010E9445
:1020A000000B85FD98C08F7109F480E2282F30E085
:1020B0004D2DDD0C550B421753070CF044C0D82EA4
:1020C00085958595859591E0980F422F477081E021
:1020D00009F480E0890FE1E0F0E0EC0FFD1FE80F6C
:1020E000F11D215031092770332781E090E001C0B4
:1020F000880F2A95EAF79081892B80838FE18D15CF
:102100000CF491CF9D2D97709A878D2D859585958F
:1021100085958E5F292FE0E18E9F200D11242A8363
:1021200021E0911101C020E0280F2C874424439422
:10213000512C4C0E5D1E480E511CF9E0F81BFB871C
:1021400090CF16E048C015E046C08B81883809F46E
:102150003FC082E094E0EB2DF0E03196E60DF71DF4
:10216000980FA1E0B0E0AC0FBD1FA80FB11D2C91DE
:1021700021938F5F8913F5CF8B85833029F58A856D
:10218000811122C09E012D5F3F4F41E0B201C40189
:102190000E942D0F882311F0182F1DC09B81F20182
:1021A0008181981313C09C81828198130FC0808114
:1021B00082FF02C02394C8CEF3018387822D880F4B
:1021C000820D8F5F808307C011E005C017E003C058
:1021D00083E093E0C0CF812F2C960FB6F894DEBF3A
:1021E0000FBECDBFDF91CF911F910F91FF90EF9068
:1021F000DF90CF90BF90AF909F908F907F906F9027
:102200005F904F903F902F9008951F93CF93DF934F
:10221000182F60E085E20E94541360E083E20E9480
:102220005413C8E0D0E060E085E20E945413612FAF
:10223000607881E20E945413110F61E085E20E94F0
:102240005413219781F761E083E2DF91CF911F91D1
:102250000C945413CF93DF9361E0809134040E9477
:10226000C71461E0809134040E94541380913504B6
:102270008F3F41F44FE062E086E294E00E941E0B43
:10228000C3E025C060E00E94C7142091350430E00F
:10229000F901EC50FD4F8491F901E255FD4FD491C5
:1022A000F901E859FD4FC491CC23F9F081110E9446
:1022B000FE12EC2FF0E0EE0FFF1FE25BFD4FA59149
:1022C000B491EC91ED2389F0D5CFC15039F162E39F
:1022D00070E080E090E00E94031562E086E294E006
:1022E0000E94000B84FF1AC0F0CF61E0809135049A
:1022F0000E94C71460E0809135040E94541383E06B
:1023000090E00197F1F761E0809135040E94541349
:1023100062E370E080E090E00E94031540E064E238
:1023200086E294E00E941E0B40E066E286E294E0C2
:102330000E941E0B46E268E486E294E00E941E0BB7
:1023400040E864E586E294E00E941E0B49EA66E5F7
:1023500086E294E00E941E0B43E068E586E294E08A
:102360000E941E0B48EE6AE586E294E00E941E0B76
:1023700040E46AE286E294E00E941E0B4DE362E2D2
:1023800086E294E00E941E0B68E286E294E00E94DE
:10239000000B982F9370933049F0482F436068E208
:1023A00086E294E0DF91CF910C941E0BDF91CF91E8
:1023B00008952091E1043091E204E091DF04F0916E
:1023C000E0042E173F07F4F4DC0112964D935D9361
:1023D0006D937C931597E091DC04F091DD04A901E5
:1023E0004F5F5F4F5093E2044093E104220F331F8D
:1023F000E20FF31F91838083ED91FC910480F581BE
:10240000E02D19944EE050E06FE972E08AE593E028
:102410000E94791242E050E06EEA72E08AE593E0B1
:102420000C947912909159039111FCCF91E0909303
:102430005903409358032FEF2093570310925603EC
:10244000260F209355039093540390915403880FC3
:10245000892B8093540380915303813061F410924F
:102460005303809154038093BB008091BC0083FD93
:10247000F8CF85EC01C085EE8093BC0080915903B4
:102480008130E1F380915603861710F46091560372
:10249000A3E3B3E0E3E1F3E080E0861721F09D9150
:1024A00091938F5FFACF08953FB7F89480911F05FD
:1024B00090912005A0912105B091220526B5A89BF9
:1024C00005C02F3F19F00196A11DB11D3FBFBA2FC6
:1024D000A92F982F8827820F911DA11DB11DBC0126
:1024E000CD0142E0660F771F881F991F4A95D1F7EB
:1024F0000895CF92DF92EF92FF920F931F93CF93A5
:10250000DF936C017A018B01C0E0D0E0CE15DF05CE
:1025100081F0D8016D918D01D601ED91FC91019072
:10252000F081E02DC6011995892B11F02196EECF8F
:102530007E01C701DF91CF911F910F91FF90EF9026
:10254000DF90CF90089530911905313208F04AC0DC
:10255000809159038111FCCF9091180522E02093BE
:102560005903109258032FEF2093570310925603EC
:1025700030935503E8EFF4E0A3E3B3E020E0321733
:1025800021F041914D932F5FFACF10925403209187
:102590005403990F922B90935403909153039130CD
:1025A00061F410925303909154039093BB00909167
:1025B000BC0093FDF8CF95EC01C095EE9093BC0064
:1025C000909159039230E1F3909157039F3F79F036
:1025D00080915703803241F080915703803331F06E
:1025E00084E005C081E003C082E001C083E0109276
:1025F000F704109219051092F604089590E0FC017A
:102600003197E231F10508F04EC08827E458FF4FBA
:102610008F4F0C94231C809180008F7703C0809192
:1026200080008F7D80938000089580918000877F57
:10263000F9CF84B58F7702C084B58F7D84BD0895AE
:102640008091B0008F7703C08091B0008F7D809320
:10265000B0000895809190008F7707C0809190001E
:102660008F7D03C080919000877F809390000895B4
:102670008091A0008F7707C08091A0008F7D03C05C
:102680008091A000877F8093A00008958091200111
:102690008F7707C0809120018F7D03C0809120013A
:1026A000877F8093200108951F93CF93DF93282F76
:1026B00030E0F901EC50FD4F8491F901E255FD4FF6
:1026C000D491F901E859FD4FC491CC23C1F0162FE4
:1026D00081110E94FE12EC2FF0E0EE0FFF1FEB5A6B
:1026E000FC4FA591B4919FB7F894111104C08C913F
:1026F000D095D82302C0EC91DE2BDC939FBFDF91F5
:10270000CF911F910895DF92EF92FF920F931F9345
:10271000CF93DF938C01F62ED42EE52E83E590E047
:102720000E94FD0A60E0F80186850E94541382E150
:102730000E94F60ACD2DDE2DCE018F0D911D7C015C
:10274000EC16FD0621F089910E94F60AF9CF61E0AE
:10275000F80186850E945413DF91CF911F910F914C
:10276000FF90EF90DF900C94F50A4F925F926F927A
:102770007F928F929F92AF92BF92CF92DF92EF9211
:10278000FF920F931F93CF93DF931F921F92CDB7AA
:10279000DEB74C012B01D42E3901E114F10419F0FC
:1027A000F701408101C040E0B42EF0E1CF9EB00CB3
:1027B000112440E062E0C4010E941E0B4FE768E074
:1027C000C4010E941E0B40E864E1C4010E941E0B7C
:1027D000A2016D2DC4010E9483134B2D6AE1C40137
:1027E0000E941E0B4CE062E0C4010E941E0B6AE1D5
:1027F000C4010E94000B482F40686AE1C4010E9496
:102800001E0B80ED482E87E0582E68E0C4010E9420
:10281000000B982F907341F480FD04C081E0481AAA
:10282000510899F783E0A0C06CE0C4010E94000B3E
:10283000D82E837109F095C06114710409F45AC04F
:102840000115110509F456C064E1C4010E94000B92
:10285000B82EF80180818B1508F47DC0B082BB20B2
:10286000F1F183E590E00E94FD0A60E0F4018685C5
:102870000E945413BA9482E90E94F60ACC20A9F06F
:102880008FEF90E02C0101C0440CCA94EAF782E972
:102890000E94F60A242D2095F30190819223842131
:1028A000892B8083CC24C39401C0C12C4C2C512C87
:1028B000460C571CCB1438F482E90E94F60AF20148
:1028C0008083C394F3CF80E00E94F60AF2018083F4
:1028D00061E0F40186850E9454130E94F50A68E1C4
:1028E000C4010E94000B8770E114F10421F0F7018C
:1028F000808301C080E0D3FC30C06114710479F1A1
:102900000115110561F1AA2051F1F8014081413012
:1029100021F4843041F58FEF27C0423020F181113E
:1029200022C042509E012F5F3F4FB301C4010E945D
:102930002D0F811119C0F8018081680E711CF301FF
:1029400032979081898198130EC0319690818A8147
:10295000981309C004C084E007C082E005C080E08D
:1029600003C081E001C087E00F900F90DF91CF910D
:102970001F910F91FF90EF90DF90CF90BF90AF909D
:102980009F908F907F906F905F904F900895CF931E
:10299000DF9390E0FC01E255FD4F2491FC01E859E2
:1029A000FD4F8491882361F190E0880F991FFC010D
:1029B000E55CFC4FC591D491FC01EB5AFC4FA5910D
:1029C000B491611109C09FB7F89488812095822342
:1029D0008883EC912E230BC0623061F49FB7F8948A
:1029E0008881322F309583238883EC912E2B2C9372
:1029F0009FBF06C08FB7F894E8812E2B28838FBF26
:102A0000DF91CF9108958F929F92AF92BF92CF9214
:102A1000DF92EF92FF926B017C010E9454124B01F6
:102A20005C01C114D104E104F104F1F00E945412DC
:102A3000DC01CB0188199909AA09BB09883E93409A
:102A4000A105B10570F321E0C21AD108E108F1082F
:102A500088EE880E83E0981EA11CB11CC114D1041D
:102A6000E104F10419F7DDCFFF90EF90DF90CF90F4
:102A7000BF90AF909F908F9008952FB7F89460917A
:102A80001B0570911C0580911D0590911E052FBF9F
:102A900008951F920F920FB60F9211242F933F9318
:102AA0008F939F93AF93BF9380911B0590911C05CB
:102AB000A0911D05B0911E0530911A0523E0230F4A
:102AC0002D3720F40196A11DB11D05C026E8230F66
:102AD0000296A11DB11D20931A0580931B059093AA
:102AE0001C05A0931D05B0931E0580911F059091B4
:102AF0002005A0912105B09122050196A11DB11DCF
:102B000080931F0590932005A0932105B093220583
:102B1000BF91AF919F918F913F912F910F900FBED9
:102B20000F901F9018951F920F920FB60F921124BD
:102B30000BB60F922F933F934F935F936F937F93B7
:102B40008F939F93AF93BF93EF93FF938091F20482
:102B50009091F304A091F404B091F504892B8A2B91
:102B60008B2B59F19091F104E091EF04F091F00476
:102B70008081892780838091F2049091F304A09151
:102B8000F404B091F504181619061A061B060CF089
:102B900056C08091F2049091F304A091F404B09196
:102BA000F5040197A109B1098093F2049093F3040D
:102BB000A093F404B093F50442C080911802EAE3B4
:102BC000F3E0E4919FEF90931802E230C9F050F4E3
:102BD000EE2399F0E13081F590916F009D7F909305
:102BE0006F002AC0E43019F1E0F0E53029F590914A
:102BF00073009D7F909373001FC010926E001CC0E5
:102C0000909170009D7F9093700091E09093B00040
:102C10009091B100987F94609093B1001092B300AE
:102C20000BC0909171009D7F9093710005C09091B1
:102C300072009D7F9093720060E00E945413FF9198
:102C4000EF91BF91AF919F918F917F916F915F9124
:102C50004F913F912F910F900BBE0F900FBE0F9091
:102C60001F901895FC01128A0895FC01148E089596
:102C7000789484B5826084BD84B5816084BD85B557
:102C8000826085BD85B5816085BD80916E00816063
:102C900080936E0010928100809181008260809309
:102CA000810080918100816080938100809180000B
:102CB0008160809380008091B10084608093B10036
:102CC0008091B00081608093B0008091910082601B
:102CD0008093910080919100816080939100809118
:102CE00090008160809390008091A1008260809329
:102CF000A1008091A10081608093A1008091A0003B
:102D000081608093A00080912101826080932101E5
:102D10008091210181608093210180912001816057
:102D20008093200180917A00846080937A00809162
:102D30007A00826080937A0080917A00816080932B
:102D40007A0080917A00806880937A001092C100A6
:102D5000E0916A03F0916B0382E08083E091660367
:102D6000F09167031082E0916803F09169038FECA2
:102D7000808310927203E0916E03F0916F0386E0FE
:102D80008083E0916C03F0916D038081806180838A
:102D9000E0916C03F0916D03808188608083E09105
:102DA0006C03F0916D03808180688083E0916C03F7
:102DB000F0916D0380818F7D8083CFB7F8948091EF
:102DC0001203811127C0EDE9F2E08491E3EEF2E015
:102DD0009491E82FF0E0EE0FFF1FE55CFC4FA5910A
:102DE000B491EC91E92321F461E085E30E9454134E
:102DF00061E085E30E94C7148CB580618CBD8CB501
:102E000080648CBD61E084E30E94C71461E083E3C9
:102E10000E94C714809112038F5F80931203CFBF6B
:102E20000E942A111092380484E090E09093E0040C
:102E30008093DF0488E090E00E94611C9093DD04A1
:102E40008093DC0482E00E94051140E050E060EADB
:102E500070E487EF93E00E94D91140E050E06AE708
:102E600074E48CE194E00E94D91140E050E060E20B
:102E700071E48EE494E00E94D9119AE0292E312C5D
:102E80000E943D152B013C01C0E0D0E08091E1049F
:102E90009091E204C817D9070CF042C0C301B201F7
:102EA0000E9448196B017C014E01880C991C00910D
:102EB000DC041091DD04080D191DD801AD90BC9003
:102EC000F5012681378140855185C701B6010E94F1
:102ED000671AD50112962D913D914D915C911597F0
:102EE0000E94DF1B1816D4F4C093DE04F801808121
:102EF0009181DC01ED91FC910480F581E02D199523
:102F00008091DC049091DD04FC01E80DF91D019035
:102F1000F081E02DC682D782E086F1862196B6CF79
:102F2000C091CD02D091CE02C330D10549F440E02A
:102F300050E06AEF73E489E394E00E94D91118C06D
:102F4000C130D10541F480E20E9405110E942A118E
:102F50001092380429C0209721F480E00E940511C6
:102F600023C0C230D10501F580911304882311F0EC
:102F700082E0F4CFB1E0B0931304309210042092B9
:102F80000F0430921504209214040E943D156093A2
:102F90001604709317048093180490931904D09327
:102FA0001204C0931104E4CF0E942E0C69CF8AED65
:102FB00094E00C943B0BEF92FF920F931F93CF93EF
:102FC000DF93CDB7DEB760970FB6F894DEBF0FBEC4
:102FD000CDBF10925D0310925C0388EE93E0A0E0F9
:102FE000B0E080935E0390935F03A0936003B0937F
:102FF00061032BE232E030935B0320935A0325EC0C
:1030000030E0309367032093660324EC30E0309384
:1030100069032093680320EC30E030936B03209326
:103020006A0321EC30E030936D0320936C0322ECB3
:1030300030E030936F0320936E0326EC30E0309342
:103040007103209370031092730310927403109213
:103050007503109276031092E6041092E5048093B3
:10306000E7049093E804A093E904B093EA048DE3A5
:1030700092E09093E4048093E3048FE492E09093D1
:10308000DB048093DA041092E2041092E1041092BF
:10309000F9031092FA031092FB031092FC031092B2
:1030A000FD031092FE031092FF031092000481E9C9
:1030B00092E09093F8038093F7038DE992E0909368
:1030C00002048093010480E192E0909304048093D1
:1030D000030480E092E0909306048093050488E066
:1030E000E7E0F4E0DF011D928A95E9F71092100401
:1030F00010920F04109212041092110410921304F3
:10310000109215041092140400E112E0780161E0BD
:10311000F80180810E94C7140E5F1F4F61E0D70144
:103120008C910E945413B2E008311B0779F700E03C
:1031300012E0780161E0F80180810E94C7140E5FFF
:103140001F4F60E0D7018C910E945413B2E0003110
:103150001B0779F781E692E090931B0480931A0491
:1031600061E081E20E94C71461E085E20E94C71419
:1031700061E083E20E94C71410921E0410921F04A3
:103180001092200410922104109222041092230421
:10319000109224041092250489E692E090931D0475
:1031A00080931C0487E592E0909327048093260483
:1031B00081E094E0909337048093360410923804B1
:1031C0008CE0FE013396A8E2B4E001900D928A955E
:1031D000E1F781E3809334048FE18093350410920A
:1031E0003B0410923C0410923D0410923E04109255
:1031F0003F0410924004109241041092420483E76D
:1032000092E090933A048093390488E290E090939E
:103210004404809343041092450488E0EFE1F2E017
:10322000A6E4B4E001900D928A95E1F761E088E2AE
:103230000E94C7141092500410925104109252042C
:103240001092530410925404109255041092560494
:10325000109257048DE792E090934F0480934E04B0
:1032600083EE94E0909359048093580460960FB6CF
:10327000F894DEBF0FBECDBFDF91CF911F910F91AC
:10328000FF90EF9008950E94851908F481E0089559
:10329000E89409C097FB3EF49095809570956195F0
:1032A0007F4F8F4F9F4F9923A9F0F92F96E9BB27A6
:1032B0009395F695879577956795B795F111F8CF22
:1032C000FAF4BB0F11F460FF1BC06F5F7F4F8F4F8D
:1032D0009F4F16C0882311F096E911C0772321F083
:1032E0009EE8872F762F05C0662371F096E8862F1B
:1032F00070E060E02AF09A95660F771F881FDAF772
:10330000880F9695879597F90895990F0008550F9E
:10331000AA0BE0E8FEEF16161706E807F907C0F05B
:1033200012161306E407F50798F0621B730B840B63
:10333000950B39F40A2661F0232B242B252B21F43D
:1033400008950A2609F4A140A6958FEF811D811DDD
:1033500008950E94BC190C942D1A0E941F1A38F06F
:103360000E94261A20F0952311F00C94161A0C9442
:103370001C1A11240C94611A0E943E1A70F3959F36
:10338000C1F3950F50E0551F629FF001729FBB275C
:10339000F00DB11D639FAA27F00DB11DAA1F649FF8
:1033A0006627B00DA11D661F829F2227B00DA11DAB
:1033B000621F739FB00DA11D621F839FA00D611D31
:1033C000221F749F3327A00D611D231F849F600D52
:1033D000211D822F762F6A2F11249F5750409AF07B
:1033E000F1F088234AF0EE0FFF1FBB1F661F771F07
:1033F000881F91505040A9F79E3F510580F00C94D2
:10340000161A0C94611A5F3FE4F3983ED4F3869544
:1034100077956795B795F795E7959F5FC1F7FE2B71
:10342000880F911D9695879597F9089597F99F674D
:1034300080E870E060E008959FEF80EC089500243C
:103440000A941616170618060906089500240A9409
:1034500012161306140605060895092E0394000C8F
:1034600011F4882352F0BB0F40F4BF2B11F460FF1E
:1034700004C06F5F7F4F8F4F9F4F089557FD905847
:10348000440F551F59F05F3F71F04795880F97FB28
:10349000991F61F09F3F79F08795089512161306E2
:1034A0001406551FF2CF4695F1DF08C01616170611
:1034B0001806991FF1CF8695710561050894089546
:1034C000E894BB2766277727CB0197F908955058D2
:1034D000BB27AA270E947F1A0C942D1A0E941F1A3C
:1034E00038F00E94261A20F039F49F3F19F426F490
:1034F0000C941C1A0EF4E095E7FB0C94161AE92FB5
:103500000E943E1A58F3BA1762077307840795079B
:1035100020F079F4A6F50C94601A0EF4E0950B2EC9
:10352000BA2FA02D0B01B90190010C01CA01A00115
:103530001124FF27591B99F0593F50F4503E68F170
:103540001A16F040A22F232F342F4427585FF3CFB1
:10355000469537952795A795F0405395C9F77EF482
:103560001F16BA0B620B730B840BBAF09150A1F0CB
:10357000FF0FBB1F661F771F881FC2F70EC0BA0F51
:10358000621F731F841F48F4879577956795B795D9
:10359000F7959E3F08F0B0CF9395880F08F09927D4
:1035A000EE0F9795879508950E941F1A60F080E8A6
:1035B00091E009F49EEF0E94261A28F040E851E0BD
:1035C00071F45EEF0CC00C941C1A0C94601AE92F75
:1035D000E0780E943E1A40F3092E052AB1F326171F
:1035E00037074807590738F00E2E07F8E02569F02D
:1035F000E025E0640AC0EF6307F8009407FADB01F6
:10360000B9019D01DC01CA01AD01EF930E945D1B70
:103610000E942D1A0E94171B5F91552339F02BED44
:103620003FE049E450FD49EC0C94681A0895DF939B
:10363000DD27B92FBF7740E85FE316161706480766
:103640005B0718F4D92F0E94E41B9F938F937F93FD
:103650006F930E94EC1BECE1F1E00E94B81B0E940A
:103660002D1A2F913F914F915F910E94BC19DD233C
:1036700051F09058A2EA2AED3FE049EC5FE3D078A0
:103680005D270E947F1ADF910C942D1A0E945A1B0D
:103690000C942D1A0E94261A58F00E941F1A40F00E
:1036A00029F45F3F29F00C94161A51110C94611AF9
:1036B0000C941C1A0E943E1A68F39923B1F3552307
:1036C00091F3951B550BBB27AA2762177307840735
:1036D00038F09F5F5F4F220F331F441FAA1FA9F3CB
:1036E00035D00E2E3AF0E0E832D091505040E695B9
:1036F000001CCAF72BD0FE2F29D0660F771F881F1A
:10370000BB1F261737074807AB07B0E809F0BB0B0C
:10371000802DBF01FF2793585F4F3AF09E3F510520
:1037200078F00C94161A0C94611A5F3FE4F3983EFB
:10373000D4F3869577956795B795F7959F5FC9F709
:10374000880F911D9695879597F90895E1E0660F8A
:10375000771F881FBB1F621773078407BA0720F003
:10376000621B730B840BBA0BEE1F88F7E09508956C
:10377000DF93CF931F930F93FF92EF92DF927B0122
:103780008C01689406C0DA2EEF010E94BC19FE017C
:10379000E894A5912591359145915591A6F3EF01B6
:1037A0000E947F1AFE019701A801DA9469F7DF9061
:1037B000EF90FF900F911F91CF91DF9108950E949C
:1037C000851908F48FEF08959B01AC0160E070E06B
:1037D00080E89FE30C94461B9B01AC010C94A91953
:1037E00097FB072E16F4009407D077FD09D00E94AE
:1037F0002B1C07FC05D03EF4909581959F4F0895B2
:10380000709561957F4F0895052E97FB1EF40094E7
:103810000E941B1C57FD07D00E943F1C07FC03D0D1
:103820004EF40C941B1C50954095309521953F4FBC
:103830004F4F5F4F089590958095709561957F4F9C
:103840008F4F9F4F0895EE0FFF1F881F8BBF07906C
:10385000F691E02D1994AA1BBB1B51E107C0AA1FCA
:10386000BB1FA617B70710F0A61BB70B881F991F21
:103870005A95A9F780959095BC01CD010895A1E2D4
:103880001A2EAA1BBB1BFD010DC0AA1FBB1FEE1FDA
:10389000FF1FA217B307E407F50720F0A21BB30B25
:1038A000E40BF50B661F771F881F991F1A9469F7A1
:1038B00060957095809590959B01AC01BD01CF01FD
:1038C00008950F931F93CF93DF938230910510F4E7
:1038D00082E090E0E0912505F091260520E030E0BF
:1038E000A0E0B0E0309719F140815181028113814D
:1038F00048175907C8F08417950769F4109731F0F5
:1039000012960C93129713961C9327C000932505CB
:103910001093260522C02115310519F042175307CF
:1039200018F49A01BD01EF01DF01F801DBCF211589
:103930003105F9F0281B390B2430310580F48A81D8
:103940009B816115710521F0FB019383828304C083
:103950009093260580932505FE01329644C0FE0112
:10396000E20FF31F81939193225031093983288309
:103970003AC02091230530912405232B41F4209156
:103980001B0230911C0230932405209323052091C3
:10399000190230911A022115310541F42DB73EB7B5
:1039A00040911D0250911E02241B350BE09123050E
:1039B000F0912405E217F307A0F42E1B3F0B281704
:1039C000390778F0AC014E5F5F4F2417350748F098
:1039D0004E0F5F1F509324054093230581939193CD
:1039E00002C0E0E0F0E0CF01DF91CF911F910F9195
:1039F0000895CF93DF93009709F481C0FC013297BB
:103A000013821282A0912505B0912605109781F4AA
:103A100020813181820F931F20912305309124054D
:103A20002817390751F5F0932405E093230567C063
:103A3000ED0120E030E0CE17DF0740F44A815B81E2
:103A40009E0141155105F1F0EA01F5CFD383C28300
:103A500040815181840F951FC817D90759F4888177
:103A60009981840F951F0296918380838A819B811F
:103A7000938382832115310529F4F0932605E09381
:103A800025053DC0E901FB83EA8349915991C40FA3
:103A9000D51FEC17FD0761F480819181840F951F7C
:103AA0000296E90199838883828193819B838A832B
:103AB000E0E0F0E012968D919C911397009719F039
:103AC000FD01DC01F7CF8D919C9111979D012E5F37
:103AD0003F4F820F931F2091230530912405281713
:103AE000390769F4309729F41092260510922505BC
:103AF00002C013821282B0932405A0932305DF91A4
:103B0000CF91089581E090E0F8940C94871D11E026
:103B1000C9EBD1E000E006C0802FFE010E94231C0B
:103B20002196011DCA3BD10780E00807A9F7F89448
:023B3000FFCFC5
:103B32000200030004000500060007000800090057
:103B42000A000B000C000D00FF000027058000B8E2
:103B520001E803B801BC0200000000BF0B79125655
:103B62000B0C0C870B650B790B00000000F60CC9DF
:103B72000C940C670C8B0C770C680C000000003B5B
:103B82000B470B00000000790F370D250D000000D8
:103B920000510BED0100000000520BEF01900300F9
:103BA200000000540BF301F10700000000530BF179
:103BB2000142040000000000000000350D0000007A
:103BC20000550BF501F7013516F6FF0000321654C9
:103BD200696D657242616E6B2066756C6C000D0AD0
:023BE2000000E1
:00000001FF
