:100000000C9484010C94B5010C94B5010C94B501C9
:100010000C94B5010C94B5010C94B5010C94B50188
:100020000C94B5010C94B5010C94B5010C94B50178
:100030000C94B5010C94B5010C94B5010C94B50168
:100040000C94B5010C94B5010C94B5010C94B50158
:100050000C94B5010C94B5010C94B5010C94B20A42
:100060000C94B5010C94260B0C94FC0A0C94B5016D
:100070000C94B5010C94B5010C94B5010C94B50128
:100080000C94B5010C94B5010C94B5010C94B50118
:100090000C94B5010C94B5010C94B5010C94B50108
:1000A0000C94B5010C94B5010C94B5010C94B501F8
:1000B0000C94B5010C94B5010C94B5010C94B501E8
:1000C0000C94B5010C94B5010C94B5010C94B501D8
:1000D0000C94B5010C94B5010C94B5010C94B501C8
:1000E0000C94B5019F02A702B002C402DE02ED0229
:1000F00007032703360356038507880777077B071F
:100100008107BF078C07900796079A079E07A407E9
:10011000A807AC07BF07B207B607BA070C940703D6
:100120000C94FC030C94F0010C945C0B0C947B0776
:100130000C940A070C9488070C94DE020C941607A2
:100140000C949F020C94BF070C94FE060C943C0682
:100150000C9481070C949A070C9427030C94B6070F
:100160000C94B0020C949E070C9402020C948C0721
:100170000C941E0A0C94B2070C94AC070C949007D4
:100180000C9415070C9404020C94D7090C940802E3
:100190000C94E6090C94A4070C9436030C9496076F
:1001A0000C94600B0C9477070C94FA090C94A80734
:1001B0000C94080A0C946B0A0C9400020C9406022E
:1001C0000C94B0040C94C4020C94A9090C94BA07C2
:1001D0000C9485070C9414070C94A7020C945603F6
:1001E0000C94ED0200002100240027002A002D00BD
:1001F0003000330001010000040107010A01000082
:100200002200250028002B002E00310034000201BE
:100210000000050108010B01050505050705080893
:100220000808020202020A0A080804040404010180
:100230000101010101010303030303030303040795
:1002400007070C0C0C0C0C0C0C0C0202020206062C
:100250000606060606060B0B0B0B0B0B0B0B01021F
:1002600010202008081020401020408002010201C8
:100270000804020101020408102040808040201080
:1002800008040201800402018040201008040201D9
:100290000804020101020408102040800102040841
:1002A0001020408000000A0B02090C0D0E08070305
:1002B0000401000000000000000000000000000039
:1002C000000000000000000000000000000000002E
:1002D00012111000000000000000000000000000EB
:1002E00000000000000000000000000020002300CB
:1002F000260029002C002F0032000001000003011D
:1003000006010901600B5C0B11241FBECFEFD1E287
:10031000DEBFCDBF00E00CBF12E0A0E0B2E0EAEF2C
:10032000F2E200E00BBF02C007900D92AE37B107BA
:10033000D9F723E0AEE7B2E001C01D92AF36B207B5
:10034000E1F711E0C3E8D1E000E006C02197010920
:10035000802FFE010E942910C238D10780E00807D3
:10036000A9F70E94760C0C946B110C94000080E0AD
:1003700090E0892B21F00E94140A811125C080E0B1
:1003800090E0892B41F080E090E0892B21F00E94E1
:10039000000081111CC080E090E0892B41F080E0DA
:1003A00090E0892B21F00E940000811113C080E0B1
:1003B00090E0892BA1F080E090E0892B81F00E94F1
:1003C000000081110AC008950E940000D8CF0E9449
:1003D0000000E1CF0E940000EACF0C9400000895D5
:1003E000BC016E5F7F4FDC01ED91FC910190F081CB
:1003F000E02D40E0199591E0811190E0892F08955A
:100400000E9466110C94DD100C94DD100C94DD102C
:10041000AF92BF92CF92DF92EF92FF920F931F9312
:10042000CF93DF93EC018A8D882309F447C02FB75F
:10043000F8948091610390916203A0916303B0915D
:1004400064032FBF4D8D5E8D6F8D78A1841B950B3E
:10045000A60BB70B893E9340A105B10578F18E89B3
:100460009F89FC013197EF30B7E2FB07C0F48E01A2
:10047000025F1F4F20E030E04AE0E42EF12CB7018C
:100480000E94F30FD8018D939D938D01CB012F5FB7
:100490003F4F0097A1F7398F288FFF8BEE8B2FB737
:1004A000F8948091610390916203A0916303B091ED
:1004B00064032FBF8D8F9E8FAF8FB8A3C88CD98C4C
:1004C0008601000F111F0C0F1D1F8EEF9FEF5C01A7
:1004D000AC1ABD0A1C141D040CF01BC1E12CF12C3C
:1004E000EC85FD85EE0DFF1D60E080810E94C00758
:1004F000B2E0EB0EF11C20E1E216F10489F7750180
:10050000E00EF11EEA85FB85EE0DFF1D60E08081A7
:100510000E94C00781E0C81AD108D8011C96ED914D
:10052000FC911D97EA30F10508F0E1C0AC85BD856E
:1005300061E08827EE58FF4F8F4F0C9429108C9163
:100540000E94C007EC85FD8561E082859CC0129603
:100550008C910E94C007EC85FD8561E08481C5C057
:100560008C910E94C007EC85FD8561E082810E942C
:10057000C007EC85FD8561E086810E94C007EC859F
:10058000FD8561E0808513C08C910E94C007EC85D9
:10059000FD8561E082810E94C007EC85FD8561E0F8
:1005A00084810E94C007EC85FD8561E086810E9400
:1005B000C007EC85FD8561E0848597C012968C911B
:1005C0000E94C007EC85FD8561E084810E94C00720
:1005D000EC85FD8561E08285EACF8C910E94C007A1
:1005E000EC85FD8561E082850E94C007EC85FD8574
:1005F00061E084850E94C007EC85FD8561E084810F
:100600000E94C007EC85FD8561E086816EC08C91FB
:100610000E94C007EC85FD8561E082850E94C007CD
:10062000EC85FD8561E084850E94C007EC85FD8531
:1006300061E084810E94C007EC85FD8561E08681D0
:100640000E94C007EC85FD8561E080854EC0129652
:100650008C910E94C007EC85FD8561E084810E9439
:10066000C007EC85FD8561E080813FC08C910E94D0
:10067000C007EC85FD8561E082850E94C007EC859E
:10068000FD8561E084850E94C007EC85FD8561E001
:1006900084810E94C007EC85FD8561E086810E940F
:1006A000C007EC85FD8561E0808519C08C910E94B2
:1006B000C007EC85FD8561E082850E94C007EC855E
:1006C000FD8561E084850E94C007EC85FD8561E0C1
:1006D00084810E94C007EC85FD8561E086810E94CF
:1006E000C007EC85FD8561E082810E94C00761E062
:1006F00070E080E090E00E946F098A859B85FC0194
:10070000EE0DFF1D61E080810E94C00702501109BB
:10071000E1CEDF91CF911F910F91FF90EF90DF908D
:10072000CF90BF90AF900895FC01848DDF01A80F9A
:10073000B11DA35ABF4F2C91848D90E001968F7309
:100740009927848FA689B7892C93A089B1898C9128
:10075000837080648C93938D848D981306C0028877
:10076000F389E02D80818F7D8083089508958EBD6B
:1007700000000DB407FEFDCF8EB508958CBD9DBD64
:1007800008951F93CF93DF93EC01162F83E590E03C
:100790000E94BE0360E08E850E94C007812F8068A2
:1007A0000E94B70380E00E94B703182F61E08E8596
:1007B0000E94C007812FDF91CF911F9108950F9361
:1007C0001F93CF93DF93EC01062F142F83E590E066
:1007D0000E94BE0360E08E850E94C007802F0E94A9
:1007E000B703812F0E94B70361E08E85DF91CF911F
:1007F0001F910F910C94C0078F929F92AF92CF924E
:10080000EF92FF920F931F93CF93DF9300D01F922D
:100810001F92CDB7DEB74C0182E08D8340E064E2E9
:10082000C4010E94DF0340E066E2C4010E94DF03CE
:1008300046E268E4C4010E94DF0386E28B838D8177
:10084000823040F16CE1C4010E94C103482F4F7710
:100850006CE1C4010E94DF0387E08C83A12CC12CD2
:10086000CE0104967C018E010B5F1F4F9E012F5F0E
:100870003F4F41E0BE016D5F7F4FC4010E942108E0
:1008800081110BC08D81823039F481E09C819111FE
:1008900004C008C084E001C081E091E0823019F01A
:1008A00090E001C091E0892F0F900F900F900F9072
:1008B0000F90DF91CF911F910F91FF90EF90CF900C
:1008C000AF909F908F900895CF92DF92EF92FF921A
:1008D0000F931F93CF93DF93EC016B01142F7901DA
:1008E00040E062E00E94DF0344E06AE0CE010E9443
:1008F000DF0340E864E1CE010E94DF03A601612F1F
:10090000CE010E94EF0743E062E0CE010E94DF03C8
:1009100008E813E16AE0CE010E94C10382FF13C020
:1009200040E062E0CE010E94DF0364E4CE010E9459
:10093000C103F701808362E4CE010E94C103F70185
:10094000818380E004C00150110921F783E0DF9129
:10095000CF911F910F91FF90EF90DF90CF9008956E
:100960002F923F924F925F926F927F928F929F92BF
:10097000AF92BF92CF92DF92EF92FF920F931F93AD
:10098000CF93DF93CDB7DEB72C970FB6F894DEBFC9
:100990000FBECDBF413508F00BC1342E3B014C01D9
:1009A0006CE10E94C103482F4F776CE1C4010E94A3
:1009B000DF032224239432E0231691F083E02816EB
:1009C000E1F091E02912F6C083E989833320D1F068
:1009D00081E0F3019081953008F480E0B12C17C0DC
:1009E000F5E9F983332081F081E0F30190819830BB
:1009F00008F480E043E0B42E0AC087E9898336E03A
:100A0000B32E04C0B12C02C023E0B22E80E0D32C60
:100A1000F8E0BF9ED0181124D7FCD12C882321F0F8
:100A200098E89B8333E001C032E021E09D2D977070
:100A300009F420E09D2D959595959595290F31F414
:100A4000882309F492C038E0D30E8FC0811102C010
:100A500094E001C093E0291708F4922FEB2DF0E009
:100A60003196E60DF71D232F4191A1E0B0E0AC0FC8
:100A7000BD1FA20FB11D4C932F5F422F431B49177F
:100A800098F3DECF8111DEC09FE19D150CF494C078
:100A900080E2D82E90E79A839B818C8189279D8163
:100AA00089279E8189278F839E01285F3F4F47E0DA
:100AB000BE016F5F7F4FC4010E9464048111A3C017
:100AC0001A86E3E0EB87CE0107962C0199E09C871C
:100AD000CA844C2D4295407F4C0D6AE1C4010E94AE
:100AE000DF03A12CCE010A967C018E01055F1F4F0A
:100AF00092014C85BE016F5F7F4FC4010E942108A7
:100B0000182F823009F0BECF6CE1C4010E94C103EE
:100B100085FD98C08F7109F480E2282F30E04D2DBB
:100B2000DD0C550B421753070CF044C0D82E8595A9
:100B30008595859591E0980F422F477081E009F4E3
:100B400080E0890FE1E0F0E0EC0FFD1FE80FF11D00
:100B5000215031092770332781E090E001C0880FD0
:100B60002A95EAF79081892B80838FE18D150CF40B
:100B700091CF9D2D97709A878D2D8595859585951B
:100B80008E5F292FE0E18E9F200D11242A8321E022
:100B9000911101C020E0280F2C8744244394512C4C
:100BA0004C0E5D1E480E511CF9E0F81BFB8790CFE0
:100BB00016E048C015E046C08B81883809F43FC074
:100BC00082E094E0EB2DF0E03196E60DF71D980FF2
:100BD000A1E0B0E0AC0FBD1FA80FB11D2C91219377
:100BE0008F5F8913F5CF8B85833029F58A85811135
:100BF00022C09E012D5F3F4F41E0B201C4010E941F
:100C00006404882311F0182F1DC09B81F20181819B
:100C1000981313C09C81828198130FC0808182FF3A
:100C200002C02394C8CEF3018387822D880F820DE2
:100C30008F5F808307C011E005C017E003C083E029
:100C400093E0C0CF812F2C960FB6F894DEBF0FBE75
:100C5000CDBFDF91CF911F910F91FF90EF90DF906B
:100C6000CF90BF90AF909F908F907F906F905F904C
:100C70004F903F902F9008954F925F926F927F9286
:100C80008F929F92AF92CF92EF92FF920F931F930A
:100C9000CF93DF9300D01F92CDB7DEB74C013C015C
:100CA0004AE0640E711CC3010E94FC03882309F40E
:100CB00092C0C3010E94F001882309F48CC080E730
:100CC00092E00E94170710E0F40184851817C0F421
:100CD0002401410E511CF2018585803118F08BE60C
:100CE00092E002C088E692E00E941707F201658553
:100CF00070E080E090E040E10E9429071F5FE4CFB0
:100D00008DE692E00E94170780E589831A829E0192
:100D10002D5F3F4F42E0BE016F5F7F4FC3010E94D6
:100D2000640481110FC0A12CC12CE12CF12C00E036
:100D300010E020E030E044E0BE016F5F7F4FC30170
:100D40000E942108F12C00E010E0F4018485F816DF
:100D5000B8F54F2D50E0E40FF51F258530E090E009
:100D60000197841B950B43E0880F991F4A95E1F783
:100D7000A90102C0440F551F8A95E2F7042B152BD9
:100D80002801012E000C6608770877FE0EC06DE280
:100D90008EE792E00E941E0A66277727CB0164192E
:100DA0007509860997094AE003C04AE0C301B20108
:100DB0000E9429078DE692E00E941707F394C5CFA1
:100DC000B801110F880B990B42E00E9429078DE6AC
:100DD00092E00E9417070F900F900F900F90DF91F5
:100DE000CF911F910F91FF90EF90CF90AF909F9078
:100DF0008F907F906F905F904F90089524E332E042
:100E0000FC013183208382819381009711F00C943F
:100E1000DD100895CF93DF93EC010E94FE06CE0112
:100E2000DF91CF910C94DD100895089508950097F7
:100E300069F0FC0101900020E9F73197AF01481BF0
:100E4000590BBC018EE792E00C94A90980E090E078
:100E500008958F929F92AF92BF920F931F93CF935B
:100E6000DF93CDB7DEB7A1970FB6F894DEBF0FBE04
:100E7000CDBF19A2423008F44AE08E010F5D1F4F2A
:100E8000842E912CA12CB12CA50194010E94071055
:100E9000E62FB901CA0101501109EA3014F4E05DEE
:100EA00001C0E95CD801EC93232B242B252B61F79F
:100EB000C8010E941707A1960FB6F894DEBF0FBEB7
:100EC000CDBFDF91CF911F910F91BF90AF909F90B9
:100ED0008F90089590E0FC013197E231F10508F020
:100EE0004EC08827E458FF4F8F4F0C9429108091F3
:100EF00080008F7703C0809180008F7D8093800079
:100F0000089580918000877FF9CF84B58F7702C0E4
:100F100084B58F7D84BD08958091B0008F7703C024
:100F20008091B0008F7D8093B000089580919000F3
:100F30008F7707C0809190008F7D03C080919000D3
:100F4000877F8093900008958091A0008F7707C0DD
:100F50008091A0008F7D03C08091A000877F809347
:100F6000A0000895809120018F7707C08091200113
:100F70008F7D03C080912001877F80932001089599
:100F80001F93CF93DF93282F30E0F901EC55FD4FED
:100F90008491F901E25AFD4FD491F901E85EFD4FC9
:100FA000C491CC23C1F0162F81110E946A07EC2F47
:100FB000F0E0EE0FFF1FE250FE4FA591B4919FB7F6
:100FC000F894111104C08C91D095D82302C0EC91F3
:100FD000DE2BDC939FBFDF91CF911F910895DF92AD
:100FE000EF92FF920F931F93CF93DF938C01F62E16
:100FF000D42EE52E83E590E00E94BE0360E0F80168
:1010000086850E94C00782E10E94B703CD2DDE2DA8
:10101000CE018F0D911D7C01EC16FD0621F089910A
:101020000E94B703F9CF61E0F80186850E94C007EE
:10103000DF91CF911F910F91FF90EF90DF900C9473
:10104000B6034F925F926F927F928F929F92AF9270
:10105000BF92CF92DF92EF92FF920F931F93CF93A5
:10106000DF931F921F92CDB7DEB74C012B01D42E18
:101070003901E114F10419F0F701408101C040E0A9
:10108000B42EF0E1CF9EB00C112440E062E0C40128
:101090000E94DF034FE768E0C4010E94DF0340E8DD
:1010A00064E1C4010E94DF03A2016D2DC4010E940E
:1010B000EF074B2D6AE1C4010E94DF034CE062E0C0
:1010C000C4010E94DF036AE1C4010E94C103482FEA
:1010D00040686AE1C4010E94DF0380ED482E87E08A
:1010E000582E68E0C4010E94C103982F907341F408
:1010F00080FD04C081E0481A510899F783E0A0C040
:101100006CE0C4010E94C103D82E837109F095C020
:101110006114710409F45AC00115110509F456C08F
:1011200064E1C4010E94C103B82EF80180818B15CF
:1011300008F47DC0B082BB20F1F183E590E00E940D
:10114000BE0360E0F40186850E94C007BA9482E97C
:101150000E94B703CC20A9F08FEF90E02C0101C0D2
:10116000440CCA94EAF782E90E94B703242D209523
:10117000F301908192238421892B8083CC24C39412
:1011800001C0C12C4C2C512C460C571CCB1438F4EC
:1011900082E90E94B703F2018083C394F3CF80E019
:1011A0000E94B703F201808361E0F40186850E940A
:1011B000C0070E94B60368E1C4010E94C1038770A2
:1011C000E114F10421F0F701808301C080E0D3FC39
:1011D00030C06114710479F10115110561F1AA2083
:1011E00051F1F8014081413021F4843041F58FEF15
:1011F00027C0423020F1811122C042509E012F5F52
:101200003F4FB301C4010E946404811119C0F80169
:101210008081680E711CF301329790818981981347
:101220000EC0319690818A81981309C004C084E071
:1012300007C082E005C080E003C081E001C087E014
:101240000F900F90DF91CF911F910F91FF90EF9032
:10125000DF90CF90BF90AF909F908F907F906F90D6
:101260005F904F900895CF93DF9390E0FC01E25A96
:10127000FD4F2491FC01E85EFD4F8491882361F1CC
:1012800090E0880F991FFC01EC51FE4FC591D4915D
:10129000FC01E250FE4FA591B491611109C09FB7C6
:1012A000F8948881209582238883EC912E230BC0AB
:1012B000623061F49FB7F8948881322F3095832390
:1012C0008883EC912E2B2C939FBF06C08FB7F89488
:1012D000E8812E2B28838FBFDF91CF9108958F92C5
:1012E0009F92AF92BF92CF92DF92EF92FF926B01EB
:1012F0007C010E948D0A4B015C01C114D104E10400
:10130000F104F1F00E948D0ADC01CB0188199909E2
:10131000AA09BB09883E9340A105B10570F321E0FD
:10132000C21AD108E108F10888EE880E83E0981E01
:10133000A11CB11CC114D104E104F10419F7DDCFE3
:10134000FF90EF90DF90CF90BF90AF909F908F90E5
:101350000895CF92DF92EF92FF920F931F93CF9356
:10136000DF936C017A018B01C0E0D0E0CE15DF0580
:1013700081F0D8016D918D01D601ED91FC91019024
:10138000F081E02DC6011995892B11F02196EECF41
:101390007E01C701DF91CF911F910F91FF90EF90D8
:1013A000DF90CF900895089580E090E00895FC01CB
:1013B000538D448D252F30E0842F90E0821B930BBA
:1013C000541710F0CF96089501970895FC01918D60
:1013D000828D981761F0828DDF01A80FB11D5D9697
:1013E0008C91928D9F5F9F73928F90E008958FEF05
:1013F0009FEF0895FC01918D828D981731F0828DB9
:10140000E80FF11D858D90E008958FEF9FEF08950F
:10141000FC01918D228D892F90E0805C9F4F821B73
:1014200091098F73992708958EE792E00E94080A28
:1014300021E0892B09F420E0822F0895EF92FF929A
:101440000F931F93CF93DF93EC0181E0888F9B8DE7
:101450008C8D981305C0E889F989808185FD26C0A7
:10146000F62E0B8D10E00F5F1F4F0F731127E02E2C
:101470008C8DE8120CC00FB607FCFACFE889F98909
:10148000808185FFF5CFCE010E949403F1CF8B8D33
:10149000FE01E80FF11DE35AFF4FF0829FB7F89469
:1014A0000B8FEA89FB89808180620AC09FB7F8941C
:1014B000EE89FF896083E889F9898081837080647F
:1014C00080839FBF81E090E0DF91CF911F910F91CA
:1014D000FF90EF900895CF93DF93EC01888D8823E0
:1014E000C9F0EA89FB89808185FD05C0A889B98991
:1014F0008C9186FD0FC00FB607FCF5CF808185FF6C
:10150000F2CFA889B9898C9185FFEDCFCE010E94D9
:101510009403E7CFDF91CF9108953FB7F89480917E
:10152000670390916803A0916903B0916A0326B59F
:10153000A89B05C02F3F19F00196A11DB11D3FBF0B
:10154000BA2FA92F982F8827820F911DA11DB11D99
:10155000BC01CD0142E0660F771F881F991F4A9595
:10156000D1F708951F920F920FB60F9211242F9367
:101570003F938F939F93AF93BF938091610390911B
:101580006203A0916303B09164033091660323E08A
:10159000230F2D3720F40196A11DB11D05C026E8AB
:1015A000230F0296A11DB11D209366038093610352
:1015B00090936203A0936303B093640380916703E5
:1015C00090916803A0916903B0916A030196A11DEF
:1015D000B11D8093670390936803A0936903B09350
:1015E0006A03BF91AF919F918F913F912F910F907F
:1015F0000FBE0F901F9018951F920F920FB60F926B
:1016000011240BB60F922F933F934F935F936F93D9
:101610007F938F939F93AF93BF93EF93FF938EE747
:1016200092E00E949403FF91EF91BF91AF919F913F
:101630008F917F916F915F914F913F912F910F907B
:101640000BBE0F900FBE0F901F9018951F920F9218
:101650000FB60F9211240BB60F922F938F939F9377
:10166000EF93FF93E0918E02F0918F028081E091E1
:101670009402F091950282FD12C0908180919702B0
:101680008F5F8F7320919802821751F0E09197023B
:10169000F0E0E258FD4F958F8093970201C0808162
:1016A000FF91EF919F918F912F910F900BBE0F9013
:1016B0000FBE0F901F90189588E593E00C94FE06DE
:1016C000CF92DF92EF92FF920F931F93CF93DF930E
:1016D000CDB7DEB760970FB6F894DEBF0FBECDBFB3
:1016E000109281021092800288EE93E0A0E0B0E0B8
:1016F0008093820290938302A0938402B093850228
:1017000082E292E090937F0280937E0285EC90E0EB
:1017100090938B0280938A0284EC90E090938D02E8
:1017200080938C0280EC90E090938F0280938E02E5
:1017300081EC90E0909391028093900282EC90E093
:10174000909393028093920286EC90E0909395029E
:10175000809394021092970210929802109299022C
:1017600010929A0284E392E0909359038093580375
:1017700082E090E090935E0380935D03109260039B
:1017800010925F0384E090E00E94451090935B0309
:1017900080935A0310921D0310921E0310921F0390
:1017A000109220031092210310922203109223031F
:1017B0001092240382E692E090931C0380931B0313
:1017C00080E192E0909326038093250380E092E0ED
:1017D000909328038093270388E0E9E2F3E0DF0198
:1017E0001D928A95E9F710923203109231031092FC
:1017F0003403109233031092350310923703109282
:10180000360300E112E0780161E0F80180810E9476
:1018100033090E5F1F4F61E0D7018C910E94C00712
:10182000B2E008311B0779F700E012E080E1E82E12
:1018300082E0F82E680161E0F80180810E9433099E
:101840000E5F1F4F60E0D6018C910E94C007E0162A
:10185000F10681F786E492E090933D0380933C0388
:1018600061E081E20E94330961E085E20E94330970
:1018700061E083E20E943309109240031092410319
:1018800010924203109243031092440310924503B6
:1018900010924603109247038EE492E090933F0328
:1018A00080933E038CE392E0909349038093480336
:1018B0008CE0FE013396AAE4B3E001900D928A9584
:1018C000E1F781E3809356038FE18093570360969D
:1018D0000FB6F894DEBF0FBECDBFDF91CF911F9141
:1018E0000F91FF90EF90DF90CF900895789484B59A
:1018F000826084BD84B5816084BD85B5826085BD0C
:1019000085B5816085BD80916E00816080936E0099
:10191000109281008091810082608093810080918B
:10192000810081608093810080918000816080933C
:1019300080008091B10084608093B1008091B000FC
:1019400081608093B00080919100826080939100CB
:1019500080919100816080939100809190008160DE
:10196000809390008091A10082608093A10080917B
:10197000A10081608093A1008091A000816080938C
:10198000A00080912101826080932101809121013A
:1019900081608093210180912001816080932001EA
:1019A00080917A00846080937A0080917A008260CE
:1019B00080937A0080917A00816080937A00809190
:1019C0007A00806880937A001092C100E0918E02C4
:1019D000F0918F0282E08083E0918A02F0918B0285
:1019E0001082E0918C02F0918D028FEC8083109236
:1019F0009602E0919202F091930286E08083E0915A
:101A00009002F0919102808180618083E091900248
:101A1000F0919102808188608083E0919002F09142
:101A20009102808180688083E0919002F091910220
:101A300080818F7D8083CFB7F89480916503811179
:101A400027C0EDE4F2E08491E3E9F2E09491E82F1D
:101A5000F0E0EE0FFF1FEC51FE4FA591B491EC9119
:101A6000E92321F461E085E30E94C00761E085E39A
:101A70000E9433098CB580618CBD8CB580648CBDAF
:101A800061E084E30E94330961E083E30E9433094B
:101A9000809165038F5F80936503CFBF61E0809184
:101AA00056030E94330961E0809156030E94C007EB
:101AB000809157038F3F41F44FE062E088E493E068
:101AC0000E94DF03C3E025C060E00E94330920913B
:101AD000570330E0F901EC55FD4F8491F901E25ACA
:101AE000FD4FD491F901E85EFD4FC491CC23F9F08C
:101AF00081110E946A07EC2FF0E0EE0FFF1FE65104
:101B0000FD4FA591B491EC91ED2389F0D5CFC15053
:101B100039F162E370E080E090E00E946F0962E0DA
:101B200088E493E00E94C10384FF1AC0F0CF61E013
:101B3000809157030E94330960E0809157030E940F
:101B4000C00783E090E00197F1F761E080915703CF
:101B50000E94C00762E370E080E090E00E946F099D
:101B600040E064E288E493E00E94DF0340E066E244
:101B700088E493E00E94DF0346E268E488E493E0AF
:101B80000E94DF0340E864E588E493E00E94DF03FD
:101B900049EA66E588E493E00E94DF0343E068E5F4
:101BA00088E493E00E94DF0348EE6AE588E493E06E
:101BB0000E94DF0340E46AE288E493E00E94DF03CE
:101BC0004DE362E288E493E00E94DF0368E288E488
:101BD00093E00E94C103982F9370933039F0482FFF
:101BE000436068E288E493E00E94DF0360E085E2FE
:101BF0000E94C00760E083E20E94C007C8E0D0E016
:101C000060E085E20E94C00760E081E20E94C007B8
:101C100061E085E20E94C007219791F761E083E2CD
:101C20000E94C00781E0809335038AE090E09093A2
:101C300032038093310390933703809336032FB799
:101C4000F8948091610390916203A0916303B09135
:101C500064032FBF8093380390933903A0933A0312
:101C6000B0933B0380913303909134030296909399
:101C700034038093330380E090E0A0EAB0E48093E3
:101C80001D0390931E03A0931F03B0932003209184
:101C90005F0330916003C901880F991FE0915A03D7
:101CA000F0915B03E80FF91F4BE153E05183408350
:101CB00040E050E06AE774E44093400350934103EE
:101CC000609342037093430340915A0350915B0326
:101CD0002E5F3F4F3093600320935F03FA01E80FBC
:101CE000F91F2EE333E0338322838FB7F8944090BB
:101CF00061035090620360906303709064038FBF30
:101D0000C0E0D0E080915F0390916003C817D907CD
:101D10000CF042C0C301B2010E943C0F6B017C0178
:101D20004E01880C991C00915A0310915B03080D19
:101D3000191DD801AD90BC90F501268137814085F1
:101D40005185C701B6010E94CF0ED50112962D9183
:101D50003D914D915C9115970E94CA0F1816D4F4CD
:101D6000C0935C03F80180819181DC01ED91FC91CD
:101D70000480F581E02D199580915A0390915B03C1
:101D8000FC01E80DF91D0190F081E02DC682D7829B
:101D9000E086F1862196B6CF0E94B701A6CF5058B3
:101DA000BB27AA270E94E70E0C94900F0E94820F77
:101DB00038F00E94890F20F039F49F3F19F426F47F
:101DC0000C947F0F0EF4E095E7FB0C94790FE92F4C
:101DD0000E94A10F58F3BA1762077307840795078B
:101DE00020F079F4A6F50C94C30F0EF4E0950B2EB9
:101DF000BA2FA02D0B01B90190010C01CA01A0015D
:101E00001124FF27591B99F0593F50F4503E68F1B7
:101E10001A16F040A22F232F342F4427585FF3CFF8
:101E2000469537952795A795F0405395C9F77EF4C9
:101E30001F16BA0B620B730B840BBAF09150A1F012
:101E4000FF0FBB1F661F771F881FC2F70EC0BA0F98
:101E5000621F731F841F48F4879577956795B79520
:101E6000F7959E3F08F0B0CF9395880F08F099271B
:101E7000EE0F979587950895E89409C097FB3EF477
:101E800090958095709561957F4F8F4F9F4F9923C7
:101E9000A9F0F92F96E9BB279395F6958795779545
:101EA0006795B795F111F8CFFAF4BB0F11F460FF05
:101EB0001BC06F5F7F4F8F4F9F4F16C0882311F05D
:101EC00096E911C0772321F09EE8872F762F05C071
:101ED000662371F096E8862F70E060E02AF09A950C
:101EE000660F771F881FDAF7880F9695879597F901
:101EF000089597F99F6780E870E060E008959FEF8C
:101F000080EC089500240A94161617061806090690
:101F1000089500240A94121613061406050608955F
:101F2000092E0394000C11F4882352F0BB0F40F4E7
:101F3000BF2B11F460FF04C06F5F7F4F8F4F9F4F27
:101F4000089557FD9058440F551F59F05F3F71F0A9
:101F50004795880F97FB991F61F09F3F79F0879510
:101F60000895121613061406551FF2CF4695F1DF99
:101F700008C0161617061806991FF1CF8695710529
:101F8000610508940895E894BB2766277727CB015D
:101F900097F908950E94CF0F08F48FEF0895990FD5
:101FA0000008550FAA0BE0E8FEEF16161706E80723
:101FB000F907C0F012161306E407F50798F0621B44
:101FC000730B840B950B39F40A2661F0232B242B19
:101FD000252B21F408950A2609F4A140A6958FEF38
:101FE000811D811D089597FB072E16F4009407D0DC
:101FF00077FD09D00E94311007FC05D03EF4909582
:1020000081959F4F0895709561957F4F0895A1E246
:102010001A2EAA1BBB1BFD010DC0AA1FBB1FEE1F62
:10202000FF1FA217B307E407F50720F0A21BB30BAD
:10203000E40BF50B661F771F881F991F1A9469F729
:1020400060957095809590959B01AC01BD01CF0185
:102050000895EE0FFF1F881F8BBF0790F691E02DAC
:102060001994AA1BBB1B51E107C0AA1FBB1FA617CF
:10207000B70710F0A61BB70B881F991F5A95A9F731
:1020800080959095BC01CD0108950F931F93CF9338
:10209000DF938230910510F482E090E0E0916D03CF
:1020A000F0916E0320E030E0A0E0B0E0309719F14D
:1020B000408151810281138148175907C8F0841764
:1020C000950769F4109731F012960C9312971396B6
:1020D0001C9327C000936D0310936E0322C021153B
:1020E000310519F04217530718F49A01BD01EF01A9
:1020F000DF01F801DBCF21153105F9F0281B390B81
:102100002430310580F48A819B816115710521F0AD
:10211000FB019383828304C090936E0380936D03CD
:10212000FE01329644C0FE01E20FF31F81939193AA
:1021300022503109398328833AC020916B033091B2
:102140006C03232B41F420911A0230911B0230932F
:102150006C0320936B032091180230911902211512
:10216000310541F42DB73EB740911C0250911D023C
:10217000241B350BE0916B03F0916C03E217F3071E
:10218000A0F42E1B3F0B2817390778F0AC014E5FE7
:102190005F4F2417350748F04E0F5F1F50936C03B5
:1021A00040936B038193919302C0E0E0F0E0CF0194
:1021B000DF91CF911F910F910895CF93DF930097F7
:1021C00009F481C0FC01329713821282A0916D0341
:1021D000B0916E03109781F420813181820F931F9B
:1021E00020916B0330916C032817390751F5F09358
:1021F0006C03E0936B0367C0ED0120E030E0CE1785
:10220000DF0740F44A815B819E0141155105F1F0E1
:10221000EA01F5CFD383C28340815181840F951F9A
:10222000C817D90759F488819981840F951F0296A0
:10223000918380838A819B819383828321153105D9
:1022400029F4F0936E03E0936D033DC0E901FB8335
:10225000EA8349915991C40FD51FEC17FD0761F42A
:1022600080819181840F951F0296E901998388836B
:10227000828193819B838A83E0E0F0E012968D91C6
:102280009C911397009719F0FD01DC01F7CF8D9118
:102290009C9111979D012E5F3F4F820F931F2091BC
:1022A0006B0330916C032817390769F4309729F4D0
:1022B00010926E0310926D0302C013821282B093CB
:1022C0006C03A0936B03DF91CF91089581E090E0C0
:1022D000F8940C946B1111E0C3E8D1E000E006C063
:1022E000802FFE010E9429102196011DC438D107BC
:0A22F00080E00807A9F7F894FFCF7B
:1022FA0002000300040005000600070008000900A8
:10230A000A000B000C000D0000006F0380000000A3
:10231A0000001E0AA909D7096B0A080AE609FA0980
:10232A0000000000FE060A0700000000B004FC03DB
:10233A00F001000000001407020200000000150767
:10234A0004023C0600000000000000000002000039
:10235A00000016070602080220300020000D0A00BD
:0E236A0047656C6573656E65205549443A0001
:00000001FF
