:100000000C948F010C94C0010C94C0010C94C0019D
:100010000C94C0010C94C0010C94C0010C94C0015C
:100020000C94C0010C94C0010C94C0010C94C0014C
:100030000C94C0010C94700D0C94C0010C94C00180
:100040000C94C0010C94C0010C94C0010C94C0012C
:100050000C94C0010C94C0010C94C0010C94260DAA
:100060000C94C0010C94390E0C940F0E0C94C0012A
:100070000C94C0010C94C0010C94C0010C94C001FC
:100080000C94C0010C94C0010C94C0010C94C001EC
:100090000C94C0010C94C0010C94C0010C94C001DC
:1000A0000C94C0010C94C0010C94C0010C94C001CC
:1000B0000C94C0010C94C0010C94C0010C94C001BC
:1000C0000C94C0010C94C0010C94C0010C94C001AC
:1000D0000C94C0010C94C0010C94C0010C94C0019C
:1000E0000C94C001B802C002C902DD02F702060387
:1000F000200340034F036F03340B370B260B2A0BEF
:10010000300B6E0B3B0B3F0B450B490B4D0B530B51
:10011000570B5B0B6E0B610B650B690B0C943B0B68
:100120000C94CD070C94450B0C945F110C94631147
:100130000C94410A0C94530B0C94020A0C94260B59
:100140000C94650B0C94F7020C94AA0A0C94C00250
:100150000C94F70A0C941B020C947E0A0C941A0A55
:100160000C9417020C94920A0C94180A0C944003F5
:100170000C944F030C941D020C9459090C942A0BF7
:100180000C946F030C94DD020C94B8020C94190AC1
:100190000C94370B0C94300B0C9419070C940E0A2A
:1001A0000C94C2010C943F0B0C94AE0F0C94610B99
:1001B0000C94B10F0C94AD030C94690B0C94570B79
:1001C0000C94490B0C941F020C94C9020C944D0B17
:1001D0000C946E0B0C94340B0C946F0A0C94190253
:1001E0000C9406030C9407020C9421020C945B0BF4
:1001F0000C941B0A0C942003020000210024002709
:10020000002A002D00300033000101000004010726
:10021000010A0100002200250028002B002E0031D9
:1002200000340002010000050108010B010000205C
:10023000002300260029002C002F003200000100BE
:100240000003010601090105050505070508080861
:1002500008020202020A0A08080404040401010157
:10026000010101010103030303030303030407075F
:10027000070C0C0C0C0C0C0C0C02020202060606FD
:1002800006060606060B0B0B0B0B0B0B0B010210E5
:1002900020200808102040102040800201020108A0
:1002A0000402010102040810204080804020100850
:1002B00004020180040201804020100804020108A9
:1002C0000402010102040810204080010204081009
:1002D00020408000000A0B02090C0D0E08070304E1
:1002E000010000000000000000000000000000000D
:1002F00000000000000000000000000000000012EC
:1003000011100000000000000000000000000000CC
:100310000000000000000000000063115F111124C4
:100320001FBECFEFD1E2DEBFCDBF00E00CBF12E0B9
:10033000A0E0B2E0E0EEFAE200E00BBF02C00790FE
:100340000D92A639B107D9F723E0A6E9B2E001C0C2
:100350001D92A33CB207E1F711E0CEE8D1E000E046
:1003600006C021970109802FFE010E94FA13CD38A3
:10037000D10780E00807A9F70E94B40F0C945E151E
:100380000C940000FC01918D228D892F90E0805CFF
:100390009F4F821B91098F739927089580E090E009
:1003A000892B21F00E94A00A811125C080E090E0F5
:1003B000892B41F080E090E0892B21F00E94000021
:1003C00081111CC080E090E0892B41F080E090E03A
:1003D000892B21F00E940000811113C080E090E081
:1003E000892BA1F080E090E0892B81F00E94000031
:1003F00081110AC008950E940000D8CF0E94000019
:10040000E1CF0E940000EACF0C9400000895BC01E7
:100410006E5F7F4FDC01ED91FC910190F081E02D4A
:1004200040E0199591E0811190E0892F08950E9494
:1004300059150C94D0140C94D0140C94D0140C9422
:10044000D014AF92BF92CF92DF92EF92FF920F93B0
:100450001F93CF93DF93EC018C8D882309F447C061
:100460002FB7F8948091B8029091B902A091BA0286
:10047000B091BB022FBF4F8D58A169A17AA1841BF7
:10048000950BA60BB70B893E9340A105B10578F1FA
:10049000888D998DFC013197EF30B7E2FB07C0F4EE
:1004A0008E01005F1F4F20E030E04AE0E42EF12C87
:1004B000B7010E94C713D8018D939D938D01CB0185
:1004C0002F5F3F4F0097A1F73B8F2A8FF98FE88F5F
:1004D0002FB7F8948091B8029091B902A091BA0216
:1004E000B091BB022FBF8F8F98A3A9A3BAA3CA8CC8
:1004F000DB8C8601000F111F0C0F1D1F8EEF9FEF6D
:100500005C01AC1ABD0A1C141D040CF01BC1E12CCB
:10051000F12CEE85FF85EE0DFF1D60E080810E94CD
:100520006F0BB2E0EB0EF11C20E1E216F10489F74B
:100530007501E00EF11EEC85FD85EE0DFF1D60E0FE
:1005400080810E946F0B81E0C81AD108D8011E96E5
:10055000ED91FC911F97EA30F10508F0E1C0AE85FE
:10056000BF8561E08827EE58FF4F8F4F0C94FA1338
:100570008C910E946F0BEE85FF8561E082859CC0A7
:1005800012968C910E946F0BEE85FF8561E084814D
:10059000C5C08C910E946F0BEE85FF8561E0828162
:1005A0000E946F0BEE85FF8561E086810E946F0BD4
:1005B000EE85FF8561E0808513C08C910E946F0BF2
:1005C000EE85FF8561E082810E946F0BEE85FF85DD
:1005D00061E084810E946F0BEE85FF8561E086817A
:1005E0000E946F0BEE85FF8561E0848597C01296AF
:1005F0008C910E946F0BEE85FF8561E084810E94E3
:100600006F0BEE85FF8561E08285EACF8C910E94B9
:100610006F0BEE85FF8561E082850E946F0BEE8592
:10062000FF8561E084850E946F0BEE85FF8561E0A8
:1006300084810E946F0BEE85FF8561E086816EC02C
:100640008C910E946F0BEE85FF8561E082850E9490
:100650006F0BEE85FF8561E084850E946F0BEE8550
:10066000FF8561E084810E946F0BEE85FF8561E06C
:1006700086810E946F0BEE85FF8561E080854EC00C
:1006800012968C910E946F0BEE85FF8561E084814C
:100690000E946F0BEE85FF8561E080813FC08C91E9
:1006A0000E946F0BEE85FF8561E082850E946F0BD3
:1006B000EE85FF8561E084850E946F0BEE85FF85E6
:1006C00061E084810E946F0BEE85FF8561E0868189
:1006D0000E946F0BEE85FF8561E0808519C08C91CB
:1006E0000E946F0BEE85FF8561E082850E946F0B93
:1006F000EE85FF8561E084850E946F0BEE85FF85A6
:1007000061E084810E946F0BEE85FF8561E0868148
:100710000E946F0BEE85FF8561E082810E946F0B66
:1007200061E070E080E090E00E94EC0C8C859D859B
:10073000FC01EE0DFF1D61E080810E946F0B0250F5
:100740001109E1CEDF91CF911F910F91FF90EF90B2
:10075000DF90CF90BF90AF9008958F929F92AF920D
:10076000BF92CF92DF92EF92FF921F93CF93DF93CE
:10077000FC018485843008F01486848591E0980F0C
:100780009487DF01A80FB11DA80FB11D1D96CD9153
:10079000DC911E978285938520910002281721F015
:1007A0002F3F09F0D2C204C0E8EFF1E01491EAC093
:1007B00080930002E8EFF1E014911F3F09F4C5C2F5
:1007C000123009F472C048F5112309F451C01130F8
:1007D00009F0D8C010928000109281002091810011
:1007E0002860209381002091810021602093810066
:1007F0009C013327F901E95BFD4FE491F0E0EE0F36
:10080000FF1FED5EFD4F45915491F901E357FD4FF8
:10081000E491E093990211E059C1143009F48FC0BA
:1008200008F46AC0153009F0ADC010922001109292
:100830002101209121012860209321012091210193
:100840002160209321019C013327F901E95BFD4FD1
:10085000E491F0E0EE0FFF1FED5EFD4F45915491E6
:10086000F901E357FD4FE491E093960215E02EC1A4
:1008700014BC15BC24B5226024BD25B5216025BD5E
:100880009C013327F901E95BFD4FE491F0E0EE0FA5
:10089000FF1FED5EFD4F45915491F901E357FD4F68
:1008A000E491E0939A0210E04CC21092B0001092D2
:1008B000B1002091B00022602093B0002091B100DF
:1008C00021602093B1009C013327F901E95BFD4FC2
:1008D000E491F0E0EE0FFF1FED5EFD4F4591549166
:1008E0005093B2024093B102F901E357FD4FE491F6
:1008F000E093B30212E025C2109290001092910092
:100900002091910028602093910020919100216016
:10091000209391009C013327F901E95BFD4FE4919D
:10092000F0E0EE0FFF1FED5EFD4F45915491F90190
:10093000E357FD4FE491E093980213E0C7C0109293
:10094000A0001092A1002091A10028602093A10096
:100950002091A10021602093A1009C013327F9017F
:10096000E95BFD4FE491F0E0EE0FFF1FED5EFD4F00
:1009700045915491F901E357FD4FE491E0939702BB
:1009800014E0A4C017FDE1C161E00E94B00C812F0A
:100990008D7F09F09EC06E01E12CF12C60E072E1C8
:1009A0008AE790E0A70196010E94DB1349015A01F2
:1009B000BA01A90141505109610971094F3F51051F
:1009C0006105710509F008F445C060E472E48FE048
:1009D00090E0A70196010E94DB13BA01A9014150E2
:1009E0005109610971091230E9F44F3F5105610560
:1009F000710509F008F445C160E970ED83E090E00D
:100A0000A70196010E94DB13BA01A90141505109C7
:100A1000610971094F3F51056105710509F020F524
:100A200083E04DC04F3F510561057105A9F0A0F06D
:100A300068E478EE81E090E0A70196010E94DB1364
:100A4000BA01A9014150510961097109112309F441
:100A500049C140C181E001C082E0111130C095B5AB
:100A6000987F892B85BD92C068E478EE81E090E0A4
:100A7000A70196010E94DB13BA01A9014150510957
:100A8000610971094F3F51056105710509F008F4CD
:100A9000F6C064E274EF80E090E0A70196010E9446
:100AA000DB13BA01A90141505109610971094F3F96
:100AB00051056105710511F008F0E5C085E09091E0
:100AC000B100987F892B8093B1004FC061E00E94F4
:100AD000B00C6E01E12CF12C60E072E18AE790E04D
:100AE000A70196010E94DB13BA01A90141505109E7
:100AF000610971094115510581E06807710580F0B0
:100B000068E478EE81E090E0A70196010E94DB1393
:100B1000BA01A901415051096109710983E001C07D
:100B200081E0113039F490918100987F892B809376
:100B300081003EC0133039F490919100987F892B49
:100B4000809391005DC0143039F49091A100987F9A
:100B5000892B8093A10069C0153039F4909121014F
:100B6000987F892B8093210175C01230B1F134F444
:100B7000112361F0113009F0E8C01AC0143009F4F3
:100B800054C0F4F1153009F465C0DFC047BD8FEFE4
:100B90009FEFDC018093AB029093AC02A093AD0277
:100BA000B093AE0280916E00826080936E00CDC0E3
:100BB00050938900409388008FEF9FEFDC01809372
:100BC000A7029093A802A093A902B093AA028091D1
:100BD0006F00826080936F00B8C04093B3008FEFC6
:100BE0009FEFDC018093B4029093B502A093B6020C
:100BF000B093B70280917000826080937000A5C0AE
:100C000050939900409398008FEF9FEFDC01809301
:100C1000A3029093A402A093A502B093A602809190
:100C2000710082608093710090C05093A90040933E
:100C3000A8008FEF9FEFDC0180939F029093A002AA
:100C4000A093A102B093A20280917200826080936F
:100C500072007BC050932901409328018FEF9FEFD2
:100C6000DC0180939B0290939C02A0939D02B09321
:100C70009E028091730082608093730066C084E05E
:100C80001ECF82E01CCF62E17AE780E090E0A7010E
:100C900096010E94DB13BA01A90141505109610973
:100CA00071094F3F51056105710591F088F0D5013B
:100CB000C4012AE0B595A795979587952A95D1F710
:100CC000AC01BD01415051096109710987E0F7CEBE
:100CD00086E0F5CE4F3F51056105710509F098F6A4
:100CE00084E0BBCE4F3F51056105710541F138F1FC
:100CF00062E17AE780E090E0A70196010E94DB13B1
:100D0000BA01A90141505109610971094F3F5105CB
:100D10006105710591F088F0D501C4013AE0B595FF
:100D2000A795979587953A95D1F7AC01BD014150AC
:100D300051096109710985E092CE84E090CE83E08B
:100D40008ECE61E00E94B00C26CEDF91CF911F9134
:100D5000FF90EF90DF90CF90BF90AF909F908F90DB
:100D60000895FC01848DDF01A80FB11DA35ABF4F68
:100D70002C91848D90E001968F739927848FA6899A
:100D8000B7892C93A089B1898C91837080648C93EE
:100D9000938D848D981306C00288F389E02D80819D
:100DA0008F7D8083089508958EBD00000DB407FEE9
:100DB000FDCF8EB508958CBD9DBD08951F93CF9333
:100DC000DF93EC01162F83E590E00E94DB0660E0E4
:100DD0008E850E946F0B812F80680E94D40680E070
:100DE0000E94D406182F61E08E850E946F0B812F20
:100DF000DF91CF911F9108950F931F93CF93DF93AE
:100E0000EC01062F142F83E590E00E94DB0660E0E2
:100E10008E850E946F0B802F0E94D406812F0E9426
:100E2000D40661E08E85DF91CF911F910F910C94D4
:100E30006F0B8F929F92AF92CF92EF92FF920F9390
:100E40001F93CF93DF9300D01F921F92CDB7DEB7D1
:100E50004C0182E08D8340E064E2C4010E94FC0604
:100E600040E066E2C4010E94FC0646E268E4C40178
:100E70000E94FC0686E28B838D81823040F16CE11A
:100E8000C4010E94DE06482F4F776CE1C4010E9426
:100E9000FC0687E08C83A12CC12CCE0104967C013A
:100EA0008E010B5F1F4F9E012F5F3F4F41E0BE0140
:100EB0006D5F7F4FC4010E949E0B81110BC08D811D
:100EC000823039F481E09C81911104C008C084E033
:100ED00001C081E091E0823019F090E001C091E022
:100EE000892F0F900F900F900F900F90DF91CF915F
:100EF0001F910F91FF90EF90CF90AF909F908F90A8
:100F00000895CF92DF92EF92FF920F931F93CF93AA
:100F1000DF93EC016B01142F790140E062E00E9445
:100F2000FC0644E06AE0CE010E94FC0640E864E171
:100F3000CE010E94FC06A601612FCE010E947C0F0B
:100F400043E062E0CE010E94FC0608E813E16AE09B
:100F5000CE010E94DE0682FF13C040E062E0CE01B7
:100F60000E94FC0664E4CE010E94DE06F701808345
:100F700062E4CE010E94DE06F701818380E004C0B6
:100F80000150110921F783E0DF91CF911F910F915B
:100F9000FF90EF90DF90CF9008952F923F924F9265
:100FA0005F926F927F928F929F92AF92BF92CF92F9
:100FB000DF92EF92FF920F931F93CF93DF93CDB702
:100FC000DEB72C970FB6F894DEBF0FBECDBF41350C
:100FD00008F00BC1342E3B014C016CE10E94DE068F
:100FE000482F4F776CE1C4010E94FC062224239411
:100FF00032E0231691F083E02816E1F091E0291207
:10100000F6C083E989833320D1F081E0F301908138
:10101000953008F480E0B12C17C0F5E9F98333204E
:1010200081F081E0F3019081983008F480E043E0A2
:10103000B42E0AC087E9898336E0B32E04C0B12CF0
:1010400002C023E0B22E80E0D32CF8E0BF9ED0187F
:101050001124D7FCD12C882321F098E89B8333E01E
:1010600001C032E021E09D2D977009F420E09D2D14
:10107000959595959595290F31F4882309F492C09B
:1010800038E0D30E8FC0811102C094E001C093E01C
:10109000291708F4922FEB2DF0E03196E60DF71D9D
:1010A000232F4191A1E0B0E0AC0FBD1FA20FB11DF5
:1010B0004C932F5F422F431B491798F3DECF8111CA
:1010C000DEC09FE19D150CF494C080E2D82E90E71D
:1010D0009A839B818C8189279D8189279E8189277D
:1010E0008F839E01285F3F4F47E0BE016F5F7F4FB8
:1010F000C4010E9481078111A3C01A86E3E0EB8737
:10110000CE0107962C0199E09C87CA844C2D42950C
:10111000407F4C0D6AE1C4010E94FC06A12CCE0167
:101120000A967C018E01055F1F4F92014C85BE011E
:101130006F5F7F4FC4010E949E0B182F823009F011
:10114000BECF6CE1C4010E94DE0685FD98C08F71A0
:1011500009F480E2282F30E04D2DDD0C550B4217AD
:1011600053070CF044C0D82E85958595859591E060
:10117000980F422F477081E009F480E0890FE1E089
:10118000F0E0EC0FFD1FE80FF11D21503109277031
:10119000332781E090E001C0880F2A95EAF790811B
:1011A000892B80838FE18D150CF491CF9D2D977045
:1011B0009A878D2D8595859585958E5F292FE0E100
:1011C0008E9F200D11242A8321E0911101C020E07F
:1011D000280F2C8744244394512C4C0E5D1E480E3E
:1011E000511CF9E0F81BFB8790CF16E048C015E0D2
:1011F00046C08B81883809F43FC082E094E0EB2D33
:10120000F0E03196E60DF71D980FA1E0B0E0AC0FCD
:10121000BD1FA80FB11D2C9121938F5F8913F5CFAE
:101220008B85833029F58A85811122C09E012D5F2F
:101230003F4F41E0B201C4010E948107882311F0B1
:10124000182F1DC09B81F2018181981313C09C81CE
:10125000828198130FC0808182FF02C02394C8CE80
:10126000F3018387822D880F820D8F5F808307C0F3
:1012700011E005C017E003C083E093E0C0CF812FE9
:101280002C960FB6F894DEBF0FBECDBFDF91CF9185
:101290001F910F91FF90EF90DF90CF90BF90AF9094
:1012A0009F908F907F906F905F904F903F902F9086
:1012B00008956F927F928F929F92AF92CF92EF920A
:1012C000FF920F931F93CF93DF9300D01F92CDB760
:1012D000DEB74C013C014AE0640E711CC3010E9460
:1012E0001907882309F47DC0C3010E9407028823DF
:1012F00009F477C080E589831A829E012D5F3F4FF4
:1013000042E0BE016F5F7F4FC3010E9481078111E0
:101310000FC0A12CC12CE12CF12C00E010E020E04A
:1013200030E044E0BE016F5F7F4FC3010E949E0B1F
:10133000F4013D96D4011C968C9190E08150904E22
:1013400023E0880F991F2A95E1F700E010E098014B
:10135000883FBFEF9B0791F0419150E060E070E063
:10136000082E04C0440F551F661F771F0A94D2F73A
:10137000042B152B262B372B0897EACF093D1A4D46
:1013800029443D4C29F58091AF029091B002AC0107
:101390004D7F21E0452B09F020E0D4015C963C9183
:1013A0005C97321770F45A968D919C915B97DC0193
:1013B000ED91FC910190F081E02D199581E090E094
:1013C0000CC0019771F41092B0021092AF0209C0E4
:1013D00081E0F401848F83E090E09093B0028093E9
:1013E000AF020F900F900F900F90DF91CF911F9150
:1013F0000F91FF90EF90CF90AF909F908F907F9044
:101400006F9008952DE332E0FC01318320838281C7
:101410009381009711F00C94D0140895CF93DF932B
:10142000EC010E94020ACE01DF91CF910C94D014FE
:1014300008950895089508953FB7F8948091BE02E5
:101440009091BF02A091C002B091C10226B5A89BA5
:1014500005C02F3F19F00196A11DB11D3FBFBA2F46
:10146000A92F982F8827820F911DA11DB11DBC01A6
:10147000CD0142E0660F771F881F991F4A95D1F76B
:101480000895CF92DF92EF92FF920F931F93CF9325
:10149000DF936C017A018B01C0E0D0E0CE15DF054F
:1014A00081F0D8016D918D01D601ED91FC910190F3
:1014B000F081E02DC6011995892B11F02196EECF10
:1014C0007E01C701DF91CF911F910F91FF90EF90A7
:1014D000DF90CF900895089580E090E00895FC019A
:1014E000538D448D252F30E0842F90E0821B930B89
:1014F000541710F0CF96089501970895FC01918D2F
:10150000828D981761F0828DDF01A80FB11D5D9665
:101510008C91928D9F5F9F73928F90E008958FEFD3
:101520009FEF0895FC01918D828D981731F0828D87
:10153000E80FF11D858D90E008958FEF9FEF0895DE
:1015400082EC92E00E94C20121E0892B09F420E0A4
:10155000822F0895EF92FF920F931F93CF93DF9303
:10156000EC0181E0888F9B8D8C8D981305C0E889F4
:10157000F989808185FD26C0F62E0B8D10E00F5F66
:101580001F4F0F731127E02E8C8DE8120CC00FB681
:1015900007FCFACFE889F989808185FFF5CFCE0174
:1015A0000E94B106F1CF8B8DFE01E80FF11DE35AC9
:1015B000FF4FF0829FB7F8940B8FEA89FB898081F7
:1015C00080620AC09FB7F894EE89FF896083E8893A
:1015D000F98980818370806480839FBF81E090E07F
:1015E000DF91CF911F910F91FF90EF900895CF93CE
:1015F000DF93EC01888D8823C9F0EA89FB8980811B
:1016000085FD05C0A889B9898C9186FD0FC00FB6EC
:1016100007FCF5CF808185FFF2CFA889B9898C912D
:1016200085FFEDCFCE010E94B106E7CFDF91CF91CC
:10163000089590E0FC013197E231F10508F04EC0C9
:101640008827E458FF4F8F4F0C94FA138091800045
:101650008F7703C0809180008F7D809380000895F4
:1016600080918000877FF9CF84B58F7702C084B5E1
:101670008F7D84BD08958091B0008F7703C08091E5
:10168000B0008F7D8093B0000895809190008F7797
:1016900007C0809190008F7D03C080919000877F6C
:1016A0008093900008958091A0008F7707C080916B
:1016B000A0008F7D03C08091A000877F8093A00051
:1016C0000895809120018F7707C0809120018F7D40
:1016D00003C080912001877F8093200108951F938C
:1016E000CF93DF93282F30E0F901ED52FD4F849125
:1016F000F901E357FD4FD491F901E95BFD4FC49126
:10170000CC23C1F0162F81110E94190BEC2FF0E0B1
:10171000EE0FFF1FED5EFD4FA591B4919FB7F894BA
:10172000111104C08C91D095D82302C0EC91DE2B0E
:10173000DC939FBFDF91CF911F9108954F925F92ED
:101740006F927F928F929F92AF92BF92CF92DF92D1
:10175000EF92FF920F931F93CF93DF931F921F92ED
:10176000CDB7DEB74C012B01D42E3901E114F104C1
:1017700019F0F701408101C040E0B42EF0E1CF9EA6
:10178000B00C112440E062E0C4010E94FC064FE767
:1017900068E0C4010E94FC0640E864E1C4010E94C4
:1017A000FC06A2016D2DC4010E947C0F4B2D6AE145
:1017B000C4010E94FC064CE062E0C4010E94FC06E9
:1017C0006AE1C4010E94DE06482F40686AE1C40154
:1017D0000E94FC0680ED482E87E0582E68E0C40188
:1017E0000E94DE06982F907341F480FD04C081E0D2
:1017F000481A510899F783E0A0C06CE0C4010E9428
:10180000DE06D82E837109F095C06114710409F4C5
:101810005AC00115110509F456C064E1C4010E94C3
:10182000DE06B82EF80180818B1508F47DC0B082E9
:10183000BB20F1F183E590E00E94DB0660E0F4015B
:1018400086850E946F0BBA9482E90E94D406CC2050
:10185000A9F08FEF90E02C0101C0440CCA94EAF784
:1018600082E90E94D406242D2095F30190819223D1
:101870008421892B8083CC24C39401C0C12C4C2C9F
:10188000512C460C571CCB1438F482E90E94D40624
:10189000F2018083C394F3CF80E00E94D406F2016A
:1018A000808361E0F40186850E946F0B0E94D3065D
:1018B00068E1C4010E94DE068770E114F10421F0A2
:1018C000F701808301C080E0D3FC30C06114710453
:1018D00079F10115110561F1AA2051F1F80140815A
:1018E000413021F4843041F58FEF27C0423020F1A0
:1018F000811122C042509E012F5F3F4FB301C401AE
:101900000E948107811119C0F8018081680E711C45
:10191000F30132979081898198130EC0319690819E
:101920008A81981309C004C084E007C082E005C022
:1019300080E003C081E001C087E00F900F90DF914D
:10194000CF911F910F91FF90EF90DF90CF90BF90BC
:10195000AF909F908F907F906F905F904F90089581
:10196000CF93DF9390E0FC01E357FD4F2491FC01FE
:10197000E95BFD4F8491882361F190E0880F991F06
:10198000FC01E750FE4FC591D491FC01ED5EFD4F87
:10199000A591B491611109C09FB7F89488812095F1
:1019A00082238883EC912E230BC0623061F49FB7B1
:1019B000F8948881322F309583238883EC912E2BE5
:1019C0002C939FBF06C08FB7F894E8812E2B2883F5
:1019D0008FBFDF91CF9108958F929F92AF92BF9268
:1019E000CF92DF92EF92FF926B017C010E941C0A62
:1019F0004B015C01C114D104E104F104F1F00E9437
:101A00001C0ADC01CB0188199909AA09BB09883E87
:101A10009340A105B10570F321E0C21AD108E10895
:101A2000F10888EE880E83E0981EA11CB11CC11439
:101A3000D104E104F10419F7DDCFFF90EF90DF90BE
:101A4000CF90BF90AF909F908F9008951F920F926C
:101A50000FB60F9211242F933F938F939F93AF93C1
:101A6000BF938091B8029091B902A091BA02B0914F
:101A7000BB023091BD0223E0230F2D3720F40196E5
:101A8000A11DB11D05C026E8230F0296A11DB11DA1
:101A90002093BD028093B8029093B902A093BA023A
:101AA000B093BB028091BE029091BF02A091C00290
:101AB000B091C1020196A11DB11D8093BE02909309
:101AC000BF02A093C002B093C102BF91AF919F919A
:101AD0008F913F912F910F900FBE0F901F901895EF
:101AE0001F920F920FB60F9211240BB60F922F93E5
:101AF0003F934F935F936F937F938F939F93AF9396
:101B0000BF93EF93FF938091B4029091B502A0919F
:101B1000B602B091B702892B8A2B8B2B59F1909189
:101B2000B302E091B102F091B202808189278083F3
:101B30008091B4029091B502A091B602B091B70223
:101B4000181619061A061B060CF056C08091B4022E
:101B50009091B502A091B602B091B7020197A10988
:101B6000B1098093B4029093B502A093B602B093EA
:101B7000B70242C080910002E8EFF1E0E4919FEFEC
:101B800090930002E230C9F050F4EE2399F0E13076
:101B900081F590916F009D7F90936F002AC0E43093
:101BA00019F1E0F0E53029F5909173009D7F909355
:101BB00073001FC010926E001CC0909170009D7F3A
:101BC0009093700091E09093B0009091B100987F55
:101BD00094609093B1001092B3000BC0909171008B
:101BE0009D7F9093710005C0909172009D7F9093AE
:101BF000720060E00E946F0BFF91EF91BF91AF9177
:101C00009F918F917F916F915F914F913F912F9114
:101C10000F900BBE0F900FBE0F901F9018951F9244
:101C20000F920FB60F9211240BB60F922F933F9382
:101C30004F935F936F937F938F939F93AF93BF93D4
:101C4000EF93FF9382EC92E00E94B106FF91EF9137
:101C5000BF91AF919F918F917F916F915F914F91C4
:101C60003F912F910F900BBE0F900FBE0F901F90C2
:101C700018951F920F920FB60F9211240BB60F9268
:101C80002F938F939F93EF93FF93E091D202F09164
:101C9000D3028081E091D802F091D90282FD12C076
:101CA00090818091DB028F5F8F732091DC0282171D
:101CB00051F0E091DB02F0E0EE53FD4F958F809301
:101CC000DB0201C08081FF91EF919F918F912F9155
:101CD0000F900BBE0F900FBE0F901F9018951F9383
:101CE000CF93DF93182F60E085E20E946F0B60E0D6
:101CF00083E20E946F0BC8E0D0E060E085E20E94C2
:101D00006F0B612F607881E20E946F0B110F61E011
:101D100085E20E946F0B219781F761E083E2DF91FA
:101D2000CF911F910C946F0BCF93DF9361E0809163
:101D30009C030E94B00C61E080919C030E946F0B99
:101D400080919D038F3F41F44FE062E08EE893E085
:101D50000E94FC06C3E025C060E00E94B00C209108
:101D60009D0330E0F901ED52FD4F8491F901E357F5
:101D7000FD4FD491F901E95BFD4FC491CC23F9F0FB
:101D800081110E94190BEC2FF0E0EE0FFF1FE35DB5
:101D9000FD4FA591B491EC91ED2389F0D5CFC150C1
:101DA00039F162E370E080E090E00E94EC0C62E0C8
:101DB0008EE893E00E94DE0684FF1AC0F0CF61E057
:101DC00080919D030E94B00C60E080919D030E9471
:101DD0006F0B83E090E00197F1F761E080919D0344
:101DE0000E946F0B62E370E080E090E00E94EC0CD8
:101DF00040E064E28EE893E00E94FC0640E066E288
:101E00008EE893E00E94FC0646E268E48EE893E0E8
:101E10000E94FC0640E864E58EE893E00E94FC0620
:101E200049EA66E58EE893E00E94FC0643E068E537
:101E30008EE893E00E94FC0648EE6AE58EE893E0A7
:101E40000E94FC0640E46AE28EE893E00E94FC06F1
:101E50004DE362E28EE893E00E94FC0668E28EE8C1
:101E600093E00E94DE06982F9370933049F0482F3C
:101E7000436068E28EE893E0DF91CF910C94FC061A
:101E8000DF91CF9108952091BD033091BE03E09181
:101E9000BB03F091BC032E173F07F4F4DC0112964C
:101EA0004D935D936D937C931597E091B803F091FA
:101EB000B903A9014F5F5F4F5093BE034093BD0329
:101EC000220F331FE20FF31F91838083ED91FC916A
:101ED0000480F581E02D19944EE050E063E872E053
:101EE00082EC92E00E94410A42E050E062E972E036
:101EF00082EC92E00C94410ADF92EF92FF920F93F2
:101F00001F93CF93DF938C01F62ED42EE52E83E51D
:101F100090E00E94DB0660E0F80186850E946F0B6E
:101F200082E10E94D406CD2DDE2DCE018F0D911DB4
:101F30007C01EC16FD0621F089910E94D406F9CFB0
:101F400061E0F80186850E946F0BDF91CF911F91B0
:101F50000F91FF90EF90DF900C94D306FC01128A52
:101F60000895FC01148E0895789484B5826084BD30
:101F700084B5816084BD85B5826085BD85B581608D
:101F800085BD80916E00816080936E00109281000B
:101F900080918100826080938100809181008160C6
:101FA0008093810080918000816080938000809187
:101FB000B10084608093B1008091B0008160809313
:101FC000B000809191008260809391008091910097
:101FD0008160809391008091900081608093900057
:101FE0008091A10082608093A1008091A100816016
:101FF0008093A1008091A00081608093A0008091D7
:102000002101826080932101809121018160809370
:1020100021018091200181608093200180917A00CC
:10202000846080937A0080917A00826080937A0045
:1020300080917A00816080937A0080917A00806834
:1020400080937A001092C100E091D202F091D30205
:1020500082E08083E091CE02F091CF021082E09185
:10206000D002F091D1028FEC80831092DA02E091DD
:10207000D602F091D70286E08083E091D402F091FD
:10208000D502808180618083E091D402F091D502F5
:10209000808188608083E091D402F091D5028081B4
:1020A00080688083E091D402F091D50280818F7D99
:1020B0008083CFB7F8948091BC02811127C0ECE7F0
:1020C000F2E08491E2ECF2E09491E82FF0E0EE0F80
:1020D000FF1FE750FE4FA591B491EC91E92321F445
:1020E00061E085E30E946F0B61E085E30E94B00C24
:1020F0008CB580618CBD8CB580648CBD61E084E35F
:102100000E94B00C61E083E30E94B00C8091BC029D
:102110008F5F8093BC02CFBF0E94940E1092A003E9
:1021200083E090E09093BC038093BB0386E090E053
:102130000E9438149093B9038093B80382E00E9400
:102140006F0E40E050E060EA70E48FE593E00E949B
:10215000430F40E050E06AE774E484E893E00E94B3
:10216000430F9AE0292E312C8FB7F8944090B80293
:102170005090B9026090BA027090BB028FBFC0E06D
:10218000D0E08091BD039091BE03C817D9070CF031
:1021900042C0C301B2010E9410136B017C014E01C9
:1021A000880C991C0091B8031091B903080D191DF2
:1021B000D801AD90BC90F5012681378140855185CD
:1021C000C701B6010E94A312D50112962D913D912F
:1021D0004D915C9115970E949E131816D4F4C093EC
:1021E000BA03F80180819181DC01ED91FC910480BA
:1021F000F581E02D19958091B8039091B903FC0108
:10220000E80DF91D0190F081E02DC682D782E086AD
:10221000F1862196B6CF8091AF029091B0028330C3
:10222000910549F440E050E06AEF73E481EA93E0FD
:102230000E94430F15C08130910541F480E20E9455
:102240006F0E0E94940E1092A00336C0009711F4F6
:1022500080E007C0029781F580917B03882321F0FD
:1022600082E00E946F0E28C0B1E0B0937B033092F1
:1022700078032092770330927D0320927C032FB75E
:10228000F8948091B8029091B902A091BA02B091ED
:10229000BB022FBF80937E0390937F03A0938003A4
:1022A000B09381038091790390917A030296909381
:1022B0007A0380937903D4CF0E94CE0155CF86EB69
:1022C00093E00C94020ACF92DF92EF92FF920F9369
:1022D0001F93CF93DF93CDB7DEB760970FB6F89417
:1022E000DEBF0FBECDBF1092C5021092C40288EEB1
:1022F00093E0A0E0B0E08093C6029093C702A09361
:10230000C802B093C9028BE292E09093C30280931B
:10231000C20285EC90E09093CF028093CE0284ECD1
:1023200090E09093D1028093D00280EC90E0909363
:10233000D3028093D20281EC90E09093D5028093F7
:10234000D40282EC90E09093D7028093D60286EC80
:1023500090E09093D9028093D8021092DB02109201
:10236000DC021092DD021092DE028DE392E0909387
:10237000B7038093B6031092BE031092BD03109270
:10238000610310926203109263031092640310922F
:10239000650310926603109267031092680385E745
:1023A00092E09093600380935F0381E892E09093C2
:1023B0006A038093690381E192E090936C038093B8
:1023C0006B0381E092E090936E0380936D0388E04D
:1023D000EFE6F3E0DF011D928A95E9F710927803AA
:1023E0001092770310927A031092790310927B0374
:1023F00010927D0310927C0301E112E0780161E00C
:10240000F80180810E94B00C0E5F1F4F61E0D70180
:102410008C910E946F0BB2E009311B0779F701E044
:1024200012E081E1E82E82E0F82E680161E0F80117
:1024300080810E94B00C0E5F1F4F60E0D6018C912E
:102440000E946F0BE016F10681F78FE492E0909303
:1024500083038093820361E081E20E94B00C61E01B
:1024600085E20E94B00C61E083E20E94B00C109201
:1024700086031092870310928803109289031092AA
:102480008A0310928B0310928C0310928D0387E5C0
:1024900092E0909385038093840385E492E0909387
:1024A0008F0380938E0389E693E090939F0380933C
:1024B0009E031092A0038CE0FE013396A0E9B3E0E6
:1024C00001900D928A95E1F781E380939C038FE15F
:1024D00080939D031092A3031092A4031092A5036E
:1024E0001092A6031092A7031092A8031092A903BA
:1024F0001092AA0381E692E09093A2038093A10335
:1025000088E290E09093AC038093AB031092AD030C
:1025100088E0EFE1F2E0AEEAB3E001900D928A9537
:10252000E1F761E088E260960FB6F894DEBF0FBE77
:10253000CDBFDF91CF911F910F91FF90EF90DF9072
:10254000CF900C94B00C5058BB27AA270E94BB1206
:102550000C9464130E94561338F00E945D1320F00F
:1025600039F49F3F19F426F40C9453130EF4E095BC
:10257000E7FB0C944D13E92F0E94751358F3BA171B
:10258000620773078407950720F079F4A6F50C9489
:1025900097130EF4E0950B2EBA2FA02D0B01B90165
:1025A00090010C01CA01A0011124FF27591B99F0C9
:1025B000593F50F4503E68F11A16F040A22F232FD5
:1025C000342F4427585FF3CF469537952795A79525
:1025D000F0405395C9F77EF41F16BA0B620B730BCC
:1025E000840BBAF09150A1F0FF0FBB1F661F771F3D
:1025F000881FC2F70EC0BA0F621F731F841F48F4F2
:10260000879577956795B795F7959E3F08F0B0CF7A
:102610009395880F08F09927EE0F97958795089561
:10262000E89409C097FB3EF490958095709561956C
:102630007F4F8F4F9F4F9923A9F0F92F96E9BB2722
:102640009395F695879577956795B795F111F8CF9E
:10265000FAF4BB0F11F460FF1BC06F5F7F4F8F4F09
:102660009F4F16C0882311F096E911C0772321F0FF
:102670009EE8872F762F05C0662371F096E8862F97
:1026800070E060E02AF09A95660F771F881FDAF7EE
:10269000880F9695879597F9089597F99F6780E831
:1026A00070E060E008959FEF80EC089500240A94A4
:1026B0001616170618060906089500240A9412161D
:1026C0001306140605060895092E0394000C11F450
:1026D000882352F0BB0F40F4BF2B11F460FF04C0FD
:1026E0006F5F7F4F8F4F9F4F089557FD9058440F56
:1026F000551F59F05F3F71F04795880F97FB991F61
:1027000061F09F3F79F0879508951216130614061D
:10271000551FF2CF4695F1DF08C0161617061806AA
:10272000991FF1CF86957105610508940895E89485
:10273000BB2766277727CB0197F908950E94A3133B
:1027400008F48FEF0895990F0008550FAA0BE0E8E1
:10275000FEEF16161706E807F907C0F01216130663
:10276000E407F50798F0621B730B840B950B39F4A3
:102770000A2661F0232B242B252B21F408950A2609
:1027800009F4A140A6958FEF811D811D089597FB47
:10279000072E16F4009407D077FD09D00E9402148A
:1027A00007FC05D03EF4909581959F4F0895709554
:1027B00061957F4F0895052E97FB1EF400940E94AB
:1027C000F21357FD07D00E94161407FC03D04EF4F5
:1027D0000C94F21350954095309521953F4F4F4FF3
:1027E0005F4F089590958095709561957F4F8F4FBD
:1027F0009F4F0895EE0FFF1F881F8BBF0790F69124
:10280000E02D1994AA1BBB1B51E107C0AA1FBB1FD7
:10281000A617B70710F0A61BB70B881F991F5A956C
:10282000A9F780959095BC01CD010895A1E21A2EDB
:10283000AA1BBB1BFD010DC0AA1FBB1FEE1FFF1F64
:10284000A217B307E407F50720F0A21BB30BE40BB4
:10285000F50B661F771F881F991F1A9469F76095FB
:102860007095809590959B01AC01BD01CF010895B5
:102870000F931F93CF93DF938230910510F482E082
:1028800090E0E091C103F091C20320E030E0A0E0CD
:10289000B0E0309719F140815181028113814817CE
:1028A0005907C8F08417950769F4109731F012960C
:1028B0000C93129713961C9327C00093C103109397
:1028C000C20322C02115310519F04217530718F42D
:1028D0009A01BD01EF01DF01F801DBCF21153105C0
:1028E000F9F0281B390B2430310580F48A819B8153
:1028F0006115710521F0FB019383828304C09093DD
:10290000C2038093C103FE01329644C0FE01E20F70
:10291000F31F8193919322503109398328833AC060
:102920002091BF033091C003232B41F420911B025F
:1029300030911C023093C0032093BF0320911902F1
:1029400030911A022115310541F42DB73EB740915F
:102950001D0250911E02241B350BE091BF03F09124
:10296000C003E217F307A0F42E1B3F0B281739070B
:1029700078F0AC014E5F5F4F2417350748F04E0FDB
:102980005F1F5093C0034093BF038193919302C094
:10299000E0E0F0E0CF01DF91CF911F910F9108951A
:1029A000CF93DF93009709F481C0FC013297138223
:1029B0001282A091C103B091C203109781F42081CB
:1029C0003181820F931F2091BF033091C0032817DC
:1029D000390751F5F093C003E093BF0367C0ED01E1
:1029E00020E030E0CE17DF0740F44A815B819E0192
:1029F00041155105F1F0EA01F5CFD383C28340813F
:102A00005181840F951FC817D90759F4888199817E
:102A1000840F951F0296918380838A819B81938383
:102A200082832115310529F4F093C203E093C10399
:102A30003DC0E901FB83EA8349915991C40FD51F39
:102A4000EC17FD0761F480819181840F951F029638
:102A5000E90199838883828193819B838A83E0E063
:102A6000F0E012968D919C911397009719F0FD015B
:102A7000DC01F7CF8D919C9111979D012E5F3F4F07
:102A8000820F931F2091BF033091C003281739078D
:102A900069F4309729F41092C2031092C10302C066
:102AA00013821282B093C003A093BF03DF91CF9132
:102AB000089581E090E0F8940C945E1511E0CEE862
:102AC000D1E000E006C0802FFE010E94FA1321969B
:102AD000011DCF38D10780E00807A9F7F894FFCF90
:102AE000FF020003000400050006000700080009BB
:102AF000000A000B000C000D000000C3038000B8AA
:102B000001E803B801BC0200000000AA0A410A6FF4
:102B10000AF70AC2017E0A920A00000000020A0EA9
:102B20000A00000000CD0719070702000000001886
:102B30000A1B0200000000190A1D025909000000CA
:102B4000001A0A1F02AD0300000000000000001779
:102B500002000000001B0A19022102B10FF6FF005B
:102B600000AE0F54696D657242616E6B2066756CC4
:062B70006C000D0A0000DC
:00000001FF
