:100000000C948F010C94C0010C94C0010C94C0019D
:100010000C94C0010C94C0010C94C0010C94C0015C
:100020000C94C0010C94C0010C94C0010C94C0014C
:100030000C94C0010C94B00D0C94C0010C94C00140
:100040000C94C0010C94C0010C94C0010C94C0012C
:100050000C94C0010C94C0010C94C0010C94660D6A
:100060000C94C0010C94790E0C944F0E0C94C001AA
:100070000C94C0010C94C0010C94C0010C94C001FC
:100080000C94C0010C94C0010C94C0010C94C001EC
:100090000C94C0010C94C0010C94C0010C94C001DC
:1000A0000C94C0010C94C0010C94C0010C94C001CC
:1000B0000C94C0010C94C0010C94C0010C94C001BC
:1000C0000C94C0010C94C0010C94C0010C94C001AC
:1000D0000C94C0010C94C0010C94C0010C94C0019C
:1000E0000C94C001B802C002C902DD02F702060387
:1000F000200340034F036F03450A480A370A3B0AAF
:10010000410A7F0A4C0A500A560A5A0A5E0A640AD1
:10011000680A6C0A7F0A720A760A7A0A0C94370A0D
:100120000C9419070C94C0020C94560A0C94F20912
:100130000C9421020C9420030C94F7020C94970C5D
:100140000C946F030C94B90E0C94D20C0C947A0A94
:100150000C94FE090C943B0A0C945E0A0C94DD028C
:100160000C9419020C94BA0C0C94B8020C94E60985
:100170000C94FD090C941F0D0C941B020C94480A5E
:100180000C94B50E0C9417020C94410A0C94450A79
:100190000C94680A0C946C0A0C94640A0C94C201C6
:1001A0000C94AF0E0C94B20E0C941F020C94FC092C
:1001B0000C94690C0C9459090C9407020C94FF09D7
:1001C0000C94A60C0C94760A0C94AD030C944C0A77
:1001D0000C94500A0C94CD070C941D020C9440030F
:1001E0000C945A0A0C944F030C94720A0C947F0AD4
:1001F0000C94C9020C94060300002100240027007F
:100200002A002D0030003300010100000401070125
:100210000A0100002200250028002B002E003100DA
:10022000340002010000050108010B010505050568
:10023000070508080808020202020A0A080804045E
:10024000040401010101010101010303030303038C
:100250000303040707070C0C0C0C0C0C0C0C02021B
:10026000020206060606060606060B0B0B0B0B0B18
:100270000B0B0102102020080810204010204080A5
:10028000020102010804020101020408102040805A
:1002900080402010080402018004020180402010E8
:1002A0000804020108040201010204081020408031
:1002B000010204081020408000000A0B02090C0D06
:1002C0000E08070304010000000000000000000009
:1002D000000000000000000000000000000000001E
:1002E00000000000121110000000000000000000DB
:1002F00000000000000000000000000000000000FE
:1003000020002300260029002C002F0032000001CD
:1003100000000301060109010200B90EB50E112407
:100320001FBECFEFD1E2DEBFCDBF00E00CBF12E0B9
:10033000A0E0B2E0EEE1FAE200E00BBF02C00790FD
:100340000D92A438B107D9F723E0A4E8B2E001C0C8
:100350001D92A03BB207E1F711E0CEE8D1E000E04A
:1003600006C021970109802FFE010E949913CD3804
:10037000D10780E00807A9F70E94F70F0C94FD143D
:100380000C940000FC01918D228D892F90E0805CFF
:100390009F4F821B91098F739927089580E090E009
:1003A000892B21F00E94C80C811125C080E090E0CB
:1003B000892B41F080E090E0892B21F00E94000021
:1003C00081111CC080E090E0892B41F080E090E03A
:1003D000892B21F00E940000811113C080E090E081
:1003E000892BA1F080E090E0892B81F00E94000031
:1003F00081110AC008950E940000D8CF0E94000019
:10040000E1CF0E940000EACF0C9400000895BC01E7
:100410006E5F7F4FDC01ED91FC910190F081E02D4A
:1004200040E0199591E0811190E0892F08950E9494
:10043000F8140C946F140C946F140C946F140C94A7
:100440006F14AF92BF92CF92DF92EF92FF920F9311
:100450001F93CF93DF93EC018C8D882309F447C061
:100460002FB7F8948091A2039091A303A091A403C5
:10047000B091A5032FBF4F8D58A169A17AA1841B0C
:10048000950BA60BB70B893E9340A105B10578F1FA
:10049000888D998DFC013197EF30B7E2FB07C0F4EE
:1004A0008E01005F1F4F20E030E04AE0E42EF12C87
:1004B000B7010E946613D8018D939D938D01CB01E6
:1004C0002F5F3F4F0097A1F73B8F2A8FF98FE88F5F
:1004D0002FB7F8948091A2039091A303A091A40355
:1004E000B091A5032FBF8F8F98A3A9A3BAA3CA8CDD
:1004F000DB8C8601000F111F0C0F1D1F8EEF9FEF6D
:100500005C01AC1ABD0A1C141D040CF01BC1E12CCB
:10051000F12CEE85FF85EE0DFF1D60E080810E94CD
:10052000800AB2E0EB0EF11C20E1E216F10489F73B
:100530007501E00EF11EEC85FD85EE0DFF1D60E0FE
:1005400080810E94800A81E0C81AD108D8011E96D5
:10055000ED91FC911F97EA30F10508F0E1C0AE85FE
:10056000BF8561E08827EE58FF4F8F4F0C94991399
:100570008C910E94800AEE85FF8561E082859CC097
:1005800012968C910E94800AEE85FF8561E084813D
:10059000C5C08C910E94800AEE85FF8561E0828152
:1005A0000E94800AEE85FF8561E086810E94800AB4
:1005B000EE85FF8561E0808513C08C910E94800AE2
:1005C000EE85FF8561E082810E94800AEE85FF85CD
:1005D00061E084810E94800AEE85FF8561E086816A
:1005E0000E94800AEE85FF8561E0848597C012969F
:1005F0008C910E94800AEE85FF8561E084810E94D3
:10060000800AEE85FF8561E08285EACF8C910E94A9
:10061000800AEE85FF8561E082850E94800AEE8572
:10062000FF8561E084850E94800AEE85FF8561E098
:1006300084810E94800AEE85FF8561E086816EC01C
:100640008C910E94800AEE85FF8561E082850E9480
:10065000800AEE85FF8561E084850E94800AEE8530
:10066000FF8561E084810E94800AEE85FF8561E05C
:1006700086810E94800AEE85FF8561E080854EC0FC
:1006800012968C910E94800AEE85FF8561E084813C
:100690000E94800AEE85FF8561E080813FC08C91D9
:1006A0000E94800AEE85FF8561E082850E94800AB3
:1006B000EE85FF8561E084850E94800AEE85FF85D6
:1006C00061E084810E94800AEE85FF8561E0868179
:1006D0000E94800AEE85FF8561E0808519C08C91BB
:1006E0000E94800AEE85FF8561E082850E94800A73
:1006F000EE85FF8561E084850E94800AEE85FF8596
:1007000061E084810E94800AEE85FF8561E0868138
:100710000E94800AEE85FF8561E082810E94800A46
:1007200061E070E080E090E00E942F0C8C859D8558
:10073000FC01EE0DFF1D61E080810E94800A0250E5
:100740001109E1CEDF91CF911F910F91FF90EF90B2
:10075000DF90CF90BF90AF9008958F929F92AF920D
:10076000BF92CF92DF92EF92FF921F93CF93DF93CE
:10077000FC018485843008F01486848591E0980F0C
:100780009487DF01A80FB11DA80FB11D1D96CD9153
:10079000DC911E978285938520911802281721F0FD
:1007A0002F3F09F0D2C204C0E8E1F3E01491EAC09F
:1007B00080931802E8E1F3E014911F3F09F4C5C2E9
:1007C000123009F472C048F5112309F451C01130F8
:1007D00009F0D8C010928000109281002091810011
:1007E0002860209381002091810021602093810066
:1007F0009C013327F901E45DFD4FE491F0E0EE0F39
:10080000FF1FEE5EFD4F45915491F901EE58FD4FEB
:10081000E491E093870211E059C1143009F48FC0CC
:1008200008F46AC0153009F0ADC010922001109292
:100830002101209121012860209321012091210193
:100840002160209321019C013327F901E45DFD4FD4
:10085000E491F0E0EE0FFF1FEE5EFD4F45915491E5
:10086000F901EE58FD4FE491E093840215E02EC1AA
:1008700014BC15BC24B5226024BD25B5216025BD5E
:100880009C013327F901E45DFD4FE491F0E0EE0FA8
:10089000FF1FEE5EFD4F45915491F901EE58FD4F5B
:1008A000E491E093880210E04CC21092B0001092E4
:1008B000B1002091B00022602093B0002091B100DF
:1008C00021602093B1009C013327F901E45DFD4FC5
:1008D000E491F0E0EE0FFF1FEE5EFD4F4591549165
:1008E00050939C0340939B03F901EE58FD4FE49114
:1008F000E0939D0312E025C21092900010929100A7
:100900002091910028602093910020919100216016
:10091000209391009C013327F901E45DFD4FE491A0
:10092000F0E0EE0FFF1FEE5EFD4F45915491F9018F
:10093000EE58FD4FE491E093860213E0C7C0109299
:10094000A0001092A1002091A10028602093A10096
:100950002091A10021602093A1009C013327F9017F
:10096000E45DFD4FE491F0E0EE0FFF1FEE5EFD4F02
:1009700045915491F901EE58FD4FE491E0938502C1
:1009800014E0A4C017FDE1C161E00E94F30B812FC8
:100990008D7F09F09EC06E01E12CF12C60E072E1C8
:1009A0008AE790E0A70196010E947A1349015A0153
:1009B000BA01A90141505109610971094F3F51051F
:1009C0006105710509F008F445C060E472E48FE048
:1009D00090E0A70196010E947A13BA01A901415043
:1009E0005109610971091230E9F44F3F5105610560
:1009F000710509F008F445C160E970ED83E090E00D
:100A0000A70196010E947A13BA01A9014150510928
:100A1000610971094F3F51056105710509F020F524
:100A200083E04DC04F3F510561057105A9F0A0F06D
:100A300068E478EE81E090E0A70196010E947A13C5
:100A4000BA01A9014150510961097109112309F441
:100A500049C140C181E001C082E0111130C095B5AB
:100A6000987F892B85BD92C068E478EE81E090E0A4
:100A7000A70196010E947A13BA01A90141505109B8
:100A8000610971094F3F51056105710509F008F4CD
:100A9000F6C064E274EF80E090E0A70196010E9446
:100AA0007A13BA01A90141505109610971094F3FF7
:100AB00051056105710511F008F0E5C085E09091E0
:100AC000B100987F892B8093B1004FC061E00E94F4
:100AD000F30B6E01E12CF12C60E072E18AE790E00B
:100AE000A70196010E947A13BA01A9014150510948
:100AF000610971094115510581E06807710580F0B0
:100B000068E478EE81E090E0A70196010E947A13F4
:100B1000BA01A901415051096109710983E001C07D
:100B200081E0113039F490918100987F892B809376
:100B300081003EC0133039F490919100987F892B49
:100B4000809391005DC0143039F49091A100987F9A
:100B5000892B8093A10069C0153039F4909121014F
:100B6000987F892B8093210175C01230B1F134F444
:100B7000112361F0113009F0E8C01AC0143009F4F3
:100B800054C0F4F1153009F465C0DFC047BD8FEFE4
:100B90009FEFDC018093990290939A02A0939B02AD
:100BA000B0939C0280916E00826080936E00CDC0F5
:100BB00050938900409388008FEF9FEFDC01809372
:100BC000950290939602A0939702B0939802809119
:100BD0006F00826080936F00B8C04093B3008FEFC6
:100BE0009FEFDC0180939E0390939F03A093A0034B
:100BF000B093A10380917000826080937000A5C0C3
:100C000050939900409398008FEF9FEFDC01809301
:100C1000910290939202A0939302B09394028091D8
:100C2000710082608093710090C05093A90040933E
:100C3000A8008FEF9FEFDC0180938D0290938E02CE
:100C4000A0938F02B0939002809172008260809393
:100C500072007BC050932901409328018FEF9FEFD2
:100C6000DC018093890290938A02A0938B02B09357
:100C70008C028091730082608093730066C084E070
:100C80001ECF82E01CCF62E17AE780E090E0A7010E
:100C900096010E947A13BA01A901415051096109D4
:100CA00071094F3F51056105710591F088F0D5013B
:100CB000C4012AE0B595A795979587952A95D1F710
:100CC000AC01BD01415051096109710987E0F7CEBE
:100CD00086E0F5CE4F3F51056105710509F098F6A4
:100CE00084E0BBCE4F3F51056105710541F138F1FC
:100CF00062E17AE780E090E0A70196010E947A1312
:100D0000BA01A90141505109610971094F3F5105CB
:100D10006105710591F088F0D501C4013AE0B595FF
:100D2000A795979587953A95D1F7AC01BD014150AC
:100D300051096109710985E092CE84E090CE83E08B
:100D40008ECE61E00E94F30B26CEDF91CF911F91F2
:100D5000FF90EF90DF90CF90BF90AF909F908F90DB
:100D60000895FC01848DDF01A80FB11DA35ABF4F68
:100D70002C91848D90E001968F739927848FA6899A
:100D8000B7892C93A089B1898C91837080648C93EE
:100D9000938D848D981306C00288F389E02D80819D
:100DA0008F7D8083089508958EBD00000DB407FEE9
:100DB000FDCF8EB508958CBD9DBD08951F93CF9333
:100DC000DF93EC01162F83E590E00E94DB0660E0E4
:100DD0008E850E94800A812F80680E94D40680E060
:100DE0000E94D406182F61E08E850E94800A812F10
:100DF000DF91CF911F9108950F931F93CF93DF93AE
:100E0000EC01062F142F83E590E00E94DB0660E0E2
:100E10008E850E94800A802F0E94D406812F0E9416
:100E2000D40661E08E85DF91CF911F910F910C94D4
:100E3000800A8F929F92AF92CF92EF92FF920F9380
:100E40001F93CF93DF9300D01F921F92CDB7DEB7D1
:100E50004C0182E08D8340E064E2C4010E94FC0604
:100E600040E066E2C4010E94FC0646E268E4C40178
:100E70000E94FC0686E28B838D81823040F16CE11A
:100E8000C4010E94DE06482F4F776CE1C4010E9426
:100E9000FC0687E08C83A12CC12CCE0104967C013A
:100EA0008E010B5F1F4F9E012F5F3F4F41E0BE0140
:100EB0006D5F7F4FC4010E94E10A81110BC08D81DB
:100EC000823039F481E09C81911104C008C084E033
:100ED00001C081E091E0823019F090E001C091E022
:100EE000892F0F900F900F900F900F90DF91CF915F
:100EF0001F910F91FF90EF90CF90AF909F908F90A8
:100F00000895CF92DF92EF92FF920F931F93CF93AA
:100F1000DF93EC016B01142F790140E062E00E9445
:100F2000FC0644E06AE0CE010E94FC0640E864E171
:100F3000CE010E94FC06A601612FCE010E94AF0ADD
:100F400043E062E0CE010E94FC0608E813E16AE09B
:100F5000CE010E94DE0682FF13C040E062E0CE01B7
:100F60000E94FC0664E4CE010E94DE06F701808345
:100F700062E4CE010E94DE06F701818380E004C0B6
:100F80000150110921F783E0DF91CF911F910F915B
:100F9000FF90EF90DF90CF9008952F923F924F9265
:100FA0005F926F927F928F929F92AF92BF92CF92F9
:100FB000DF92EF92FF920F931F93CF93DF93CDB702
:100FC000DEB72C970FB6F894DEBF0FBECDBF41350C
:100FD00008F00BC1342E3B014C016CE10E94DE068F
:100FE000482F4F776CE1C4010E94FC062224239411
:100FF00032E0231691F083E02816E1F091E0291207
:10100000F6C083E989833320D1F081E0F301908138
:10101000953008F480E0B12C17C0F5E9F98333204E
:1010200081F081E0F3019081983008F480E043E0A2
:10103000B42E0AC087E9898336E0B32E04C0B12CF0
:1010400002C023E0B22E80E0D32CF8E0BF9ED0187F
:101050001124D7FCD12C882321F098E89B8333E01E
:1010600001C032E021E09D2D977009F420E09D2D14
:10107000959595959595290F31F4882309F492C09B
:1010800038E0D30E8FC0811102C094E001C093E01C
:10109000291708F4922FEB2DF0E03196E60DF71D9D
:1010A000232F4191A1E0B0E0AC0FBD1FA20FB11DF5
:1010B0004C932F5F422F431B491798F3DECF8111CA
:1010C000DEC09FE19D150CF494C080E2D82E90E71D
:1010D0009A839B818C8189279D8189279E8189277D
:1010E0008F839E01285F3F4F47E0BE016F5F7F4FB8
:1010F000C4010E9481078111A3C01A86E3E0EB8737
:10110000CE0107962C0199E09C87CA844C2D42950C
:10111000407F4C0D6AE1C4010E94FC06A12CCE0167
:101120000A967C018E01055F1F4F92014C85BE011E
:101130006F5F7F4FC4010E94E10A182F823009F0CF
:10114000BECF6CE1C4010E94DE0685FD98C08F71A0
:1011500009F480E2282F30E04D2DDD0C550B4217AD
:1011600053070CF044C0D82E85958595859591E060
:10117000980F422F477081E009F480E0890FE1E089
:10118000F0E0EC0FFD1FE80FF11D21503109277031
:10119000332781E090E001C0880F2A95EAF790811B
:1011A000892B80838FE18D150CF491CF9D2D977045
:1011B0009A878D2D8595859585958E5F292FE0E100
:1011C0008E9F200D11242A8321E0911101C020E07F
:1011D000280F2C8744244394512C4C0E5D1E480E3E
:1011E000511CF9E0F81BFB8790CF16E048C015E0D2
:1011F00046C08B81883809F43FC082E094E0EB2D33
:10120000F0E03196E60DF71D980FA1E0B0E0AC0FCD
:10121000BD1FA80FB11D2C9121938F5F8913F5CFAE
:101220008B85833029F58A85811122C09E012D5F2F
:101230003F4F41E0B201C4010E948107882311F0B1
:10124000182F1DC09B81F2018181981313C09C81CE
:10125000828198130FC0808182FF02C02394C8CE80
:10126000F3018387822D880F820D8F5F808307C0F3
:1012700011E005C017E003C083E093E0C0CF812FE9
:101280002C960FB6F894DEBF0FBECDBFDF91CF9185
:101290001F910F91FF90EF90DF90CF90BF90AF9094
:1012A0009F908F907F906F905F904F903F902F9086
:1012B00008956F927F928F929F92AF92CF92EF920A
:1012C000FF920F931F93CF93DF9300D01F92CDB760
:1012D000DEB74C013C014AE0640E711CC3010E9460
:1012E0001907882309F461C0C3010E9407028823FB
:1012F00009F45BC080E589831A829E012D5F3F4F10
:1013000042E0BE016F5F7F4FC3010E9481078111E0
:101310000FC0A12CC12CE12CF12C00E010E020E04A
:1013200030E044E0BE016F5F7F4FC3010E94E10ADD
:10133000F4013D96D4011C968C9190E08150904E22
:1013400023E0880F991F2A95E1F700E010E098014B
:10135000883FBFEF9B0791F0419150E060E070E063
:10136000082E04C0440F551F661F771F0A94D2F73A
:10137000042B152B262B372B0897EACF093D1A4D46
:1013800029443D4C91F4D4015A968D919C915B97E0
:10139000DC01ED91FC910190F081E02D199581E047
:1013A00090E090939A03809399030F900F900F9081
:1013B0000F90DF91CF911F910F91FF90EF90CF9001
:1013C000AF909F908F907F906F9008952DE332E0C3
:1013D000FC013183208382819381009711F00C946A
:1013E0006F140895CF93DF93EC010E94E609CE01BC
:1013F000DF91CF910C946F14089508950895089586
:101400002091970330919803E0919503F091960312
:101410002E173F07F4F4DC0112964D935D936D9304
:101420007C931597E0919203F0919303A9014F5F8C
:101430005F4F5093980340939703220F331FE20F9F
:10144000F31F91838083ED91FC910480F581E02D61
:101450001994089590E0FC013197E231F10508F00C
:101460004EC08827E458FF4F8F4F0C9499138091FA
:1014700080008F7703C0809180008F7D80938000F3
:10148000089580918000877FF9CF84B58F7702C05F
:1014900084B58F7D84BD08958091B0008F7703C09F
:1014A0008091B0008F7D8093B0000895809190006E
:1014B0008F7707C0809190008F7D03C0809190004E
:1014C000877F8093900008958091A0008F7707C058
:1014D0008091A0008F7D03C08091A000877F8093C2
:1014E000A0000895809120018F7707C0809120018E
:1014F0008F7D03C080912001877F80932001089514
:101500001F93CF93DF93282F30E0F901E854FD4F6C
:101510008491F901EE58FD4FD491F901E45DFD4F3E
:10152000C491CC23C1F0162F81110E942A0AEC2FFE
:10153000F0E0EE0FFF1FEE5EFD4FA591B4919FB757
:10154000F894111104C08C91D095D82302C0EC916D
:10155000DE2BDC939FBFDF91CF911F910895DF9227
:10156000EF92FF920F931F93CF93DF938C01F62E90
:10157000D42EE52E83E590E00E94DB0660E0F801C2
:1015800086850E94800A82E10E94D406CD2DDE2D40
:10159000CE018F0D911D7C01EC16FD0621F0899185
:1015A0000E94D406F9CF61E0F80186850E94800A86
:1015B000DF91CF911F910F91FF90EF90DF900C94EE
:1015C000D3064F925F926F927F928F929F92AF92CB
:1015D000BF92CF92DF92EF92FF920F931F93CF9320
:1015E000DF931F921F92CDB7DEB74C012B01D42E93
:1015F0003901E114F10419F0F701408101C040E024
:10160000B42EF0E1CF9EB00C112440E062E0C401A2
:101610000E94FC064FE768E0C4010E94FC0640E817
:1016200064E1C4010E94FC06A2016D2DC4010E9468
:10163000AF0A4B2D6AE1C4010E94FC064CE062E057
:10164000C4010E94FC066AE1C4010E94DE06482F24
:1016500040686AE1C4010E94FC0680ED482E87E0E4
:10166000582E68E0C4010E94DE06982F907341F462
:1016700080FD04C081E0481A510899F783E0A0C0BA
:101680006CE0C4010E94DE06D82E837109F095C07B
:101690006114710409F45AC00115110509F456C00A
:1016A00064E1C4010E94DE06B82EF80180818B152A
:1016B00008F47DC0B082BB20F1F183E590E00E9488
:1016C000DB0660E0F40186850E94800ABA9482E914
:1016D0000E94D406CC20A9F08FEF90E02C0101C02D
:1016E000440CCA94EAF782E90E94D406242D20957E
:1016F000F301908192238421892B8083CC24C3948D
:1017000001C0C12C4C2C512C460C571CCB1438F466
:1017100082E90E94D406F2018083C394F3CF80E073
:101720000E94D406F201808361E0F40186850E9464
:10173000800A0E94D30668E1C4010E94DE06877019
:10174000E114F10421F0F701808301C080E0D3FCB3
:1017500030C06114710479F10115110561F1AA20FD
:1017600051F1F8014081413021F4843041F58FEF8F
:1017700027C0423020F1811122C042509E012F5FCC
:101780003F4FB301C4010E948107811119C0F801C4
:101790008081680E711CF3013297908189819813C2
:1017A0000EC0319690818A81981309C004C084E0EC
:1017B00007C082E005C080E003C081E001C087E08F
:1017C0000F900F90DF91CF911F910F91FF90EF90AD
:1017D000DF90CF90BF90AF909F908F907F906F9051
:1017E0005F904F900895CF93DF9390E0FC01EE5807
:1017F000FD4F2491FC01E45DFD4F8491882361F14C
:1018000090E0880F991FFC01E850FE4FC591D491DC
:10181000FC01EE5EFD4FA591B491611109C09FB727
:10182000F8948881209582238883EC912E230BC025
:10183000623061F49FB7F8948881322F309583230A
:101840008883EC912E2B2C939FBF06C08FB7F89402
:10185000E8812E2B28838FBFDF91CF9108958F923F
:101860009F92AF92BF92CF92DF92EF92FF926B0165
:101870007C010E94410D4B015C01C114D104E104C3
:10188000F104F1F00E94410DDC01CB0188199909A6
:10189000AA09BB09883E9340A105B10570F321E078
:1018A000C21AD108E108F10888EE880E83E0981E7C
:1018B000A11CB11CC114D104E104F10419F7DDCF5E
:1018C000FF90EF90DF90CF90BF90AF909F908F9060
:1018D0000895CF92DF92EF92FF920F931F93CF93D1
:1018E000DF936C017A018B01C0E0D0E0CE15DF05FB
:1018F00081F0D8016D918D01D601ED91FC9101909F
:10190000F081E02DC6011995892B11F02196EECFBB
:101910007E01C701DF91CF911F910F91FF90EF9052
:10192000DF90CF900895089580E090E00895FC0145
:10193000538D448D252F30E0842F90E0821B930B34
:10194000541710F0CF96089501970895FC01918DDA
:10195000828D981761F0828DDF01A80FB11D5D9611
:101960008C91928D9F5F9F73928F90E008958FEF7F
:101970009FEF0895FC01918D828D981731F0828D33
:10198000E80FF11D858D90E008958FEF9FEF08958A
:101990008DE992E00E94C20121E0892B09F420E048
:1019A000822F0895EF92FF920F931F93CF93DF93AF
:1019B000EC0181E0888F9B8D8C8D981305C0E889A0
:1019C000F989808185FD26C0F62E0B8D10E00F5F12
:1019D0001F4F0F731127E02E8C8DE8120CC00FB62D
:1019E00007FCFACFE889F989808185FFF5CFCE0120
:1019F0000E94B106F1CF8B8DFE01E80FF11DE35A75
:101A0000FF4FF0829FB7F8940B8FEA89FB898081A2
:101A100080620AC09FB7F894EE89FF896083E889E5
:101A2000F98980818370806480839FBF81E090E02A
:101A3000DF91CF911F910F91FF90EF900895CF9379
:101A4000DF93EC01888D8823C9F0EA89FB898081C6
:101A500085FD05C0A889B9898C9186FD0FC00FB698
:101A600007FCF5CF808185FFF2CFA889B9898C91D9
:101A700085FFEDCFCE010E94B106E7CFDF91CF9178
:101A800008953FB7F8948091A8039091A903A0917D
:101A9000AA03B091AB0326B5A89B05C02F3F19F050
:101AA0000196A11DB11D3FBFBA2FA92F982F8827DE
:101AB000820F911DA11DB11DBC01CD0142E0660F39
:101AC000771F881F991F4A95D1F708951F920F928B
:101AD0000FB60F9211242F933F938F939F93AF9341
:101AE000BF938091A2039091A303A091A403B0910E
:101AF000A5033091A70323E0230F2D3720F401968F
:101B0000A11DB11D05C026E8230F0296A11DB11D20
:101B10002093A7038093A2039093A303A093A4030D
:101B2000B093A5038091A8039091A903A091AA0363
:101B3000B091AB030196A11DB11D8093A8039093B2
:101B4000A903A093AA03B093AB03BF91AF919F9158
:101B50008F913F912F910F900FBE0F901F9018956E
:101B60001F920F920FB60F9211240BB60F922F9364
:101B70003F934F935F936F937F938F939F93AF9315
:101B8000BF93EF93FF9380919E0390919F03A09149
:101B9000A003B091A103892B8A2B8B2B59F1909133
:101BA0009D03E0919B03F0919C03808189278083B2
:101BB00080919E0390919F03A091A003B091A103F7
:101BC000181619061A061B060CF056C080919E03C3
:101BD00090919F03A091A003B091A1030197A10947
:101BE000B10980939E0390939F03A093A003B093A9
:101BF000A10342C080911802E8E1F3E0E4919FEF75
:101C000090931802E230C9F050F4EE2399F0E130DD
:101C100081F590916F009D7F90936F002AC0E43012
:101C200019F1E0F0E53029F5909173009D7F9093D4
:101C300073001FC010926E001CC0909170009D7FB9
:101C40009093700091E09093B0009091B100987FD4
:101C500094609093B1001092B3000BC0909171000A
:101C60009D7F9093710005C0909172009D7F90932D
:101C7000720060E00E94800AFF91EF91BF91AF91E6
:101C80009F918F917F916F915F914F913F912F9194
:101C90000F900BBE0F900FBE0F901F9018951F92C4
:101CA0000F920FB60F9211240BB60F922F933F9302
:101CB0004F935F936F937F938F939F93AF93BF9354
:101CC000EF93FF938DE992E00E94B106FF91EF91AF
:101CD000BF91AF919F918F917F916F915F914F9144
:101CE0003F912F910F900BBE0F900FBE0F901F9042
:101CF00018951F920F920FB60F9211240BB60F92E8
:101D00002F938F939F93EF93FF93E091AD02F09108
:101D1000AE028081E091B302F091B40282FD12C064
:101D200090818091B6028F5F8F732091B7028217E6
:101D300051F0E091B602F0E0E356FD4F958F8093AD
:101D4000B60201C08081FF91EF919F918F912F91F9
:101D50000F900BBE0F900FBE0F901F901895FC01B7
:101D6000128A0895FC01148E089580E993E00C9482
:101D7000E609CF92DF92EF92FF920F931F93CF93DA
:101D8000DF93CDB7DEB760970FB6F894DEBF0FBE16
:101D9000CDBF1092A00210929F0288EE93E0A0E0C7
:101DA000B0E08093A1029093A202A093A302B0930B
:101DB000A4028BE292E090939E0280939D0285ECB8
:101DC00090E09093AA028093A90284EC90E0909313
:101DD000AC028093AB0280EC90E09093AE028093D3
:101DE000AD0281EC90E09093B0028093AF0282EC60
:101DF00090E09093B2028093B10286EC90E09093D1
:101E0000B4028093B3021092B6021092B7021092FD
:101E1000B8021092B9028DE392E0909391038093FF
:101E20009003109298031092970310923C03109223
:101E30003D0310923E0310923F0310924003109214
:101E40004103109242031092430385E792E090937E
:101E50003B0380933A0381E892E09093450380939B
:101E6000440380E192E0909347038093460380E02F
:101E700092E0909349038093480388E0EAE4F3E01A
:101E8000DF011D928A95E9F71092530310925203D5
:101E90001092550310925403109256031092580357
:101EA0001092570300E112E0780161E0F8018081AF
:101EB0000E94F30B0E5F1F4F61E0D7018C910E94CF
:101EC000800AB2E008311B0779F700E012E080E1F8
:101ED000E82E82E0F82E680161E0F80180810E941E
:101EE000F30B0E5F1F4F60E0D6018C910E94800AB9
:101EF000E016F10681F78FE492E090935E03809301
:101F00005D0361E081E20E94F30B61E085E20E94E3
:101F1000F30B61E083E20E94F30B109261031092D5
:101F2000620310926303109264031092650310928F
:101F30006603109267031092680387E592E090931E
:101F4000600380935F0385E492E090936A0380933B
:101F5000690384E493E090937A03809379038CE09F
:101F6000FE013396ABE6B3E001900D928A95E1F75E
:101F700081E3809377038FE18093780310927D0350
:101F800010927E0310927F031092800310928103BF
:101F900010928203109283031092840381E692E0F0
:101FA00090937C0380937B0388E290E09093860378
:101FB000809385031092870388E0EFE1F2E0A8E8C0
:101FC000B3E001900D928A95E1F761E088E26096B6
:101FD0000FB6F894DEBF0FBECDBFDF91CF911F913A
:101FE0000F91FF90EF90DF90CF900C94F30B7894CB
:101FF00084B5826084BD84B5816084BD85B582600E
:1020000085BD85B5816085BD80916E0081608093BE
:102010006E00109281008091810082608093810027
:102020008091810081608093810080918000816037
:10203000809380008091B10084608093B100809192
:10204000B00081608093B0008091910082608093A5
:102050009100809191008160809391008091900027
:102060008160809390008091A10082608093A100A4
:102070008091A10081608093A1008091A000816087
:102080008093A00080912101826080932101809142
:1020900021018160809321018091200181608093E2
:1020A000200180917A00846080937A0080917A0088
:1020B000826080937A0080917A00816080937A00B8
:1020C00080917A00806880937A001092C100E0913C
:1020D000AD02F091AE0282E08083E091A902F0911E
:1020E000AA021082E091AB02F091AC028FEC8083E7
:1020F0001092B502E091B102F091B20286E08083C5
:10210000E091AF02F091B002808180618083E09124
:10211000AF02F091B002808188608083E091AF02CD
:10212000F091B002808180688083E091AF02F091ED
:10213000B00280818F7D8083CFB7F8948091A60311
:10214000811127C0E1E6F2E08491E7EAF2E09491A0
:10215000E82FF0E0EE0FFF1FE850FE4FA591B4917D
:10216000EC91E92321F461E085E30E94800A61E0BB
:1021700085E30E94F30B8CB580618CBD8CB58064C7
:102180008CBD61E084E30E94F30B61E083E30E9475
:10219000F30B8091A6038F5F8093A603CFBF61E00E
:1021A000809177030E94F30B61E0809177030E9496
:1021B000800A809178038F3F41F44FE062E089E626
:1021C00093E00E94FC06C3E025C060E00E94F30B90
:1021D0002091780330E0F901E854FD4F8491F90132
:1021E000EE58FD4FD491F901E45DFD4FC491CC232D
:1021F000F9F081110E942A0AEC2FF0E0EE0FFF1F88
:10220000E250FD4FA591B491EC91ED2389F0D5CF2B
:10221000C15039F162E370E080E090E00E942F0C41
:1022200062E089E693E00E94DE0684FF1AC0F0CFE8
:1022300061E0809178030E94F30B60E08091780365
:102240000E94800A83E090E00197F1F761E08091BD
:1022500078030E94800A62E370E080E090E00E94D0
:102260002F0C40E064E289E693E00E94FC0640E027
:1022700066E289E693E00E94FC0646E268E489E6AD
:1022800093E00E94FC0640E864E589E693E00E9442
:10229000FC0649EA66E589E693E00E94FC0643E015
:1022A00068E589E693E00E94FC0648EE6AE589E667
:1022B00093E00E94FC0640E46AE289E693E00E9413
:1022C000FC064DE362E289E693E00E94FC0668E2C8
:1022D00089E693E00E94DE06982F9370933039F0E0
:1022E000482F436068E289E693E00E94FC0683E0A1
:1022F00090E0909396038093950386E090E00E948F
:10230000D713909393038093920360E085E20E9439
:10231000800A60E083E20E94800AC8E0D0E060E0CA
:1023200085E20E94800A60E081E20E94800A61E00A
:1023300085E20E94800A219791F761E083E20E9482
:10234000800A81E0809356038AE090E090935303E3
:102350008093520390935803809357032FB7F894B8
:102360008091A2039091A303A091A403B091A5032F
:102370002FBF8093590390935A03A0935B03B093AC
:102380005C038091540390915503029690935503FA
:102390008093540340E050E060EA70E48AE393E005
:1023A0000E94000A40E050E06AE774E48FE593E0A1
:1023B0000E94000A8FB7F8944090A2035090A303A4
:1023C0006090A4037090A5038FBFC0E0D0E080911F
:1023D000970390919803C817D9070CF042C0C30126
:1023E000B2010E94AF126B017C014E01880C991C56
:1023F0000091920310919303080D191DD801AD901F
:10240000BC90F5012681378140855185C701B60111
:102410000E944212D50112962D913D914D915C91F1
:1024200015970E943D131816D4F4C0939403F80135
:1024300080819181DC01ED91FC910480F581E02D9A
:1024400019958091920390919303FC01E80DF91D79
:102450000190F081E02DC682D782E086F186219638
:10246000B6CF8091990390919A03019741F440E08F
:1024700050E06AEF73E48BE793E00E94000A0E9449
:10248000CE0198CF5058BB27AA270E945A120C940D
:1024900003130E94F51238F00E94FC1220F039F468
:1024A0009F3F19F426F40C94F2120EF4E095E7FB2A
:1024B0000C94EC12E92F0E94141358F3BA17620718
:1024C00073078407950720F079F4A6F50C9436136A
:1024D0000EF4E0950B2EBA2FA02D0B01B90190013F
:1024E0000C01CA01A0011124FF27591B99F0593F83
:1024F00050F4503E68F11A16F040A22F232F342FCB
:102500004427585FF3CF469537952795A795F04018
:102510005395C9F77EF41F16BA0B620B730B840B2D
:10252000BAF09150A1F0FF0FBB1F661F771F881FE5
:10253000C2F70EC0BA0F621F731F841F48F487953D
:1025400077956795B795F7959E3F08F0B0CF93952F
:10255000880F08F09927EE0F979587950895E894CE
:1025600009C097FB3EF490958095709561957F4FDB
:102570008F4F9F4F9923A9F0F92F96E9BB27939589
:10258000F695879577956795B795F111F8CFFAF499
:10259000BB0F11F460FF1BC06F5F7F4F8F4F9F4FCA
:1025A00016C0882311F096E911C0772321F09EE828
:1025B000872F762F05C0662371F096E8862F70E08E
:1025C00060E02AF09A95660F771F881FDAF7880F68
:1025D0009695879597F9089597F99F6780E870E039
:1025E00060E008959FEF80EC089500240A94161689
:1025F000170618060906089500240A9412161306F1
:10260000140605060895092E0394000C11F488237E
:1026100052F0BB0F40F4BF2B11F460FF04C06F5F9A
:102620007F4F8F4F9F4F089557FD9058440F551F70
:1026300059F05F3F71F04795880F97FB991F61F044
:102640009F3F79F087950895121613061406551FBB
:10265000F2CF4695F1DF08C0161617061806991F27
:10266000F1CF86957105610508940895E894BB271C
:1026700066277727CB0197F908950E94421308F443
:102680008FEF0895990F0008550FAA0BE0E8FEEFB1
:1026900016161706E807F907C0F012161306E40726
:1026A000F50798F0621B730B840B950B39F40A261F
:1026B00061F0232B242B252B21F408950A2609F4FD
:1026C000A140A6958FEF811D811D089597FB072ED0
:1026D00016F4009407D077FD09D00E94A11307FCDF
:1026E00005D03EF4909581959F4F08957095619522
:1026F0007F4F0895052E97FB1EF400940E949113BE
:1027000057FD07D00E94B51307FC03D04EF40C947C
:10271000911350954095309521953F4F4F4F5F4F06
:10272000089590958095709561957F4F8F4F9F4F3D
:102730000895EE0FFF1F881F8BBF0790F691E02DC5
:102740001994AA1BBB1B51E107C0AA1FBB1FA617E8
:10275000B70710F0A61BB70B881F991F5A95A9F74A
:1027600080959095BC01CD010895A1E21A2EAA1B77
:10277000BB1BFD010DC0AA1FBB1FEE1FFF1FA21731
:10278000B307E407F50720F0A21BB30BE40BF50B2E
:10279000661F771F881F991F1A9469F760957095B7
:1027A000809590959B01AC01BD01CF0108950F93D9
:1027B0001F93CF93DF938230910510F482E090E075
:1027C000E091AE03F091AF0320E030E0A0E0B0E094
:1027D000309719F1408151810281138148175907BF
:1027E000C8F08417950769F4109731F012960C938E
:1027F000129713961C9327C00093AE031093AF0358
:1028000022C02115310519F04217530718F49A0117
:10281000BD01EF01DF01F801DBCF21153105F9F032
:10282000281B390B2430310580F48A819B81611586
:10283000710521F0FB019383828304C09093AF0361
:102840008093AE03FE01329644C0FE01E20FF31FF7
:102850008193919322503109398328833AC0209182
:10286000AC033091AD03232B41F420911B02309136
:102870001C023093AD032093AC03209119023091D8
:102880001A022115310541F42DB73EB740911D02C2
:1028900050911E02241B350BE091AC03F091AD0367
:1028A000E217F307A0F42E1B3F0B2817390778F027
:1028B000AC014E5F5F4F2417350748F04E0F5F1F86
:1028C0005093AD034093AC038193919302C0E0E039
:1028D000F0E0CF01DF91CF911F910F910895CF9339
:1028E000DF93009709F481C0FC01329713821282B2
:1028F000A091AE03B091AF03109781F42081318194
:10290000820F931F2091AC033091AD032817390734
:1029100051F5F093AD03E093AC0367C0ED0120E007
:1029200030E0CE17DF0740F44A815B819E014115FC
:102930005105F1F0EA01F5CFD383C2834081518183
:10294000840F951FC817D90759F488819981840F7E
:10295000951F0296918380838A819B8193838283D2
:102960002115310529F4F093AF03E093AE033DC088
:10297000E901FB83EA8349915991C40FD51FEC17F4
:10298000FD0761F480819181840F951F0296E90112
:1029900099838883828193819B838A83E0E0F0E03E
:1029A00012968D919C911397009719F0FD01DC010F
:1029B000F7CF8D919C9111979D012E5F3F4F820F14
:1029C000931F2091AC033091AD032817390769F4A8
:1029D000309729F41092AF031092AE0302C0138215
:1029E0001282B093AD03A093AC03DF91CF91089511
:1029F00081E090E0F8940C94FD1411E0CEE8D1E071
:102A000000E006C0802FFE010E9499132196011D4F
:0E2A1000CF38D10780E00807A9F7F894FFCF70
:102A1E00020003000400050006000700080009007C
:102A2E000A000B000C000D00FF0000B0038000B880
:102A3E0001E803B801BC0200000000D20C690C973B
:102A4E000C1F0DC201A60CBA0C00000000E609F224
:102A5E000900000000CD071907070200000000FC66
:102A6E0009190200000000FD091B025909000000AF
:102A7E0000FE091D02AD030000000000000000175B
:102A8E000200000000FF091F022102B20EF6FF0035
:042A9E0000AF0E0077
:00000001FF
