:100000000C943E010C946F010C946F010C946F01E1
:100010000C946F010C946F010C946F010C946F01A0
:100020000C946F010C946F010C946F010C946F0190
:100030000C946F010C946F010C946F010C946F0180
:100040000C946F010C946F010C946F010C946F0170
:100050000C946F010C946F010C946F010C94D403F9
:100060000C946F010C9448040C941E040C946F01C2
:100070000C946F010C946F010C946F010C946F0140
:100080000C946F010C946F010C946F010C946F0130
:100090000C946F010C946F010C946F010C946F0120
:1000A0000C946F010C946F010C946F010C946F0110
:1000B0000C946F010C946F010C946F010C946F0100
:1000C0000C946F010C946F010C946F010C946F01F0
:1000D0000C946F010C946F010C946F010C946F01E0
:1000E0000C946F01D002D302C202C602CA020A03F4
:1000F000D702DB02E102E502E902EF02F302F702B6
:100100000A03FD02010305030C94C6020C940103CB
:100110000C949F010C94E1020C94B3010C94EF0237
:100120000C940A030C94F7020C94D2030C94D3029F
:100130000C94E5020C94C1010C94DB020C94D002E7
:100140000C947E040C943C020C94EF010C94E90294
:100150000C94D7020C9405030C94F3020C94CA027D
:100160000C94A1030C9490010C94C2020C94FD0217
:100170000C94CF0300000A0B02090C0D0E080703B4
:10018000040100000000000000000000000000006A
:10019000000000000000000000000000000000005F
:1001A000121110000000000000000000000000001C
:1001B00000000000000000000000000022002500F8
:1001C00028002B002E003100340002010000050140
:1001D00008010B0100002100240027002A002D0047
:1001E0003000330001010000040107010A01050588
:1001F0000505070508080808020202020A0A08089D
:1002000004040404010101010101010103030303CA
:1002100003030303040707070C0C0C0C0C0C0C0C59
:100220000202020206060606060606060B0B0B0B6A
:100230000B0B0B0B0102102020080810204010208F
:10024000408002010201080402010102040810209A
:100250004080804020100804020180040201804098
:100260002010080402010804020101020408102001
:10027000408001020408102040807E0411241FBE2B
:10028000CFEFD1E2DEBFCDBF00E00CBF12E0A0E0B7
:10029000B2E0E2E0FDE000E00BBF02C007900D928B
:1002A000A032B107D9F722E0A0E2B2E001C01D926E
:1002B000AC3CB207E1F711E0CEE3D1E000E006C0CC
:1002C00021970109802FFE010E945105CD33D107EE
:1002D00080E00807A9F70E94AB040C947F060C94F9
:1002E000000090E0FC01EC5CFD4F2491FC01E25128
:1002F000FE4F8491882399F090E0880F991FFC01AC
:10030000EC52FE4FA591B491FC01E654FE4F85914D
:1003100094918FB7F894EC91E22BEC938FBF0895F2
:10032000FC01538D448D252F30E0842F90E0821BFB
:10033000930B541710F0CF96089501970895FC0180
:10034000918D828D981761F0828DDF01A80FB11D0C
:100350005D968C91928D9F5F9F73928F90E0089530
:100360008FEF9FEF0895FC01918D828D981731F0EA
:10037000828DE80FF11D858D90E008958FEF9FEF3E
:100380000895FC01918D228D892F90E0805C9F4F14
:10039000821B91098F7399270895FC01848DDF01D9
:1003A000A80FB11DA35ABF4F2C91848D90E00196E8
:1003B0008F739927848FA689B7892C93A089B189D7
:1003C0008C91837080648C93938D848D981306C078
:1003D0000288F389E02D80818F7D80830895EF92DC
:1003E000FF920F931F93CF93DF93EC0181E0888FEF
:1003F0009B8D8C8D981305C0E889F989808185FDD6
:1004000026C0F62E0B8D10E00F5F1F4F0F731127C4
:10041000E02E8C8DE8120CC00FB607FCFACFE889ED
:10042000F989808185FFF5CFCE010E94CD01F1CF02
:100430008B8DFE01E80FF11DE35AFF4FF0829FB74D
:10044000F8940B8FEA89FB89808180620AC09FB78C
:10045000F894EE89FF896083E889F9898081837047
:10046000806480839FBF81E090E0DF91CF911F91F6
:100470000F91FF90EF900895CF93DF93EC01888D5B
:100480008823C9F0EA89FB89808185FD05C0A88998
:10049000B9898C9186FD0FC00FB607FCF5CF80811E
:1004A00085FFF2CFA889B9898C9185FFEDCFCE0168
:1004B0000E94CD01E7CFDF91CF9108958BE292E0CA
:1004C0000E94C10121E0892B09F420E0822F0895C8
:1004D00080E090E0892B21F00E945E02811125C00E
:1004E00080E090E0892B41F080E090E0892B21F0C2
:1004F0000E94000081111CC080E090E0892B41F037
:1005000080E090E0892B21F00E940000811113C04F
:1005100080E090E0892BA1F080E090E0892B81F0D1
:100520000E94000081110AC008950E940000D8CFE7
:100530000E940000E1CF0E940000EACF0C9400006E
:100540000895362F90E0FC01EC58FE4F4491FC01D9
:10055000EC5CFD4F2491FC01E251FE4F94919923F4
:1005600009F46CC0442309F455C050E0FA013197F6
:10057000E231F10508F04EC08827EE58FF4F8F4F4B
:100580000C945105809180008F7707C08091800086
:100590008F7D03C080918000877F809380003AC068
:1005A00084B58F7702C084B58F7D84BD33C08091C0
:1005B000B0008F7703C08091B0008F7D8093B00032
:1005C00029C0809190008F7707C0809190008F7D27
:1005D00003C080919000877F809390001BC0809122
:1005E000A0008F7707C08091A0008F7D03C080910D
:1005F000A000877F8093A0000DC0809120018F779D
:1006000007C0809120018F7D03C080912001877FEA
:1006100080932001E92FF0E0EE0FFF1FE654FE4F1C
:10062000A591B4919FB7F894311104C08C91209595
:10063000282302C0EC912E2B2C939FBF08951F936B
:10064000CF93DF93182F61E085E30E94A10261E060
:1006500083E30E94A102C8E0D0E061E085E30E944C
:10066000A102612F607881E30E94A102110F60E076
:1006700085E30E94A102219781F760E083E3DF9187
:10068000CF911F910C94A1023FB7F894809127025B
:1006900090912802A0912902B0912A0226B5A89B28
:1006A00005C02F3F19F00196A11DB11D3FBFBA2F04
:1006B000A92F982F8827820F911DA11DB11DBC0164
:1006C000CD0142E0660F771F881F991F4A95D1F729
:1006D00008958F929F92AF92BF92CF92DF92EF9246
:1006E000FF920E9444034B015C018CEBC82E82E018
:1006F000D82EE12CF12C0E944403DC01CB01881997
:100700009909AA09BB09883E9340A105B10598F350
:1007100021E0C21AD108E108F10888EE880E83E0D2
:10072000981EA11CB11CC114D104E104F10419F7F5
:10073000FF90EF90DF90CF90BF90AF909F908F9001
:100740000895CF92DF92EF92FF920F931F93CF9372
:10075000DF936C017A018B01C0E0D0E0CE15DF059C
:1007600081F0D8016D918D01D601ED91FC91019040
:10077000F081E02DC6011995892B11F02196EECF5D
:100780007E01C701DF91CF911F910F91FF90EF90F4
:10079000DF90CF900895089580E090E00895089547
:1007A0000E947A060C94F1051F920F920FB60F92D9
:1007B00011242F933F938F939F93AF93BF93809177
:1007C000230290912402A0912502B091260230913B
:1007D000220223E0230F2D3720F40196A11DB11D25
:1007E00005C026E8230F0296A11DB11D2093220209
:1007F0008093230290932402A0932502B0932602B3
:100800008091270290912802A0912902B0912A029A
:100810000196A11DB11D8093270290932802A093F9
:100820002902B0932A02BF91AF919F918F913F917E
:100830002F910F900FBE0F901F9018951F920F923F
:100840000FB60F9211240BB60F922F933F934F9335
:100850005F936F937F938F939F93AF93BF93EF9328
:10086000FF938BE292E00E94CD01FF91EF91BF9147
:10087000AF919F918F917F916F915F914F913F9138
:100880002F910F900BBE0F900FBE0F901F901895D9
:100890001F920F920FB60F9211240BB60F922F9347
:1008A0008F939F93EF93FF93E0913B02F0913C0273
:1008B0008081E0914102F091420282FD12C090815C
:1008C000809144028F5F8F7320914502821751F00F
:1008D000E0914402F0E0E55DFD4F958F8093440286
:1008E00001C08081FF91EF919F918F912F910F9087
:1008F0000BBE0F900FBE0F901F901895EBE2F2E029
:100900001382128288EE93E0A0E0B0E084839583A6
:10091000A683B78382E192E09183808385EC90E0A7
:100920009587848784EC90E09787868780EC90E0B9
:10093000918B808B81EC90E0938B828B82EC90E0AA
:10094000958B848B86EC90E0978B868B118E128E24
:10095000138E148E0895789484B5826084BD84B516
:10096000816084BD85B5826085BD85B5816085BDAA
:1009700080916E00816080936E0010928100809162
:1009800081008260809381008091810081608093EA
:100990008100809180008160809380008091B1000F
:1009A00084608093B1008091B00081608093B0003A
:1009B000809191008260809391008091910081608C
:1009C000809391008091900081608093900080914D
:1009D000A10082608093A1008091A100816080933A
:1009E000A1008091A00081608093A00080912101EE
:1009F0008260809321018091210181608093210197
:100A00008091200181608093200180917A00846030
:100A100080937A0080917A00826080937A0080913E
:100A20007A00816080937A0080917A008068809358
:100A30007A001092C10082E090E00E945905EC011A
:100A40008AE092E09983888381E30E94710185E3C3
:100A50000E94710183E30E947101D0932102C0932F
:100A60002002C4E6D0E082E20E941F030E946903D4
:100A700080E20E941F030E94690380E00E941F031E
:100A80000E94690382E00E941F030E94690380E0C4
:100A90000E941F030E946903219729F70E946802A0
:100AA000E0CFEE0FFF1F881F8BBF0790F691E02D60
:100AB00019940F931F93CF93DF938230910510F415
:100AC00082E090E0E091CA02F091CB0220E030E0B9
:100AD000A0E0B0E0309719F140815181028113818B
:100AE00048175907C8F08417950769F4109731F033
:100AF00012960C93129713961C9327C00093CA0268
:100B00001093CB0222C02115310519F0421753076B
:100B100018F49A01BD01EF01DF01F801DBCF2115C7
:100B20003105F9F0281B390B2430310580F48A8116
:100B30009B816115710521F0FB019383828304C0C1
:100B40009093CB028093CA02FE01329644C0FE010C
:100B5000E20FF31F81939193225031093983288347
:100B60003AC02091C8023091C902232B41F4209150
:100B70000202309103023093C9022093C8022091EF
:100B80000002309101022115310541F42DB73EB725
:100B90004091040250910502241B350BE091C802DC
:100BA000F091C902E217F307A0F42E1B3F0B2817A0
:100BB000390778F0AC014E5F5F4F2417350748F0D6
:100BC0004E0F5F1F5093C9024093C80281939193C7
:100BD00002C0E0E0F0E0CF01DF91CF911F910F91D3
:100BE0000895CF93DF93009709F481C0FC013297F9
:100BF00013821282A091CA02B091CB02109781F4A5
:100C000020813181820F931F2091C8023091C90247
:100C10002817390751F5F093C902E093C80267C05D
:100C2000ED0120E030E0CE17DF0740F44A815B8120
:100C30009E0141155105F1F0EA01F5CFD383C2833E
:100C400040815181840F951FC817D90759F48881B5
:100C50009981840F951F0296918380838A819B815D
:100C6000938382832115310529F4F093CB02E0931D
:100C7000CA023DC0E901FB83EA8349915991C40F3F
:100C8000D51FEC17FD0761F480819181840F951FBA
:100C90000296E90199838883828193819B838A8369
:100CA000E0E0F0E012968D919C911397009719F077
:100CB000FD01DC01F7CF8D919C9111979D012E5F75
:100CC0003F4F820F931F2091C8023091C90228170D
:100CD000390769F4309729F41092CB021092CA02B6
:100CE00002C013821282B093C902A093C802DF919E
:100CF000CF91089581E090E0F8940C947F06F894E9
:020D0000FFCF23
:100D02000000CC02800000000000CF03D2030000EC
:100D12000000EF01A10390013C02C1019F01B30158
:00000001FF
