:100000000C9488010C94B9010C94B9010C94B901B9
:100010000C94B9010C94B9010C94B9010C94B90178
:100020000C94B9010C94B9010C94B9010C94B90168
:100030000C94B9010C94B9010C94B9010C94B90158
:100040000C94B9010C94B9010C94B9010C94B90148
:100050000C94B9010C94B9010C94B9010C94C3042B
:100060000C94B9010C9437050C940D050C94B9014E
:100070000C94B9010C94B9010C94B9010C94B90118
:100080000C94B9010C94B9010C94B9010C94B90108
:100090000C94B9010C94B9010C94B9010C94B901F8
:1000A0000C94B9010C94B9010C94B9010C94B901E8
:1000B0000C94B9010C94B9010C94B9010C94B901D8
:1000C0000C94B9010C94B9010C94B9010C94B901C8
:1000D0000C94B9010C94B9010C94B9010C94B901B8
:1000E0000C94B901A103A903B203C603E003EF0313
:1000F0000904290438045804AE08B108A008A4086B
:10010000AA08E808B508B908BF08C308C708CD0899
:10011000D108D508E808DB08DF08E3080C94B2032F
:100120000C94F3070C9491080C94B9080C94E8080B
:100130000C94C3080C9496040C94A1030C94DB0853
:100140000C940A030C9492080C947A080C94EF0314
:100150000C94F8010C94310D0C941A020C94A40820
:100160000C94A9030C94B1080C94E3080C94D50AE0
:100170000C94BF080C94DF080C9490080C94350D77
:100180000C94D5080C94AA080C94E0030C94D108A4
:100190000C94C7080C9438040C94E9010C9498044E
:1001A0000C9409040C9429040C94B5080C94C6030F
:1001B0000C9467060C94AE080C9486080C949F026D
:1001C0000C94D20A0C94B3050C940C020C945202B9
:1001D0000C9458040C94CD080C949C040C94A00826
:1001E0000C94BB010C949A040C94FA0200002000B9
:1001F0002300260029002C002F00320000010000FF
:1002000003010601090100002100240027002A0043
:100210002D003000330001010000040107010A0134
:1002200000002200250028002B002E0031003400A1
:1002300002010000050108010B0105050505070580
:1002400008080808020202020A0A08080404040452
:10025000010101010101010103030303030303037E
:10026000040707070C0C0C0C0C0C0C0C020202020D
:1002700006060606060606060B0B0B0B0B0B0B0BF6
:1002800001021020200808102040102040800201A8
:10029000020108040201010204081020408080408D
:1002A000201008040201800402018040201008048C
:1002B000020108040201010204081020408001022A
:1002C00004081020408000000A0B02090C0D0E08E3
:1002D000070304010000000000000000000000000F
:1002E000000000000000000000000000000000000E
:1002F00000001211100000000000000000000000CB
:10030000000000000000000000000000350D310D6D
:1003100011241FBECFEFD1E2DEBFCDBF00E00CBF86
:1003200012E0A0E0B2E0E6ECF1E200E00BBF02C0B8
:1003300007900D92A037B107D9F723E0A0E7B2E00C
:1003400001C01D92A536B207E1F711E0C7E8D1E080
:1003500000E006C021970109802FFE010E948F0F47
:10036000C638D10780E00807A9F70E94D80A0C9484
:10037000D1100C940000CF92DF92EF92FF920F9376
:100380001F93CF93DF936C017A018B01C0E0D0E023
:10039000CE15DF0581F0D8016D918D01D601ED916B
:1003A000FC910190F081E02DC6011995892B11F087
:1003B0002196EECF7E01C701DF91CF911F910F9162
:1003C000FF90EF90DF90CF900895089580E090E047
:1003D0000895FC01538D448D252F30E0842F90E04B
:1003E000821B930B541710F0CF9608950197089530
:1003F000FC01918D828D981761F0828DDF01A80F2D
:10040000B11D5D968C91928D9F5F9F73928F90E04E
:1004100008958FEF9FEF0895FC01918D828D9817BD
:1004200031F0828DE80FF11D858D90E008958FEFFA
:100430009FEF0895FC01918D228D892F90E0805CC3
:100440009F4F821B91098F73992708958AE792E045
:100450000E941A0221E0892B09F420E0822F0895DE
:10046000FC01848DDF01A80FB11DA35ABF4F2C9151
:10047000848D90E001968F739927848FA689B78920
:100480002C93A089B1898C91837080648C93938D17
:10049000848D981306C00288F389E02D80818F7DBA
:1004A00080830895EF92FF920F931F93CF93DF9372
:1004B000EC0181E0888F9B8D8C8D981305C0E889B5
:1004C000F989808185FD26C0F62E0B8D10E00F5F27
:1004D0001F4F0F731127E02E8C8DE8120CC00FB642
:1004E00007FCFACFE889F989808185FFF5CFCE0135
:1004F0000E943002F1CF8B8DFE01E80FF11DE35A0F
:10050000FF4FF0829FB7F8940B8FEA89FB898081B7
:1005100080620AC09FB7F894EE89FF896083E889FA
:10052000F98980818370806480839FBF81E090E03F
:10053000DF91CF911F910F91FF90EF900895CF938E
:10054000DF93EC01888D8823C9F0EA89FB898081DB
:1005500085FD05C0A889B9898C9186FD0FC00FB6AD
:1005600007FCF5CF808185FFF2CFA889B9898C91EE
:1005700085FFEDCFCE010E943002E7CFDF91CF9112
:10058000089580E090E0892B21F00E9426028111DD
:1005900025C080E090E0892B41F080E090E0892B3D
:1005A00021F00E94000081111CC080E090E0892BA6
:1005B00041F080E090E0892B21F00E940000811141
:1005C00013C080E090E0892BA1F080E090E0892BBF
:1005D00081F00E94000081110AC008950E9400006D
:1005E000D8CF0E940000E1CF0E940000EACF0C9417
:1005F00000000895BC016E5F7F4FDC01ED91FC911E
:100600000190F081E02D40E0199591E0811190E09A
:10061000892F0895AF92BF92CF92DF92EF92FF920F
:100620000F931F93CF93DF93EC018C8D882309F4F4
:1006300047C02FB7F8948091720290917302A091F5
:100640007402B09175022FBF4F8D58A169A17AA194
:10065000841B950BA60BB70B893E9340A105B105F2
:1006600078F1888D998DFC013197EF30B7E2FB0767
:10067000C0F48E01005F1F4F20E030E04AE0E42E1E
:10068000F12CB7010E947B0FD8018D939D938D01B2
:10069000CB012F5F3F4F0097A1F73B8F2A8FF98F38
:1006A000E88F2FB7F8948091720290917302A09115
:1006B0007402B09175022FBF8F8F98A3A9A3BAA31C
:1006C000CA8CDB8C8601000F111F0C0F1D1F8EEFD3
:1006D0009FEF5C01AC1ABD0A1C141D040CF01BC179
:1006E000E12CF12CEE85FF85EE0DFF1D60E0808191
:1006F0000E94E908B2E0EB0EF11C20E1E216F104E1
:1007000089F77501E00EF11EEC85FD85EE0DFF1DEC
:1007100060E080810E94E90881E0C81AD108D80110
:100720001E96ED91FC911F97EA30F10508F0E1C0AB
:10073000AE85BF8561E08827EE58FF4F8F4F0C9440
:100740008F0F8C910E94E908EE85FF8561E082851C
:100750009CC012968C910E94E908EE85FF8561E0AD
:100760008481C5C08C910E94E908EE85FF8561E017
:1007700082810E94E908EE85FF8561E086810E9402
:10078000E908EE85FF8561E0808513C08C910E94A9
:10079000E908EE85FF8561E082810E94E908EE8527
:1007A000FF8561E084810E94E908EE85FF8561E0B4
:1007B00086810E94E908EE85FF8561E0848597C007
:1007C00012968C910E94E908EE85FF8561E0848194
:1007D0000E94E908EE85FF8561E08285EACF8C9171
:1007E0000E94E908EE85FF8561E082850E94E908A4
:1007F000EE85FF8561E084850E94E908EE85FF852E
:1008000061E084810E94E908EE85FF8561E08681D0
:100810006EC08C910E94E908EE85FF8561E08285BB
:100820000E94E908EE85FF8561E084850E94E90861
:10083000EE85FF8561E084810E94E908EE85FF85F1
:1008400061E086810E94E908EE85FF8561E0808590
:100850004EC012968C910E94E908EE85FF8561E0FA
:1008600084810E94E908EE85FF8561E080813FC0B8
:100870008C910E94E908EE85FF8561E082850E94E7
:10088000E908EE85FF8561E084850E94E908EE8530
:10089000FF8561E084810E94E908EE85FF8561E0C3
:1008A00086810E94E908EE85FF8561E0808519C098
:1008B0008C910E94E908EE85FF8561E082850E94A7
:1008C000E908EE85FF8561E084850E94E908EE85F0
:1008D000FF8561E084810E94E908EE85FF8561E083
:1008E00086810E94E908EE85FF8561E082810E9491
:1008F000E90861E070E080E090E00E94980A8C8551
:100900009D85FC01EE0DFF1D61E080810E94E908DC
:1009100002501109E1CEDF91CF911F910F91FF900D
:10092000EF90DF90CF90BF90AF9008950E94CC10D1
:100930000C9443100C9443100C9443103FB7F8945C
:100940008091760290917702A0917802B09179021D
:1009500026B5A89B05C02F3F19F00196A11DB11D1A
:100960003FBFBA2FA92F982F8827820F911DA11D55
:10097000B11DBC01CD0142E0660F771F881F991F92
:100980004A95D1F708951F920F920FB60F92112436
:100990002F933F938F939F93AF93BF938091720256
:1009A00090917302A0917402B0917502309171021E
:1009B00023E0230F2D3720F40196A11DB11D05C0A2
:1009C00026E8230F0296A11DB11D2093710280938A
:1009D000720290937302A0937402B0937502809197
:1009E000760290917702A0917802B09179020196F7
:1009F000A11DB11D8093760290937702A093780297
:100A0000B0937902BF91AF919F918F913F912F91B8
:100A10000F900FBE0F901F9018951F920F920FB658
:100A20000F9211240BB60F922F933F934F935F9326
:100A30006F937F938F939F93AF93BF93EF93FF93A6
:100A40008AE792E00E943002FF91EF91BF91AF914F
:100A50009F918F917F916F915F914F913F912F91D6
:100A60000F900BBE0F900FBE0F901F9018951F9206
:100A70000F920FB60F9211240BB60F922F938F93F4
:100A80009F93EF93FF93E0918A02F0918B02808114
:100A9000E0919002F091910282FD12C090818091CC
:100AA00093028F5F8F7320919402821751F0E0912F
:100AB0009302F0E0E658FD4F958F8093930201C0BA
:100AC0008081FF91EF919F918F912F910F900BBE9D
:100AD0000F900FBE0F901F90189508958EBD0000C7
:100AE0000DB407FEFDCF8EB508958CBD9DBD089554
:100AF0001F93CF93DF93EC01162F83E590E00E94C4
:100B0000750560E08E850E94E908812F80680E944B
:100B10006E0580E00E946E05182F61E08E850E94B0
:100B2000E908812FDF91CF911F9108950F931F93B3
:100B3000CF93DF93EC01062F142F83E590E00E9402
:100B4000750560E08E850E94E908802F0E946E0581
:100B5000812F0E946E0561E08E85DF91CF911F91FC
:100B60000F910C94E9088F929F92AF92CF92EF92DF
:100B7000FF920F931F93CF93DF9300D01F921F928A
:100B8000CDB7DEB74C0182E08D8340E064E2C40162
:100B90000E94960540E066E2C4010E94960546E286
:100BA00068E4C4010E94960586E28B838D818230C1
:100BB00040F16CE1C4010E947805482F4F776CE149
:100BC000C4010E94960587E08C83A12CC12CCE0124
:100BD00004967C018E010B5F1F4F9E012F5F3F4FDC
:100BE00041E0BE016D5F7F4FC4010E944A0981113F
:100BF0000BC08D81823039F481E09C81911104C059
:100C000008C084E001C081E091E0823019F090E0FA
:100C100001C091E0892F0F900F900F900F900F90CF
:100C2000DF91CF911F910F91FF90EF90CF90AF90F8
:100C30009F908F900895CF92DF92EF92FF920F9343
:100C40001F93CF93DF93EC016B01142F790140E0E8
:100C500062E00E94960544E06AE0CE010E9496059B
:100C600040E864E1CE010E949605A601612FCE0105
:100C70000E94180943E062E0CE010E94960508E850
:100C800013E16AE0CE010E94780582FF13C040E0C4
:100C900062E0CE010E94960564E4CE010E947805D0
:100CA000F701808362E4CE010E947805F701818319
:100CB00080E004C00150110921F783E0DF91CF915A
:100CC0001F910F91FF90EF90DF90CF9008952F929A
:100CD0003F924F925F926F927F928F929F92AF92CC
:100CE000BF92CF92DF92EF92FF920F931F93CF9319
:100CF000DF93CDB7DEB72C970FB6F894DEBF0FBEEB
:100D0000CDBF413508F00BC1342E3B014C016CE1E5
:100D10000E947805482F4F776CE1C4010E94960528
:100D20002224239432E0231691F083E02816E1F088
:100D300091E02912F6C083E989833320D1F081E064
:100D4000F3019081953008F480E0B12C17C0F5E9EB
:100D5000F983332081F081E0F3019081983008F429
:100D600080E043E0B42E0AC087E9898336E0B32EE1
:100D700004C0B12C02C023E0B22E80E0D32CF8E0F6
:100D8000BF9ED0181124D7FCD12C882321F098E8DD
:100D90009B8333E001C032E021E09D2D977009F480
:100DA00020E09D2D959595959595290F31F48823F3
:100DB00009F492C038E0D30E8FC0811102C094E0D4
:100DC00001C093E0291708F4922FEB2DF0E0319643
:100DD000E60DF71D232F4191A1E0B0E0AC0FBD1F40
:100DE000A20FB11D4C932F5F422F431B491798F35D
:100DF000DECF8111DEC09FE19D150CF494C080E22E
:100E0000D82E90E79A839B818C8189279D818927A1
:100E10009E8189278F839E01285F3F4F47E0BE0157
:100E20006F5F7F4FC4010E941B068111A3C01A8609
:100E3000E3E0EB87CE0107962C0199E09C87CA84FA
:100E40004C2D4295407F4C0D6AE1C4010E949605ED
:100E5000A12CCE010A967C018E01055F1F4F9201E5
:100E60004C85BE016F5F7F4FC4010E944A09182F55
:100E7000823009F0BECF6CE1C4010E94780585FD87
:100E800098C08F7109F480E2282F30E04D2DDD0CE1
:100E9000550B421753070CF044C0D82E8595859505
:100EA000859591E0980F422F477081E009F480E02A
:100EB000890FE1E0F0E0EC0FFD1FE80FF11D21507C
:100EC00031092770332781E090E001C0880F2A950F
:100ED000EAF79081892B80838FE18D150CF491CFF7
:100EE0009D2D97709A878D2D8595859585958E5F1B
:100EF000292FE0E18E9F200D11242A8321E09111FA
:100F000001C020E0280F2C8744244394512C4C0E20
:100F10005D1E480E511CF9E0F81BFB8790CF16E0D0
:100F200048C015E046C08B81883809F43FC082E094
:100F300094E0EB2DF0E03196E60DF71D980FA1E05F
:100F4000B0E0AC0FBD1FA80FB11D2C9121938F5F96
:100F50008913F5CF8B85833029F58A85811122C0CD
:100F60009E012D5F3F4F41E0B201C4010E941B066C
:100F7000882311F0182F1DC09B81F20181819813E5
:100F800013C09C81828198130FC0808182FF02C0B0
:100F90002394C8CEF3018387822D880F820D8F5F43
:100FA000808307C011E005C017E003C083E093E031
:100FB000C0CF812F2C960FB6F894DEBF0FBECDBFE9
:100FC000DF91CF911F910F91FF90EF90DF90CF9025
:100FD000BF90AF909F908F907F906F905F904F9059
:100FE0003F902F9008956F927F928F929F92AF9231
:100FF000CF92EF92FF920F931F93CF93DF9300D086
:101000001F92CDB7DEB74C013C014AE0640E711C63
:10101000C3010E94B305882309F45BC0C3010E9489
:10102000FA02882309F455C080E589831A829E015B
:101030002D5F3F4F42E0BE016F5F7F4FC3010E94B3
:101040001B0681110FC0A12CC12CE12CF12C00E05A
:1010500010E020E030E044E0BE016F5F7F4FC3014D
:101060000E944A09F4013D96D4011C968C9190E0AF
:101070008150904E23E0880F991F2A95E1F700E0F8
:1010800010E09801883FBFEF9B0791F0419150E03D
:1010900060E070E0082E04C0440F551F661F771FE4
:1010A0000A94D2F7042B152B262B372B0897EACF5F
:1010B000093D1A4D29443D4C61F4D4015A968D9155
:1010C0009C915B97DC01ED91FC910190F081E02D0A
:1010D00019950F900F900F900F90DF91CF911F9166
:1010E0000F91FF90EF90CF90AF909F908F907F9057
:1010F0006F90089524E332E0FC01318320838281E4
:101100009381009711F00C9443100895CF93DF93CF
:10111000EC010E947A08CE01DF91CF910C9443102C
:1011200008950895089590E0FC013197E231F105AA
:1011300008F04EC08827E458FF4F8F4F0C948F0F54
:10114000809180008F7703C0809180008F7D809395
:101150008000089580918000877FF9CF84B58F77D4
:1011600002C084B58F7D84BD08958091B0008F77D3
:1011700003C08091B0008F7D8093B000089580916E
:1011800090008F7707C0809190008F7D03C0809181
:101190009000877F8093900008958091A0008F77C2
:1011A00007C08091A0008F7D03C08091A000877F41
:1011B0008093A0000895809120018F7707C08091CF
:1011C00020018F7D03C080912001877F80932001C3
:1011D00008951F93CF93DF93282F30E0F901EA534E
:1011E000FD4F8491F901E058FD4FD491F901E65C7F
:1011F000FD4FC491CC23C1F0162F81110E9493089A
:10120000EC2FF0E0EE0FFF1FE05EFD4FA591B491D3
:101210009FB7F894111104C08C91D095D82302C0C7
:10122000EC91DE2BDC939FBFDF91CF911F9108954E
:10123000DF92EF92FF920F931F93CF93DF938C0176
:10124000F62ED42EE52E83E590E00E94750560E031
:10125000F80186850E94E90882E10E946E05CD2D85
:10126000DE2DCE018F0D911D7C01EC16FD0621F0C7
:1012700089910E946E05F9CF61E0F80186850E9490
:10128000E908DF91CF911F910F91FF90EF90DF90D0
:101290000C946D054F925F926F927F928F929F9206
:1012A000AF92BF92CF92DF92EF92FF920F931F9374
:1012B000CF93DF931F921F92CDB7DEB74C012B0166
:1012C000D42E3901E114F10419F0F701408101C075
:1012D00040E0B42EF0E1CF9EB00C112440E062E07B
:1012E000C4010E9496054FE768E0C4010E9496057C
:1012F00040E864E1C4010E949605A2016D2DC4017D
:101300000E9418094B2D6AE1C4010E9496054CE029
:1013100062E0C4010E9496056AE1C4010E9478055A
:10132000482F40686AE1C4010E94960580ED482E6E
:1013300087E0582E68E0C4010E947805982F9073CA
:1013400041F480FD04C081E0481A510899F783E018
:10135000A0C06CE0C4010E947805D82E837109F00A
:1013600095C06114710409F45AC00115110509F4FE
:1013700056C064E1C4010E947805B82EF80180814E
:101380008B1508F47DC0B082BB20F1F183E590E0BD
:101390000E94750560E0F40186850E94E908BA9410
:1013A00082E90E946E05CC20A9F08FEF90E02C011D
:1013B00001C0440CCA94EAF782E90E946E05242D0C
:1013C0002095F301908192238421892B8083CC2462
:1013D000C39401C0C12C4C2C512C460C571CCB146F
:1013E00038F482E90E946E05F2018083C394F3CF42
:1013F00080E00E946E05F201808361E0F401868541
:101400000E94E9080E946D0568E1C4010E94780508
:101410008770E114F10421F0F701808301C080E0BE
:10142000D3FC30C06114710479F10115110561F12B
:10143000AA2051F1F8014081413021F4843041F576
:101440008FEF27C0423020F1811122C042509E010F
:101450002F5F3F4FB301C4010E941B06811119C0C9
:10146000F8018081680E711CF301329790818981A7
:1014700098130EC0319690818A81981309C004C0D8
:1014800084E007C082E005C080E003C081E001C0C5
:1014900087E00F900F90DF91CF911F910F91FF90F8
:1014A000EF90DF90CF90BF90AF909F908F907F9004
:1014B0006F905F904F900895CF93DF9390E0FC0181
:1014C000E058FD4F2491FC01E65CFD4F8491882398
:1014D00061F190E0880F991FFC01EA5FFD4FC59113
:1014E000D491FC01E05EFD4FA591B491611109C05A
:1014F0009FB7F8948881209582238883EC912E23CE
:101500000BC0623061F49FB7F8948881322F309518
:1015100083238883EC912E2B2C939FBF06C08FB71B
:10152000F894E8812E2B28838FBFDF91CF91089507
:101530008F929F92AF92BF92CF92DF92EF92FF92E3
:101540006B017C010E949E044B015C01C114D1041B
:10155000E104F104F1F00E949E04DC01CB01881942
:101560009909AA09BB09883E9340A105B10570F30A
:1015700021E0C21AD108E108F10888EE880E83E064
:10158000981EA11CB11CC114D104E104F10419F787
:10159000DDCFFF90EF90DF90CF90BF90AF909F9006
:1015A0008F900895FC01128A0895FC01148E08950D
:1015B000789484B5826084BD84B5816084BD85B52E
:1015C000826085BD85B5816085BD80916E0081603A
:1015D00080936E00109281008091810082608093E0
:1015E00081008091810081608093810080918000E2
:1015F0008160809380008091B10084608093B1000D
:101600008091B00081608093B000809191008260F1
:1016100080939100809191008160809391008091EE
:1016200090008160809390008091A10082608093FF
:10163000A1008091A10081608093A1008091A00011
:1016400081608093A00080912101826080932101BC
:10165000809121018160809321018091200181602E
:101660008093200180917A00846080937A00809139
:101670007A00826080937A0080917A008160809302
:101680007A0080917A00806880937A001092C1007D
:10169000E0918A02F0918B0282E08083E0918602E1
:1016A000F09187021082E0918802F09189028FEC1C
:1016B000808310929202E0918E02F0918F0286E078
:1016C0008083E0918C02F0918D0280818061808323
:1016D000E0918C02F0918D02808188608083E0919E
:1016E0008C02F0918D02808180688083E0918C0271
:1016F000F0918D0280818F7D8083CFB7F8948091A7
:101700007002811127C0EFE6F2E08491E5EBF2E090
:101710009491E82FF0E0EE0FFF1FEA5FFD4FA591D7
:10172000B491EC91E92321F461E085E30E94E9089A
:1017300061E085E30E945C0A8CB580618CBD8CB54C
:1017400080648CBD61E084E30E945C0A61E083E315
:101750000E945C0A809170028F5F80937002CFBFFD
:1017600061E0809154030E945C0A61E0809154031F
:101770000E94E908809155038F3F41F44FE062E0F9
:1017800086E493E00E949605C3E025C060E00E94D5
:101790005C0A2091550330E0F901EA53FD4F849132
:1017A000F901E058FD4FD491F901E65CFD4FC49179
:1017B000CC23F9F081110E949308EC2FF0E0EE0F9A
:1017C000FF1FE451FE4FA591B491EC91ED2389F0F8
:1017D000D5CFC15039F162E370E080E090E00E9423
:1017E000980A62E086E493E00E94780584FF1AC0BC
:1017F000F0CF61E0809155030E945C0A60E0809127
:1018000055030E94E90883E090E00197F1F761E059
:10181000809155030E94E90862E370E080E090E067
:101820000E94980A40E064E286E493E00E949605F4
:1018300040E066E286E493E00E94960546E268E4B2
:1018400086E493E00E94960540E864E586E493E030
:101850000E94960549EA66E586E493E00E949605B3
:1018600043E068E586E493E00E94960548EE6AE569
:1018700086E493E00E94960540E46AE286E493E001
:101880000E9496054DE362E286E493E00E9496058D
:1018900068E286E493E00E947805982F9370933075
:1018A00039F0482F436068E286E493E00E94960591
:1018B00060E085E20E94E90860E083E20E94E908B6
:1018C000C8E0D0E060E085E20E94E90860E081E2E3
:1018D0000E94E90861E085E20E94E908219791F7FA
:1018E00061E083E20E94E90881E0809333038AE0AB
:1018F00090E09093300380932F039093350380936F
:1019000034032FB7F8948091720290917302A091E2
:101910007402B09175022FBF809336039093370302
:10192000A0933803B093390380913103909132032F
:101930000296909332038093310380E090E0A0EA16
:10194000B0E48093190390931A03A0931B03B09300
:101950001C0320915F0330916003C901880F991F18
:10196000E0915A03F0915B03E80FF91F47E153E060
:101970005183408340E050E06AE774E440933E03C3
:1019800050933F03609340037093410340915A0387
:1019900050915B032E5F3F4F3093600320935F03B2
:1019A000FA01E80FF91F2CE333E0338322838FB76A
:1019B000F89440907202509073026090740270909C
:1019C00075028FBFC0E0D0E080915F03909160030B
:1019D000C817D9070CF042C0C301B2010E94C40E5F
:1019E0006B017C014E01880C991C00915A031091E7
:1019F0005B03080D191DD801AD90BC90F50126813F
:101A0000378140855185C701B6010E94570ED50127
:101A100012962D913D914D915C9115970E94520F18
:101A20001816D4F4C0935C03F80180819181DC0125
:101A3000ED91FC910480F581E02D199580915A0378
:101A400090915B03FC01E80DF91D0190F081E02D00
:101A5000C682D782E086F1862196B6CF0E94C10267
:101A6000A6CF88E593E00C947A08CF92DF92EF92AC
:101A7000FF920F931F93CF93DF93CDB7DEB760979D
:101A80000FB6F894DEBF0FBECDBF10927D0210924C
:101A90007C0288EE93E0A0E0B0E080937E02909319
:101AA0007F02A0938002B093810282E292E0909341
:101AB0007B0280937A0285EC90E09093870280937A
:101AC000860284EC90E0909389028093880280ECF7
:101AD00090E090938B0280938A0281EC90E0909347
:101AE0008D0280938C0282EC90E090938F02809321
:101AF0008E0286EC90E09093910280939002109277
:101B0000930210929402109295021092960284E32E
:101B100092E0909359038093580382E090E0909371
:101B20005E0380935D031092600310925F0384E074
:101B300090E00E94AB0F90935B0380935A03109246
:101B4000190310921A0310921B0310921C03109297
:101B50001D0310921E0310921F031092200382E6B1
:101B600092E090931803809317038EE692E090938F
:101B700022038093210380E192E0909324038093D9
:101B8000230380E092E0909326038093250388E06E
:101B9000E7E2F3E0DF011D928A95E9F71092300346
:101BA00010922F03109232031092310310923303DC
:101BB000109235031092340300E112E0780161E0E5
:101BC000F80180810E945C0A0E5F1F4F61E0D7011F
:101BD0008C910E94E908B2E008311B0779F700E018
:101BE00012E080E1E82E82E0F82E680161E0F80161
:101BF00080810E945C0A0E5F1F4F60E0D6018C91CD
:101C00000E94E908E016F10681F786E492E09093DD
:101C10003B0380933A0361E081E20E945C0A61E049
:101C200085E20E945C0A61E083E20E945C0A1092F5
:101C30003E0310923F031092400310924103109212
:101C400042031092430310924403109245038EE422
:101C500092E090933D0380933C038CE392E0909359
:101C600047038093460381E293E090935703809368
:101C700056038CE0FE013396A8E4B3E001900D9288
:101C80008A95E1F781E3809354038FE180935503B4
:101C900060960FB6F894DEBF0FBECDBFDF91CF9137
:101CA0001F910F91FF90EF90DF90CF9008955058C3
:101CB000BB27AA270E946F0E0C94180F0E940A0FD0
:101CC00038F00E94110F20F039F49F3F19F426F4E8
:101CD0000C94070F0EF4E095E7FB0C94010FE92F2D
:101CE0000E94290F58F3BA176207730784079507F4
:101CF00020F079F4A6F50C944B0F0EF4E0950B2E22
:101D0000BA2FA02D0B01B90190010C01CA01A0014D
:101D10001124FF27591B99F0593F50F4503E68F1A8
:101D20001A16F040A22F232F342F4427585FF3CFE9
:101D3000469537952795A795F0405395C9F77EF4BA
:101D40001F16BA0B620B730B840BBAF09150A1F003
:101D5000FF0FBB1F661F771F881FC2F70EC0BA0F89
:101D6000621F731F841F48F4879577956795B79511
:101D7000F7959E3F08F0B0CF9395880F08F099270C
:101D8000EE0F979587950895E89409C097FB3EF468
:101D900090958095709561957F4F8F4F9F4F9923B8
:101DA000A9F0F92F96E9BB279395F6958795779536
:101DB0006795B795F111F8CFFAF4BB0F11F460FFF6
:101DC0001BC06F5F7F4F8F4F9F4F16C0882311F04E
:101DD00096E911C0772321F09EE8872F762F05C062
:101DE000662371F096E8862F70E060E02AF09A95FD
:101DF000660F771F881FDAF7880F9695879597F9F2
:101E0000089597F99F6780E870E060E008959FEF7C
:101E100080EC089500240A94161617061806090681
:101E2000089500240A941216130614060506089550
:101E3000092E0394000C11F4882352F0BB0F40F4D8
:101E4000BF2B11F460FF04C06F5F7F4F8F4F9F4F18
:101E5000089557FD9058440F551F59F05F3F71F09A
:101E60004795880F97FB991F61F09F3F79F0879501
:101E70000895121613061406551FF2CF4695F1DF8A
:101E800008C0161617061806991FF1CF869571051A
:101E9000610508940895E894BB2766277727CB014E
:101EA00097F908950E94570F08F48FEF0895990F3E
:101EB0000008550FAA0BE0E8FEEF16161706E80714
:101EC000F907C0F012161306E407F50798F0621B35
:101ED000730B840B950B39F40A2661F0232B242B0A
:101EE000252B21F408950A2609F4A140A6958FEF29
:101EF000811D811D089597FB072E16F4009407D0CD
:101F000077FD09D00E94970F07FC05D03EF490950D
:101F100081959F4F0895709561957F4F0895EE0FBD
:101F2000FF1F881F8BBF0790F691E02D1994AA1B05
:101F3000BB1B51E107C0AA1FBB1FA617B70710F0B4
:101F4000A61BB70B881F991F5A95A9F780959095E6
:101F5000BC01CD0108950F931F93CF93DF9382307F
:101F6000910510F482E090E0E0916303F091640346
:101F700020E030E0A0E0B0E0309719F140815181DD
:101F80000281138148175907C8F08417950769F42F
:101F9000109731F012960C93129713961C9327C04A
:101FA000009363031093640322C02115310519F0D7
:101FB0004217530718F49A01BD01EF01DF01F80140
:101FC000DBCF21153105F9F0281B390B2430310501
:101FD00080F48A819B816115710521F0FB01938357
:101FE000828304C09093640380936303FE0132965E
:101FF00044C0FE01E20FF31F8193919322503109F7
:10200000398328833AC02091610330916203232BE6
:1020100041F420911A0230911B0230936203209305
:10202000610320911802309119022115310541F404
:102030002DB73EB740911C0250911D02241B350B59
:10204000E0916103F0916203E217F307A0F42E1B05
:102050003F0B2817390778F0AC014E5F5F4F24170C
:10206000350748F04E0F5F1F5093620340936103A2
:102070008193919302C0E0E0F0E0CF01DF91CF9136
:102080001F910F910895CF93DF93009709F481C0BA
:10209000FC01329713821282A0916303B091640312
:1020A000109781F420813181820F931F2091610369
:1020B000309162032817390751F5F0936203E093DA
:1020C000610367C0ED0120E030E0CE17DF0740F488
:1020D0004A815B819E0141155105F1F0EA01F5CF7E
:1020E000D383C28340815181840F951FC817D907BC
:1020F00059F488819981840F951F0296918380837A
:102100008A819B81938382832115310529F4F09381
:102110006403E09363033DC0E901FB83EA834991D3
:102120005991C40FD51FEC17FD0761F4808191818F
:10213000840F951F0296E901998388838281938198
:102140009B838A83E0E0F0E012968D919C91139737
:10215000009719F0FD01DC01F7CF8D919C9111974B
:102160009D012E5F3F4F820F931F2091610330919D
:1021700062032817390769F4309729F41092640331
:102180001092630302C013821282B0936203A09381
:102190006103DF91CF91089581E090E0F8940C9471
:1021A000D11011E0C7E8D1E000E006C0802FFE01A9
:1021B0000E948F0F2196011DC838D10780E00807C3
:0621C000A9F7F894FFCF1F
:1021C60002000300040005000600070008000900DD
:1021D6000A000B000C000D000000650380000000E3
:1021E60000005202BB01E9019F021A02F8010C022B
:1021F600000000007A088608000000006706B305A4
:10220600FA020000000090089804000000009108FF
:102216009A04F30700000000000000009604000086
:10222600000092089C040A03D50AF6FF0000D20AB1
:00000001FF
