:100000000C9477010C94A8010C94A8010C94A801FD
:100010000C94A8010C94A8010C94A8010C94A801BC
:100020000C94A8010C94A8010C94A8010C94A801AC
:100030000C94A8010C94A8010C94A8010C94A8019C
:100040000C94A8010C94A8010C94A8010C94A8018C
:100050000C94A8010C94A8010C94A8010C94A00481
:100060000C94A8010C9414050C94EA040C94A801B7
:100070000C94A8010C94A8010C94A8010C94A8015C
:100080000C94A8010C94A8010C94A8010C94A8014C
:100090000C94A8010C94A8010C94A8010C94A8013C
:1000A0000C94A8010C94A8010C94A8010C94A8012C
:1000B0000C94A8010C94A8010C94A8010C94A8011C
:1000C0000C94A8010C94A8010C94A8010C94A8010C
:1000D0000C94A8010C94A8010C94A8010C94A801FC
:1000E0000C94A8019C03A403AD03C103DB03EA0342
:1000F0000404240433045304DE08E108D008D408BF
:10010000D8081809E508E908EF08F308F708FD081A
:100110000109050918090B090F0913090C94FD02BF
:100120000C9444060C94D0080C94D8010C94E1086B
:100130000C94FB020C9413090C94E7010C94FF023D
:100140000C9465080C94D8080C9441020C947C081B
:100150000C947B080C94EA030C947D080C94F7082B
:100160000C9401090C94F9020C9433040C94D007FC
:100170000C9409020C9405090C94F3080C94710872
:100180000C94AD030C94EF080C94E9020C94240435
:100190000C9404040C94DE080C94FB010C940103F1
:1001A0000C9418090C940F090C948E020C94E50819
:1001B0000C94C1030C94FD080C94E9080C94A4035E
:1001C0000C9453040C94D4080C94420C0C94DB0350
:1001D0000C943E0C0C949C030C9490050C940B090D
:1001E0000C94AA0100000A0B02090C0D0E0807036B
:1001F00004010000000000000000000000000000FA
:1002000000000000000000000000000000000000EE
:1002100012111000000000000000000000000000AB
:100220000000000000000000000000002200250087
:1002300028002B002E0031003400020100000501CF
:1002400008010B0100002100240027002A002D00D6
:100250003000330001010000040107010A01050517
:100260000505070508080808020202020A0A08082C
:10027000040404040101010101010101030303035A
:1002800003030303040707070C0C0C0C0C0C0C0CE9
:100290000202020206060606060606060B0B0B0BFA
:1002A0000B0B0B0B0102102020080810204010201F
:1002B000408002010201080402010102040810202A
:1002C0004080804020100804020180040201804028
:1002D0002010080402010804020101020408102091
:1002E00040800102040810204080420C3E0C112482
:1002F0001FBECFEFD1E2DEBFCDBF00E00CBF12E0EA
:10030000A0E0B2E0EEEBFFE100E00BBF02C007901F
:100310000D92AE37B107D9F723E0AEE7B2E001C0E6
:100320001D92AA37B207E1F711E0C6E7D1E000E07D
:1003300006C021970109802FFE010E948B0EC53750
:10034000D10780E00807A9F70E94960A0C94CD0F08
:100350000C940000CF92DF92EF92FF920F931F93C5
:10036000CF93DF936C017A018B01C0E0D0E0CE1512
:10037000DF0581F0D8016D918D01D601ED91FC91E1
:100380000190F081E02DC6011995892B11F021967D
:10039000EECF7E01C701DF91CF911F910F91FF90AA
:1003A000EF90DF90CF900895089580E090E0089559
:1003B000FC01538D448D252F30E0842F90E0821B6B
:1003C000930B541710F0CF96089501970895FC01F0
:1003D000918D828D981761F0828DDF01A80FB11D7C
:1003E0005D968C91928D9F5F9F73928F90E00895A0
:1003F0008FEF9FEF0895FC01918D828D981731F05A
:10040000828DE80FF11D858D90E008958FEF9FEFAD
:100410000895FC01918D228D892F90E0805C9F4F83
:10042000821B91098F739927089588E892E00E94B2
:10043000090221E0892B09F420E0822F0895FC01B4
:10044000848DDF01A80FB11DA35ABF4F2C91848D5D
:1004500090E001968F739927848FA689B7892C9392
:10046000A089B1898C91837080648C93938D848DE5
:10047000981306C00288F389E02D80818F7D8083E8
:100480000895EF92FF920F931F93CF93DF93EC01A8
:1004900081E0888F9B8D8C8D981305C0E889F98940
:1004A000808185FD26C0F62E0B8D10E00F5F1F4F5B
:1004B0000F731127E02E8C8DE8120CC00FB607FCCD
:1004C000FACFE889F989808185FFF5CFCE010E94B6
:1004D0001F02F1CF8B8DFE01E80FF11DE35AFF4F94
:1004E000F0829FB7F8940B8FEA89FB898081806244
:1004F0000AC09FB7F894EE89FF896083E889F9897B
:1005000080818370806480839FBF81E090E0DF9171
:10051000CF911F910F91FF90EF900895CF93DF93AC
:10052000EC01888D8823C9F0EA89FB89808185FDEB
:1005300005C0A889B9898C9186FD0FC00FB607FC4C
:10054000F5CF808185FFF2CFA889B9898C9185FF8D
:10055000EDCFCE010E941F02E7CFDF91CF9108952A
:1005600080E090E0892B21F00E941502811125C0C6
:1005700080E090E0892B41F080E090E0892B21F031
:100580000E94000081111CC080E090E0892B41F0A6
:1005900080E090E0892B21F00E940000811113C0BF
:1005A00080E090E0892BA1F080E090E0892B81F041
:1005B0000E94000081110AC008950E940000D8CF57
:1005C0000E940000E1CF0E940000EACF0C940000DE
:1005D0000895BC016E5F7F4FDC01ED91FC910190AD
:1005E000F081E02D40E0199591E0811190E0892F94
:1005F00008950E94C80F0C943F0F0C943F0F0C9469
:100600003F0F6F927F928F929F92AF92BF92CF9245
:10061000DF92EF92FF920F931F93CF93DF93EC0142
:100620008A8D882309F447C02FB7F89480918002FF
:1006300090918102A0918202B09183022FBF4D8DD3
:100640005E8D6F8D78A1841B950BA60BB70B893E31
:100650009340A105B10578F18E899F89FC013197FE
:10066000EF30A7E2FA07C0F48E01025F1F4F20E0CF
:1006700030E04AE0E42EF12CB7010E94770ED80159
:100680008D939D938D01CB012F5F3F4F0097A1F775
:10069000398F288FFF8BEE8B2FB7F89480918002D3
:1006A00090918102A0918202B09183022FBF8D8F21
:1006B0009E8FAF8FB8A3E88CF98C8701000F111FB4
:1006C0000C0F1D1F8EEF9FEF3C016C1A7D0A1E144C
:1006D0001F040CF026C1C12CD12CEC85FD85EC0D3E
:1006E000FD1D60E080810E94AF08B2E0CB0ED11CFE
:1006F00020E1C216D10489F76301C00ED11EEA853C
:10070000FB85EC0DFD1D60E080810E94AF0881E05B
:10071000E81AF108D8011C96ED91FC911D97EA307A
:10072000F10508F0E1C0AC85BD8561E08827EE5891
:10073000FF4F8F4F0C948B0E8C910E94AF08EC856D
:10074000FD8561E082859CC012968C910E94AF0865
:10075000EC85FD8561E08481C5C08C910E94AF0865
:10076000EC85FD8561E082810E94AF08EC85FD8506
:1007700061E086810E94AF08EC85FD8561E080859F
:1007800013C08C910E94AF08EC85FD8561E08281E9
:100790000E94AF08EC85FD8561E084810E94AF086E
:1007A000EC85FD8561E086810E94AF08EC85FD85C2
:1007B00061E0848597C012968C910E94AF08EC8509
:1007C000FD8561E084810E94AF08EC85FD8561E0D4
:1007D0008285EACF8C910E94AF08EC85FD8561E0AF
:1007E00082850E94AF08EC85FD8561E084850E94CA
:1007F000AF08EC85FD8561E084810E94AF08EC853F
:10080000FD8561E086816EC08C910E94AF08EC8509
:10081000FD8561E082850E94AF08EC85FD8561E081
:1008200084850E94AF08EC85FD8561E084810E948B
:10083000AF08EC85FD8561E086810E94AF08EC85FC
:10084000FD8561E080854EC012968C910E94AF08B4
:10085000EC85FD8561E084810E94AF08EC85FD8513
:1008600061E080813FC08C910E94AF08EC85FD85DE
:1008700061E082850E94AF08EC85FD8561E084859A
:100880000E94AF08EC85FD8561E084810E94AF087D
:10089000EC85FD8561E086810E94AF08EC85FD85D1
:1008A00061E0808519C08C910E94AF08EC85FD85C0
:1008B00061E082850E94AF08EC85FD8561E084855A
:1008C0000E94AF08EC85FD8561E084810E94AF083D
:1008D000EC85FD8561E086810E94AF08EC85FD8591
:1008E00061E082810E94AF080E94710A4B015C01A5
:1008F0000E94710ADC01CB0188199909AA09BB0978
:10090000883E9340A105B10598F38A859B85FC013B
:10091000EC0DFD1D61E080810E94AF0802501109BD
:10092000D6CEDF91CF911F910F91FF90EF90DF9086
:10093000CF90BF90AF909F908F907F906F900895D1
:100940001F920F920FB60F9211242F933F938F9304
:100950009F93AF93BF938091800290918102A09169
:100960008202B091830230917F0223E0230F2D3762
:1009700020F40196A11DB11D05C026E8230F0296A3
:10098000A11DB11D20937F0280938002909381026C
:10099000A0938202B0938302809184029091850299
:1009A000A0918602B09187020196A11DB11D80938E
:1009B000840290938502A0938602B0938702BF9130
:1009C000AF919F918F913F912F910F900FBE0F90FC
:1009D0001F9018951F920F920FB60F9211240BB60D
:1009E0000F922F933F934F935F936F937F938F93C8
:1009F0009F93AF93BF93EF93FF9388E892E00E9499
:100A00001F02FF91EF91BF91AF919F918F917F91C5
:100A10006F915F914F913F912F910F900BBE0F906F
:100A20000FBE0F901F9018951F920F920FB60F9246
:100A300011240BB60F922F938F939F93EF93FF93F5
:100A4000E0919802F09199028081E0919E02F091EC
:100A50009F0282FD12C090818091A1028F5F8F73EF
:100A60002091A202821751F0E091A102F0E0E85734
:100A7000FD4F958F8093A10201C08081FF91EF917E
:100A80009F918F912F910F900BBE0F900FBE0F90E3
:100A90001F90189508958EBD00000DB407FEFDCF80
:100AA0008EB508958CBD9DBD08951F93CF93DF93A0
:100AB000EC01162F83E590E00E94520560E08E85E0
:100AC0000E94AF08812F80680E944B0580E00E9441
:100AD0004B05182F61E08E850E94AF08812FDF91B2
:100AE000CF911F9108950F931F93CF93DF93EC0144
:100AF000062F142F83E590E00E94520560E08E855A
:100B00000E94AF08802F0E944B05812F0E944B0549
:100B100061E08E85DF91CF911F910F910C94AF080A
:100B20008F929F92AF92CF92EF92FF920F931F936B
:100B3000CF93DF9300D01F921F92CDB7DEB74C0149
:100B400082E08D8340E064E2C4010E94730540E0CE
:100B500066E2C4010E94730546E268E4C4010E9493
:100B6000730586E28B838D81823040F16CE1C40194
:100B70000E945505482F4F776CE1C4010E94730510
:100B800087E08C83A12CC12CCE0104967C018E01C0
:100B90000B5F1F4F9E012F5F3F4F41E0BE016D5F16
:100BA0007F4FC4010E945F0981110BC08D8182308B
:100BB00039F481E09C81911104C008C084E001C037
:100BC00081E091E0823019F090E001C091E0892F3E
:100BD0000F900F900F900F900F90DF91CF911F917A
:100BE0000F91FF90EF90CF90AF909F908F900895CE
:100BF000CF92DF92EF92FF920F931F93CF93DF93E9
:100C0000EC016B01142F790140E062E00E94730552
:100C100044E06AE0CE010E94730540E864E1CE0141
:100C20000E947305A601612FCE010E942D0943E0A9
:100C300062E0CE010E94730508E813E16AE0CE018C
:100C40000E94550582FF13C040E062E0CE010E9481
:100C5000730564E4CE010E945505F701808362E4C8
:100C6000CE010E945505F701818380E004C0015048
:100C7000110921F783E0DF91CF911F910F91FF9030
:100C8000EF90DF90CF9008952F923F924F925F9216
:100C90006F927F928F929F92AF92BF92CF92DF928C
:100CA000EF92FF920F931F93CF93DF93CDB7DEB7F1
:100CB0002C970FB6F894DEBF0FBECDBF413508F0BC
:100CC0000BC1342E3B014C016CE10E945505482FAD
:100CD0004F776CE1C4010E9473052224239432E013
:100CE000231691F083E02816E1F091E02912F6C076
:100CF00083E989833320D1F081E0F301908195303D
:100D000008F480E0B12C17C0F5E9F983332081F0B5
:100D100081E0F3019081983008F480E043E0B42E44
:100D20000AC087E9898336E0B32E04C0B12C02C023
:100D300023E0B22E80E0D32CF8E0BF9ED01811241F
:100D4000D7FCD12C882321F098E89B8333E001C0A5
:100D500032E021E09D2D977009F420E09D2D9595BE
:100D600095959595290F31F4882309F492C038E0C0
:100D7000D30E8FC0811102C094E001C093E0291707
:100D800008F4922FEB2DF0E03196E60DF71D232F9E
:100D90004191A1E0B0E0AC0FBD1FA20FB11D4C937B
:100DA0002F5F422F431B491798F3DECF8111DEC01E
:100DB0009FE19D150CF494C080E2D82E90E79A83B1
:100DC0009B818C8189279D8189279E8189278F839B
:100DD0009E01285F3F4F47E0BE016F5F7F4FC40118
:100DE0000E94F8058111A3C01A86E3E0EB87CE01CB
:100DF00007962C0199E09C87CA844C2D4295407F30
:100E00004C0D6AE1C4010E947305A12CCE010A9623
:100E10007C018E01055F1F4F92014C85BE016F5F03
:100E20007F4FC4010E945F09182F823009F0BECFA6
:100E30006CE1C4010E94550585FD98C08F7109F4CD
:100E400080E2282F30E04D2DDD0C550B4217530763
:100E50000CF044C0D82E85958595859591E0980F26
:100E6000422F477081E009F480E0890FE1E0F0E073
:100E7000EC0FFD1FE80FF11D2150310927703327BA
:100E800081E090E001C0880F2A95EAF79081892BD4
:100E900080838FE18D150CF491CF9D2D97709A87EB
:100EA0008D2D8595859585958E5F292FE0E18E9F07
:100EB000200D11242A8321E0911101C020E0280F88
:100EC0002C8744244394512C4C0E5D1E480E511C1B
:100ED000F9E0F81BFB8790CF16E048C015E046C04C
:100EE0008B81883809F43FC082E094E0EB2DF0E07C
:100EF0003196E60DF71D980FA1E0B0E0AC0FBD1FD5
:100F0000A80FB11D2C9121938F5F8913F5CF8B858D
:100F1000833029F58A85811122C09E012D5F3F4FC4
:100F200041E0B201C4010E94F805882311F0182F96
:100F30001DC09B81F2018181981313C09C81828125
:100F400098130FC0808182FF02C02394C8CEF301A2
:100F50008387822D880F820D8F5F808307C011E009
:100F600005C017E003C083E093E0C0CF812F2C962B
:100F70000FB6F894DEBF0FBECDBFDF91CF911F91AA
:100F80000F91FF90EF90DF90CF90BF90AF909F9028
:100F90008F907F906F905F904F903F902F9008952B
:100FA0008F929F92AF92CF92DF92EF92FF920F9328
:100FB0001F93CF93DF93CDB7DEB7A1970FB6F89409
:100FC000DEBF0FBECDBF8C014C018AE0880E911CA4
:100FD000C4010E949005882309F465C0C4010E94E1
:100FE000E902882309F45FC080E792E00E949D082F
:100FF000F12CF8018485F816A0F56801CF0CD11CFE
:10100000F6018585803118F08BE692E002C088E613
:1010100092E00E949D08F601458550E060E070E096
:1010200019A2FE01B196DB01CA018F709927AA2788
:10103000BB2794E076956795579547959A95D1F794
:1010400031978A3014F4805D01C0895C808341153A
:1010500051056105710539F7CF010E949D08F39490
:10106000C8CF8DE692E00E949D0880E589831A82B0
:101070009E012D5F3F4F42E0BE016F5F7F4FC40175
:101080000E94F80581110FC0A12CC12CE12CF12C7C
:1010900000E010E020E030E044E0BE016F5F7F4FF1
:1010A000C4010E945F09A1960FB6F894DEBF0FBE7F
:1010B000CDBFDF91CF911F910F91FF90EF90DF9007
:1010C000CF90AF909F908F90089520E532E0FC0183
:1010D0003183208382819381009711F00C943F0F1C
:1010E0000895CF93DF93EC010E946508CE01DF9154
:1010F000CF910C943F0F08950895089590E0FC015E
:10110000EC55FD4F2491FC01E25AFD4F8491882358
:1011100099F090E0880F991FFC01EC5BFD4FA591C1
:10112000B491FC01E65DFD4F859194918FB7F894E1
:10113000EC91E22BEC938FBF0895009769F0FC01CE
:1011400001900020E9F73197AF01481B590BBC0112
:1011500088E892E00C94AA0180E090E00895362F90
:1011600090E0FC01EC51FE4F4491FC01EC55FD4F29
:101170002491FC01E25AFD4F9491992309F46CC02B
:10118000442309F455C050E0FA013197E231F105EA
:1011900008F04EC08827E458FF4F8F4F0C948B0EF9
:1011A000809180008F7707C0809180008F7D03C081
:1011B00080918000877F809380003AC084B58F77CC
:1011C00002C084B58F7D84BD33C08091B0008F771D
:1011D00003C08091B0008F7D8093B00029C08091C2
:1011E00090008F7707C0809190008F7D03C0809121
:1011F0009000877F809390001BC08091A0008F7724
:1012000007C08091A0008F7D03C08091A000877FE0
:101210008093A0000DC0809120018F7707C080913E
:1012200020018F7D03C080912001877F8093200162
:10123000E92FF0E0EE0FFF1FE65DFD4FA591B491A1
:101240009FB7F894311104C08C912095282302C0D7
:10125000EC912E2B2C939FBF0895DF92EF92FF927B
:101260000F931F93CF93DF938C01F62ED42EE52E90
:1012700083E590E00E94520560E0F80186850E94B7
:10128000AF0882E10E944B05CD2DDE2DCE018F0DE2
:10129000911D7C01EC16FD0621F089910E944B0501
:1012A000F9CF61E0F80186850E94AF08DF91CF9108
:1012B0001F910F91FF90EF90DF900C944A054F9291
:1012C0005F926F927F928F929F92AF92BF92CF92D6
:1012D000DF92EF92FF920F931F93CF93DF931F92B2
:1012E0001F92CDB7DEB74C012B01D42E3901E1148A
:1012F000F10419F0F701408101C040E0B42EF0E1A3
:10130000CF9EB00C112440E062E0C4010E9473053E
:101310004FE768E0C4010E94730540E864E1C4013E
:101320000E947305A2016D2DC4010E942D094B2D51
:101330006AE1C4010E9473054CE062E0C4010E94AE
:1013400073056AE1C4010E945505482F40686AE1AF
:10135000C4010E94730580ED482E87E0582E68E096
:10136000C4010E945505982F907341F480FD04C07C
:1013700081E0481A510899F783E0A0C06CE0C401ED
:101380000E945505D82E837109F095C0611471042F
:1013900009F45AC00115110509F456C064E1C401ED
:1013A0000E945505B82EF80180818B1508F47DC088
:1013B000B082BB20F1F183E590E00E94520560E02D
:1013C000F40186850E94AF08BA9482E90E944B0519
:1013D000CC20A9F08FEF90E02C0101C0440CCA94FE
:1013E000EAF782E90E944B05242D2095F3019081B4
:1013F00092238421892B8083CC24C39401C0C12CE7
:101400004C2C512C460C571CCB1438F482E90E940A
:101410004B05F2018083C394F3CF80E00E944B051B
:10142000F201808361E0F40186850E94AF080E948A
:101430004A0568E1C4010E9455058770E114F10472
:1014400021F0F701808301C080E0D3FC30C061143B
:10145000710479F10115110561F1AA2051F1F8012A
:101460004081413021F4843041F58FEF27C0423074
:1014700020F1811122C042509E012F5F3F4FB301E6
:10148000C4010E94F805811119C0F8018081680E1D
:10149000711CF30132979081898198130EC03196A7
:1014A00090818A81981309C004C084E007C082E05B
:1014B00005C080E003C081E001C087E00F900F907D
:1014C000DF91CF911F910F91FF90EF90DF90CF9020
:1014D000BF90AF909F908F907F906F905F904F9054
:1014E00008953FB7F8948091840290918502A0916D
:1014F0008602B091870226B5A89B05C02F3F19F040
:101500000196A11DB11D3FBFBA2FA92F982F882783
:10151000820F911DA11DB11DBC01CD0142E0660FDE
:10152000771F881F991F4A95D1F70895789484B53D
:10153000826084BD84B5816084BD85B5826085BDCF
:1015400085B5816085BD80916E00816080936E005D
:10155000109281008091810082608093810080914F
:101560008100816080938100809180008160809300
:1015700080008091B10084608093B1008091B000C0
:1015800081608093B000809191008260809391008F
:1015900080919100816080939100809190008160A2
:1015A000809390008091A10082608093A10080913F
:1015B000A10081608093A1008091A0008160809350
:1015C000A0008091210182608093210180912101FE
:1015D00081608093210180912001816080932001AE
:1015E00080917A00846080937A0080917A00826092
:1015F00080937A0080917A00816080937A00809154
:101600007A00806880937A001092C100E09198027D
:10161000F091990282E08083E0919402F09195022A
:101620001082E0919602F09197028FEC80831092E5
:10163000A002E0919C02F0919D0286E08083E091FF
:101640009A02F0919B02808180618083E0919A02EE
:10165000F0919B02808188608083E0919A02F091F2
:101660009B02808180688083E0919A02F0919B02C6
:1016700080818F7D8083CFB7F89480917E02811125
:1016800024C0E3E9F2E08491E9EDF2E09491E82FDF
:10169000F0E0EE0FFF1FEC5BFD4FA591B491EC91D4
:1016A000E92321F461E085E30E94AF0885E30E940D
:1016B0007E088CB580618CBD8CB580648CBD84E364
:1016C0000E947E0883E30E947E0880917E028F5FE5
:1016D00080937E02CFBF60E085E20E94AF0860E0A9
:1016E00083E20E94AF08C8E0D0E060E085E20E949B
:1016F000AF0860E081E20E94AF0861E085E20E94ED
:10170000AF08219791F761E083E20E94AF0881E082
:1017100080936F038AE090E090936C0380936B0357
:1017200090937103809370032FB7F8948091800297
:1017300090918102A0918202B09183022FBF809389
:10174000720390937303A0937403B0937503809115
:101750006D0390916E03029690936E0380936D03D8
:1017600080E090E0A0EAB0E48093570390935803A0
:10177000A0935903B0935A0320915303309154031B
:10178000C901880F991FE0914F03F0915003E80FB2
:10179000F91F45E553E05183408340E050E06AE79C
:1017A00074E44093270350932803609329037093B4
:1017B0002A0340914F03509150032E5F3F4F3093C7
:1017C000540320935303FA01E80FF91F25E233E095
:1017D000338322838FB7F894409080025090810227
:1017E00060908202709083028FBFC0E0D0E0809151
:1017F000530390915403C817D907ECF5C301B20104
:101800000E94C00D4B015C018E01000F111FE09181
:101810004F03F0915003E00FF11FE080F180D701FA
:1018200016962D913D914D915C911997C501B4018A
:101830000E94530DF70122813381448155810E941A
:101840004E0E1816B4F4D701ED91FC910480F58189
:10185000E02DC701199580914F0390915003FC0131
:10186000E00FF11F0190F081E02D86829782A08623
:10187000B1862196BCCF0E94B002ACCF8DE493E03C
:101880000C946508CF92DF92EF92FF920F931F9313
:10189000CF93DF93CDB7DEB760970FB6F894DEBF76
:1018A0000FBECDBF10928B0210928A0288EE93E099
:1018B000A0E0B0E080938C0290938D02A0938E0202
:1018C000B0938F0282E292E0909389028093880223
:1018D00085EC90E0909395028093940284EC90E0E4
:1018E000909397028093960280EC90E090939902F7
:1018F0008093980281EC90E090939B0280939A02EF
:1019000082EC90E090939D0280939C0286EC90E0A4
:1019100090939F0280939E021092A1021092A202C5
:101920001092A3021092A40210925703109258032F
:101930001092590310925A0310925B0310925C03A9
:1019400010925D0310925E0382E692E0909356033C
:101950008093550380E192E09093600380935F034E
:1019600080E092E0909362038093610388E0E3E675
:10197000F3E0DF011D928A95E9F710926C03109253
:101980006B0310926E0310926D0310926F0310920E
:1019900071031092700300E112E07801F801808178
:1019A0000E947E080E5F1F4F61E0D7018C910E945C
:1019B000AF08B2E008311B0781F700E012E080E1D8
:1019C000E82E82E0F82E6801F80180810E947E08EE
:1019D0000E5F1F4F60E0D6018C910E94AF08E016A9
:1019E000F10689F780E592E090934E0380934D03D2
:1019F00082E090E09093520380935103109254033D
:101A00001092530384E090E00E94A70E909350033D
:101A100080934F0388E492E090934C0380934B03B0
:101A200081E20E947E0885E20E947E0883E20E9495
:101A30007E08109227031092280310922903109217
:101A40002A0310922B0310922C0310922D03109254
:101A50002E038EE392E0909326038093250384E384
:101A600092E09093300380932F0385E380933D03AE
:101A70008CE0FE013396A1E3B3E001900D928A95CC
:101A8000E1F78FE180933E0360960FB6F894DEBFD6
:101A90000FBECDBFDF91CF911F910F91FF90EF90BF
:101AA000DF90CF9008955058BB27AA270E946B0D56
:101AB0000C94140E0E94060E38F00E940D0E20F0B9
:101AC00039F49F3F19F426F40C94030E0EF4E095BC
:101AD000E7FB0C94FD0DE92F0E94250E58F3BA1771
:101AE000620773078407950720F079F4A6F50C9434
:101AF000470E0EF4E0950B2EBA2FA02D0B01B90165
:101B000090010C01CA01A0011124FF27591B99F073
:101B1000593F50F4503E68F11A16F040A22F232F7F
:101B2000342F4427585FF3CF469537952795A795CF
:101B3000F0405395C9F77EF41F16BA0B620B730B76
:101B4000840BBAF09150A1F0FF0FBB1F661F771FE7
:101B5000881FC2F70EC0BA0F621F731F841F48F49C
:101B6000879577956795B795F7959E3F08F0B0CF25
:101B70009395880F08F09927EE0F9795879508950C
:101B8000E89409C097FB3EF4909580957095619517
:101B90007F4F8F4F9F4F9923A9F0F92F96E9BB27CD
:101BA0009395F695879577956795B795F111F8CF49
:101BB000FAF4BB0F11F460FF1BC06F5F7F4F8F4FB4
:101BC0009F4F16C0882311F096E911C0772321F0AA
:101BD0009EE8872F762F05C0662371F096E8862F42
:101BE00070E060E02AF09A95660F771F881FDAF799
:101BF000880F9695879597F9089597F99F6780E8DC
:101C000070E060E008959FEF80EC089500240A944E
:101C10001616170618060906089500240A941216C7
:101C20001306140605060895092E0394000C11F4FA
:101C3000882352F0BB0F40F4BF2B11F460FF04C0A7
:101C40006F5F7F4F8F4F9F4F089557FD9058440F00
:101C5000551F59F05F3F71F04795880F97FB991F0B
:101C600061F09F3F79F087950895121613061406C8
:101C7000551FF2CF4695F1DF08C016161706180655
:101C8000991FF1CF86957105610508940895E89430
:101C9000BB2766277727CB0197F908950E94530E3B
:101CA00008F48FEF0895990F0008550FAA0BE0E88C
:101CB000FEEF16161706E807F907C0F0121613060E
:101CC000E407F50798F0621B730B840B950B39F44E
:101CD0000A2661F0232B242B252B21F408950A26B4
:101CE00009F4A140A6958FEF811D811D089597FBF2
:101CF000072E16F4009407D077FD09D00E94930EAA
:101D000007FC05D03EF4909581959F4F08957095FE
:101D100061957F4F0895EE0FFF1F881F8BBF0790BF
:101D2000F691E02D1994AA1BBB1B51E107C0AA1F15
:101D3000BB1FA617B70710F0A61BB70B881F991F6C
:101D40005A95A9F780959095BC01CD0108950F9300
:101D50001F93CF93DF938230910510F482E090E0DF
:101D6000E0917803F091790320E030E0A0E0B0E06A
:101D7000309719F140815181028113814817590729
:101D8000C8F08417950769F4109731F012960C93F8
:101D9000129713961C9327C000937803109379032E
:101DA00022C02115310519F04217530718F49A0182
:101DB000BD01EF01DF01F801DBCF21153105F9F09D
:101DC000281B390B2430310580F48A819B816115F1
:101DD000710521F0FB019383828304C09093790302
:101DE00080937803FE01329644C0FE01E20FF31F98
:101DF0008193919322503109398328833AC02091ED
:101E0000760330917703232B41F420911A0230910D
:101E10001B023093770320937603209118023091B0
:101E200019022115310541F42DB73EB740911C022E
:101E300050911D02241B350BE0917603F09177033E
:101E4000E217F307A0F42E1B3F0B2817390778F091
:101E5000AC014E5F5F4F2417350748F04E0F5F1FF0
:101E600050937703409376038193919302C0E0E00F
:101E7000F0E0CF01DF91CF911F910F910895CF93A3
:101E8000DF93009709F481C0FC013297138212821C
:101E9000A0917803B0917903109781F4208131816A
:101EA000820F931F2091760330917703281739070B
:101EB00051F5F0937703E093760367C0ED0120E0DE
:101EC00030E0CE17DF0740F44A815B819E01411567
:101ED0005105F1F0EA01F5CFD383C28340815181EE
:101EE000840F951FC817D90759F488819981840FE9
:101EF000951F0296918380838A819B81938382833D
:101F00002115310529F4F0937903E09378033DC05E
:101F1000E901FB83EA8349915991C40FD51FEC175E
:101F2000FD0761F480819181840F951F0296E9017C
:101F300099838883828193819B838A83E0E0F0E0A8
:101F400012968D919C911397009719F0FD01DC0179
:101F5000F7CF8D919C9111979D012E5F3F4F820F7E
:101F6000931F20917603309177032817390769F47E
:101F7000309729F4109279031092780302C01382EB
:101F80001282B0937703A0937603DF91CF910895E7
:101F900081E090E0F8940C94CD0F11E0C6E7D1E019
:101FA00000E006C0802FFE010E948B0E2196011DCD
:0E1FB000C737D10780E00807A9F7F894FFCFE4
:101FBE0002000300040005000600070008000900E7
:101FCE000A000B000C000D0000007A0380000000D8
:101FDE0000004102AA01D8018E020902E701FB01AD
:101FEE000000000044069005E902000000007C0895
:101FFE00FD02D007000000007B08FB02000000007D
:10200E00650871080000000000000000F9020000E1
:10201E0000007D08FF02010320300020000D0A00A1
:0E202E0047656C6573656E65205549443A0040
:00000001FF
