:100000000C94BE010C94EF010C94EF010C94EF01E1
:100010000C94EF010C94EF010C94EF010C94EF01A0
:100020000C94EF010C94EF010C94EF010C94EF0190
:100030000C94EF010C943F0F0C94EF010C94EF0122
:100040000C94EF010C94EF010C94EF010C94EF0170
:100050000C94EF010C94EF010C94EF010C94B10E91
:100060000C94EF010C940F110C949F0F0C94EF0162
:100070000C94EF010C94EF010C94EF010C94EF0140
:100080000C94EF010C94EF010C94EF010C94EF0130
:100090000C94EF010C94EF010C94EF010C94D61129
:1000A0000C94EF010C94EF010C94EF010C94EF0110
:1000B0000C94EF010C94EF010C94EF010C94EF0100
:1000C0000C94EF010C94EF010C94EF010C94EF01F0
:1000D0000C94EF010C94EF010C94EF010C94EF01E0
:1000E0000C94EF017C0284028D02A102BB02CA02C1
:1000F000E402040313033303810C840C730C770CA8
:100100007D0CBB0C880C8C0C920C960C9A0CA00CE1
:10011000A40CA80CBB0CAE0CB20CB60C084AD73B16
:100120003BCE016E84BCBFFDC12F3D6C74319ABDC6
:1001300056833DDA3D00C77F11BED9E4BB4C3E91EA
:100140006BAAAABE000000803F000C94880C0C949F
:10015000CA020C94840C0C94770C0C94FD100C9433
:1001600077180C94B4160C94EC0F0C947B180C9428
:100170006B100C9447130C9467110C94F7010C94BA
:10018000D80F0C9404030C940C0B0C9463100C9477
:10019000CE100C94F9010C9446040C94180B0C949A
:1001A000170B0C94F9070C94BB0C0C94F5070C94EA
:1001B0000D110C94AE0C0C9484020C94A1020C94BE
:1001C000F5010C94C90F0C94920C0C9494030C94AC
:1001D0001A0B0C94730C0C947D0C0C9433030C943C
:1001E000A40C0C94F1010C94F3010C94A80C0C9445
:1001F0007C020C94A00C0C94810C0C946C100C944C
:10020000160B0C948D020C94FA0F0C94B60C0C94F3
:10021000B7160C94FB010C94FB130C948C0C0C94EF
:10022000B20C0C94190B0C94000B0C943F100C9412
:100230009A0C0C94960C0C94E4020C94B4110C944B
:1002400013030C944F100C94BB020C94A1100C944B
:1002500040100C94400B0200002100240027002ACB
:10026000002D003000330001010000040107010AE5
:100270000100002200250028002B002E0031003450
:100280000002010000050108010B0100002000230D
:1002900000260029002C002F00320000010000037E
:1002A00001060109010505050507050808080802FA
:1002B0000202020A0A0808040404040101010101FF
:1002C0000101010303030303030303040707070CEE
:1002D0000C0C0C0C0C0C0C020202020606060606A4
:1002E0000606060B0B0B0B0B0B0B0B010210202051
:1002F000080810204010204080020102010804027A
:1003000001010204081020408080402010080402EF
:100310000180040201804020100804020108040248
:10032000010102040810204080010204081020404E
:100330008000000A0B02090C0D0E080703040100DF
:1003400000000000000000000000000000000000AD
:10035000000000000000000000000000001211106A
:10036000000000000000000000000000000000008D
:1003700000000000000000007B18771811241FBE49
:10038000CFEFD1E2DEBFCDBF00E00CBF25E0A4EB94
:10039000B2E001C01D92A732B207E1F712E0A0E07F
:1003A000B2E0EEE6FCE300E00BBF02C007900D9266
:1003B000A43BB107D9F711E0CDEBD1E000E006C0D6
:1003C00021970109802FFE010E94C11CCC3BD1075F
:1003D00080E00807A9F70E94BA160C94251E0C9419
:1003E00000000C94971D0C94971D0C94971D0C9471
:1003F000971D0C94971DAF92BF92CF92DF92EF9210
:10040000FF920F931F93CF93DF932091CD023091F2
:10041000CE022230310509F07CC1DC015C962C91C2
:10042000222309F476C1EC010E94A50E0F8D18A1BC
:1004300029A13AA1DC01CB01801B910BA20BB30BCC
:10044000893E9340A105B10508F040C114C0215078
:100450003109398F288F888D998D892B31F483E06C
:1004600090E09093CE028093CD020E94A50E6F8FF4
:1004700078A389A39AA3CA8CDB8C8601000F111F75
:100480000C0F1D1F8EEF9FEF5C01AC1ABD0A1C14F0
:100490001D040CF03EC1E12CF12CEE85FF85EE0D24
:1004A000FF1D60E080810E94BC0CF2E0EF0EF11CA9
:1004B00020E1E216F10489F77501E00EF11EEC85EA
:1004C000FD85EE0DFF1D60E080810E94BC0C81E087
:1004D000C81AD108D8011E96ED91FC911F97EA30F9
:1004E000F10508F0E1C0AE85BF8561E08827EE58D0
:1004F000FF4F8F4F0C94C11C8C910E94BC0CEE8559
:10050000FF8561E082859CC012968C910E94BC0C94
:10051000EE85FF8561E08481C5C08C910E94BC0C92
:10052000EE85FF8561E082810E94BC0CEE85FF852F
:1005300061E086810E94BC0CEE85FF8561E08085CC
:1005400013C08C910E94BC0CEE85FF8561E0828116
:100550000E94BC0CEE85FF8561E084810E94BC0C8A
:10056000EE85FF8561E086810E94BC0CEE85FF85EB
:1005700061E0848597C012968C910E94BC0CEE8538
:10058000FF8561E084810E94BC0CEE85FF8561E0FF
:100590008285EACF8C910E94BC0CEE85FF8561E0DC
:1005A00082850E94BC0CEE85FF8561E084850E94F7
:1005B000BC0CEE85FF8561E084810E94BC0CEE8559
:1005C000FF8561E086816EC08C910E94BC0CEE8537
:1005D000FF8561E082850E94BC0CEE85FF8561E0AD
:1005E00084850E94BC0CEE85FF8561E084810E94B9
:1005F000BC0CEE85FF8561E086810E94BC0CEE8517
:10060000FF8561E080854EC012968C910E94BC0CE3
:10061000EE85FF8561E084810E94BC0CEE85FF853C
:1006200061E080813FC08C910E94BC0CEE85FF850B
:1006300061E082850E94BC0CEE85FF8561E08485C7
:100640000E94BC0CEE85FF8561E084810E94BC0C99
:10065000EE85FF8561E086810E94BC0CEE85FF85FA
:1006600061E0808519C08C910E94BC0CEE85FF85ED
:1006700061E082850E94BC0CEE85FF8561E0848587
:100680000E94BC0CEE85FF8561E084810E94BC0C59
:10069000EE85FF8561E086810E94BC0CEE85FF85BA
:1006A00061E082810E94BC0C61E070E080E090E03B
:1006B0000E946B0E8C859D85FC01EE0DFF1D61E097
:1006C00080810E94BC0C02501109E1CE288D398D29
:1006D0002031B7E23B0708F0BECE1B8E1A8EC9014F
:1006E0000AE010E0009709F4B2CEEA8CFB8CF70127
:1006F0003896EE0FFF1FEC0FFD1FB8010E948E1CF5
:1007000091838083CB01A7014F5F5F4F5B8F4A8F3F
:10071000E9CFDF91CF911F910F91FF90EF90DF9084
:10072000CF90BF90AF9008956F927F928F929F92DB
:10073000AF92CF92EF92FF920F931F93CF93DF93DD
:1007400000D01F92CDB7DEB74C013C014AE0640EE9
:10075000711CC3010E944713882309F486C0C3019A
:100760000E94FD10882309F480C080E589831A82E5
:100770009E012D5F3F4F42E0BE016F5F7F4FC3017F
:100780000E94AF1381110FC0A12CC12CE12CF12CC0
:1007900000E010E020E030E044E0BE016F5F7F4FFA
:1007A000C3010E941D0DF4013D96D4011C968C914D
:1007B00090E08150904E23E0880F991F2A95E1F731
:1007C00000E010E09801883FBFEF9B0791F0419156
:1007D00050E060E070E0082E04C0440F551F661F13
:1007E000771F0A94D2F7042B152B262B372B08974B
:1007F000EACF093D1A4D29443D4C71F52091CD02B7
:100800003091CE02A9014250510991E04230510588
:1008100008F090E081E02115310509F080E0892B96
:10082000D4015C969C915C97981770F45A968D91C0
:100830009C915B97DC01ED91FC910190F081E02DA2
:10084000199581E090E00DC02130310571F41092CE
:10085000CE021092CD0209C081E0F401848F83E0C2
:1008600090E09093CE028093CD020F900F900F9066
:100870000F90DF91CF911F910F91FF90EF90CF904C
:10088000AF909F908F907F906F9008952F923F929E
:100890004F925F926F927F928F929F92AF92BF9290
:1008A000CF92DF92EF92FF920F931F93CF93DF933C
:1008B000CDB7DEB760970FB6F894DEBF0FBECDBFE1
:1008C0002091CD023091CE02232B09F075C31C017B
:1008D00021E02093D60238E63093F8021092D70236
:1008E0001092F902DC011A968D919C911B97DC0104
:1008F000ED91FC910190F081E02D6BE319950E9440
:100900000B0C41E066E088E60E94C90B10924D0393
:1009100080934C03F10182859385DC01ED91FC917C
:100920000284F385E02D1995182FF10182859385B6
:10093000DC01ED91FC910284F385E02D199520E016
:1009400030E0312F822B932BF10195A384A3828574
:100950009385DC01ED91FC910284F385E02D1995DE
:10096000182FF10182859385DC01ED91FC910284C1
:10097000F385E02D199520E030E0312F822B932B69
:10098000F10197A386A382859385DC01ED91FC910B
:100990000284F385E02D1995182FF1018285938546
:1009A000DC01ED91FC910284F385E02D199520E0A6
:1009B00030E0312F822B932BF10191A780A7F1E03A
:1009C000F093D60228E62093F8021092D7021092F4
:1009D000F902D1011A968D919C911B97DC01ED9142
:1009E000FC910190F081E02D63E419950E940B0CBD
:1009F00041E066E088E60E94C90B10924D038093A7
:100A00004C03F10182859385DC01ED91FC91028418
:100A1000F385E02D19958983F10182859385DC01A9
:100A2000ED91FC910284F385E02D199520E030E0F2
:100A30003981822B932BF10193A782A7828593851D
:100A4000DC01ED91FC910284F385E02D19958983F9
:100A5000F10182859385DC01ED91FC910284F3859F
:100A6000E02D199520E030E03981822B932BF101A4
:100A700095A784A782859385DC01ED91FC91028482
:100A8000F385E02D1995182FF10182859385DC01FE
:100A9000ED91FC910284F385E02D19951A8319825A
:100AA000E981FA81E82BF92BFA87E987D1019F9632
:100AB000FC93EE939E9794966D917C919597072E5B
:100AC000000C880B990B0E94E819F101208D318DE3
:100AD000428D538D0E94051B20E030E040E858E332
:100AE0000E94471A4B015C01D101D0966D937D9312
:100AF0008D939C93D39796966D917C919797072EA3
:100B0000000C880B990B0E94E819F101248D358D9A
:100B1000468D578D0E94051B20E030E040E858E3E9
:100B20000E94471A6B017C01D101D4966D937D938D
:100B30008D939C93D79798960D911C919997909629
:100B40004D905D906D907C909397B801012E000CB4
:100B5000880B990B0E94E819A30192010E94051BC2
:100B600020E030E040E858E30E94471AF10160AF0E
:100B700071AF82AF93AF62A573A5072E000C880BEF
:100B8000990B0E94E819D1011C962D913D914D9130
:100B90005C911F970E94051B2FE632E143E852E467
:100BA0000E94E41BF10164AF75AF86AF97AF91016E
:100BB000205C3F4F3A83298364A575A5072E000C5E
:100BC000880B990B0E94E819D10150962D913D9107
:100BD0004D915C9153970E94051B2FE632E143E84B
:100BE00052E40E94E41BE981FA816083718382836D
:100BF000938391012C5B3F4F3E832D83A985BA855A
:100C0000BD01BB0F880B990B0E94E819F1012489E3
:100C10003589468957890E94051B2FE632E143E852
:100C200052E40E94E41BAD81BE816D937D938D9350
:100C30009C93139760E070E4601B710B072E000C0F
:100C4000880B990B0E94E819A30192010E94051BD1
:100C500020E030E040E858E30E94471A2B013C01B5
:100C600077FA709477F87094F7FAF094F7F8F094B4
:100C7000A3019201C701B6010E94851B8101045A9C
:100C80001F4F21EE3EE245E652E40E94471AF8016A
:100C90006083718382839383B7FAB094B7F8B0947A
:100CA000A3019201C501B4010E94851B9101205A44
:100CB0003F4F3A87298721EE3EE245E652E40E9403
:100CC000471AA985BA856D937D938D939C9313974D
:100CD000A5019401C701B6010E94851BF101EC59E1
:100CE000FF4FFC87EB8721EE3EE245E652E40E948F
:100CF000471AAB85BC856D937D938D939C93139719
:100D00000E94A50EF101E85BFF4FFE87ED87C080D2
:100D1000D180E280F3806C197D098E099F090E94C1
:100D2000E6192FE632E143E85AE30E94471A6B01C5
:100D30007C01F101E45BFF4F6083718382839383C5
:100D4000D101DC962D913D914D915C91DF970E94F0
:100D5000471A4B015C01F101E05BFF4FF88BEF8715
:100D60009B01AC0160817181828193810E94061B8D
:100D7000AF85B8896D937D938D939C931397E9818B
:100D8000FA812081318142815381C701B6010E94DD
:100D9000471A69837A838B839C8391012C5A3F4F36
:100DA000388B2F879B01AC01AF85B8896D917D9100
:100DB0008D919C910E94061BEF85F8896083718359
:100DC00082839383AD81BE812D913D914D915C9144
:100DD000C701B6010E94471A6D837E838F8398876F
:100DE000F101E85AFF4FF88BEF879B01AC0160815E
:100DF0007181828193810E94061BAF85B8896D93B2
:100E00007D938D939C931397F101E859FF4F408098
:100E10005180628073803496C080D180E280F380FC
:100E20003496F88BEF872081318142815381C5014F
:100E3000B4010E94061BA70196010E94471A4B01AC
:100E40005C01D8012D913D914D915C91C301B2019E
:100E50000E94471A9B01AC01C501B4010E94061B08
:100E6000EF85F889608371838283938391012C5885
:100E70003F4F388B2F87D9012D913D914D915C913A
:100E800069817A818B819C810E94061BA701960152
:100E90000E94471A4B015C01E985FA852081318166
:100EA00042815381C301B2010E94471A9B01AC01E8
:100EB000C501B4010E94061BAF85B8896D937D936F
:100EC0008D939C931397F101E858FF4FFA83E983C0
:100ED00020813181428153816D817E818F8198850E
:100EE0000E94061BA70196010E94471A6B017C0114
:100EF000AB85BC852D913D914D915C91C301B201B3
:100F00000E94471A9B01AC01C701B6010E94061B53
:100F1000E981FA8160837183828393830E94A50EA5
:100F2000AD85BE856D937D938D939C931397F10151
:100F300080A891A8A2A8B3A8C4A8D5A8E6A8F7A895
:100F4000F1E0F9832AE037ED43E25DE3C501B40146
:100F50000E947D1C18160CF019822AE037ED43E23E
:100F60005DEBC501B4010E94E119881F8827881F25
:100F70002981282B2D8331E039832AE037ED43E2A4
:100F80005DE3C701B6010E947D1C18160CF01982A2
:100F900089819D81892B51F42AE037ED43E25DEB95
:100FA000C701B6010E94E11987FF06C082E090E008
:100FB0009093CE028093CD0260960FB6F894DEBF78
:100FC0000FBECDBFDF91CF911F910F91FF90EF909A
:100FD000DF90CF90BF90AF909F908F907F906F9059
:100FE0005F904F903F902F900895FC0182850C9464
:100FF000FB0E8F929F92AF92BF92CF92DF92EF92B1
:10100000FF921F93CF93DF93FC018485843008F017
:101010001486848591E0980F9487DF01A80FB11D95
:10102000A80FB11D1D96CD91DC911E9782859385E9
:1010300020910002281721F02F3F09F0D2C204C0EE
:10104000E6E5F2E01491EAC080930002E6E5F2E002
:1010500014911F3F09F4C5C2123009F472C048F55B
:10106000112309F451C0113009F0D8C0109280004A
:1010700010928100209181002860209381002091AE
:1010800081002160209381009C013327F901EB55F9
:10109000FD4FE491F0E0EE0FFF1FEF58FD4F45913B
:1010A0005491F901E551FD4FE491E093B70211E04D
:1010B00059C1143009F48FC008F46AC0153009F022
:1010C000ADC01092200110922101209121012860D1
:1010D00020932101209121012160209321019C0175
:1010E0003327F901EB55FD4FE491F0E0EE0FFF1FC0
:1010F000EF58FD4F45915491F901E551FD4FE491B1
:10110000E093B40215E02EC114BC15BC24B52260D6
:1011100024BD25B5216025BD9C013327F901EB5580
:10112000FD4FE491F0E0EE0FFF1FEF58FD4F4591AA
:101130005491F901E551FD4FE491E093B80210E0BC
:101140004CC21092B0001092B1002091B000226009
:101150002093B0002091B10021602093B1009C0148
:101160003327F901EB55FD4FE491F0E0EE0FFF1F3F
:10117000EF58FD4F459154915093D0024093CF02C8
:10118000F901E551FD4FE491E093D10212E025C24F
:10119000109290001092910020919100286020936D
:1011A0009100209191002160209391009C013327B0
:1011B000F901EB55FD4FE491F0E0EE0FFF1FEF5802
:1011C000FD4F45915491F901E551FD4FE491E093B4
:1011D000B60213E0C7C01092A0001092A1002091A7
:1011E000A10028602093A1002091A10021602093FC
:1011F000A1009C013327F901EB55FD4FE491F0E08C
:10120000EE0FFF1FEF58FD4F45915491F901E55145
:10121000FD4FE491E093B50214E0A4C017FDE1C1D5
:1012200061E00E942F0E812F8D7F09F09EC06E011C
:10123000E12CF12C60E072E18AE790E0A7019601D1
:101240000E94A21C49015A01BA01A9014150510949
:10125000610971094F3F51056105710509F008F4F5
:1012600045C060E472E48FE090E0A70196010E941F
:10127000A21CBA01A901415051096109710912303A
:10128000E9F44F3F51056105710509F008F445C1C6
:1012900060E970ED83E090E0A70196010E94A21C36
:1012A000BA01A90141505109610971094F3F510526
:1012B0006105710509F020F583E04DC04F3F5105F0
:1012C00061057105A9F0A0F068E478EE81E090E096
:1012D000A70196010E94A21CBA01A901415051091F
:1012E00061097109112309F449C140C181E001C0BC
:1012F00082E0111130C095B5987F892B85BD92C0D1
:1013000068E478EE81E090E0A70196010E94A21CBB
:10131000BA01A90141505109610971094F3F5105B5
:101320006105710509F008F4F6C064E274EF80E02D
:1013300090E0A70196010E94A21CBA01A9014150A8
:101340005109610971094F3F51056105710511F09E
:1013500008F0E5C085E09091B100987F892B8093DB
:10136000B1004FC061E00E942F0E6E01E12CF12C04
:1013700060E072E18AE790E0A70196010E94A21C5A
:10138000BA01A9014150510961097109411551057D
:1013900081E06807710580F068E478EE81E090E014
:1013A000A70196010E94A21CBA01A901415051094E
:1013B0006109710983E001C081E0113039F4909135
:1013C0008100987F892B809381003EC0133039F4CF
:1013D00090919100987F892B809391005DC014308B
:1013E00039F49091A100987F892B8093A10069C066
:1013F000153039F490912101987F892B8093210138
:1014000075C01230B1F134F4112361F0113009F0DC
:10141000E8C01AC0143009F454C0F4F1153009F4CE
:1014200065C0DFC047BD8FEF9FEFDC018093C9022D
:101430009093CA02A093CB02B093CC0280916E002D
:10144000826080936E00CDC05093890040938800E5
:101450008FEF9FEFDC018093C5029093C602A093AB
:10146000C702B093C80280916F00826080936F00C2
:10147000B8C04093B3008FEF9FEFDC018093D2029E
:101480009093D302A093D402B093D50280917000C0
:10149000826080937000A5C050939900409398009B
:1014A0008FEF9FEFDC018093C1029093C202A09363
:1014B000C302B093C4028091710082608093710076
:1014C00090C05093A9004093A8008FEF9FEFDC01DC
:1014D0008093BD029093BE02A093BF02B093C0025E
:1014E000809172008260809372007BC050932901CA
:1014F000409328018FEF9FEFDC018093B902909316
:10150000BA02A093BB02B093BC02809173008260C8
:101510008093730066C084E01ECF82E01CCF62E13E
:101520007AE780E090E0A70196010E94A21CBA0130
:10153000A90141505109610971094F3F51056105E8
:10154000710591F088F0D501C4012AE0B595A79501
:10155000979587952A95D1F7AC01BD014150510966
:101560006109710987E0F7CE86E0F5CE4F3F51055E
:101570006105710509F098F684E0BBCE4F3F510537
:101580006105710541F138F162E17AE780E090E0B0
:10159000A70196010E94A21CBA01A901415051095C
:1015A000610971094F3F51056105710591F088F09E
:1015B000D501C4013AE0B595A795979587953A95D9
:1015C000D1F7AC01BD01415051096109710985E0B4
:1015D00092CE84E090CE83E08ECE61E00E942F0E0A
:1015E00026CEDF91CF911F91FF90EF90DF90CF90AB
:1015F000BF90AF909F908F9008958CBD9DBD089532
:101600002FE432E0FC0131832083828193810097B3
:1016100011F00C94971D0895CF93DF93EC010E9475
:10162000000BCE01DF91CF910C94971D0895089582
:101630000895089508953FB7F894809147039091D5
:101640004803A0914903B0914A0326B5A89B05C061
:101650002F3F19F00196A11DB11D3FBFBA2FA92F31
:10166000982F8827820F911DA11DB11DBC01CD01AE
:1016700042E0660F771F881F991F4A95D1F708959A
:10168000CF92DF92EF92FF920F931F93CF93DF934E
:101690006C017A018B01C0E0D0E0CE15DF0581F04E
:1016A000D8016D918D01D601ED91FC910190F081F1
:1016B000E02DC6011995892B11F02196EECF7E0100
:1016C000C701DF91CF911F910F91FF90EF90DF90B5
:1016D000CF900895EF92FF92CF93DF93F894F0901C
:1016E00016052F2D30E0E0911505F0E02E173F078D
:1016F0008CF5E0911305F0911405DF01E12CFE1447
:1017000069F0CD91DD91C817D90731F47894DF9154
:10171000CF91FF90EF900895E394F1CFDC01129602
:101720004D935D936D937C93159751E05F0D5093AE
:101730001605220F331FE20FF31F918380837894E5
:10174000ED91FC910480F581E02DDF91CF91FF9028
:10175000EF901994789447E050E069EA72E081E9EB
:1017600093E00E94400B42E050E061EB72E081E9BF
:1017700093E0DF91CF91FF90EF900C94400B81E9C3
:1017800093E00E94FA0F21E0892B09F420E0822FD8
:101790000895909140039111FCCF91E09093400304
:1017A00040933F032FEF20933E0310923D03260FFB
:1017B00020933C0390933B0390913B03880F892B2C
:1017C00080933B0380913A03813061F410923A0395
:1017D00080913B038093BB008091BC0083FDF8CFD8
:1017E00085EC01C085EE8093BC0080914003813080
:1017F000E1F380913D03861710F460913D03AAE167
:10180000B3E0EAEFF2E080E0861721F09D9191933A
:101810008F5FFACF08953091F902313208F04AC053
:10182000809140038111FCCF9091F80222E0209337
:10183000400310923F032FEF20933E0310923D038D
:1018400030933C03E8EDF2E0AAE1B3E020E0321788
:1018500021F041914D932F5FFACF10923B032091DD
:101860003B03990F922B90933B0390913A03913055
:1018700061F410923A0390913B039093BB009091D6
:10188000BC0093FDF8CF95EC01C095EE9093BC00A1
:10189000909140039230E1F390913E039F3F79F0A5
:1018A00080913E03803241F080913E03803331F0DD
:1018B00084E005C081E003C082E001C083E01092B3
:1018C000D7021092F9021092D602089590E0FC011E
:1018D0003197E231F10508F04EC08827E458FF4FF8
:1018E0008F4F0C94C11C809180008F7703C0809132
:1018F00080008F7D80938000089580918000877F95
:10190000F9CF84B58F7702C084B58F7D84BD0895EB
:101910008091B0008F7703C08091B0008F7D80935D
:10192000B0000895809190008F7707C0809190005B
:101930008F7D03C080919000877F809390000895F1
:101940008091A0008F7707C08091A0008F7D03C099
:101950008091A000877F8093A0000895809120014E
:101960008F7707C0809120018F7D03C08091200177
:10197000877F8093200108951F93CF93DF93282FB3
:1019800030E0F901EF5CFC4F8491F901E551FD4F26
:10199000D491F901EB55FD4FC491CC23C1F0162F22
:1019A00081110E94660CEC2FF0E0EE0FFF1FEF5844
:1019B000FD4FA591B4919FB7F894111104C08C917B
:1019C000D095D82302C0EC91DE2BDC939FBFDF9132
:1019D000CF911F910895DF92EF92FF920F931F9383
:1019E000CF93DF938C01F62ED42EE52E83E590E085
:1019F0000E94FD0A60E0F80186850E94BC0C82E12D
:101A00000E940513CD2DDE2DCE018F0D911D7C0181
:101A1000EC16FD0621F089910E940513F9CF61E0D3
:101A2000F80186850E94BC0CDF91CF911F910F9128
:101A3000FF90EF90DF900C9404134F925F926F929F
:101A40007F928F929F92AF92BF92CF92DF92EF924E
:101A5000FF920F931F93CF93DF931F921F92CDB7E7
:101A6000DEB74C012B01D42E3901E114F10419F039
:101A7000F701408101C040E0B42EF0E1CF9EB00CF0
:101A8000112440E062E0C4010E942A134FE768E09D
:101A9000C4010E942A1340E864E1C4010E942A1391
:101AA000A2016D2DC4010E94EB0C4B2D6AE1C40113
:101AB0000E942A134CE062E0C4010E942A136AE1EA
:101AC000C4010E940C13482F40686AE1C4010E94BF
:101AD0002A1380ED482E87E0582E68E0C4010E944A
:101AE0000C13982F907341F480FD04C081E0481AD4
:101AF000510899F783E0A0C06CE0C4010E940C1368
:101B0000D82E837109F095C06114710409F45AC08C
:101B10000115110509F456C064E1C4010E940C13BB
:101B2000B82EF80180818B1508F47DC0B082BB20EF
:101B3000F1F183E590E00E94FD0A60E0F401868502
:101B40000E94BC0CBA9482E90E940513CC20A9F033
:101B50008FEF90E02C0101C0440CCA94EAF782E9AF
:101B60000E940513242D2095F30190819223842156
:101B7000892B8083CC24C39401C0C12C4C2C512CC4
:101B8000460C571CCB1438F482E90E940513F2016D
:101B90008083C394F3CF80E00E940513F201808319
:101BA00061E0F40186850E94BC0C0E94041368E188
:101BB000C4010E940C138770E114F10421F0F701B5
:101BC000808301C080E0D3FC30C06114710479F1DE
:101BD0000115110561F1AA2051F1F8014081413050
:101BE00021F4843041F58FEF27C0423020F181117C
:101BF00022C042509E012F5F3F4FB301C4010E949B
:101C0000AF13811119C0F8018081680E711CF301B6
:101C100032979081898198130EC0319690818A8184
:101C2000981309C004C084E007C082E005C080E0CA
:101C300003C081E001C087E00F900F90DF91CF914A
:101C40001F910F91FF90EF90DF90CF90BF90AF90DA
:101C50009F908F907F906F905F904F900895CF935B
:101C6000DF9390E0FC01E551FD4F2491FC01EB5521
:101C7000FD4F8491882361F190E0880F991FFC014A
:101C8000E95AFD4FC591D491FC01EF58FD4FA59144
:101C9000B491611109C09FB7F8948881209582237F
:101CA0008883EC912E230BC0623061F49FB7F894C7
:101CB0008881322F309583238883EC912E2B2C93AF
:101CC0009FBF06C08FB7F894E8812E2B28838FBF63
:101CD000DF91CF9108958F929F92AF92BF92CF9252
:101CE000DF92EF92FF926B017C010E941B0B4B0174
:101CF0005C01C114D104E104F104F1F00E941B0B5A
:101D0000DC01CB0188199909AA09BB09883E9340D7
:101D1000A105B10570F321E0C21AD108E108F1086C
:101D200088EE880E83E0981EA11CB11CC114D1045A
:101D3000E104F10419F7DDCFFF90EF90DF90CF9031
:101D4000BF90AF909F908F9008952FB7F8946091B7
:101D500043037091440380914503909146032FBF44
:101D600008951F920F920FB60F9211242F933F9355
:101D70008F939F93AF93BF938091430390914403BC
:101D8000A0914503B09146033091420323E0230F15
:101D90002D3720F40196A11DB11D05C026E8230FA3
:101DA0000296A11DB11D209342038093430390939B
:101DB0004403A0934503B093460380914703909159
:101DC0004803A0914903B0914A030196A11DB11D9A
:101DD0008093470390934803A0934903B0934A0329
:101DE000BF91AF919F918F913F912F910F900FBE17
:101DF0000F901F9018959091000289133DC0E6E561
:101E0000F2E0E4919FEF90930002E230C9F050F4C9
:101E1000EE2399F0E13081F590916F009D7F9093D2
:101E20006F002AC0E43019F1E0F0E53029F5909117
:101E300073009D7F909373001FC010926E001CC0B2
:101E4000909170009D7F9093700091E09093B0000E
:101E50009091B100987F94609093B1001092B3007C
:101E60000BC0909171009D7F9093710005C090917F
:101E700072009D7F9093720060E00C94BC0C1F92E6
:101E80000F920FB60F9211240BB60F922F933F9320
:101E90004F935F936F937F938F939F93AF93BF9372
:101EA000EF93FF938091D2029091D302A091D4023C
:101EB000B091D502892B8A2B8B2B51F19091D102B5
:101EC000E091CF02F091D0028081892780838091B8
:101ED000D2029091D302A091D402B091D5021816EB
:101EE00019061A061B06C4F48091D2029091D302FF
:101EF000A091D402B091D5020197A109B1098093B4
:101F0000D2029093D302A093D402B093D50204C01E
:101F1000809100020E94FB0EFF91EF91BF91AF9163
:101F20009F918F917F916F915F914F913F912F91F1
:101F30000F900BBE0F900FBE0F901F9018951F9221
:101F40000F920FB60F9211240BB60F922F933F935F
:101F50004F935F936F937F938F939F93AF93BF93B1
:101F6000EF93FF9381E993E00E944511FF91EF9178
:101F7000BF91AF919F918F917F916F915F914F91A1
:101F80003F912F910F900BBE0F900FBE0F901F909F
:101F90001895FC01538D448D252F30E0842F90E05F
:101FA000821B930B541710F0CF9608950197089554
:101FB000FC01918D828D981761F0828DDF01A80F51
:101FC000B11D5D968C91928D9F5F9F73928F90E073
:101FD00008958FEF9FEF0895FC01918D828D9817E2
:101FE00031F0828DE80FF11D858D90E008958FEF1F
:101FF0009FEF0895FC01918D228D892F90E0805CE8
:102000009F4F821B91098F739927089580E090E07C
:10201000892B21F00E94BF0B811125C080E090E048
:10202000892B41F080E090E0892B21F00E94000094
:1020300081111CC080E090E0892B41F080E090E0AD
:10204000892B21F00E940000811113C080E090E0F4
:10205000892BA1F080E090E0892B81F00E940000A4
:1020600081110AC008950E940000D8CF0E9400008C
:10207000E1CF0E940000EACF0C940000089508957B
:10208000E0914D0380914C03E81730F4F0E0E65006
:10209000FD4F808190E008958FEF9FEF089590911C
:1020A0004D0380914C03981750F4E92FF0E0E6506F
:1020B000FD4F208130E09F5F90934D0302C02FEFD2
:1020C0003FEFC901089580914C0390E020914D03AA
:1020D000821B91090895089580E090E0089585EDB0
:1020E0008093BC008091BC0084FDFCCF1092400323
:1020F000089540916E03262F30E0240F311D2132C8
:102100003105DCF4209140032430C9F4FC0180E067
:1021100090E0861758F430916E032191DC01A25BA8
:10212000BC4FA30FB11D2C930196F3CF80916E038A
:10213000680F60936E0380E0089581E0089582E067
:102140000895CF92DF92EF92FF920F931F93CF9358
:10215000DF937C01CB018A012091D602222389F0F2
:10216000EB016B01C40ED51ECC15DD0569F069913C
:10217000D701ED91FC910190F081E02DC7011995F7
:10218000F3CF642F0E947910C801DF91CF911F9186
:102190000F91FF90EF90DF90CF900895CF93DF9352
:1021A0001F92CDB7DEB769832091D6022223D1F0EA
:1021B0002091F902203240F021E030E0FC0133832D
:1021C000228380E090E015C08091D702E82FF0E0F4
:1021D000E852FD4F998190838F5F8093D70280935F
:1021E000F90205C061E0CE0101960E94791081E0FC
:1021F00090E00F90DF91CF910895BC016E5F7F4F0B
:10220000DC01ED91FC910190F081E02D40E0199509
:1022100091E0811190E0892F08950E94201E1F9265
:102220000F920FB60F9211240BB60F922F938F932C
:102230009F93EF93FF93E091A103F091A20380811C
:10224000E091A703F091A80382FD12C090818091D4
:10225000AA038F5F8F732091AB03821751F0E09137
:10226000AA03F0E0EF56FC4F958F8093AA0301C0BC
:102270008081FF91EF919F918F912F910F900BBED5
:102280000F900FBE0F901F901895FC01848DDF01F9
:10229000A80FB11DA35ABF4F2C91848D90E00196D9
:1022A0008F739927848FA689B7892C93A089B189C8
:1022B0008C91837080648C93938D848D981306C069
:1022C0000288F389E02D80818F7D80830895EF92CD
:1022D000FF920F931F93CF93DF93EC0181E0888FE0
:1022E0009B8D8C8D981305C0E889F989808185FDC7
:1022F00026C0F62E0B8D10E00F5F1F4F0F731127B6
:10230000E02E8C8DE8120CC00FB607FCFACFE889DE
:10231000F989808185FFF5CFCE010E944511F1CF6B
:102320008B8DFE01E80FF11DE35AFF4FF0829FB73E
:10233000F8940B8FEA89FB89808180620AC09FB77D
:10234000F894EE89FF896083E889F9898081837038
:10235000806480839FBF81E090E0DF91CF911F91E7
:102360000F91FF90EF900895CF93DF93EC01888D4C
:102370008823C9F0EA89FB89808185FD05C0A88989
:10238000B9898C9186FD0FC00FB607FCF5CF80810F
:1023900085FFF2CFA889B9898C9185FFEDCFCE0159
:1023A0000E944511E7CFDF91CF9108951F920F92C0
:1023B0000FB60F9211240BB60F922F933F934F93AA
:1023C0005F936F937F938F939F93AF93BF93EF939D
:1023D000FF938091B900887F803609F49CC068F52E
:1023E000883209F45BC090F4803109F454C038F4A9
:1023F000882309F4F2C0883009F44DC0F2C0883156
:1024000009F44CC0803209F45DC0EBC0803409F49B
:1024100068C048F4803309F455C0883309F0E1C03E
:1024200080933E03D4C0803509F44FC0883509F449
:102430005DC0883409F0D5C0D2C0883909F4C3C062
:10244000A8F4883709F467C038F4883609F463C003
:10245000803709F460C0C5C0883809F4B4C0803939
:1024600009F45FC0803809F0BCC05BC0803B09F450
:1024700084C038F4803A09F466C0883A09F47DC013
:10248000B0C0803C09F4A3C0883C09F4A0C0883BDC
:1024900009F486C0A6C080913B0310C090913D0313
:1024A00080913C03981770F5E0913D0381E08E0F19
:1024B00080933D03F0E0E65EFC4F80818093BB009B
:1024C00085EC82C080933E038AC0E0913D0381E0A9
:1024D0008E0F80933D038091BB00F0E0E65EFC4FE1
:1024E000808390913D0380913C036AC0E0913D035D
:1024F00081E08E0F80933D038091BB00F0E0E65EAB
:10250000FC4F808380913F03811169C081E08093FB
:102510003A0384EA5DC083E0809340031092900305
:10252000CFCF80919003803208F04DC0E0919003AE
:1025300081E08E0F809390038091BB00F0E0E05922
:10254000FC4F8083BDCF85EC8093BC00109240038C
:1025500080919003803230F4E0919003F0E0E059F4
:10256000FC4F10826091900370E080E793E0E0E020
:10257000F0E019951092900334C084E080934003FA
:1025800010926F0310926E03E0E0F0E019958091D5
:102590006E03811105C081E080936E0310924E039B
:1025A000E0916F0381E08E0F80936F03F0E0E25BB8
:1025B000FC4F80818093BB0090916F0380916E03EC
:1025C000981708F47DCF85E88093BC000AC085EC9D
:1025D0008093BC001092400304C010923E030E94FE
:1025E0006F10FF91EF91BF91AF919F918F917F916C
:1025F0006F915F914F913F912F910F900BBE0F9074
:102600000FBE0F901F90189508958EBD00000DB459
:1026100007FEFDCF8EB508951F93CF93DF93EC0196
:10262000162F83E590E00E94FD0A60E08E850E94EF
:10263000BC0C812F80680E94051380E00E94051366
:10264000182F61E08E850E94BC0C812FDF91CF9105
:102650001F9108950F931F93CF93DF93EC01062FE3
:10266000142F83E590E00E94FD0A60E08E850E94B1
:10267000BC0C802F0E940513812F0E94051361E07E
:102680008E85DF91CF911F910F910C94BC0C8F928E
:102690009F92AF92CF92EF92FF920F931F93CF939F
:1026A000DF9300D01F921F92CDB7DEB74C0182E0BE
:1026B0008D8340E064E2C4010E942A1340E066E298
:1026C000C4010E942A1346E268E4C4010E942A134E
:1026D00086E28B838D81823040F16CE1C4010E94DF
:1026E0000C13482F4F776CE1C4010E942A1387E036
:1026F0008C83A12CC12CCE0104967C018E010B5F32
:102700001F4F9E012F5F3F4F41E0BE016D5F7F4F26
:10271000C4010E941D0D81110BC08D81823039F4DE
:1027200081E09C81911104C008C084E001C081E077
:1027300091E0823019F090E001C091E0892F0F9074
:102740000F900F900F900F90DF91CF911F910F91ED
:10275000FF90EF90CF90AF909F908F900895CF9281
:10276000DF92EF92FF920F931F93CF93DF93EC01D1
:102770006B01142F790140E062E00E942A1344E0CB
:102780006AE0CE010E942A1340E864E1CE010E9473
:102790002A13A601612FCE010E94EB0C43E062E0F8
:1027A000CE010E942A1308E813E16AE0CE010E94DC
:1027B0000C1382FF13C040E062E0CE010E942A1396
:1027C00064E4CE010E940C13F701808362E4CE0121
:1027D0000E940C13F701818380E004C001501109AD
:1027E00021F783E0DF91CF911F910F91FF90EF9040
:1027F000DF90CF9008952F923F924F925F926F9209
:102800007F928F929F92AF92BF92CF92DF92EF9280
:10281000FF920F931F93CF93DF93CDB7DEB72C9723
:102820000FB6F894DEBF0FBECDBF413508F00BC127
:10283000342E3B014C016CE10E940C13482F4F7762
:102840006CE1C4010E942A132224239432E023164F
:1028500091F083E02816E1F091E02912F6C083E9B7
:1028600089833320D1F081E0F3019081953008F421
:1028700080E0B12C17C0F5E9F983332081F081E0C5
:10288000F3019081983008F480E043E0B42E0AC050
:1028900087E9898336E0B32E04C0B12C02C023E05F
:1028A000B22E80E0D32CF8E0BF9ED0181124D7FCC4
:1028B000D12C882321F098E89B8333E001C032E0DB
:1028C00021E09D2D977009F420E09D2D959595951B
:1028D0009595290F31F4882309F492C038E0D30E7E
:1028E0008FC0811102C094E001C093E0291708F461
:1028F000922FEB2DF0E03196E60DF71D232F41913D
:10290000A1E0B0E0AC0FBD1FA20FB11D4C932F5F33
:10291000422F431B491798F3DECF8111DEC09FE1A0
:102920009D150CF494C080E2D82E90E79A839B8189
:102930008C8189279D8189279E8189278F839E018C
:10294000285F3F4F47E0BE016F5F7F4FC4010E9489
:10295000AF138111A3C01A86E3E0EB87CE0107967F
:102960002C0199E09C87CA844C2D4295407F4C0DE8
:102970006AE1C4010E942A13A12CCE010A967C01AF
:102980008E01055F1F4F92014C85BE016F5F7F4F27
:10299000C4010E941D0D182F823009F0BECF6CE1DA
:1029A000C4010E940C1385FD98C08F7109F480E268
:1029B000282F30E04D2DDD0C550B421753070CF03E
:1029C00044C0D82E85958595859591E0980F422F26
:1029D000477081E009F480E0890FE1E0F0E0EC0F5E
:1029E000FD1FE80FF11D215031092770332781E0C9
:1029F00090E001C0880F2A95EAF79081892B8083A7
:102A00008FE18D150CF491CF9D2D97709A878D2DA8
:102A10008595859585958E5F292FE0E18E9F200D08
:102A200011242A8321E0911101C020E0280F2C8776
:102A300044244394512C4C0E5D1E480E511CF9E069
:102A4000F81BFB8790CF16E048C015E046C08B818D
:102A5000883809F43FC082E094E0EB2DF0E0319635
:102A6000E60DF71D980FA1E0B0E0AC0FBD1FA80F59
:102A7000B11D2C9121938F5F8913F5CF8B85833006
:102A800029F58A85811122C09E012D5F3F4F41E0CB
:102A9000B201C4010E94AF13882311F0182F1DC08A
:102AA0009B81F2018181981313C09C8182819813CC
:102AB0000FC0808182FF02C02394C8CEF3018387B8
:102AC000822D880F820D8F5F808307C011E005C0C3
:102AD00017E003C083E093E0C0CF812F2C960FB6A0
:102AE000F894DEBF0FBECDBFDF91CF911F910F9144
:102AF000FF90EF90DF90CF90BF90AF909F908F901E
:102B00007F906F905F904F903F902F9008951F930C
:102B1000CF93DF93182F60E085E20E94BC0C60E049
:102B200083E20E94BC0CC8E0D0E060E085E20E9435
:102B3000BC0C612F607881E20E94BC0C110F61E037
:102B400085E20E94BC0C219781F761E083E2DF916E
:102B5000CF911F910C94BC0CCF93DF9361E08091D7
:102B60006B040E942F0E61E080916B040E94BC0CEC
:102B700080916C048F3F41F44FE062E08DE594E07A
:102B80000E942A13C3E025C060E00E942F0E20910E
:102B90006C0430E0F901EF5CFC4F8491F901E551E0
:102BA000FD4FD491F901EB55FD4FC491CC23F9F0C1
:102BB00081110E94660CEC2FF0E0EE0FFF1FE5572D
:102BC000FD4FA591B491EC91ED2389F0D5CFC15083
:102BD00039F162E370E080E090E00E946B0E62E009
:102BE0008DE594E00E940C1384FF1AC0F0CF61E0E1
:102BF00080916C040E942F0E60E080916C040E9412
:102C0000BC0C83E090E00197F1F761E080916C04E7
:102C10000E94BC0C62E370E080E090E00E946B0ECA
:102C200040E064E28DE594E00E942A1340E066E211
:102C30008DE594E00E942A1346E268E48DE594E075
:102C40000E942A1340E864E58DE594E00E942A136F
:102C500049EA66E58DE594E00E942A1343E068E5C1
:102C60008DE594E00E942A1348EE6AE58DE594E034
:102C70000E942A1340E46AE28DE594E00E942A1340
:102C80004DE362E28DE594E00E942A1368E28DE54F
:102C900094E00E940C13982F9370933049F0482FC2
:102CA000436068E28DE594E0DF91CF910C942A13A4
:102CB000DF91CF910895CF93DF93F894309116056B
:102CC0004091130550911405FA0120E0321709F4E0
:102CD00047C0EF01C41BD50B61917191681779074B
:102CE000E9F5DC01ED91FC910680F781E02D199565
:102CF0008091130590911405C80FD91F198218826D
:102D00008091160581508093160540E020911605AC
:102D100030E0842F90E02817390714F12091130533
:102D200030911405880F991FF901E80FF91F608190
:102D30007181672B89F40296D901A80FB91F2D91D3
:102D40003C91318320832091130530911405F901C2
:102D5000E80FF91F118210824F5FD8CF2F5FB6CFD7
:102D60007894DF91CF910895FC01128A0895FC01B7
:102D7000148E0895789484B5826084BD84B5816092
:102D800084BD85B5826085BD85B5816085BD809136
:102D90006E00816080936E001092810080918100AE
:102DA00082608093810080918100816080938100A6
:102DB000809180008160809380008091B100846068
:102DC0008093B1008091B00081608093B0008091C9
:102DD0009100826080939100809191008160809346
:102DE0009100809190008160809390008091A1007B
:102DF00082608093A1008091A10081608093A100F6
:102E00008091A00081608093A00080912101826068
:102E10008093210180912101816080932101809123
:102E2000200181608093200180917A0084608093EA
:102E30007A0080917A00826080937A0080917A0093
:102E4000816080937A0080917A00806880937A0014
:102E50001092C100E091A103F091A20382E080836F
:102E6000E0919D03F0919E031082E0919F03F09109
:102E7000A0038FEC80831092A903E091A503F09149
:102E8000A60386E08083E091A303F091A4038081F0
:102E900080618083E091A303F091A4038081886026
:102EA0008083E091A303F091A403808180688083F4
:102EB000E091A303F091A40380818F7D8083CFB73D
:102EC000F89480914103811127C0EAEDF2E08491EA
:102ED000E0E2F3E09491E82FF0E0EE0FFF1FE95AF3
:102EE000FD4FA591B491EC91E92321F461E085E3D4
:102EF0000E94BC0C61E085E30E942F0E8CB58061BE
:102F00008CBD8CB580648CBD61E084E30E942F0E83
:102F100061E083E30E942F0E809141038F5F8093D5
:102F20004103CFBF0E94AC1510926F048AE08093DA
:102F3000150584E190E00E94FF1C90931405809396
:102F4000130582E190E0E0911305F0911405E80F7C
:102F5000F91F1182108202978E3F2FEF920799F787
:102F600082E00E94871540E050E060EA70E48EE263
:102F700094E00E946A0B40E050E06AEF73E483E55E
:102F800094E00E946A0B40E050E060E271E485E862
:102F900094E00E946A0B83E090E09093CE028093CD
:102FA000CD02EE24E3949AE0C92ED12C0E94A50E06
:102FB0002B013C01F12C80911605F81608F04DC04C
:102FC000C301B2010E94E6194B015C01CF2DD0E094
:102FD000CC0FDD1FE0911305F0911405EC0FFD1FE0
:102FE00000811181D80116962D913D914D915C91F2
:102FF0001997C501B4010E94051BF8012281338194
:10300000448155810E947D1C18162CF5D801169616
:103010008D929D92AD92BC921997ED91FC91048096
:10302000F581E02DC8011995809113059091140543
:10303000C80FD91F0990D881C02D20E030E0A90128
:103040006A817B818C819D810E94E119811103C07D
:10305000CE010E945B16F394AECFC091CD02D09109
:10306000CE02C330D10549F440E050E06AEF73E48A
:1030700080E794E00E946A0B1AC0C130D10561F468
:1030800080E20E9487150E94AC1510926F0480E7C1
:1030900094E00E945B1628C0209711F480E008C0DD
:1030A000C230D10509F580914A04882321F082E0DD
:1030B0000E94871519C0E0924A04D0924704C0923A
:1030C0004604D0924C04C0924B040E94A50E60931B
:1030D0004D0470934E0480934F0490935004D0930A
:1030E0004904C0934804E3CF0E9406105FCF81E1FA
:1030F00095E00C94000BEF92FF920F931F93CF93E8
:10310000DF93CDB7DEB760970FB6F894DEBF0FBE82
:10311000CDBF109294031092930388EE93E0A0E049
:10312000B0E08093950390939603A0939703B09398
:1031300098032BE232E0309392032093910325EC25
:1031400030E030939E0320939D0324EC30E03093D5
:10315000A00320939F0320EC30E03093A203209340
:10316000A10321EC30E03093A4032093A30322ECCD
:1031700030E03093A6032093A50326EC30E0309393
:10318000A8032093A7031092AA031092AB031092F6
:10319000AC031092AD0310921A051092190580939A
:1031A0001B0590931C05A0931D05B0931E058DE390
:1031B00092E090931805809317058FE492E0909326
:1031C000120580931105109216051092300410928A
:1031D000310410923204109233041092340410928D
:1031E0003504109236041092370489E992E09093E6
:1031F0002F0480932E0487EA92E090933904809301
:10320000380481E192E090933B0480933A0481E09A
:1032100092E090933D0480933C0488E0EEE3F4E078
:10322000DF011D928A95E9F7109247041092460437
:10323000109249041092480410924A0410924C04CF
:1032400010924B0401E112E0780161E0F801808105
:103250000E942F0E0E5F1F4F61E0D7018C910E94DC
:10326000BC0CB2E009311B0779F701E012E07801EC
:1032700061E0F80180810E942F0E0E5F1F4F60E019
:10328000D7018C910E94BC0CB2E001311B0779F789
:1032900081E692E0909352048093510461E081E2D0
:1032A0000E942F0E61E085E20E942F0E61E083E212
:1032B0000E942F0E1092550410925604109257043B
:1032C000109258041092590410925A0410925B0400
:1032D00010925C0489E692E0909354048093530426
:1032E00087E592E090935E0480935D0488E394E028
:1032F00090936E0480936D0410926F048CE0FE0135
:103300003396AFE5B4E001900D928A95E1F781E341
:1033100080936B048FE180936C041092720410927E
:103320007304109274041092750410927604109233
:103330007704109278041092790485E792E09093D4
:1033400071048093700488E290E090937B048093F2
:103350007A0410927C0488E0EFE1F2E0ADE7B4E09B
:1033600001900D928A95E1F761E088E20E942F0EAC
:1033700010928704109288041092890410928A0493
:1033800010928B0410928C0410928D0410928E0473
:1033900081E892E0909386048093850487E195E02C
:1033A0009093900480938F0460960FB6F894DEBFDC
:1033B0000FBECDBFDF91CF911F910F91FF90EF9086
:1033C00008950E94231A08F481E00895E89409C042
:1033D00097FB3EF490958095709561957F4F8F4F48
:1033E0009F4F9923A9F0F92F96E9BB279395F6955E
:1033F000879577956795B795F111F8CFFAF4BB0FDC
:1034000011F460FF1BC06F5F7F4F8F4F9F4F16C03F
:10341000882311F096E911C0772321F09EE8872FC9
:10342000762F05C0662371F096E8862F70E060E085
:103430002AF09A95660F771F881FDAF7880F9695FE
:10344000879597F90895990F0008550FAA0BE0E8A2
:10345000FEEF16161706E807F907C0F01216130656
:10346000E407F50798F0621B730B840B950B39F496
:103470000A2661F0232B242B252B21F408950A26FC
:1034800009F4A140A6958FEF811D811D08950E942A
:103490005A1A0C94CB1A0E94BD1A38F00E94C41A12
:1034A00020F0952311F00C94B41A0C94BA1A11243C
:1034B0000C94FF1A0E94DC1A70F3959FC1F3950FCC
:1034C00050E0551F629FF001729FBB27F00DB11DA8
:1034D000639FAA27F00DB11DAA1F649F6627B00D38
:1034E000A11D661F829F2227B00DA11D621F739F21
:1034F000B00DA11D621F839FA00D611D221F749F2F
:103500003327A00D611D231F849F600D211D822F75
:10351000762F6A2F11249F5750409AF0F1F088239C
:103520004AF0EE0FFF1FBB1F661F771F881F9150C9
:103530005040A9F79E3F510580F00C94B41A0C94AA
:10354000FF1A5F3FE4F3983ED4F38695779567952D
:10355000B795F795E7959F5FC1F7FE2B880F911DF3
:103560009695879597F9089597F99F6780E870E099
:1035700060E008959FEF80EC089500240A941616E9
:10358000170618060906089500240A941216130651
:10359000140605060895092E0394000C11F48823DF
:1035A00052F0BB0F40F4BF2B11F460FF04C06F5FFB
:1035B0007F4F8F4F9F4F089557FD9058440F551FD1
:1035C00059F05F3F71F04795880F97FB991F61F0A5
:1035D0009F3F79F087950895121613061406551F1C
:1035E000F2CF4695F1DF08C0161617061806991F88
:1035F000F1CF86957105610508940895E894BB277D
:1036000066277727CB0197F908955058BB27AA273B
:103610000E941D1B0C94CB1A0E94BD1A38F00E9408
:10362000C41A20F039F49F3F19F426F40C94BA1A06
:103630000EF4E095E7FB0C94B41AE92F0E94DC1A13
:1036400058F3BA17620773078407950720F079F4D7
:10365000A6F50C94FE1A0EF4E0950B2EBA2FA02DB1
:103660000B01B90190010C01CA01A0011124FF272F
:10367000591B99F0593F50F4503E68F11A16F0402A
:10368000A22F232F342F4427585FF3CF4695379529
:103690002795A795F0405395C9F77EF41F16BA0BEE
:1036A000620B730B840BBAF09150A1F0FF0FBB1F9C
:1036B000661F771F881FC2F70EC0BA0F621F731FE5
:1036C000841F48F4879577956795B795F7959E3F42
:1036D00008F0B0CF9395880F08F09927EE0F9795D3
:1036E000879508950E94BD1A60F080E891E009F482
:1036F0009EEF0E94C41A28F040E851E071F45EEF9A
:103700000CC00C94BA1A0C94FE1AE92FE0780E94AF
:10371000DC1A40F3092E052AB1F3261737074807AC
:10372000590738F00E2E07F8E02569F0E025E0642F
:103730000AC0EF6307F8009407FADB01B9019D01A5
:10374000DC01CA01AD01EF930E94FB1B0E94CB1A62
:103750000E94B51B5F91552339F02BED3FE049E402
:1037600050FD49EC0C94061B0895DF93DD27B92F1B
:10377000BF7740E85FE31616170648075B0718F4A3
:10378000D92F0E94821C9F938F937F936F930E94E7
:103790008A1CECE1F1E00E94561C0E94CB1A2F918A
:1037A0003F914F915F910E945A1ADD2351F090583A
:1037B000A2EA2AED3FE049EC5FE3D0785D270E9462
:1037C0001D1BDF910C94CB1A0E94F81B0C94CB1A92
:1037D0000E94C41A58F00E94BD1A40F029F45F3FBD
:1037E00029F00C94B41A51110C94FF1A0C94BA1AC3
:1037F0000E94DC1A68F39923B1F3552391F3951BCA
:10380000550BBB27AA2762177307840738F09F5F01
:103810005F4F220F331F441FAA1FA9F335D00E2E6E
:103820003AF0E0E832D091505040E695001CCAF7DB
:103830002BD0FE2F29D0660F771F881FBB1F26179E
:1038400037074807AB07B0E809F0BB0B802DBF0175
:10385000FF2793585F4F3AF09E3F510578F00C9444
:10386000B41A0C94FF1A5F3FE4F3983ED4F38695A4
:1038700077956795B795F7959F5FC9F7880F911D65
:103880009695879597F90895E1E0660F771F881F51
:10389000BB1F621773078407BA0720F0621B730B04
:1038A000840BBA0BEE1F88F7E0950895DF93CF9352
:1038B0001F930F93FF92EF92DF927B018C0168942C
:1038C00006C0DA2EEF010E945A1AFE01E894A59173
:1038D0002591359145915591A6F3EF010E941D1B4D
:1038E000FE019701A801DA9469F7DF90EF90FF904D
:1038F0000F911F91CF91DF9108950E94231A08F430
:103900008FEF08959B01AC0160E070E080E89FE3D9
:103910000C94E41B9B01AC010C94471A97FB072EF7
:1039200016F4009407D077FD09D00E94C91C07FC4B
:1039300005D03EF4909581959F4F089570956195BF
:103940007F4F0895052E97FB1EF400940E94B91C2A
:1039500057FD07D00E94DD1C07FC03D04EF40C94E9
:10396000B91C50954095309521953F4F4F4F5F4F73
:10397000089590958095709561957F4F8F4F9F4FDB
:103980000895EE0FFF1F881F8BBF0790F691E02D63
:103990001994AA1BBB1B51E107C0AA1FBB1FA61786
:1039A000B70710F0A61BB70B881F991F5A95A9F7E8
:1039B00080959095BC01CD010895A1E21A2EAA1B15
:1039C000BB1BFD010DC0AA1FBB1FEE1FFF1FA217CF
:1039D000B307E407F50720F0A21BB30BE40BF50BCC
:1039E000661F771F881F991F1A9469F76095709555
:1039F000809590959B01AC01BD01CF0108950F9377
:103A00001F93CF93DF938230910510F482E090E012
:103A1000E0912505F091260520E030E0A0E0B0E03F
:103A2000309719F14081518102811381481759075C
:103A3000C8F08417950769F4109731F012960C932B
:103A4000129713961C9327C0009325051093260503
:103A500022C02115310519F04217530718F49A01B5
:103A6000BD01EF01DF01F801DBCF21153105F9F0D0
:103A7000281B390B2430310580F48A819B81611524
:103A8000710521F0FB019383828304C09093260586
:103A900080932505FE01329644C0FE01E20FF31F1C
:103AA0008193919322503109398328833AC0209120
:103AB000230530912405232B41F420911B023091E2
:103AC0001C02309324052093230520911902309184
:103AD0001A022115310541F42DB73EB740911D0260
:103AE00050911E02241B350BE0912305F091240513
:103AF000E217F307A0F42E1B3F0B2817390778F0C5
:103B0000AC014E5F5F4F2417350748F04E0F5F1F23
:103B100050932405409323058193919302C0E0E0E4
:103B2000F0E0CF01DF91CF911F910F910895CF93D6
:103B3000DF93009709F481C0FC013297138212824F
:103B4000A0912505B0912605109781F4208131813F
:103B5000820F931F209123053091240528173907E0
:103B600051F5F0932405E093230567C0ED0120E0B3
:103B700030E0CE17DF0740F44A815B819E0141159A
:103B80005105F1F0EA01F5CFD383C2834081518121
:103B9000840F951FC817D90759F488819981840F1C
:103BA000951F0296918380838A819B819383828370
:103BB0002115310529F4F0932605E09325053DC034
:103BC000E901FB83EA8349915991C40FD51FEC1792
:103BD000FD0761F480819181840F951F0296E901B0
:103BE00099838883828193819B838A83E0E0F0E0DC
:103BF00012968D919C911397009719F0FD01DC01AD
:103C0000F7CF8D919C9111979D012E5F3F4F820FB1
:103C1000931F20912305309124052817390769F453
:103C2000309729F4109226051092250502C01382C0
:103C30001282B0932405A0932305DF91CF910895BC
:103C400081E090E0F8940C94251E11E0CDEBD1E0DA
:103C500000E006C0802FFE010E94C11C2196011DBC
:0E3C6000CE3BD10780E00807A9F7F894FFCF0C
:103C6E00FF0200030004000500060007000800091B
:103C7E00000A000B000C000D00000027058000B8A4
:103C8E0001E803B801BC02000000006711400BC937
:103C9E000FB411FA0FD80FEC0F00000000CE10A1D8
:103CAE00106C103F1063104F104010000000000009
:103CBE000B0C0B00000000FB134713FD100000005F
:103CCE0000160BF10100000000170BF30194036BBB
:103CDE001000000000190BF701F907F507000000AE
:103CEE0000180BF50146046B1000000000000000E8
:103CFE00000D116B10000000001A0BF901FB016B97
:103D0E0010B716F6FF0000B41654422066756C6CA0
:043D1E00000D0A008A
:00000001FF
