:100000000C948F010C94C0010C94C0010C94C0019D
:100010000C94C0010C94C0010C94C0010C94C0015C
:100020000C94C0010C94C0010C94C0010C94C0014C
:100030000C94C0010C94E70D0C94C0010C94C00109
:100040000C94C0010C94C0010C94C0010C94C0012C
:100050000C94C0010C94C0010C94C0010C949D0D33
:100060000C94C0010C94A9040C947F040C94C0015E
:100070000C94C0010C94C0010C94C0010C94C001FC
:100080000C94C0010C94C0010C94C0010C94C001EC
:100090000C94C0010C94C0010C94C0010C94C001DC
:1000A0000C94C0010C94C0010C94C0010C94C001CC
:1000B0000C94C0010C94C0010C94C0010C94C001BC
:1000C0000C94C0010C94C0010C94C0010C94C001AC
:1000D0000C94C0010C94C0010C94C0010C94C0019C
:1000E0000C94C001800388039103A503BF03CE03D2
:1000F000E803080417043704AB0BAE0B9D0BA10BF0
:10010000A70BE50BB20BB60BBC0BC00BC40BCA0B99
:10011000CE0BD20BE50BD80BDC0BE00B0C94C6011D
:100120000C94CE030C9488030C94CA0B0C94A10B72
:100130000C94D7020C94AD100C9408040C94D80BBA
:100140000C9409080C9425050C94F7010C94BC0B35
:100150000C9417040C940A080C94D5010C94C00B51
:100160000C94F2070C94E00B0C94E50B0C94AB0B85
:100170000C94B60B0C9480030C94A70B0C940708FA
:100180000C947C020C94BF030C94660B0C94B20B81
:100190000C9465070C94DC0B0C94890E0C94910361
:1001A0000C94860E0C94D20B0C94E9010C94AE0BBB
:1001B0000C94E9020C94B1100C94CE0B0C94A50392
:1001C0000C9475040C94E7020C947D040C94770451
:1001D0000C9408080C947B040C94C40B0C94D90563
:1001E0000C949D0B0C94E8030C9479040C942F024E
:1001F0000C9437040C94FD07000020002300260017
:1002000029002C002F00320000010000030106012C
:100210000901010210202008081020401020408011
:1002200002010201080402010102040810204080BA
:100230008040201008040201800402018040201048
:100240000804020108040201010204081020408091
:100250000102040810204080000022002500280030
:100260002B002E00310034000201000005010801BE
:100270000B0105050505070508080808020202022A
:100280000A0A080804040404010101010101010132
:100290000303030303030303040707070C0C0C0CFD
:1002A0000C0C0C0C020202020606060606060606E6
:1002B0000B0B0B0B0B0B0B0B020000210024002778
:1002C000002A002D00300033000101000004010766
:1002D000010A0100000A0B02090C0D0E08070304B5
:1002E000010000000000000000000000000000000D
:1002F00000000000000000000000000000000012EC
:1003000011100000000000000000000000000000CC
:1003100000000000000000000000B110AD1011242A
:100320001FBECFEFD1E2DEBFCDBF00E00CBF12E0B9
:10033000A0E0B2E0E0E3F7E200E00BBF02C007900C
:100340000D92A438B107D9F723E0A4E8B2E001C0C8
:100350001D92AB3AB207E1F711E0CEE8D1E000E040
:1003600006C021970109802FFE010E942212CD387C
:10037000D10780E00807A9F70E948C0E0C94861321
:100380000C940000089580E090E00895FC01538DE6
:10039000448D252F30E0842F90E0821B930B54175F
:1003A00010F0CF96089501970895FC01918D828DEC
:1003B000981761F0828DDF01A80FB11D5D968C91B9
:1003C000928D9F5F9F73928F90E008958FEF9FEFC4
:1003D0000895FC01918D828D981731F0828DE80F80
:1003E000F11D858D90E008958FEF9FEF0895FC013A
:1003F000918D228D892F90E0805C9F4F821B910907
:100400008F73992708958EE892E00E94F70121E00A
:10041000892B09F420E0822F0895FC01848DDF01EF
:10042000A80FB11DA35ABF4F2C91848D90E0019667
:100430008F739927848FA689B7892C93A089B18956
:100440008C91837080648C93938D848D981306C0F7
:100450000288F389E02D80818F7D80830895EF925B
:10046000FF920F931F93CF93DF93EC0181E0888F6E
:100470009B8D8C8D981305C0E889F989808185FD55
:1004800026C0F62E0B8D10E00F5F1F4F0F73112744
:10049000E02E8C8DE8120CC00FB607FCFACFE8896D
:1004A000F989808185FFF5CFCE010E940D02F1CF41
:1004B0008B8DFE01E80FF11DE35AFF4FF0829FB7CD
:1004C000F8940B8FEA89FB89808180620AC09FB70C
:1004D000F894EE89FF896083E889F98980818370C7
:1004E000806480839FBF81E090E0DF91CF911F9176
:1004F0000F91FF90EF900895CF93DF93EC01888DDB
:100500008823C9F0EA89FB89808185FD05C0A88917
:10051000B9898C9186FD0FC00FB607FCF5CF80819D
:1005200085FFF2CFA889B9898C9185FFEDCFCE01E7
:100530000E940D02E7CFDF91CF91089580E090E017
:10054000892B21F00E940302811125C080E090E0F8
:10055000892B41F080E090E0892B21F00E9400007F
:1005600081111CC080E090E0892B41F080E090E098
:10057000892B21F00E940000811113C080E090E0DF
:10058000892BA1F080E090E0892B81F00E9400008F
:1005900081110AC008950E940000D8CF0E94000077
:1005A000E1CF0E940000EACF0C9400000895BC0146
:1005B0006E5F7F4FDC01ED91FC910190F081E02DA9
:1005C00040E0199591E0811190E0892F08950C94F5
:1005D0000B08AF92BF92CF92DF92EF92FF920F93F0
:1005E0001F93CF93DF93EC018C8D882309F447C0D0
:1005F0002FB7F89480919E0390919F03A091A00340
:10060000B091A1032FBF4F8D58A169A17AA1841B7E
:10061000950BA60BB70B893E9340A105B10578F168
:10062000888D998DFC013197EF30B7E2FB07C0F45C
:100630008E01005F1F4F20E030E04AE0E42EF12CF5
:10064000B7010E94EF11D8018D939D938D01CB01CD
:100650002F5F3F4F0097A1F73B8F2A8FF98FE88FCD
:100660002FB7F89480919E0390919F03A091A003CF
:10067000B091A1032FBF8F8F98A3A9A3BAA3CA8C4F
:10068000DB8C8601000F111F0C0F1D1F8EEF9FEFDB
:100690005C01AC1ABD0A1C141D040CF01BC1E12C3A
:1006A000F12CEE85FF85EE0DFF1D60E080810E943C
:1006B000E60BB2E0EB0EF11C20E1E216F10489F743
:1006C0007501E00EF11EEC85FD85EE0DFF1D60E06D
:1006D00080810E94E60B81E0C81AD108D8011E96DD
:1006E000ED91FC911F97EA30F10508F0E1C0AE856D
:1006F000BF8561E08827EE58FF4F8F4F0C94221280
:100700008C910E94E60BEE85FF8561E082859CC09E
:1007100012968C910E94E60BEE85FF8561E0848144
:10072000C5C08C910E94E60BEE85FF8561E0828159
:100730000E94E60BEE85FF8561E086810E94E60B54
:10074000EE85FF8561E0808513C08C910E94E60BE9
:10075000EE85FF8561E082810E94E60BEE85FF85D4
:1007600061E084810E94E60BEE85FF8561E0868171
:100770000E94E60BEE85FF8561E0848597C01296A6
:100780008C910E94E60BEE85FF8561E084810E94DA
:10079000E60BEE85FF8561E08285EACF8C910E94B1
:1007A000E60BEE85FF8561E082850E94E60BEE8513
:1007B000FF8561E084850E94E60BEE85FF8561E0A0
:1007C00084810E94E60BEE85FF8561E086816EC024
:1007D0008C910E94E60BEE85FF8561E082850E9488
:1007E000E60BEE85FF8561E084850E94E60BEE85D1
:1007F000FF8561E084810E94E60BEE85FF8561E064
:1008000086810E94E60BEE85FF8561E080854EC003
:1008100012968C910E94E60BEE85FF8561E0848143
:100820000E94E60BEE85FF8561E080813FC08C91E0
:100830000E94E60BEE85FF8561E082850E94E60B53
:10084000EE85FF8561E084850E94E60BEE85FF85DD
:1008500061E084810E94E60BEE85FF8561E0868180
:100860000E94E60BEE85FF8561E0808519C08C91C2
:100870000E94E60BEE85FF8561E082850E94E60B13
:10088000EE85FF8561E084850E94E60BEE85FF859D
:1008900061E084810E94E60BEE85FF8561E0868140
:1008A0000E94E60BEE85FF8561E082810E94E60BE7
:1008B00061E070E080E090E00E94630D8C859D8592
:1008C000FC01EE0DFF1D61E080810E94E60B0250ED
:1008D0001109E1CEDF91CF911F910F91FF90EF9021
:1008E000DF90CF90BF90AF9008950E9481130C9439
:1008F000F8120C94F8120C94F8120C94F8121F923F
:100900000F920FB60F9211240BB60F922F933F93B5
:100910004F935F936F937F938F939F93AF93BF9307
:10092000EF93FF938EE892E00E940D02FF91EF910A
:10093000BF91AF919F918F917F916F915F914F91F7
:100940003F912F910F900BBE0F900FBE0F901F90F5
:1009500018951F920F920FB60F9211240BB60F929B
:100960002F938F939F93EF93FF93E0919E02F091CB
:100970009F028081E091A402F091A50282FD12C045
:1009800090818091A7028F5F8F732091A8028217B8
:1009900051F0E091A702F0E0E257FD4F958F809370
:1009A000A70201C08081FF91EF919F918F912F91BC
:1009B0000F900BBE0F900FBE0F901F9018950895CB
:1009C0008EBD00000DB407FEFDCF8EB508958CBD21
:1009D0009DBD08951F93CF93DF93EC01162F83E500
:1009E00090E00E94E70460E08E850E94E60B812F74
:1009F00080680E94E00480E00E94E004182F61E01B
:100A00008E850E94E60B812FDF91CF911F91089573
:100A10000F931F93CF93DF93EC01062F142F83E5E1
:100A200090E00E94E70460E08E850E94E60B802F34
:100A30000E94E004812F0E94E00461E08E85DF9136
:100A4000CF911F910F910C94E60B8F929F92AF92D2
:100A5000CF92EF92FF920F931F93CF93DF9300D02B
:100A60001F921F92CDB7DEB74C0182E08D8340E02C
:100A700064E2C4010E94080540E066E2C4010E94ED
:100A8000080546E268E4C4010E94080586E28B83FB
:100A90008D81823040F16CE1C4010E94EA04482F4C
:100AA0004F776CE1C4010E94080587E08C83A12C7C
:100AB000C12CCE0104967C018E010B5F1F4F9E015D
:100AC0002F5F3F4F41E0BE016D5F7F4FC4010E9429
:100AD000150C81110BC08D81823039F481E09C812D
:100AE000911104C008C084E001C081E091E082302F
:100AF00019F090E001C091E0892F0F900F900F90B6
:100B00000F900F90DF91CF911F910F91FF90EF9079
:100B1000CF90AF909F908F900895CF92DF92EF92F9
:100B2000FF920F931F93CF93DF93EC016B01142F70
:100B3000790140E062E00E94080544E06AE0CE01ED
:100B40000E94080540E864E1CE010E940805A60164
:100B5000612FCE010E940F0B43E062E0CE010E94A4
:100B6000080508E813E16AE0CE010E94EA0482FF6A
:100B700013C040E062E0CE010E94080564E4CE01AB
:100B80000E94EA04F701808362E4CE010E94EA0435
:100B9000F701818380E004C00150110921F783E04F
:100BA000DF91CF911F910F91FF90EF90DF90CF9049
:100BB00008952F923F924F925F926F927F928F9201
:100BC0009F92AF92BF92CF92DF92EF92FF920F93DC
:100BD0001F93CF93DF93CDB7DEB72C970FB6F89462
:100BE000DEBF0FBECDBF413508F00BC1342E3B0137
:100BF0004C016CE10E94EA04482F4F776CE1C4017C
:100C00000E9408052224239432E0231691F083E009
:100C10002816E1F091E02912F6C083E98983332098
:100C2000D1F081E0F3019081953008F480E0B12C9F
:100C300017C0F5E9F983332081F081E0F301908159
:100C4000983008F480E043E0B42E0AC087E9898335
:100C500036E0B32E04C0B12C02C023E0B22E80E0F7
:100C6000D32CF8E0BF9ED0181124D7FCD12C8823B8
:100C700021F098E89B8333E001C032E021E09D2D14
:100C8000977009F420E09D2D959595959595290FE0
:100C900031F4882309F492C038E0D30E8FC081115B
:100CA00002C094E001C093E0291708F4922FEB2DC5
:100CB000F0E03196E60DF71D232F4191A1E0B0E061
:100CC000AC0FBD1FA20FB11D4C932F5F422F431BD2
:100CD000491798F3DECF8111DEC09FE19D150CF41A
:100CE00094C080E2D82E90E79A839B818C818927DB
:100CF0009D8189279E8189278F839E01285F3F4F91
:100D000047E0BE016F5F7F4FC4010E948D058111D6
:100D1000A3C01A86E3E0EB87CE0107962C0199E089
:100D20009C87CA844C2D4295407F4C0D6AE1C401DA
:100D30000E940805A12CCE010A967C018E01055F58
:100D40001F4F92014C85BE016F5F7F4FC4010E940F
:100D5000150C182F823009F0BECF6CE1C4010E943F
:100D6000EA0485FD98C08F7109F480E2282F30E0F5
:100D70004D2DDD0C550B421753070CF044C0D82EF7
:100D800085958595859591E0980F422F477081E074
:100D900009F480E0890FE1E0F0E0EC0FFD1FE80FBF
:100DA000F11D215031092770332781E090E001C007
:100DB000880F2A95EAF79081892B80838FE18D1522
:100DC0000CF491CF9D2D97709A878D2D85958595E3
:100DD00085958E5F292FE0E18E9F200D11242A83B7
:100DE00021E0911101C020E0280F2C874424439476
:100DF000512C4C0E5D1E480E511CF9E0F81BFB8770
:100E000090CF16E048C015E046C08B81883809F4C1
:100E10003FC082E094E0EB2DF0E03196E60DF71D47
:100E2000980FA1E0B0E0AC0FBD1FA80FB11D2C9131
:100E300021938F5F8913F5CF8B85833029F58A85C0
:100E4000811122C09E012D5F3F4F41E0B201C401DC
:100E50000E948D05882311F0182F1DC09B81F2017F
:100E60008181981313C09C81828198130FC0808167
:100E700082FF02C02394C8CEF3018387822D880F9E
:100E8000820D8F5F808307C011E005C017E003C0AB
:100E900083E093E0C0CF812F2C960FB6F894DEBF8D
:100EA0000FBECDBFDF91CF911F910F91FF90EF90BB
:100EB000DF90CF90BF90AF909F908F907F906F907A
:100EC0005F904F903F902F9008956F927F928F92F6
:100ED0009F92AF92CF92EF92FF920F931F93CF9377
:100EE000DF9300D01F92CDB7DEB74C013C014AE042
:100EF000640E711CC3010E942505882309F461C09A
:100F0000C3010E94D702882309F45BC080E589836E
:100F10001A829E012D5F3F4F42E0BE016F5F7F4FFF
:100F2000C3010E948D0581110FC0A12CC12CE12CA1
:100F3000F12C00E010E020E030E044E0BE016F5F03
:100F40007F4FC3010E94150CF4013D96D4011C96FD
:100F50008C9190E08150904E23E0880F991F2A9544
:100F6000E1F700E010E09801883FBFEF9B0791F0A8
:100F7000419150E060E070E0082E04C0440F551F1E
:100F8000661F771F0A94D2F7042B152B262B372BBD
:100F90000897EACF093D1A4D29443D4C91F4D401FC
:100FA0005A968D919C915B97DC01ED91FC9101909B
:100FB000F081E02D199581E090E090938602809376
:100FC00085020F900F900F900F90DF91CF911F919E
:100FD0000F91FF90EF90CF90AF909F908F907F9068
:100FE0006F9008952DE332E0FC0121933193CF01FE
:100FF000EF2B11F00C94F8120895CF93DF93EC01CE
:101000000E94F207CE01DF91CF910C94F81208955F
:101010000895089508958F929F92AF92BF92CF92B4
:10102000DF92EF92FF921F93CF93DF93FC018485B1
:10103000843008F01486848591E0980F9487DF014E
:10104000A80FB11DA80FB11D1D96CD91DC911E9763
:101050008285938520910002281721F02F3F09F007
:10106000D2C204C0E8EBF2E01491EAC0809300021F
:10107000E8EBF2E014911F3F09F4C5C2123009F405
:1010800072C048F5112309F451C0113009F0D8C0DD
:10109000109280001092810020918100286020939E
:1010A0008100209181002160209381009C013327E1
:1010B000F901EE58FD4FE491F0E0EE0FFF1FE85A02
:1010C000FD4F45915491F901EE5EFD4FE491E0939F
:1010D000880311E059C1143009F48FC008F46AC0C4
:1010E000153009F0ADC0109220011092210120911D
:1010F000210128602093210120912101216020936A
:1011000021019C013327F901EE58FD4FE491F0E0F5
:10111000EE0FFF1FE85AFD4F45915491F901EE5E25
:10112000FD4FE491E093850315E02EC114BC15BC7E
:1011300024B5226024BD25B5216025BD9C0133273F
:10114000F901EE58FD4FE491F0E0EE0FFF1FE85A71
:10115000FD4F45915491F901EE5EFD4FE491E0930E
:10116000890310E04CC21092B0001092B10020919F
:10117000B00022602093B0002091B1002160209344
:10118000B1009C013327F901EE58FD4FE491F0E0E6
:10119000EE0FFF1FE85AFD4F45915491509389027D
:1011A00040938802F901EE5EFD4FE491E0938702DF
:1011B00012E025C2109290001092910020919100AF
:1011C000286020939100209191002160209391004C
:1011D0009C013327F901EE58FD4FE491F0E0EE0F4A
:1011E000FF1FE85AFD4F45915491F901EE5EFD4F06
:1011F000E491E093870313E0C7C01092A00010921F
:10120000A1002091A10028602093A1002091A100BD
:1012100021602093A1009C013327F901EE58FD4F76
:10122000E491F0E0EE0FFF1FE85AFD4F4591549115
:10123000F901EE5EFD4FE491E093860314E0A4C053
:1012400017FDE1C161E00E94270D812F8D7F09F01C
:101250009EC06E01E12CF12C60E072E18AE790E023
:10126000A70196010E94031249015A01BA01A9017E
:1012700041505109610971094F3F510561057105DF
:1012800009F008F445C060E472E48FE090E0A70143
:1012900096010E940312BA01A90141505109610946
:1012A00071091230E9F44F3F51056105710509F0EC
:1012B00008F445C160E970ED83E090E0A701960174
:1012C0000E940312BA01A901415051096109710933
:1012D0004F3F51056105710509F020F583E04DC0D0
:1012E0004F3F510561057105A9F0A0F068E478EE63
:1012F00081E090E0A70196010E940312BA01A901C2
:101300004150510961097109112309F449C140C1D2
:1013100081E001C082E0111130C095B5987F892B22
:1013200085BD92C068E478EE81E090E0A701960167
:101330000E940312BA01A9014150510961097109C2
:101340004F3F51056105710509F008F4F6C064E2EC
:1013500074EF80E090E0A70196010E940312BA01A9
:10136000A90141505109610971094F3F51056105BA
:10137000710511F008F0E5C085E09091B100987F0B
:10138000892B8093B1004FC061E00E94270D6E0150
:10139000E12CF12C60E072E18AE790E0A701960170
:1013A0000E940312BA01A901415051096109710952
:1013B0004115510581E06807710580F068E478EE19
:1013C00081E090E0A70196010E940312BA01A901F1
:1013D000415051096109710983E001C081E0113078
:1013E00039F490918100987F892B809381003EC0D1
:1013F000133039F490919100987F892B809391005C
:101400005DC0143039F49091A100987F892B8093AE
:10141000A10069C0153039F490912101987F892B82
:101420008093210175C01230B1F134F4112361F0C1
:10143000113009F0E8C01AC0143009F454C0F4F1B6
:10144000153009F465C0DFC047BD8FEF9FEFDC01A9
:1014500080939A0390939B03A0939C03B0939D0366
:1014600080916E00826080936E00CDC050938900A1
:10147000409388008FEF9FEFDC0180939603909359
:101480009703A0939803B093990380916F008260B3
:1014900080936F00B8C04093B3008FEF9FEFDC01E3
:1014A00080938A0290938B02A0938C02B0938D025A
:1014B00080917000826080937000A5C05093990065
:1014C000409398008FEF9FEFDC01809392039093FD
:1014D0009303A0939403B09395038091710082606D
:1014E0008093710090C05093A9004093A8008FEFA3
:1014F0009FEFDC0180938E0390938F03A093900362
:10150000B0939103809172008260809372007BC0DF
:1015100050932901409328018FEF9FEFDC018093C6
:101520008A0390938B03A0938C03B0938D038091D7
:10153000730082608093730066C084E01ECF82E0F7
:101540001CCF62E17AE780E090E0A70196010E945B
:101550000312BA01A90141505109610971094F3FB4
:1015600051056105710591F088F0D501C4012AE0AB
:10157000B595A795979587952A95D1F7AC01BD01AB
:10158000415051096109710987E0F7CE86E0F5CE37
:101590004F3F51056105710509F098F684E0BBCE17
:1015A0004F3F51056105710541F138F162E17AE77C
:1015B00080E090E0A70196010E940312BA01A90100
:1015C00041505109610971094F3F5105610571058C
:1015D00091F088F0D501C4013AE0B595A7959795AB
:1015E00087953A95D1F7AC01BD0141505109610988
:1015F000710985E092CE84E090CE83E08ECE61E0EA
:101600000E94270D26CEDF91CF911F91FF90EF9082
:10161000DF90CF90BF90AF909F908F900895DF9212
:10162000EF92FF920F931F93CF93DF938C01F62ECF
:10163000D42EE52E83E590E00E94E70460E0F801F7
:1016400086850E94E60B82E10E94E004CD2DDE2D0E
:10165000CE018F0D911D7C01EC16FD0621F08991C4
:101660000E94E004F9CF61E0F80186850E94E60B54
:10167000DF91CF911F910F91FF90EF90DF900C942D
:10168000DF043FB7F8948091A3039091A403A09145
:10169000A503B091A60326B5A89B05C02F3F19F05E
:1016A0000196A11DB11D3FBFBA2FA92F982F8827E2
:1016B000820F911DA11DB11DBC01CD0142E0660F3D
:1016C000771F881F991F4A95D1F70895CF92DF920F
:1016D000EF92FF920F931F93CF93DF936C017A01E8
:1016E0008B01C0E0D0E0CE15DF0581F0D8016D910F
:1016F0008D01D601ED91FC910190F081E02DC601A4
:101700001995892B11F02196EECF7E01C701DF914B
:10171000CF911F910F91FF90EF90DF90CF900895A0
:1017200090E0FC013197E231F10508F04EC08827C6
:10173000E458FF4F8F4F0C942212809180008F77D6
:1017400003C0809180008F7D8093800008958091F8
:101750008000877FF9CF84B58F7702C084B58F7DF5
:1017600084BD08958091B0008F7703C08091B00050
:101770008F7D8093B0000895809190008F7707C08F
:10178000809190008F7D03C080919000877F80932F
:10179000900008958091A0008F7707C08091A000ED
:1017A0008F7D03C08091A000877F8093A000089563
:1017B000809120018F7707C0809120018F7D03C029
:1017C00080912001877F8093200108951F93CF93FC
:1017D000DF93282F30E0F901ED52FD4F8491F9019C
:1017E000EE5EFD4FD491F901EE58FD4FC491CC232C
:1017F000C1F0162F81110E94900BEC2FF0E0EE0F3C
:10180000FF1FE85AFD4FA591B4919FB7F8941111AD
:1018100004C08C91D095D82302C0EC91DE2BDC93D0
:101820009FBFDF91CF911F9108954F925F926F926A
:101830007F928F929F92AF92BF92CF92DF92EF9260
:10184000FF920F931F93CF93DF931F921F92CDB7F9
:10185000DEB74C012B01D42E3901E114F10419F04B
:10186000F701408101C040E0B42EF0E1CF9EB00C02
:10187000112440E062E0C4010E9408054FE768E0DF
:10188000C4010E94080540E864E1C4010E94080503
:10189000A2016D2DC4010E940F0B4B2D6AE1C40102
:1018A0000E9408054CE062E0C4010E9408056AE15C
:1018B000C4010E94EA04482F40686AE1C4010E9402
:1018C000080580ED482E87E0582E68E0C4010E948C
:1018D000EA04982F907341F480FD04C081E0481A17
:1018E000510899F783E0A0C06CE0C4010E94EA04AB
:1018F000D82E837109F095C06114710409F45AC09F
:101900000115110509F456C064E1C4010E94EA04FE
:10191000B82EF80180818B1508F47DC0B082BB2001
:10192000F1F183E590E00E94E70460E0F401868530
:101930000E94E60BBA9482E90E94E004CC20A9F050
:101940008FEF90E02C0101C0440CCA94EAF782E9C1
:101950000E94E004242D2095F3019081922384219C
:10196000892B8083CC24C39401C0C12C4C2C512CD6
:10197000460C571CCB1438F482E90E94E004F201B3
:101980008083C394F3CF80E00E94E004F20180835F
:1019900061E0F40186850E94E60B0E94DF0468E1A5
:1019A000C4010E94EA048770E114F10421F0F701F8
:1019B000808301C080E0D3FC30C06114710479F1F0
:1019C0000115110561F1AA2051F1F8014081413062
:1019D00021F4843041F58FEF27C0423020F181118E
:1019E00022C042509E012F5F3F4FB301C4010E94AD
:1019F0008D05811119C0F8018081680E711CF301F9
:101A000032979081898198130EC0319690818A8196
:101A1000981309C004C084E007C082E005C080E0DC
:101A200003C081E001C087E00F900F90DF91CF915C
:101A30001F910F91FF90EF90DF90CF90BF90AF90EC
:101A40009F908F907F906F905F904F900895CF936D
:101A5000DF9390E0FC01EE5EFD4F2491FC01EE5817
:101A6000FD4F8491882361F190E0880F991FFC015C
:101A7000E754FD4FC591D491FC01E85AFD4FA59163
:101A8000B491611109C09FB7F89488812095822391
:101A90008883EC912E230BC0623061F49FB7F894D9
:101AA0008881322F309583238883EC912E2B2C93C1
:101AB0009FBF06C08FB7F894E8812E2B28838FBF75
:101AC000DF91CF9108958F929F92AF92BF92CF9264
:101AD000DF92EF92FF926B017C010E94410B4B0160
:101AE0005C01C114D104E104F104F1F00E94410B46
:101AF000DC01CB0188199909AA09BB09883E9340EA
:101B0000A105B10570F321E0C21AD108E108F1087E
:101B100088EE880E83E0981EA11CB11CC114D1046C
:101B2000E104F10419F7DDCFFF90EF90DF90CF9043
:101B3000BF90AF909F908F9008951F920F920FB615
:101B40000F9211242F933F938F939F93AF93BF9343
:101B500080919E0390919F03A091A003B091A10357
:101B60003091A20323E0230F2D3720F40196A11D0D
:101B7000B11D05C026E8230F0296A11DB11D2093BB
:101B8000A20380939E0390939F03A093A003B0931E
:101B9000A1038091A3039091A403A091A503B09108
:101BA000A6030196A11DB11D8093A3039093A403E6
:101BB000A093A503B093A603BF91AF919F918F917E
:101BC0003F912F910F900FBE0F901F9018951F926D
:101BD0000F920FB60F9211240BB60F922F933F93D3
:101BE0004F935F936F937F938F939F93AF93BF9325
:101BF000EF93FF9380918A0290918B02A0918C02C7
:101C0000B0918D02892B8A2B8B2B59F190918702F1
:101C1000E0918802F09189028081892780838091F8
:101C20008A0290918B02A0918C02B0918D021816BD
:101C300019061A061B060CF056C080918A02909174
:101C40008B02A0918C02B0918D020197A109B1097C
:101C500080938A0290938B02A0938C02B0938D02A2
:101C600042C080910002E8EBF2E0E4919FEF909394
:101C70000002E230C9F050F4EE2399F0E13081F532
:101C800090916F009D7F90936F002AC0E43019F10E
:101C9000E0F0E53029F5909173009D7F90937300FB
:101CA0001FC010926E001CC0909170009D7F909399
:101CB000700091E09093B0009091B100987F946093
:101CC0009093B1001092B3000BC0909171009D7F72
:101CD0009093710005C0909172009D7F9093720067
:101CE00060E00E94E60BFF91EF91BF91AF919F9151
:101CF0008F917F916F915F914F913F912F910F90B5
:101D00000BBE0F900FBE0F901F901895FC01128A0A
:101D10000895FC01148E0895789484B5826084BD82
:101D200084B5816084BD85B5826085BD85B58160DF
:101D300085BD80916E00816080936E00109281005D
:101D40008091810082608093810080918100816018
:101D500080938100809180008160809380008091D9
:101D6000B10084608093B1008091B0008160809365
:101D7000B0008091910082608093910080919100E9
:101D800081608093910080919000816080939000A9
:101D90008091A10082608093A1008091A100816068
:101DA0008093A1008091A00081608093A000809129
:101DB00021018260809321018091210181608093C3
:101DC00021018091200181608093200180917A001F
:101DD000846080937A0080917A00826080937A0098
:101DE00080917A00816080937A0080917A00806887
:101DF00080937A001092C100E0919E02F0919F02C0
:101E000082E08083E0919A02F0919B021082E0913F
:101E10009C02F0919D028FEC80831092A602E091CB
:101E2000A202F091A30286E08083E091A002F091EB
:101E3000A102808180618083E091A002F091A102E3
:101E4000808188608083E091A002F091A10280816E
:101E500080688083E091A002F091A10280818F7D53
:101E60008083CFB7F89480918402811127C0E7EA7C
:101E7000F2E08491E7E4F2E09491E82FF0E0EE0FD5
:101E8000FF1FE754FD4FA591B491EC91E92321F494
:101E900061E085E30E94E60B61E085E30E94270D87
:101EA0008CB580618CBD8CB580648CBD61E084E3B1
:101EB0000E94270D61E083E30E94270D8091840238
:101EC0008F5F80938402CFBF61E0809168030E949E
:101ED000270D61E0809168030E94E60B8091690301
:101EE0008F3F41F44FE062E08AE593E00E940805ED
:101EF000C3E025C060E00E94270D2091690330E017
:101F0000F901ED52FD4F8491F901EE5EFD4FD49140
:101F1000F901EE58FD4FC491CC23F9F081110E94D4
:101F2000900BEC2FF0E0EE0FFF1FE850FE4FA59155
:101F3000B491EC91ED2389F0D5CFC15039F162E332
:101F400070E080E090E00E94630D62E08AE593E03B
:101F50000E94EA0484FF1AC0F0CF61E08091690317
:101F60000E94270D60E0809169030E94E60B83E0E8
:101F700090E00197F1F761E0809169030E94E60B20
:101F800062E370E080E090E00E94630D40E064E274
:101F90008AE593E00E94080540E066E28AE593E066
:101FA0000E94080546E268E48AE593E00E9408057D
:101FB00040E864E58AE593E00E94080549EA66E5A1
:101FC0008AE593E00E94080543E068E58AE593E02E
:101FD0000E94080548EE6AE58AE593E00E9408053C
:101FE00040E46AE28AE593E00E9408054DE362E27C
:101FF0008AE593E00E94080568E28AE593E00E9482
:10200000EA04982F9370933039F0482F436068E2C8
:102010008AE593E00E94080560E085E20E94E60BF5
:1020200060E083E20E94E60BC8E0D0E060E085E279
:102030000E94E60B60E081E20E94E60B61E085E22F
:102040000E94E60B219791F761E083E20E94E60B84
:1020500081E0809347038AE090E09093440380936B
:10206000430390934903809348032FB7F8948091DA
:102070009E0390919F03A091A003B091A1032FBF55
:1020800080934A0390934B03A0934C03B0934D036A
:102090008091450390914603029690934603809366
:1020A000450380E090E0A0EAB0E480932D03909394
:1020B0002E03A0932F03B093300380918403E82F65
:1020C000F0E0EE0FFF1FED57FC4F2BE233E03183C2
:1020D000208340E050E06AE774E440935203509359
:1020E00053036093540370935503E1E0E80FF0E06D
:1020F000EE0FFF1FED57FC4F20E533E031832083C7
:102100008E5F80938403CCE6D3E0C12CD12C4AEFC0
:10211000E42E43E4F42E809185029091860202978A
:10212000C9F4C0926E03D0926F03E0927003F092F4
:10213000710380918403E82FF0E0EE0FFF1FED574D
:10214000FC4FD183C0838F5F809384038CE693E040
:102150000E940B080E949E02DECF81E893E00C945F
:10216000F207CF92DF92EF92FF920F931F93CF93DC
:10217000DF93CDB7DEB760970FB6F894DEBF0FBE22
:10218000CDBF109291021092900288EE93E0A0E0F1
:10219000B0E08093920290939302A0939402B09344
:1021A00095028BE292E090938F0280938E0285ECF1
:1021B00090E090939B0280939A0284EC90E090933D
:1021C0009D0280939C0280EC90E090939F0280930C
:1021D0009E0281EC90E09093A1028093A00282EC99
:1021E00090E09093A3028093A20286EC90E09093FB
:1021F000A5028093A4021092A7021092A802109246
:10220000A9021092AA028DE392E090938203809338
:102210008103109283031092840310922D03109275
:102220002E0310922F03109230031092310310925C
:102230003203109233031092340385E792E09093B7
:102240002C0380932B0381E892E0909336038093D4
:10225000350381E192E0909338038093370381E066
:1022600092E090933A038093390388E0EBE3F3E044
:10227000DF011D928A95E9F71092440310924303FF
:10228000109246031092450310924703109249039F
:102290001092480301E112E0780161E0F8018081C9
:1022A0000E94270D0E5F1F4F61E0D7018C910E94A5
:1022B000E60BB2E009311B0779F701E012E081E19A
:1022C000E82E82E0F82E680161E0F80180810E942A
:1022D000270D0E5F1F4F60E0D6018C910E94E60B28
:1022E000E016F10681F78FE492E090934F0380931C
:1022F0004E0361E081E20E94270D61E085E20E94C9
:10230000270D61E083E20E94270D10925203109284
:1023100053031092540310925503109256031092D7
:102320005703109258031092590387E592E0909357
:1023300051038093500385E492E090935B03809374
:102340005A0385E393E090936B0380936A038CE0D8
:10235000FE013396ACE5B3E001900D928A95E1F76A
:1023600081E3809368038FE18093690310926E0389
:1023700010926F0310927003109271031092720307
:1023800010927303109274031092750381E692E029
:1023900090936D0380936C0388E290E090937703B1
:1023A000809376031092780388E0EFE1F2E0A9E7EA
:1023B000B3E001900D928A95E1F761E088E26096C2
:1023C0000FB6F894DEBF0FBECDBFDF91CF911F9146
:1023D0000F91FF90EF90DF90CF900C94270D97FB1B
:1023E000072E16F4009407D077FD09D00E942A1218
:1023F00007FC05D03EF4909581959F4F0895709508
:1024000061957F4F0895052E97FB1EF400940E945E
:102410001A1257FD07D00E943E1207FC03D04EF45B
:102420000C941A1250954095309521953F4F4F4F7F
:102430005F4F089590958095709561957F4F8F4F70
:102440009F4F0895EE0FFF1F881F8BBF0790F691D7
:10245000E02D1994AA1BBB1B51E107C0AA1FBB1F8B
:10246000A617B70710F0A61BB70B881F991F5A9520
:10247000A9F780959095BC01CD010895A1E21A2E8F
:10248000AA1BBB1BFD010DC0AA1FBB1FEE1FFF1F18
:10249000A217B307E407F50720F0A21BB30BE40B68
:1024A000F50B661F771F881F991F1A9469F76095AF
:1024B0007095809590959B01AC01BD01CF01089569
:1024C0000F931F93CF93DF938230910510F482E036
:1024D00090E0E091A903F091AA0320E030E0A0E0B1
:1024E000B0E0309719F14081518102811381481782
:1024F0005907C8F08417950769F4109731F01296C0
:102500000C93129713961C9327C00093A903109362
:10251000AA0322C02115310519F04217530718F4F8
:102520009A01BD01EF01DF01F801DBCF2115310573
:10253000F9F0281B390B2430310580F48A819B8106
:102540006115710521F0FB019383828304C0909390
:10255000AA038093A903FE01329644C0FE01E20F54
:10256000F31F8193919322503109398328833AC014
:102570002091A7033091A803232B41F420911B0243
:1025800030911C023093A8032093A70320911902D5
:1025900030911A022115310541F42DB73EB7409113
:1025A0001D0250911E02241B350BE091A703F091F0
:1025B000A803E217F307A0F42E1B3F0B28173907D7
:1025C00078F0AC014E5F5F4F2417350748F04E0F8F
:1025D0005F1F5093A8034093A7038193919302C078
:1025E000E0E0F0E0CF01DF91CF911F910F910895CE
:1025F000CF93DF93009709F481C0FC0132971382D7
:102600001282A091A903B091AA03109781F42081AE
:102610003181820F931F2091A7033091A8032817BF
:10262000390751F5F093A803E093A70367C0ED01C4
:1026300020E030E0CE17DF0740F44A815B819E0145
:1026400041155105F1F0EA01F5CFD383C2834081F2
:102650005181840F951FC817D90759F48881998132
:10266000840F951F0296918380838A819B81938337
:1026700082832115310529F4F093AA03E093A9037D
:102680003DC0E901FB83EA8349915991C40FD51FED
:10269000EC17FD0761F480819181840F951F0296EC
:1026A000E90199838883828193819B838A83E0E017
:1026B000F0E012968D919C911397009719F0FD010F
:1026C000DC01F7CF8D919C9111979D012E5F3F4FBB
:1026D000820F931F2091A7033091A8032817390771
:1026E00069F4309729F41092AA031092A90302C04A
:1026F00013821282B093A803A093A703DF91CF9116
:10270000089581E090E0F8940C94861311E0CEE8EF
:10271000D1E000E006C0802FFE010E942212219627
:10272000011DCF38D10780E00807A9F7F894FFCF43
:10273000FF0200030004000500060007000800096E
:10274000000A000B000C000D000000AB038000B875
:1027500001E803B801BC02000000002F02660BC6AE
:10276000017C02F701D501E90100000000F207FD3C
:102770000700000000D9052505D70200000000076A
:102780000879040000000008087B046507000000C9
:102790000009087D04E70200000000000000007549
:1027A00004000000000A087704E902890EF6FF0021
:0427B00000860E0091
:00000001FF
