:100000000C9458010C9489010C9489010C94890179
:100010000C9489010C9489010C9489010C94890138
:100020000C9489010C9489010C9489010C94890128
:100030000C9489010C9489010C9489010C94890118
:100040000C9489010C9489010C9489010C94890108
:100050000C9489010C9489010C9489010C94A003DF
:100060000C9489010C9414040C94EA030C948901F7
:100070000C9489010C9489010C9489010C948901D8
:100080000C9489010C9489010C9489010C948901C8
:100090000C9489010C9489010C9489010C948901B8
:1000A0000C9489010C9489010C9489010C948901A8
:1000B0000C9489010C9489010C9489010C94890198
:1000C0000C9489010C9489010C9489010C94890188
:1000D0000C9489010C9489010C9489010C94890178
:1000E0000C948901D901DC01CB01CF01D3011302AA
:1000F000E001E401EA01EE01F201F801FC01000275
:10010000130206020A020E025E066A0676069406CC
:10011000BB06D006F70627073C076C070C940E02B7
:100120000C9431030C94E4020C946A060C94D301F1
:100130000C946C070C94E4010C94D9010C94DC0130
:100140000C9427070C94F2010C9413020C940602F1
:100150000C947B020C94AC020C9494060C943C0717
:100160000C944D020C94FC010C949E020C94000221
:100170000C94E0010C94D0060C94CB010C94F7067F
:100180000C94CF010C945E060C9476060C944A04F1
:100190000C94EE010C94F8010C94EA010C94BB064B
:1001A0000C948A020C940A0200000A0B02090C0D3E
:1001B0000E0807030401000000000000000000001A
:1001C000000000000000000000000000000000002F
:1001D00000000000121110000000000000000000EC
:1001E000000000000000000000000000000000000F
:1001F0002200250028002B002E00310034000201CF
:100200000000050108010B01000021002400270067
:100210002A002D0030003300010100000401070115
:100220000A0105050505070508080808020202027B
:100230000A0A080804040404010101010101010182
:100240000303030303030303040707070C0C0C0C4D
:100250000C0C0C0C02020202060606060606060636
:100260000B0B0B0B0B0B0B0B0102102020080810C3
:100270002040102040800201020108040201010216
:1002800004081020408080402010080402018004EF
:10029000020180402010080402010804020101024A
:1002A00004081020408001020408102040804A0405
:1002B00011241FBECFEFD1E2DEBFCDBF00E00CBFE7
:1002C00012E0A0E0B2E0E8E5F2E100E00BBF02C01E
:1002D00007900D92A034B107D9F722E0A0E4B2E074
:1002E00001C01D92AC3EB207E1F711E0C8E5D1E0D4
:1002F00000E006C021970109802FFE010E94E80757
:10030000C735D10780E00807A9F70E9477040C944D
:100310002A090C94000090E0FC01E859FD4F24915B
:10032000FC01EE5DFD4F8491882399F090E0880FE9
:10033000991FFC01E85FFD4FA591B491FC01E251CA
:10034000FE4F859194918FB7F894EC91E22BEC934A
:100350008FBF0895362F90E0FC01E855FE4F449181
:10036000FC01E859FD4F2491FC01EE5DFD4F949195
:10037000992309F46CC0442309F455C050E0FA01F4
:100380003197E231F10508F04EC08827EE58FF4F53
:100390008F4F0C94E807809180008F7707C0809181
:1003A00080008F7D03C080918000877F80938000D4
:1003B0003AC084B58F7702C084B58F7D84BD33C0C9
:1003C0008091B0008F7703C08091B0008F7D8093C3
:1003D000B00029C0809190008F7707C08091900075
:1003E0008F7D03C080919000877F809390001BC019
:1003F0008091A0008F7707C08091A0008F7D03C0FF
:100400008091A000877F8093A0000DC08091200183
:100410008F7707C0809120018F7D03C080912001DC
:10042000877F80932001E92FF0E0EE0FFF1FE2515C
:10043000FE4FA591B4919FB7F894311104C08C91EF
:100440002095282302C0EC912E2B2C939FBF08955A
:100450003FB7F8948091470290914802A0914902D9
:10046000B0914A0226B5A89B05C02F3F19F001960E
:10047000A11DB11D3FBFBA2FA92F982F8827820F2A
:10048000911DA11DB11DBC01CD0142E0660F771F7A
:10049000881F991F4A95D1F70895CF92DF92EF9266
:1004A000FF920F931F93CF93DF936C017A018B011F
:1004B000C0E0D0E0CE15DF0581F0D8016D918D014F
:1004C000D601ED91FC910190F081E02DC6011995C6
:1004D000892B11F02196EECF7E01C701DF91CF91DC
:1004E0001F910F91FF90EF90DF90CF9008950895A6
:1004F00080E090E00895FC01538D448D252F30E07D
:10050000842F90E0821B930B541710F0CF96089520
:1005100001970895FC01918D828D981761F0828D6D
:10052000DF01A80FB11D5D968C91928D9F5F9F7327
:10053000928F90E008958FEF9FEF0895FC01918DC9
:10054000828D981731F0828DE80FF11D858D90E036
:1005500008958FEF9FEF0895FC01918D228D892FD3
:1005600090E0805C9F4F821B91098F7399270895BB
:100570008BE492E00E94AC0221E0892B09F420E098
:10058000822F0895FC01848DDF01A80FB11DA35AAD
:10059000BF4F2C91848D90E001968F739927848FA3
:1005A000A689B7892C93A089B1898C9183708064C6
:1005B0008C93938D848D981306C00288F389E02D67
:1005C00080818F7D80830895EF92FF920F931F9318
:1005D000CF93DF93EC0181E0888F9B8D8C8D9813F6
:1005E00005C0E889F989808185FD26C0F62E0B8D2E
:1005F00010E00F5F1F4F0F731127E02E8C8DE81254
:100600000CC00FB607FCFACFE889F989808185FF15
:10061000F5CFCE010E94C202F1CF8B8DFE01E80F13
:10062000F11DE35AFF4FF0829FB7F8940B8FEA89D0
:10063000FB89808180620AC09FB7F894EE89FF89A8
:100640006083E889F98980818370806480839FBF9B
:1006500081E090E0DF91CF911F910F91FF90EF909B
:100660000895CF93DF93EC01888D8823C9F0EA8940
:10067000FB89808185FD05C0A889B9898C9186FD9B
:100680000FC00FB607FCF5CF808185FFF2CFA88998
:10069000B9898C9185FFEDCFCE010E94C202E7CFD0
:1006A000DF91CF91089580E090E0892B21F00E94A6
:1006B000B802811125C080E090E0892B41F080E0F4
:1006C00090E0892B21F00E94000081111CC080E085
:1006D00090E0892B41F080E090E0892B21F00E948E
:1006E0000000811113C080E090E0892BA1F080E030
:1006F00090E0892B81F00E94000081110AC00895CA
:100700000E940000D8CF0E940000E1CF0E940000AC
:10071000EACF0C9400000895009769F0FC01019065
:100720000020E9F73197AF01481B590BBC018BE45E
:1007300092E00C944D0280E090E008950E9425091B
:100740001F920F920FB60F9211242F933F938F9306
:100750009F93AF93BF938091430290914402A091E5
:100760004502B09146023091420223E0230F2D371B
:1007700020F40196A11DB11D05C026E8230F0296A5
:10078000A11DB11D20934202809343029093440225
:10079000A0934502B093460280914702909148028F
:1007A000A0914902B0914A020196A11DB11D80930A
:1007B000470290934802A0934902B0934A02BF9126
:1007C000AF919F918F913F912F910F900FBE0F90FE
:1007D0001F9018951F920F920FB60F9211240BB60F
:1007E0000F922F933F934F935F936F937F938F93CA
:1007F0009F93AF93BF93EF93FF938BE492E00E949C
:10080000C202FF91EF91BF91AF919F918F917F9124
:100810006F915F914F913F912F910F900BBE0F9071
:100820000FBE0F901F9018951F920F920FB60F9248
:1008300011240BB60F922F938F939F93EF93FF93F7
:10084000E0915B02F0915C028081E0916102F091A5
:10085000620282FD12C09081809164028F5F8F736B
:1008600020916502821751F0E0916402F0E0E55BAF
:10087000FD4F958F8093640201C08081FF91EF91BD
:100880009F918F912F910F900BBE0F900FBE0F90E5
:100890001F901895EBE4F2E01382128288EE93E049
:1008A000A0E0B0E084839583A683B78382E292E0E0
:1008B0009183808385EC90E09587848784EC90E039
:1008C0009787868780EC90E0918B808B81EC90E01D
:1008D000938B828B82EC90E0958B848B86EC90E0FE
:1008E000978B868B118E128E138E148E0895CF9354
:1008F000DF93CDB7DEB76A970FB6F894DEBF0FBEB1
:10090000CDBF789484B5826084BD84B5816084BD98
:1009100085B5826085BD85B5816085BD80916E009D
:10092000816080936E0010928100809181008260CE
:10093000809381008091810081608093810080910B
:1009400080008160809380008091B10084608093FA
:10095000B1008091B00081608093B00080919100DF
:1009600082608093910080919100816080939100DA
:10097000809190008160809390008091A1008260BE
:100980008093A1008091A10081608093A10080915B
:10099000A00081608093A0008091210182608093FB
:1009A00021018091210181608093210180912001AA
:1009B00081608093200180917A00846080937A0026
:1009C00080917A00826080937A0080917A008160C1
:1009D00080937A0080917A00806880937A001092E8
:1009E000C100E0915B02F0915C0282E08083E091C3
:1009F0005702F09158021082E0915902F0915A0288
:100A00008FEC808310926302E0915F02F0916002AC
:100A100086E08083E0915D02F0915E0280818061DA
:100A20008083E0915D02F0915E0280818860808326
:100A3000E0915D02F0915E02808180688083E091A8
:100A40005D02F0915E0280818F7D808388E0E6E028
:100A5000F2E0DE01519601900D928A95E1F780E176
:100A6000EEE0F2E09E012F5F3F4F7901D901019046
:100A70000D928A95E1F787E190E00E9404088C01CD
:100A80003E0131E1630E711CDC0111967C926E9285
:100A90001396FC92EE921297FC01349688E0DF01E7
:100AA0001D928A95E9F7F801158614861786168631
:100AB000108A128A118A63015E01F9E1AF0EB11C3E
:100AC0004601D6018C910E948B01B2E0CB0ED11C65
:100AD00061E0F40180810E94AA01CA14DB0481F75D
:100AE0006701D7018C910E948B01B2E0EB0EF11CE3
:100AF00060E0F60180810E94AA01E614F70481F704
:100B0000109341020093400281E0D80150968C93EB
:100B100050978AE090E01D969C938E931C97529676
:100B20009C938E9351972FB7F894809143029091A4
:100B30004402A0914502B09146022FBFF801838B79
:100B4000948BA58BB68B868597850296978786872B
:100B500080E392E00E948C038DE392E00E948C037C
:100B600086E392E00E948C038DE392E00E948C0366
:100B70000091400210914102D80150968C91882337
:100B800009F44FC02FB7F89480914302909144022A
:100B9000A0914502B09146022FBFF80143895489C4
:100BA00065897689841B950BA60BB70B893E93400C
:100BB000A105B105B0F1F80124853585C90101977A
:100BC0008F309742F0F4780144E0E40EF11CC90143
:100BD000E0E0F0E06AE070E00E94D407D7018D9376
:100BE0009D937D01CB0131960097A1F7D8011F9607
:100BF000FC93EE931E97215031091D963C932E9342
:100C00001C972FB7F8948091430290914402A091D1
:100C10004502B09146022FBFF801838B948BA58BC0
:100C2000B68BD8011E96CD90DC901F977601EE0C06
:100C3000FF1CE00EF11EEEEFFFEFE01BF10BFA8F51
:100C4000E98F1C141D040CF0ACC1A12CB12CD801EF
:100C50001296ED91FC911397EA0DFB1D60E08081E7
:100C60000E94AA01B2E0AB0EB11CE0E1AE16B104E5
:100C700071F7298C3A8C2E0C3F1CD801ED91FC9118
:100C8000E20DF31D60E080810E94AA01B1E0CB1A61
:100C9000D108D7011296ED91FC911397EA30F10536
:100CA00008F04BC1D80112962D913C91139761E049
:100CB0008827EC57FF4F8F4F0C94E807F90180818C
:100CC0000E94AA01D8011296ED91FC91139761E060
:100CD0008285E6C0F90182810E94AA01D80112969C
:100CE000ED91FC91139761E0848125C1F901808128
:100CF0000E94AA01D8011296ED91FC91139761E030
:100D000082810E94AA01D8011296ED91FC9113975D
:100D100061E086810E94AA01D8011296ED91FC91B2
:100D2000139761E080851DC0F90180810E94AA01AE
:100D3000D8011296ED91FC91139761E082810E9497
:100D4000AA01D8011296ED91FC91139761E084817C
:100D50000E94AA01D8011296ED91FC91139761E0CF
:100D600086810E94AA01D8011296ED91FC911397F9
:100D700061E08485E0C0F90182810E94AA01D80166
:100D80001296ED91FC91139761E084810E94AA0173
:100D9000D8011296ED91FC91139761E08285E1CF25
:100DA000F90180810E94AA01D8011296ED91FC916F
:100DB000139761E082850E94AA01D8011296ED91F5
:100DC000FC91139761E084850E94AA01D8011296D4
:100DD000ED91FC91139761E084810E94AA01D801F2
:100DE0001296ED91FC91139761E08681A4C0F90100
:100DF00080810E94AA01D8011296ED91FC9113976F
:100E000061E082850E94AA01D8011296ED91FC91C1
:100E1000139761E084850E94AA01D8011296ED9192
:100E2000FC91139761E084810E94AA01D801129677
:100E3000ED91FC91139761E086810E94AA01D8018F
:100E40001296ED91FC91139761E0808574C0F901D1
:100E500082810E94AA01D8011296ED91FC9113970C
:100E600061E084810E94AA01D8011296ED91FC9163
:100E7000139761E080815FC0F90180810E94AA011F
:100E8000D8011296ED91FC91139761E082850E9442
:100E9000AA01D8011296ED91FC91139761E0848527
:100EA0000E94AA01D8011296ED91FC91139761E07E
:100EB00084810E94AA01D8011296ED91FC911397AA
:100EC00061E086810E94AA01D8011296ED91FC9101
:100ED000139761E0808526C0F90180810E94AA01F4
:100EE000D8011296ED91FC91139761E082850E94E2
:100EF000AA01D8011296ED91FC91139761E08485C7
:100F00000E94AA01D8011296ED91FC91139761E01D
:100F100084810E94AA01D8011296ED91FC91139749
:100F200061E086810E94AA01D8011296ED91FC91A0
:100F3000139761E082810E94AA010E9428022B017E
:100F40003C0182E0882E912CA12CB12C0E94280219
:100F5000DC01CB0184199509A609B709883E9340A5
:100F6000A105B10598F3B1E08B1A9108A108B10869
:100F7000E8EE4E0EE3E05E1E611C711C81149104CC
:100F8000A104B10419F7D8018D919C91FC01E20DE7
:100F9000F31D61E080810E94AA01B2E0EB1AF10822
:100FA00050CE0E945303DCCD97FB072E16F400941D
:100FB00007D077FD09D00E94F00707FC05D03EF46A
:100FC000909581959F4F0895709561957F4F0895F5
:100FD000EE0FFF1F881F8BBF0790F691E02D19942D
:100FE000AA1BBB1B51E107C0AA1FBB1FA617B7074F
:100FF00010F0A61BB70B881F991F5A95A9F780956B
:101000009095BC01CD0108950F931F93CF93DF936B
:101010008230910510F482E090E0E091EA02F091D4
:10102000EB0220E030E0A0E0B0E0309719F1408121
:1010300051810281138148175907C8F08417950719
:1010400069F4109731F012960C93129713961C9333
:1010500027C00093EA021093EB0222C0211531054C
:1010600019F04217530718F49A01BD01EF01DF018F
:10107000F801DBCF21153105F9F0281B390B24309D
:10108000310580F48A819B816115710521F0FB0196
:101090009383828304C09093EB028093EA02FE0163
:1010A000329644C0FE01E20FF31F819391932250C8
:1010B0003109398328833AC02091E8023091E9024E
:1010C000232B41F420910202309103023093E90274
:1010D0002093E80220910002309101022115310590
:1010E00041F42DB73EB74091040250910502241BF4
:1010F000350BE091E802F091E902E217F307A0F462
:101100002E1B3F0B2817390778F0AC014E5F5F4F5D
:101110002417350748F04E0F5F1F5093E9024093A4
:10112000E8028193919302C0E0E0F0E0CF01DF910B
:10113000CF911F910F910895CF93DF93009709F4FA
:1011400081C0FC01329713821282A091EA02B09111
:10115000EB02109781F420813181820F931F20913F
:10116000E8023091E9022817390751F5F093E902B6
:10117000E093E80267C0ED0120E030E0CE17DF0722
:1011800040F44A815B819E0141155105F1F0EA016D
:10119000F5CFD383C28340815181840F951FC81737
:1011A000D90759F488819981840F951F02969183FC
:1011B00080838A819B81938382832115310529F461
:1011C000F093EB02E093EA023DC0E901FB83EA837E
:1011D00049915991C40FD51FEC17FD0761F4808127
:1011E0009181840F951F0296E901998388838281FA
:1011F00093819B838A83E0E0F0E012968D919C912D
:101200001397009719F0FD01DC01F7CF8D919C91A8
:1012100011979D012E5F3F4F820F931F2091E8028F
:101220003091E9022817390769F4309729F41092B0
:10123000EB021092EA0202C013821282B093E9021A
:10124000A093E802DF91CF91089581E090E0F894B7
:081250000C942A09F894FFCF69
:101258000000EC0280000A000B000C000D000200E8
:10126800030004000500060007000800090000004C
:101278000000E4024D027B023103AC028A029E02A6
:1012880048616C6C6F20446F6F666965000D0A00D9
:00000001FF
