:100000000C94C6010C94F0160C94C5160C949A1618
:100010000C946F160C9444160C9419160C94EE154F
:100020000C94C3150C94F7010C94F7010C94F70190
:100030000C94F7010C945F170C94F7010C94F701E2
:100040000C94F7010C94F7010C94F7010C94F70150
:100050000C94F7010C94F7010C94F7010C947915AA
:100060000C94F7010C941D0C0C94F30B0C94F701F9
:100070000C94F7010C94F7010C94F7010C94F70120
:100080000C94F7010C94F7010C94F7010C94F70110
:100090000C94F7010C94F7010C94F7010C94E70D04
:1000A0000C94F7010C94F7010C94F7010C94F701F0
:1000B0000C94F7010C94F7010C94F7010C94F701E0
:1000C0000C94F7010C94F7010C94F7010C94F701D0
:1000D0000C94F7010C94F7010C94F7010C94F701C0
:1000E0000C94F70191029902A202B602D002DF023B
:1000F000F9021903280348037B137E136D13711350
:100100007713B513821386138C13901394139A13D9
:100110009E13A213B513A813AC13B013084AD73B10
:100120003BCE016E84BCBFFDC12F3D6C74319ABDC6
:1001300056833DDA3D00C77F11BED9E4BB4C3E91EA
:100140006BAAAABE000000803F000C9427080C9404
:1001500086130C9471130C94A9030C940E020C9446
:10016000C60C0C9410020C94BF170C94840B0C94C6
:100170007E130C9419030C94470B0C9408020C94F6
:1001800028030C9436130C9468040C94B5130C9447
:100190009A130C9435130C943A0B0C94440B0C9456
:1001A00048030C94460B0C94580D0C94A2130C9419
:1001B00099020C946D130C94C70C0C94580B0C946E
:1001C000B6020C9490130C949E130C94B0130C94E0
:1001D0000A020C94A8130C9477130C94F9010C9454
:1001E000490B0C94480B0C942E0B0C94C2170C94D6
:1001F000071B0C94990C0C94A2020C945C0F0C94A9
:100200008C130C940B1B0C9491020C94BE0C0C944C
:100210009B0C0C94D0020C94530C0C94DF020C94A5
:10022000980C0C94AC130C940C020C947B130C944F
:100230009A0C0C9406020C94FC0C0C9423080C945D
:1002400082130C9410100C94AA0C0C94680D0C944E
:100250006C0B0C9494130C94450B0C94290D0C947A
:10026000F9020C94D10B0000200023002600290085
:100270002C002F00320000010000030106010901DB
:100280000200002100240027002A002D0030003346
:100290000001010000040107010A010000220025FD
:1002A0000028002B002E0031003400020100000560
:1002B0000108010B010505050507050808080802E6
:1002C0000202020A0A0808040404040101010101EF
:1002D0000101010303030303030303040707070CDE
:1002E0000C0C0C0C0C0C0C02020202060606060694
:1002F0000606060B0B0B0B0B0B0B0B010210202041
:100300000808102040102040800201020108040269
:1003100001010204081020408080402010080402DF
:100320000180040201804020100804020108040238
:10033000010102040810204080010204081020403E
:100340008000000A0B02090C0D0E080703040100CF
:10035000000000000000000000000000000000009D
:10036000000000000000000000000000001211105A
:10037000000000000000000000000000000000007D
:1003800000000000000000000B1B071B11241FBE13
:10039000CFEFD1E2DEBFCDBF00E00CBF25E0A4EC83
:1003A000B2E001C01D92AB33B207E1F712E0A0E06A
:1003B000B2E0EEE8F1E400E00BBF02C007900D925E
:1003C000A43CB107D9F711E0C5ECD1E000E006C0CC
:1003D00021970109802FFE010E94511FC43CD107C3
:1003E00080E00807A9F70E94C5170C94B5200C946B
:1003F00000008091E3029091E402892B31F482E0C5
:1004000090E09093E4028093E30208950C942720F7
:100410000C9427200C9427200C9427200C94272040
:10042000AF92BF92CF92DF92EF92FF920F931F9302
:10043000CF93DF932091E3023091E402DC015C96DC
:100440004C91442309F47AC12230310509F076C178
:10045000EC010E946D150F8D18A129A13AA1DC01B4
:10046000CB01801B910BA20BB30B893E9340A105DE
:10047000B10508F040C114C021503109398F288FCF
:10048000888D998D892B31F483E090E09093E4027C
:100490008093E3020E946D156F8F78A389A39AA3BE
:1004A000CA8CDB8C8601000F111F0C0F1D1F8EEFF5
:1004B0009FEF5C01AC1ABD0A1C141D040CF03EC178
:1004C000E12CF12CEE85FF85EE0DFF1D60E08081B3
:1004D0000E94B613F2E0EF0EF11C20E1E216F104E7
:1004E00089F77501E00EF11EEC85FD85EE0DFF1D0F
:1004F00060E080810E94B61381E0C81AD108D8015B
:100500001E96ED91FC911F97EA30F10508F0E1C0CD
:10051000AE85BF8561E08827EE58FF4F8F4F0C9462
:10052000511F8C910E94B613EE85FF8561E0828594
:100530009CC012968C910E94B613EE85FF8561E0F7
:100540008481C5C08C910E94B613EE85FF8561E061
:1005500082810E94B613EE85FF8561E086810E944C
:10056000B613EE85FF8561E0808513C08C910E94F3
:10057000B613EE85FF8561E082810E94B613EE8599
:10058000FF8561E084810E94B613EE85FF8561E0FE
:1005900086810E94B613EE85FF8561E0848597C051
:1005A00012968C910E94B613EE85FF8561E08481DE
:1005B0000E94B613EE85FF8561E08285EACF8C91BB
:1005C0000E94B613EE85FF8561E082850E94B61316
:1005D000EE85FF8561E084850E94B613EE85FF8578
:1005E00061E084810E94B613EE85FF8561E086811B
:1005F0006EC08C910E94B613EE85FF8561E0828506
:100600000E94B613EE85FF8561E084850E94B613D3
:10061000EE85FF8561E084810E94B613EE85FF853B
:1006200061E086810E94B613EE85FF8561E08085DA
:100630004EC012968C910E94B613EE85FF8561E044
:1006400084810E94B613EE85FF8561E080813FC002
:100650008C910E94B613EE85FF8561E082850E9431
:10066000B613EE85FF8561E084850E94B613EE85A2
:10067000FF8561E084810E94B613EE85FF8561E00D
:1006800086810E94B613EE85FF8561E0808519C0E2
:100690008C910E94B613EE85FF8561E082850E94F1
:1006A000B613EE85FF8561E084850E94B613EE8562
:1006B000FF8561E084810E94B613EE85FF8561E0CD
:1006C00086810E94B613EE85FF8561E082810E94DB
:1006D000B61361E070E080E090E00E9433158C85F5
:1006E0009D85FC01EE0DFF1D61E080810E94B61327
:1006F00002501109E1CE288D398D2031B7E23B0738
:1007000008F0BECE1B8E1A8EC9010AE010E00097D9
:1007100009F4B2CEEA8CFB8CF7013896EE0FFF1F7E
:10072000EC0FFD1FB8010E941E1F91838083CB0137
:10073000A7014F5F5F4F5B8F4A8FE9CFDF91CF916A
:100740001F910F91FF90EF90DF90CF90BF90AF90EF
:1007500008956F927F928F929F92AF92CF92EF9275
:10076000FF920F931F93CF93DF9300D01F92CDB7CB
:10077000DEB74C013C014AE0640E711CC3010E94CB
:100780005C0F882309F493C0C3010E94580D88238D
:1007900009F48DC080E589831A829E012D5F3F4F49
:1007A00042E0BE016F5F7F4FC3010E94C40F811101
:1007B0000FC0A12CC12CE12CF12C00E010E020E0B6
:1007C00030E044E0BE016F5F7F4FC3010E94E5133C
:1007D000F4013D96D4011C968C9190E08150904E8E
:1007E00023E0880F991F2A95E1F700E010E09801B7
:1007F000883FBFEF9B0791F0419150E060E070E0CF
:10080000082E04C0440F551F661F771F0A94D2F7A5
:10081000042B152B262B372B0897EACF093D1A4DB1
:1008200029443D4CD9F56091E3027091E402409176
:10083000E3025091E4022091E3023091E40291E05E
:100840006230710509F090E081E0452B09F080E00D
:10085000982B81E02330310509F080E0892BD40109
:100860005C969C915C97981770F45A968D919C9128
:100870005B97DC01ED91FC910190F081E02D1995E1
:1008800081E090E010C08091E3029091E402019732
:1008900071F41092E4021092E30209C081E0F401C5
:1008A000848F83E090E09093E4028093E3020F90C2
:1008B0000F900F900F90DF91CF911F910F91FF90AC
:1008C000EF90CF90AF909F908F907F906F90089512
:1008D0002F923F924F925F926F927F928F929F9250
:1008E000AF92BF92CF92DF92EF92FF920F931F933E
:1008F000CF93DF93CDB7DEB760970FB6F894DEBF26
:100900000FBECDBF2091E3023091E402232B09F00A
:1009100081C31C0121E02093940338E630939303B4
:100920001092920310929103DC011A968D919C9182
:100930001B97DC01ED91FC910190F081E02D6BE3C0
:10094000199560E0F101828593850E948C0D41E04C
:1009500066E088E60E949C121092E2028093E10217
:10096000D1011A968D919C911B97DC01ED91FC9120
:100970000284F385E02D1995182FF1018285938566
:10098000DC01ED91FC910284F385E02D199520E0C6
:1009900030E0312F822B932BF10195A384A3828524
:1009A0009385DC01ED91FC910284F385E02D19958E
:1009B000182FF10182859385DC01ED91FC91028471
:1009C000F385E02D199520E030E0312F822B932B19
:1009D000F10197A386A382859385DC01ED91FC91BB
:1009E0000284F385E02D1995182FF10182859385F6
:1009F000DC01ED91FC910284F385E02D199520E056
:100A000030E0312F822B932BF10191A780A7F1E0E9
:100A1000F093940328E6209393031092920310928C
:100A20009103D1011A968D919C911B97DC01ED9158
:100A3000FC910190F081E02D63E4199560E0F101F3
:100A4000828593850E948C0D41E066E088E60E94D5
:100A50009C121092E2028093E102D1011A968D91CC
:100A60009C911B97DC01ED91FC910284F385E02DB4
:100A700019958983F10182859385DC01ED91FC91C3
:100A80000284F385E02D199520E030E03981822B36
:100A9000932BF10193A782A782859385DC01ED91C9
:100AA000FC910284F385E02D19958983F1018285FB
:100AB0009385DC01ED91FC910284F385E02D19957D
:100AC00020E030E03981822B932BF10195A784A798
:100AD00082859385DC01ED91FC910284F385E02D04
:100AE0001995182FF10182859385DC01ED91FC9118
:100AF0000284F385E02D19951A831982E981FA8120
:100B0000E82BF92BFA87E987D1019F96FC93EE93A6
:100B10009E9794966D917C919597072E000C880B6B
:100B2000990B0E94781CF101208D318D428D538DDF
:100B30000E94951D20E030E040E858E30E94D71C59
:100B40004B015C01D101D0966D937D938D939C9365
:100B5000D39796966D917C919797072E000C880BF2
:100B6000990B0E94781CF101248D358D468D578D8F
:100B70000E94951D20E030E040E858E30E94D71C19
:100B80006B017C01D101D4966D937D938D939C93E1
:100B9000D79798960D911C91999790964D905D904E
:100BA0006D907C909397B801012E000C880B990BE7
:100BB0000E94781CA30192010E94951D20E030E064
:100BC00040E858E30E94D71CF10160AF71AF82AFDB
:100BD00093AF62A573A5072E000C880B990B0E949A
:100BE000781CD1011C962D913D914D915C911F97E0
:100BF0000E94951D2FE632E143E852E40E94741EE4
:100C0000F10164AF75AF86AF97AF9101205C3F4FA4
:100C10003A83298364A575A5072E000C880B990BD0
:100C20000E94781CD10150962D913D914D915C917F
:100C300053970E94951D2FE632E143E852E40E944B
:100C4000741EE981FA8160837183828393839101A9
:100C50002C5B3F4F3E832D83A985BA85BD01BB0F19
:100C6000880B990B0E94781CF101248935894689EB
:100C700057890E94951D2FE632E143E852E40E9415
:100C8000741EAD81BE816D937D938D939C9313975C
:100C900060E070E4601B710B072E000C880B990B51
:100CA0000E94781CA30192010E94951D20E030E073
:100CB00040E858E30E94D71C2B013C0177FA70945E
:100CC00077F87094F7FAF094F7F8F094A301920192
:100CD000C701B6010E94151E8101045A1F4F21EE63
:100CE0003EE245E652E40E94D71CF801608371831E
:100CF00082839383B7FAB094B7F8B094A3019201BA
:100D0000C501B4010E94151E9101205A3F4F3A8738
:100D1000298721EE3EE245E652E40E94D71CA985D0
:100D2000BA856D937D938D939C931397A501940140
:100D3000C701B6010E94151EF101EC59FF4FFC8757
:100D4000EB8721EE3EE245E652E40E94D71CAB85DC
:100D5000BC856D937D938D939C9313970E946D1525
:100D6000F101E85BFF4FFE87ED87C080D180E28014
:100D7000F3806C197D098E099F090E94761C2FE66D
:100D800032E143E85AE30E94D71C6B017C01F10178
:100D9000E45BFF4F6083718382839383D101DC9690
:100DA0002D913D914D915C91DF970E94D71C4B0195
:100DB0005C01F101E05BFF4FF88BEF879B01AC0119
:100DC00060817181828193810E94961DAF85B8896F
:100DD0006D937D938D939C931397E981FA81208184
:100DE000318142815381C701B6010E94D71C6983BA
:100DF0007A838B839C8391012C5A3F4F388B2F87AA
:100E00009B01AC01AF85B8896D917D918D919C91CD
:100E10000E94961DEF85F889608371838283938396
:100E2000AD81BE812D913D914D915C91C701B6017F
:100E30000E94D71C6D837E838F839887F101E85AC7
:100E4000FF4FF88BEF879B01AC016081718182813C
:100E500093810E94961DAF85B8896D937D938D9384
:100E60009C931397F101E859FF4F408051806280B5
:100E700073803496C080D180E280F3803496F88B02
:100E8000EF872081318142815381C501B4010E94E5
:100E9000961DA70196010E94D71C4B015C01D80149
:100EA0002D913D914D915C91C301B2010E94D71CDF
:100EB0009B01AC01C501B4010E94961DEF85F88924
:100EC000608371838283938391012C583F4F388BC9
:100ED0002F87D9012D913D914D915C9169817A8146
:100EE0008B819C810E94961DA70196010E94D71CB0
:100EF0004B015C01E985FA85208131814281538172
:100F0000C301B2010E94D71C9B01AC01C501B40111
:100F10000E94961DAF85B8896D937D938D939C93A8
:100F20001397F101E858FF4FFA83E983208131815B
:100F3000428153816D817E818F8198850E94961DAB
:100F4000A70196010E94D71C6B017C01AB85BC8573
:100F50002D913D914D915C91C301B2010E94D71C2E
:100F60009B01AC01C701B6010E94961DE981FA817F
:100F700060837183828393830E946D15AD85BE85E6
:100F80006D937D938D939C931397F10180A891A805
:100F9000A2A8B3A8C4A8D5A8E6A8F7A8F1E0F98349
:100FA0002DEC3CEC4CE45DE3C501B4010E940D1F47
:100FB00018160CF019822DEC3CEC4CE45DEBC501ED
:100FC000B4010E94711C881F8827881F2981282B43
:100FD0002D8331E039832DEC3CEC4CE45DE3C7011B
:100FE000B6010E940D1F18160CF0198289819D818F
:100FF000892B51F42DEC3CEC4CE45DEBC701B601C0
:101000000E94711C87FF06C082E090E09093E4028A
:101010008093E30260960FB6F894DEBF0FBECDBF9B
:10102000DF91CF911F910F91FF90EF90DF90CF90C4
:10103000BF90AF909F908F907F906F905F904F90F8
:101040003F902F900895FC0182850C941B178F927E
:101050009F92AF92BF92CF92DF92EF92FF921F9337
:10106000CF93DF93FC018485843008F01486848557
:1010700091E0980F9487DF01A80FB11DA80FB11D53
:101080001D96CD91DC911E97828593852091180243
:10109000281721F02F3F09F0D2C204C0E0E8F2E0A7
:1010A0001491EAC080931802E0E8F2E014911F3F27
:1010B00009F4C5C2123009F472C048F5112309F4CD
:1010C00051C0113009F0D8C01092800010928100F8
:1010D000209181002860209381002091810021606F
:1010E000209381009C013327F901EB54FD4FE491DB
:1010F000F0E0EE0FFF1FE556FD4F45915491F901C9
:10110000E550FD4FE491E093C70211E059C114305E
:1011100009F48FC008F46AC0153009F0ADC0109210
:1011200020011092210120912101286020932101AA
:10113000209121012160209321019C013327F90195
:10114000EB54FD4FE491F0E0EE0FFF1FE556FD4F2D
:1011500045915491F901E550FD4FE491E093C402AB
:1011600015E02EC114BC15BC24B5226024BD25B5E4
:10117000216025BD9C013327F901EB54FD4FE4911B
:10118000F0E0EE0FFF1FE556FD4F45915491F90138
:10119000E550FD4FE491E093C80210E04CC210927C
:1011A000B0001092B1002091B00022602093B000F6
:1011B0002091B10021602093B1009C013327F901F7
:1011C000EB54FD4FE491F0E0EE0FFF1FE556FD4FAD
:1011D000459154915093280540932705F901E55016
:1011E000FD4FE491E093290512E025C21092900092
:1011F00010929100209191002860209391002091FD
:1012000091002160209391009C013327F901EB5458
:10121000FD4FE491F0E0EE0FFF1FE556FD4F4591C5
:101220005491F901E550FD4FE491E093C60213E0BB
:10123000C7C01092A0001092A1002091A1002860C8
:101240002093A1002091A10021602093A1009C0186
:101250003327F901EB54FD4FE491F0E0EE0FFF1F4F
:10126000E556FD4F45915491F901E550FD4FE4914C
:10127000E093C50214E0A4C017FDE1C161E00E9443
:10128000F714812F8D7F09F09EC06E01E12CF12CA7
:1012900060E072E18AE790E0A70196010E94321FA8
:1012A00049015A01BA01A901415051096109710965
:1012B0004F3F51056105710509F008F445C060E430
:1012C00072E48FE090E0A70196010E94321FBA01FC
:1012D000A90141505109610971091230E9F44F3FE8
:1012E00051056105710509F008F445C160E970ED2B
:1012F00083E090E0A70196010E94321FBA01A90184
:1013000041505109610971094F3F5105610571054E
:1013100009F020F583E04DC04F3F5105610571058F
:10132000A9F0A0F068E478EE81E090E0A7019601D2
:101330000E94321FBA01A901415051096109710986
:10134000112309F449C140C181E001C082E01111BB
:1013500030C095B5987F892B85BD92C068E478EE42
:1013600081E090E0A70196010E94321FBA01A90115
:1013700041505109610971094F3F510561057105DE
:1013800009F008F4F6C064E274EF80E090E0A70191
:1013900096010E94321FBA01A90141505109610909
:1013A00071094F3F51056105710511F008F0E5C065
:1013B00085E09091B100987F892B8093B1004FC058
:1013C00061E00E94F7146E01E12CF12C60E072E103
:1013D0008AE790E0A70196010E94321FBA01A90195
:1013E00041505109610971094115510581E06807B2
:1013F000710580F068E478EE81E090E0A701960145
:101400000E94321FBA01A9014150510961097109B5
:1014100083E001C081E0113039F490918100987F20
:10142000892B809381003EC0133039F49091910054
:10143000987F892B809391005DC0143039F490918E
:10144000A100987F892B8093A10069C0153039F4E1
:1014500090912101987F892B8093210175C01230D2
:10146000B1F134F4112361F0113009F0E8C01AC071
:10147000143009F454C0F4F1153009F465C0DFC02C
:1014800047BD8FEF9FEFDC018093D9029093DA0282
:10149000A093DB02B093DC0280916E0082608093A7
:1014A0006E00CDC050938900409388008FEF9FEF6E
:1014B000DC018093D5029093D602A093D702B0931B
:1014C000D80280916F00826080936F00B8C0409313
:1014D000B3008FEF9FEFDC0180932A0590932B05DB
:1014E000A0932C05B0932D058091700082608093AD
:1014F0007000A5C050939900409398008FEF9FEF24
:10150000DC018093D1029093D202A093D302B093D6
:10151000D4028091710082608093710090C05093DA
:10152000A9004093A8008FEF9FEFDC018093CD02CC
:101530009093CE02A093CF02B093D002809172001C
:101540008260809372007BC05093290140932801F0
:101550008FEF9FEFDC018093C9029093CA02A093A2
:10156000CB02B093CC0280917300826080937300B1
:1015700066C084E01ECF82E01CCF62E17AE780E0A3
:1015800090E0A70196010E94321FBA01A9014150C3
:101590005109610971094F3F51056105710591F0CC
:1015A00088F0D501C4012AE0B595A7959795879550
:1015B0002A95D1F7AC01BD0141505109610971096A
:1015C00087E0F7CE86E0F5CE4F3F51056105710506
:1015D00009F098F684E0BBCE4F3F510561057105D7
:1015E00041F138F162E17AE780E090E0A7019601ED
:1015F0000E94321FBA01A9014150510961097109C4
:101600004F3F51056105710591F088F0D501C40186
:101610003AE0B595A795979587953A95D1F7AC019E
:10162000BD01415051096109710985E092CE84E004
:1016300090CE83E08ECE61E00E94F71426CEDF913B
:10164000CF911F91FF90EF90DF90CF90BF90AF9020
:101650009F908F9008958CBD9DBD08952FE532E039
:10166000FC013183208382819381009711F00C94D7
:1016700027200895CF93DF93EC010E942E0BCE011B
:10168000DF91CF910C94272008950895089508952F
:101690000895FC01538D448D252F30E0842F90E078
:1016A000821B930B541710F0CF960895019708955D
:1016B000FC01918D828D981761F0828DDF01A80F5A
:1016C000B11D5D968C91928D9F5F9F73928F90E07C
:1016D00008958FEF9FEF0895FC01918D828D9817EB
:1016E00031F0828DE80FF11D858D90E008958FEF28
:1016F0009FEF089585E993E00E94530C21E0892B28
:1017000009F420E0822F0895EF92FF920F931F9328
:10171000CF93DF93EC0181E0888F9B8D8C8D9813A4
:1017200005C0E889F989808185FD26C0F62E0B8DDC
:1017300010E00F5F1F4F0F731127E02E8C8DE81202
:101740000CC00FB607FCFACFE889F989808185FFC4
:10175000F5CFCE010E946A0DF1CF8B8DFE01E80F0F
:10176000F11DE35AFF4FF0829FB7F8940B8FEA897F
:10177000FB89808180620AC09FB7F894EE89FF8957
:101780006083E889F98980818370806480839FBF4A
:1017900081E090E0DF91CF911F910F91FF90EF904A
:1017A0000895CF93DF93EC01888D8823C9F0EA89EF
:1017B000FB89808185FD05C0A889B9898C9186FD4A
:1017C0000FC00FB607FCF5CF808185FFF2CFA88947
:1017D000B9898C9185FFEDCFCE010E946A0DE7CFCC
:1017E000DF91CF9108951F920F920FB60F9211249F
:1017F0000BB60F922F933F934F935F936F937F930B
:101800008F939F93AF93BF93EF93FF9385E993E0FB
:101810000E946A0DFF91EF91BF91AF919F918F91BF
:101820007F916F915F914F913F912F910F900BBEE0
:101830000F900FBE0F901F9018951F920F920FB62A
:101840000F9211240BB60F922F938F939F93EF93C8
:10185000FF93E091A503F091A6038081E091AB0393
:10186000F091AC0382FD12C090818091AE038F5F36
:101870008F732091AF03821751F0E091AE03F0E037
:10188000EB56FC4F958F8093AE0301C08081FF9192
:10189000EF919F918F912F910F900BBE0F900FBEE4
:1018A0000F901F901895FC01918D228D892F90E04B
:1018B000805C9F4F821B91098F739927089580E068
:1018C00090E0892B21F00E947A0B811125C080E0E5
:1018D00090E0892B41F080E090E0892B21F00E947C
:1018E000000081111CC080E090E0892B41F080E075
:1018F00090E0892B21F00E940000811113C080E04C
:1019000090E0892BA1F080E090E0892B81F00E948B
:10191000000081110AC008950E940000D8CF0E94E3
:101920000000E1CF0E940000EACF0C94000008956F
:10193000089508950895E091E2028091E102E81788
:1019400030F4F0E0E65BFC4F808190E008958FEF8B
:101950009FEF08959091E2028091E102981750F470
:10196000E92FF0E0E65BFC4F208130E09F5F909331
:10197000E20202C02FEF3FEFC90108958091E1021A
:1019800090E02091E202821B91090895089580E081
:1019900090E0089585ED8093BC008091BC0084FDAB
:1019A000FCCF10929003089540910703262F30E05A
:1019B000240F311D21323105DCF4209190032430B5
:1019C000C9F4FC0180E090E0861758F430910703D9
:1019D0002191DC01A951BD4FA30FB11D2C9301969C
:1019E000F3CF80910703680F6093070380E00895A9
:1019F00081E0089582E00895CF92DF92EF92FF9206
:101A00000F931F93CF93DF937C01CB018A01209129
:101A10009403222389F0EB016B01C40ED51ECC1573
:101A2000DD0569F06991D701ED91FC910190F0819C
:101A3000E02DC7011995F3CF642F0E94D40CC80183
:101A4000DF91CF911F910F91FF90EF90DF90CF909A
:101A50000895CF93DF931F92CDB7DEB769832091AE
:101A600094032223D1F020919103203240F021E011
:101A700030E0FC013383228380E090E015C0809148
:101A80009203E82FF0E0E65DFC4F998190838F5F31
:101A9000809392038093910305C061E0CE0101968B
:101AA0000E94D40C81E090E00F90DF91CF910895D7
:101AB000BC016E5F7F4FDC01ED91FC910190F081E4
:101AC000E02D40E0199591E0811190E0892F089573
:101AD0000E94B020FC01848DDF01A80FB11DA35A24
:101AE000BF4F2C91848D90E001968F739927848F3E
:101AF000A689B7892C93A089B1898C918370806461
:101B00008C93938D848D981306C00288F389E02D01
:101B100080818F7D8083089530919103313208F068
:101B20004AC0809190038111FCCF9091930322E0F1
:101B30002093900360938F032FEF20938E031092D6
:101B40008D0330938C03EAE2F3E0AAE6B3E020E0F1
:101B5000321721F041914D932F5FFACF10928B03F2
:101B600020918B03990F922B90938B0390918A0372
:101B7000913061F410928A0390918B039093BB0093
:101B80009091BC0093FDF8CF95EC01C095EE909339
:101B9000BC00909190039230E1F390918E039F3FAF
:101BA00079F080918E03803241F080918E038033F2
:101BB00031F084E005C081E003C082E001C083E031
:101BC00010929203109291031092940308951F9221
:101BD0000F920FB60F9211240BB60F922F933F93D3
:101BE0004F935F936F937F938F939F93AF93BF9325
:101BF000EF93FF938091B900887F803609F49CC0F1
:101C000068F5883209F45BC090F4803109F454C05F
:101C100038F4882309F4F6C0883009F44DC0F6C0C2
:101C2000883109F44CC0803209F45DC0EFC08034C3
:101C300009F468C048F4803309F455C0883309F0CA
:101C4000E5C080938E03D8C0803509F44FC0883535
:101C500009F45DC0883409F0D9C0D6C0883909F4C8
:101C6000C7C0A8F4883709F467C038F4883609F487
:101C700063C0803709F460C0C9C0883809F4B8C0AF
:101C8000803909F45FC0803809F0C0C05BC0803B78
:101C900009F486C038F4803A09F466C0883A09F439
:101CA0007FC0B4C0803C09F4A7C0883C09F4A4C03C
:101CB000883B09F48AC0AAC080918B0310C0909120
:101CC0008D0380918C03981770F5E0918D0381E06E
:101CD0008E0F80938D03F0E0E659FC4F8081809356
:101CE000BB0085EC86C080938E038EC0E0918D038F
:101CF00081E08E0F80938D038091BB00F0E0E65968
:101D0000FC4F808390918D0380918C036EC0E09195
:101D10008D0381E08E0F80938D038091BB00F0E0F6
:101D2000E659FC4F808380918F0381116DC081E063
:101D300080938A0384EA61C083E0809390031092C9
:101D40002903CFCF80912903803208F051C0E09160
:101D5000290381E08E0F809329038091BB00F0E07E
:101D6000E75FFC4F8083BDCF85EC8093BC00109271
:101D7000900380912903803230F4E0912903F0E050
:101D8000E75FFC4F10826091290370E0E091DD0273
:101D9000F091DE0289E093E019951092290336C094
:101DA00084E0809390031092080310920703E0915F
:101DB000DF02F091E002199580910703811105C0BF
:101DC00081E0809307031092E702E091080381E02D
:101DD0008E0F80930803F0E0E951FD4F80818093DE
:101DE000BB009091080380910703981708F479CFFE
:101DF00085E88093BC000AC085EC8093BC001092FB
:101E0000900304C010928E030E94CA0CFF91EF91C0
:101E1000BF91AF919F918F917F916F915F914F9102
:101E20003F912F910F900BBE0F900FBE0F901F9000
:101E3000189508958EBD00000DB407FEFDCF8EB538
:101E400008951F93CF93DF93EC01162F83E590E065
:101E50000E942B0B60E08E850E94B613812F806854
:101E60000E941A0F80E00E941A0F182F61E08E85E1
:101E70000E94B613812FDF91CF911F9108950F9388
:101E80001F93CF93DF93EC01062F142F83E590E08F
:101E90000E942B0B60E08E850E94B613802F0E945B
:101EA0001A0F812F0E941A0F61E08E85DF91CF916A
:101EB0001F910F910C94B6138F929F92AF92CF9275
:101EC000EF92FF920F931F93CF93DF9300D01F9257
:101ED0001F92CDB7DEB74C0182E08D8340E064E213
:101EE000C4010E943F0F40E066E2C4010E943F0F20
:101EF00046E268E4C4010E943F0F86E28B838D8135
:101F0000823040F16CE1C4010E94210F482F4F77CD
:101F10006CE1C4010E943F0F87E08C83A12CC12C8F
:101F2000CE0104967C018E010B5F1F4F9E012F5F37
:101F30003F4F41E0BE016D5F7F4FC4010E94E5133A
:101F400081110BC08D81823039F481E09C81911127
:101F500004C008C084E001C081E091E0823019F043
:101F600090E001C091E0892F0F900F900F900F909B
:101F70000F90DF91CF911F910F91FF90EF90CF9035
:101F8000AF909F908F900895CF92DF92EF92FF9243
:101F90000F931F93CF93DF93EC016B01142F790103
:101FA00040E062E00E943F0F44E06AE0CE010E9400
:101FB0003F0F40E864E1CE010E943F0FA601612F70
:101FC000CE010E94DE1243E062E0CE010E943F0F8C
:101FD00008E813E16AE0CE010E94210F82FF13C0DE
:101FE00040E062E0CE010E943F0F64E4CE010E9417
:101FF000210FF701808362E4CE010E94210FF701D7
:10200000818380E004C00150110921F783E0DF9152
:10201000CF911F910F91FF90EF90DF90CF90089597
:102020002F923F924F925F926F927F928F929F92E8
:10203000AF92BF92CF92DF92EF92FF920F931F93D6
:10204000CF93DF93CDB7DEB72C970FB6F894DEBFF2
:102050000FBECDBF413508F00BC1342E3B014C0102
:102060006CE10E94210F482F4F776CE1C4010E9460
:102070003F0F2224239432E0231691F083E02816A8
:10208000E1F091E02912F6C083E989833320D1F091
:1020900081E0F3019081953008F480E0B12C17C005
:1020A000F5E9F983332081F081E0F30190819830E4
:1020B00008F480E043E0B42E0AC087E9898336E063
:1020C000B32E04C0B12C02C023E0B22E80E0D32C8A
:1020D000F8E0BF9ED0181124D7FCD12C882321F022
:1020E00098E89B8333E001C032E021E09D2D97709A
:1020F00009F420E09D2D959595959595290F31F43E
:10210000882309F492C038E0D30E8FC0811102C039
:1021100094E001C093E0291708F4922FEB2DF0E032
:102120003196E60DF71D232F4191A1E0B0E0AC0FF1
:10213000BD1FA20FB11D4C932F5F422F431B4917A8
:1021400098F3DECF8111DEC09FE19D150CF494C0A1
:1021500080E2D82E90E79A839B818C8189279D818C
:1021600089279E8189278F839E01285F3F4F47E003
:10217000BE016F5F7F4FC4010E94C40F8111A3C0D5
:102180001A86E3E0EB87CE0107962C0199E09C8745
:10219000CA844C2D4295407F4C0D6AE1C4010E94D7
:1021A0003F0FA12CCE010A967C018E01055F1F4FC7
:1021B00092014C85BE016F5F7F4FC4010E94E51301
:1021C000182F823009F0BECF6CE1C4010E94210FAC
:1021D00085FD98C08F7109F480E2282F30E04D2DE5
:1021E000DD0C550B421753070CF044C0D82E8595D3
:1021F0008595859591E0980F422F477081E009F40D
:1022000080E0890FE1E0F0E0EC0FFD1FE80FF11D29
:10221000215031092770332781E090E001C0880FF9
:102220002A95EAF79081892B80838FE18D150CF434
:1022300091CF9D2D97709A878D2D85958595859544
:102240008E5F292FE0E18E9F200D11242A8321E04B
:10225000911101C020E0280F2C8744244394512C75
:102260004C0E5D1E480E511CF9E0F81BFB8790CF09
:1022700016E048C015E046C08B81883809F43FC09D
:1022800082E094E0EB2DF0E03196E60DF71D980F1B
:10229000A1E0B0E0AC0FBD1FA80FB11D2C912193A0
:1022A0008F5F8913F5CF8B85833029F58A8581115E
:1022B00022C09E012D5F3F4F41E0B201C4010E9448
:1022C000C40F882311F0182F1DC09B81F20181815A
:1022D000981313C09C81828198130FC0808182FF64
:1022E00002C02394C8CEF3018387822D880F820D0C
:1022F0008F5F808307C011E005C017E003C083E053
:1023000093E0C0CF812F2C960FB6F894DEBF0FBE9E
:10231000CDBFDF91CF911F910F91FF90EF90DF9094
:10232000CF90BF90AF909F908F907F906F905F9075
:102330004F903F902F900895EF92FF92CF93DF93AD
:10234000F894F0901A052F2D30E0E0911905F0E097
:102350002E173F078CF5E0911705F0911805DF0166
:10236000E12CFE1469F0CD91DD91C817D90731F445
:102370007894DF91CF91FF90EF900895E394F1CF9F
:10238000DC0112964D935D936D937C93159751E00C
:102390005F0D50931A05220F331FE20FF31F918335
:1023A00080837894ED91FC910480F581E02DDF919C
:1023B000CF91FF90EF901994789447E050E069EB4B
:1023C00072E085E993E00E94361342E050E061EC50
:1023D00072E085E993E0DF91CF91FF90EF900C944C
:1023E00036131F93CF93DF93182F60E085E20E948E
:1023F000B61360E083E20E94B613C8E0D0E060E06C
:1024000085E20E94B613612F607881E20E94B613C4
:10241000110F61E085E20E94B613219781F761E018
:1024200083E2DF91CF911F910C94B6131F93CF934A
:10243000DF93162F91E09093940398E69093930383
:102440001092920310929103C9E8D4E0AA85BB854B
:10245000ED91FC9111970190F081E02D682FCD0155
:1024600019958A859B85DC01ED91FC910190F081A5
:10247000E02D612F199561E08A859B85DF91CF91D1
:102480001F910C948C0DCF93DF93F89430911A0523
:102490004091170550911805FA0120E0321709F410
:1024A00047C0EF01C41BD50B619171916817790783
:1024B000E9F5DC01ED91FC910680F781E02D19959D
:1024C0008091170590911805C80FD91F198218829D
:1024D00080911A05815080931A0540E020911A05D9
:1024E00030E0842F90E02817390714F12091170568
:1024F00030911805880F991FF901E80FF91F6081C5
:102500007181672B89F40296D901A80FB91F2D910B
:102510003C91318320832091170530911805F901F2
:10252000E80FF91F118210824F5FD8CF2F5FB6CF0F
:102530007894DF91CF910895909190039111FCCF01
:1025400091E09093900340938F032FEF20938E039D
:1025500010928D03260F20938C0390938B03909100
:102560008B03880F892B80938B0380918A038130A2
:1025700061F410928A0380918B038093BB00809159
:10258000BC0083FDF8CF85EC01C085EE8093BC00D4
:10259000809190038130E1F380918D03861710F4D0
:1025A00060918D03AAE6B3E0EAE4F3E080E08617E9
:1025B00021F09D9191938F5FFACF0895DF92EF9272
:1025C000FF920F931F93CF93DF938C01F62ED42E9F
:1025D000E52E83E590E00E942B0B60E0F8018685F4
:1025E0000E94B61382E10E941A0FCD2DDE2DCE017E
:1025F0008F0D911D7C01EC16FD0621F089910E9442
:102600001A0FF9CF61E0F80186850E94B613DF91B9
:10261000CF911F910F91FF90EF90DF900C94190FC5
:102620003FB7F8948091330590913405A09135051A
:10263000B091360526B5A89B05C02F3F19F001962D
:10264000A11DB11D3FBFBA2FA92F982F8827820F38
:10265000911DA11DB11DBC01CD0142E0660F771F88
:10266000881F991F4A95D1F708950895CF92DF9258
:10267000EF92FF920F931F93CF93DF936C017A0138
:102680008B01C0E0D0E0CE15DF0581F0D8016D915F
:102690008D01D601ED91FC910190F081E02DC601F4
:1026A0001995892B11F02196EECF7E01C701DF919C
:1026B000CF911F910F91FF90EF90DF90CF900895F1
:1026C00090E0FC013197E231F10508F04EC0882717
:1026D000E458FF4F8F4F0C94511F809180008F77EB
:1026E00003C0809180008F7D809380000895809149
:1026F0008000877FF9CF84B58F7702C084B58F7D46
:1027000084BD08958091B0008F7703C08091B000A0
:102710008F7D8093B0000895809190008F7707C0DF
:10272000809190008F7D03C080919000877F80937F
:10273000900008958091A0008F7707C08091A0003D
:102740008F7D03C08091A000877F8093A0000895B3
:10275000809120018F7707C0809120018F7D03C079
:1027600080912001877F8093200108951F93CF934C
:10277000DF93282F30E0F901EF5BFC4F8491F901E2
:10278000E550FD4FD491F901EB54FD4FC491CC239A
:10279000C1F0162F81110E946013EC2FF0E0EE0FB4
:1027A000FF1FE556FD4FA591B4919FB7F894111105
:1027B00004C08C91D095D82302C0EC91DE2BDC9321
:1027C0009FBFDF91CF911F9108954F925F926F92BB
:1027D0007F928F929F92AF92BF92CF92DF92EF92B1
:1027E000FF920F931F93CF93DF931F921F92CDB74A
:1027F000DEB74C012B01D42E3901E114F10419F09C
:10280000F701408101C040E0B42EF0E1CF9EB00C52
:10281000112440E062E0C4010E943F0F4FE768E0EE
:10282000C4010E943F0F40E864E1C4010E943F0FD1
:10283000A2016D2DC4010E94DE124B2D6AE1C4017C
:102840000E943F0F4CE062E0C4010E943F0F6AE12A
:10285000C4010E94210F482F40686AE1C4010E9410
:102860003F0F80ED482E87E0582E68E0C4010E949B
:10287000210F982F907341F480FD04C081E0481A25
:10288000510899F783E0A0C06CE0C4010E94210FB9
:10289000D82E837109F095C06114710409F45AC0EF
:1028A0000115110509F456C064E1C4010E94210F0D
:1028B000B82EF80180818B1508F47DC0B082BB2052
:1028C000F1F183E590E00E942B0B60E0F401868536
:1028D0000E94B613BA9482E90E941A0FCC20A9F084
:1028E0008FEF90E02C0101C0440CCA94EAF782E912
:1028F0000E941A0F242D2095F301908192238421A8
:10290000892B8083CC24C39401C0C12C4C2C512C26
:10291000460C571CCB1438F482E90E941A0FF201BE
:102920008083C394F3CF80E00E941A0FF20180836A
:1029300061E0F40186850E94B6130E94190F68E1D8
:10294000C4010E94210F8770E114F10421F0F70106
:10295000808301C080E0D3FC30C06114710479F140
:102960000115110561F1AA2051F1F80140814130B2
:1029700021F4843041F58FEF27C0423020F18111DE
:1029800022C042509E012F5F3F4FB301C4010E94FD
:10299000C40F811119C0F8018081680E711CF30108
:1029A00032979081898198130EC0319690818A81E7
:1029B000981309C004C084E007C082E005C080E02D
:1029C00003C081E001C087E00F900F90DF91CF91AD
:1029D0001F910F91FF90EF90DF90CF90BF90AF903D
:1029E0009F908F907F906F905F904F900895CF93BE
:1029F000DF9390E0FC01E550FD4F2491FC01EB5486
:102A0000FD4F8491882361F190E0880F991FFC01AC
:102A1000EF57FD4FC591D491FC01E556FD4FA591AF
:102A2000B491611109C09FB7F894888120958223E1
:102A30008883EC912E230BC0623061F49FB7F89429
:102A40008881322F309583238883EC912E2B2C9311
:102A50009FBF06C08FB7F894E8812E2B28838FBFC5
:102A6000DF91CF9108958F929F92AF92BF92CF92B4
:102A7000DF92EF92FF926B017C010E9410134B01D9
:102A80005C01C114D104E104F104F1F00E941013BF
:102A9000DC01CB0188199909AA09BB09883E93403A
:102AA000A105B10570F321E0C21AD108E108F108CF
:102AB00088EE880E83E0981EA11CB11CC114D104BD
:102AC000E104F10419F7DDCFFF90EF90DF90CF9094
:102AD000BF90AF909F908F9008952FB7F89460911A
:102AE0002F057091300580913105909132052FBFEF
:102AF00008951F920F920FB60F9211242F933F93B8
:102B00008F939F93AF93BF9380912F059091300542
:102B1000A0913105B091320530912E0523E0230FAD
:102B20002D3720F40196A11DB11D05C026E8230F05
:102B30000296A11DB11D20932E0580932F05909321
:102B40003005A0933105B093320580913305909103
:102B50003405A0913505B09136050196A11DB11D32
:102B60008093330590933405A0933505B0933605D3
:102B7000BF91AF919F918F913F912F910F900FBE79
:102B80000F901F9018951F920F920FB60F9211245D
:102B90000BB60F922F933F934F935F936F937F9357
:102BA0008F939F93AF93BF93EF93FF93E09127028F
:102BB000F09128021995FF91EF91BF91AF919F91EC
:102BC0008F917F916F915F914F913F912F910F90D6
:102BD0000BBE0F900FBE0F901F9018951F920F9273
:102BE0000FB60F9211240BB60F922F933F934F9372
:102BF0005F936F937F938F939F93AF93BF93EF9365
:102C0000FF93E0912502F09126021995FF91EF9133
:102C1000BF91AF919F918F917F916F915F914F91F4
:102C20003F912F910F900BBE0F900FBE0F901F90F2
:102C300018951F920F920FB60F9211240BB60F9298
:102C40002F933F934F935F936F937F938F939F93B4
:102C5000AF93BF93EF93FF93E0911B02F0911C029F
:102C60001995FF91EF91BF91AF919F918F917F91B6
:102C70006F915F914F913F912F910F900BBE0F90ED
:102C80000FBE0F901F9018951F920F920FB60F92C4
:102C900011240BB60F922F933F934F935F936F9333
:102CA0007F938F939F93AF93BF93EF93FF93E091A5
:102CB0001902F0911A021995FF91EF91BF91AF910E
:102CC0009F918F917F916F915F914F913F912F9144
:102CD0000F900BBE0F900FBE0F901F9018951F9274
:102CE0000F920FB60F9211240BB60F922F933F93B2
:102CF0004F935F936F937F938F939F93AF93BF9304
:102D0000EF93FF93E0912302F09124021995FF9134
:102D1000EF91BF91AF919F918F917F916F915F9153
:102D20004F913F912F910F900BBE0F900FBE0F90C0
:102D30001F9018951F920F920FB60F9211240BB689
:102D40000F922F933F934F935F936F937F938F9344
:102D50009F93AF93BF93EF93FF93E0912102F09184
:102D600022021995FF91EF91BF91AF919F918F91A1
:102D70007F916F915F914F913F912F910F900BBE7B
:102D80000F900FBE0F901F9018951F920F920FB6C5
:102D90000F9211240BB60F922F933F934F935F9393
:102DA0006F937F938F939F93AF93BF93EF93FF9313
:102DB000E0911F02F09120021995FF91EF91BF91D0
:102DC000AF919F918F917F916F915F914F913F91C3
:102DD0002F910F900BBE0F900FBE0F901F90189564
:102DE0001F920F920FB60F9211240BB60F922F93D2
:102DF0003F934F935F936F937F938F939F93AF9383
:102E0000BF93EF93FF93E0911D02F0911E0219957D
:102E1000FF91EF91BF91AF919F918F917F916F91B2
:102E20005F914F913F912F910F900BBE0F900FBE6E
:102E30000F901F9018959091180289133DC0E0E8FB
:102E4000F2E0E4919FEF90931802E230C9F050F461
:102E5000EE2399F0E13081F590916F009D7F909382
:102E60006F002AC0E43019F1E0F0E53029F59091C7
:102E700073009D7F909373001FC010926E001CC062
:102E8000909170009D7F9093700091E09093B000BE
:102E90009091B100987F94609093B1001092B3002C
:102EA0000BC0909171009D7F9093710005C090912F
:102EB00072009D7F9093720060E00C94B6131F9295
:102EC0000F920FB60F9211240BB60F922F933F93D0
:102ED0004F935F936F937F938F939F93AF93BF9322
:102EE000EF93FF9380912A0590912B05A0912C05DB
:102EF000B0912D05892B8A2B8B2B51F190912905AF
:102F0000E0912705F09128058081892780838091B1
:102F10002A0590912B05A0912C05B0912D0518162E
:102F200019061A061B06C4F480912A0590912B05F8
:102F3000A0912C05B0912D050197A109B1098093AD
:102F40002A0590932B05A0932C05B0932D0504C062
:102F5000809118020E941B17FF91EF91BF91AF91D2
:102F60009F918F917F916F915F914F913F912F91A1
:102F70000F900BBE0F900FBE0F901F901895FC0185
:102F8000128A0895FC01148E0895789484B58260A5
:102F900084BD84B5816084BD85B5826085BD85B5FD
:102FA000816085BD80916E00816080936E0010927B
:102FB00081008091810082608093810080918100F6
:102FC0008160809381008091800081608093800087
:102FD0008091B10084608093B1008091B0008160E5
:102FE0008093B000809191008260809391008091E5
:102FF0009100816080939100809190008160809326
:1030000090008091A10082608093A1008091A10036
:1030100081608093A1008091A00081608093A000D6
:103020008091210182608093210180912101816042
:103030008093210180912001816080932001809103
:103040007A00846080937A0080917A008260809315
:103050007A0080917A00816080937A0080917A0072
:10306000806880937A001092C100E091A503F091EE
:10307000A60382E08083E091A103F091A203108275
:10308000E091A303F091A4038FEC80831092AD0331
:10309000E091A903F091AA0386E08083E091A70361
:1030A000F091A803808180618083E091A703F09173
:1030B000A803808188608083E091A703F091A80332
:1030C000808180688083E091A703F091A8038081CC
:1030D0008F7D8083CFB7F8948091E502811127C05E
:1030E000EAEEF2E08491E0E3F3E09491E82FF0E07F
:1030F000EE0FFF1FEF57FD4FA591B491EC91E9231F
:1031000021F461E085E30E94B61361E085E30E944B
:10311000F7148CB580618CBD8CB580648CBD61E08A
:1031200084E30E94F71461E083E30E94F714809126
:10313000E5028F5F8093E502CFBF61E080916F046D
:103140000E94F71461E080916F040E94B613809191
:1031500070048F3F41F44FE062E081E694E00E940A
:103160003F0FC3E025C060E00E94F7142091700477
:1031700030E0F901EF5BFC4F8491F901E550FD4F20
:10318000D491F901EB54FD4FC491CC23F9F0811196
:103190000E946013EC2FF0E0EE0FFF1FEA59FD4F85
:1031A000A591B491EC91ED2389F0D5CFC15039F1BF
:1031B00062E370E080E090E00E94331562E081E617
:1031C00094E00E94210F84FF1AC0F0CF61E080914B
:1031D00070040E94F71460E0809170040E94B6139E
:1031E00083E090E00197F1F761E0809170040E9424
:1031F000B61362E370E080E090E00E94331540E097
:1032000064E281E694E00E943F0F40E066E281E6DE
:1032100094E00E943F0F46E268E481E694E00E9459
:103220003F0F40E864E581E694E00E943F0F49EAE1
:1032300066E581E694E00E943F0F43E068E581E6A1
:1032400094E00E943F0F48EE6AE581E694E00E9418
:103250003F0F40E46AE281E694E00E943F0F4DE3B5
:1032600062E281E694E00E943F0F68E281E694E02A
:103270000E94210F982F9370933039F0482F4360AC
:1032800068E281E694E00E943F0F1092E202109201
:10329000E10210929203109291031092900381E048
:1032A00080938F0310928A0361E084E10E94B61339
:1032B00061E085E10E94B6138091B9008E7F809312
:1032C000B9008091B9008D7F8093B90088E4809324
:1032D000B80085E48093BC0088E99CE09093E0020C
:1032E0008093DF0289E99CE09093DE028093DD0207
:1032F0008AE097EDA3EABCE38093F1049093F20493
:10330000A093F304B093F40488E491EEAAE7BFE33A
:103310008093F5049093F604A093F704B093F80417
:1033200060E089E10E94161260E08AE10E941612B4
:1033300068E08BE10E94161261E08CE10E94161297
:1033400060E087E30E94161260E488E30E94161290
:1033500061E08FE10E94161261E080E20E94161285
:1033600060E189E60E94161261E08BE60E94161267
:103370001092F9041092FA041092FB041092FC04CB
:103380001092FD041092FE041092FF0410920005AA
:103390001092010510920205109203051092040587
:1033A0000E946D156093D1047093D2048093D3046E
:1033B0009093D4048FE692E1A3E0BBE380930505EC
:1033C00090930605A0930705B09308058FE692E158
:1033D000A3E0B2E480930D0590930E05A0930F0532
:1033E000B09310058FE892ECA5E7BCE38093090544
:1033F00090930A05A0930B05B0930C0583E898EA17
:10340000ABE7BFE38093110590931205A0931305DA
:10341000B09314058AE08093190584E190E00E943E
:103420008F1F909318058093170582E190E0E0913B
:103430001705F0911805E80FF91F11821082029705
:103440008E3F2FEF920799F782E00E94F11140E042
:1034500050E060E470E482E394E00E949C1140E05C
:1034600050E068EC73E487E594E00E949C1195E3DA
:10347000E92E93E1F92E222423942AE0C22ED12CA6
:103480000E946D152B013C01312C80911A053816D4
:1034900008F04DC0C301B2010E94761C4B015C01D3
:1034A000C32DD0E0CC0FDD1FE0911705F09118057A
:1034B000EC0FFD1F00811181D80116962D913D91D1
:1034C0004D915C911997C501B4010E94951DF801B9
:1034D00022813381448155810E940D1F18162CF5DD
:1034E000D80116968D929D92AD92BC921997ED914E
:1034F000FC910480F581E02DC80119958091170594
:1035000090911805C80FD91F0990D881C02D20E0CF
:1035100030E0A9016A817B818C819D810E94711CB0
:10352000811103C0CE010E9443123394AECF80912B
:10353000E3029091E402039771F4EB98F092240275
:10354000E092230240E050E06AEF73E484E794E005
:103550000E949C113CC08091E3029091E40201978B
:1035600081F4EB98F0922402E09223022CBA80E2DC
:103570000E94F1111092730484E794E00E944312B8
:1035800043C08091E3029091E402892B81F480E0B2
:103590000E94F111E9EFF1E0F0932402E09323029D
:1035A00080916900806C80936900EB9A2DC0C09176
:1035B000E302D091E402C230D10531F5EB98F092EC
:1035C0002402E092230280914E04882321F082E0BD
:1035D0000E94F11119C020924E04D0924B04C09267
:1035E0004A04D0925004C0924F040E946D1560931B
:1035F0005104709352048093530490935404D093D5
:103600004D04C0934C04E3CF0E945F0C39CF85E199
:1036100095E00C942E0BEF92FF920F931F93CF9394
:10362000DF93CDB7DEB760970FB6F894DEBF0FBE5D
:10363000CDBF109298031092970388EE93E0A0E01C
:10364000B0E08093990390939A03A0939B03B09367
:103650009C032BE332E0309396032093950325ECF3
:1036600030E03093A2032093A10324EC30E03093A8
:10367000A4032093A30320EC30E03093A60320930F
:10368000A50321EC30E03093A8032093A70322EC9C
:1036900030E03093AA032093A90326EC30E0309366
:1036A000AC032093AB031092AE031092AF031092C1
:1036B000B0031092B10310921E0510921D05809365
:1036C0001F0590932005A0932105B09322058DE45A
:1036D00092E090931C0580931B058FE592E09093F8
:1036E00016058093150510921A0510923404109255
:1036F0003504109236041092370410923804109258
:10370000390410923A0410923B0489EA92E09093B3
:1037100033048093320487EB92E090933D048093CE
:103720003C0480E192E090933F0480933E0480E06B
:1037300092E0909341048093400488E0E2E4F4E056
:10374000DF011D928A95E9F710924B0410924A040A
:1037500010924D0410924C0410924E04109250049A
:1037600010924F0400E112E0780161E0F8018081DD
:103770000E94F7140E5F1F4F61E0D7018C910E94E9
:10378000B613B2E008311B0779F700E012E07801C8
:1037900061E0F80180810E94F7140E5F1F4F60E026
:1037A000D7018C910E94B613B2E000311B0779F764
:1037B00081E792E0909356048093550461E081E2A2
:1037C0000E94F71461E085E20E94F71461E083E251
:1037D0000E94F7141092590410925A0410925B043C
:1037E00010925C0410925D0410925E0410925F04CB
:1037F0001092600489E792E09093580480935704F4
:1038000087E692E090936204809361048CE394E0F5
:103810009093720480937104109273048CE0FE0103
:103820003396A3E6B4E001900D928A95E1F781E327
:1038300080936F048FE1809370041092760410924D
:103840007704109278041092790410927A041092FE
:103850007B0410927C0410927D0485E892E09093A2
:1038600075048093740488E290E090937F048093C1
:103870007E041092800488E0EFE2F2E0A1E8B4E078
:1038800001900D928A95E1F761E088E20E94F714B9
:1038900010928B0410928C0410928D0410928E045E
:1038A00010928F041092900410929104109292043E
:1038B00081E992E090938A04809389048BE195E0FA
:1038C000909394048093930460960FB6F894DEBFAF
:1038D0000FBECDBFDF91CF911F910F91FF90EF9061
:1038E00008950E94B31C08F481E00895E89409C08B
:1038F00097FB3EF490958095709561957F4F8F4F23
:103900009F4F9923A9F0F92F96E9BB279395F69538
:10391000879577956795B795F111F8CFFAF4BB0FB6
:1039200011F460FF1BC06F5F7F4F8F4F9F4F16C01A
:10393000882311F096E911C0772321F09EE8872FA4
:10394000762F05C0662371F096E8862F70E060E060
:103950002AF09A95660F771F881FDAF7880F9695D9
:10396000879597F90895990F0008550FAA0BE0E87D
:10397000FEEF16161706E807F907C0F01216130631
:10398000E407F50798F0621B730B840B950B39F471
:103990000A2661F0232B242B252B21F408950A26D7
:1039A00009F4A140A6958FEF811D811D08950E9405
:1039B000EA1C0C945B1D0E944D1D38F00E94541DA2
:1039C00020F0952311F00C94441D0C944A1D1124F1
:1039D0000C948F1D0E946C1D70F3959FC1F3950F81
:1039E00050E0551F629FF001729FBB27F00DB11D83
:1039F000639FAA27F00DB11DAA1F649F6627B00D13
:103A0000A11D661F829F2227B00DA11D621F739FFB
:103A1000B00DA11D621F839FA00D611D221F749F09
:103A20003327A00D611D231F849F600D211D822F50
:103A3000762F6A2F11249F5750409AF0F1F0882377
:103A40004AF0EE0FFF1FBB1F661F771F881F9150A4
:103A50005040A9F79E3F510580F00C94441D0C94F2
:103A60008F1D5F3FE4F3983ED4F386957795679575
:103A7000B795F795E7959F5FC1F7FE2B880F911DCE
:103A80009695879597F9089597F99F6780E870E074
:103A900060E008959FEF80EC089500240A941616C4
:103AA000170618060906089500240A94121613062C
:103AB000140605060895092E0394000C11F48823BA
:103AC00052F0BB0F40F4BF2B11F460FF04C06F5FD6
:103AD0007F4F8F4F9F4F089557FD9058440F551FAC
:103AE00059F05F3F71F04795880F97FB991F61F080
:103AF0009F3F79F087950895121613061406551FF7
:103B0000F2CF4695F1DF08C0161617061806991F62
:103B1000F1CF86957105610508940895E894BB2757
:103B200066277727CB0197F908955058BB27AA2716
:103B30000E94AD1D0C945B1D0E944D1D38F00E942B
:103B4000541D20F039F49F3F19F426F40C944A1DBB
:103B50000EF4E095E7FB0C94441DE92F0E946C1DC8
:103B600058F3BA17620773078407950720F079F4B2
:103B7000A6F50C948E1D0EF4E0950B2EBA2FA02DF9
:103B80000B01B90190010C01CA01A0011124FF270A
:103B9000591B99F0593F50F4503E68F11A16F04005
:103BA000A22F232F342F4427585FF3CF4695379504
:103BB0002795A795F0405395C9F77EF41F16BA0BC9
:103BC000620B730B840BBAF09150A1F0FF0FBB1F77
:103BD000661F771F881FC2F70EC0BA0F621F731FC0
:103BE000841F48F4879577956795B795F7959E3F1D
:103BF00008F0B0CF9395880F08F09927EE0F9795AE
:103C0000879508950E944D1D60F080E891E009F4C9
:103C10009EEF0E94541D28F040E851E071F45EEFE1
:103C20000CC00C944A1D0C948E1DE92FE0780E9464
:103C30006C1D40F3092E052AB1F3261737074807F4
:103C4000590738F00E2E07F8E02569F0E025E0640A
:103C50000AC0EF6307F8009407FADB01B9019D0180
:103C6000DC01CA01AD01EF930E948B1E0E945B1D17
:103C70000E94451E5F91552339F02BED3FE049E44A
:103C800050FD49EC0C94961D0895DF93DD27B92F64
:103C9000BF7740E85FE31616170648075B0718F47E
:103CA000D92F0E94121F9F938F937F936F930E942F
:103CB0001A1FECE1F1E00E94E61E0E945B1D2F91AD
:103CC0003F914F915F910E94EA1CDD2351F0905883
:103CD000A2EA2AED3FE049EC5FE3D0785D270E943D
:103CE000AD1DDF910C945B1D0E94881E0C945B1D22
:103CF0000E94541D58F00E944D1D40F029F45F3F72
:103D000029F00C94441D51110C948F1D0C944A1DE4
:103D10000E946C1D68F39923B1F3552391F3951B11
:103D2000550BBB27AA2762177307840738F09F5FDC
:103D30005F4F220F331F441FAA1FA9F335D00E2E49
:103D40003AF0E0E832D091505040E695001CCAF7B6
:103D50002BD0FE2F29D0660F771F881FBB1F261779
:103D600037074807AB07B0E809F0BB0B802DBF0150
:103D7000FF2793585F4F3AF09E3F510578F00C941F
:103D8000441D0C948F1D5F3FE4F3983ED4F3869559
:103D900077956795B795F7959F5FC9F7880F911D40
:103DA0009695879597F90895E1E0660F771F881F2C
:103DB000BB1F621773078407BA0720F0621B730BDF
:103DC000840BBA0BEE1F88F7E0950895DF93CF932D
:103DD0001F930F93FF92EF92DF927B018C01689407
:103DE00006C0DA2EEF010E94EA1CFE01E894A591BC
:103DF0002591359145915591A6F3EF010E94AD1D96
:103E0000FE019701A801DA9469F7DF90EF90FF9027
:103E10000F911F91CF91DF9108950E94B31C08F478
:103E20008FEF08959B01AC0160E070E080E89FE3B4
:103E30000C94741E9B01AC010C94D71C97FB072EAD
:103E400016F4009407D077FD09D00E94591F07FC93
:103E500005D03EF4909581959F4F0895709561959A
:103E60007F4F0895052E97FB1EF400940E94491F72
:103E700057FD07D00E946D1F07FC03D04EF40C9431
:103E8000491F50954095309521953F4F4F4F5F4FBB
:103E9000089590958095709561957F4F8F4F9F4FB6
:103EA0000895EE0FFF1F881F8BBF0790F691E02D3E
:103EB0001994AA1BBB1B51E107C0AA1FBB1FA61761
:103EC000B70710F0A61BB70B881F991F5A95A9F7C3
:103ED00080959095BC01CD010895A1E21A2EAA1BF0
:103EE000BB1BFD010DC0AA1FBB1FEE1FFF1FA217AA
:103EF000B307E407F50720F0A21BB30BE40BF50BA7
:103F0000661F771F881F991F1A9469F7609570952F
:103F1000809590959B01AC01BD01CF0108950F9351
:103F20001F93CF93DF938230910510F482E090E0ED
:103F3000E0913905F0913A0520E030E0A0E0B0E0F2
:103F4000309719F140815181028113814817590737
:103F5000C8F08417950769F4109731F012960C9306
:103F6000129713961C9327C00093390510933A05B6
:103F700022C02115310519F04217530718F49A0190
:103F8000BD01EF01DF01F801DBCF21153105F9F0AB
:103F9000281B390B2430310580F48A819B816115FF
:103FA000710521F0FB019383828304C090933A054D
:103FB00080933905FE01329644C0FE01E20FF31FE3
:103FC0008193919322503109398328833AC02091FB
:103FD000370530913805232B41F420912B02309185
:103FE0002C02309338052093370520912902309117
:103FF0002A022115310541F42DB73EB740912D021B
:1040000050912E02241B350BE0913705F0913805B5
:10401000E217F307A0F42E1B3F0B2817390778F09F
:10402000AC014E5F5F4F2417350748F04E0F5F1FFE
:1040300050933805409337058193919302C0E0E097
:10404000F0E0CF01DF91CF911F910F910895CF93B1
:10405000DF93009709F481C0FC013297138212822A
:10406000A0913905B0913A05109781F420813181F2
:10407000820F931F20913705309138052817390793
:1040800051F5F0933805E093370567C0ED0120E066
:1040900030E0CE17DF0740F44A815B819E01411575
:1040A0005105F1F0EA01F5CFD383C28340815181FC
:1040B000840F951FC817D90759F488819981840FF7
:1040C000951F0296918380838A819B81938382834B
:1040D0002115310529F4F0933A05E09339053DC0E7
:1040E000E901FB83EA8349915991C40FD51FEC176D
:1040F000FD0761F480819181840F951F0296E9018B
:1041000099838883828193819B838A83E0E0F0E0B6
:1041100012968D919C911397009719F0FD01DC0187
:10412000F7CF8D919C9111979D012E5F3F4F820F8C
:10413000931F20913705309138052817390769F406
:10414000309729F410923A051092390502C0138273
:104150001282B0933805A0933705DF91CF9108956F
:1041600081E090E0F8940C94B52011E0C5ECD1E02A
:1041700000E006C0802FFE010E94511F2196011D04
:0E418000C63CD10780E00807A9F7F894FFCFEE
:10418E0002000300040005000600070008000900F5
:10419E000A000B000C000D00FF35133513351335D7
:1041AE0013351335133513351300003B058000B856
:1041BE0001E803B801BC0200000000840B3613496D
:1041CE000BD10B530C580B6C0B00000000290DFC8F
:1041DE000CC70C9A0CBE0CAA0C9B0C000000002EF7
:1041EE000B3A0B0000000010105C0F580D00000081
:1041FE0000440B060200000000450B0802A903C68E
:10420E000C00000000470B0C0227082308000000DA
:10421E0000460B0A026804C60C00000000000000F5
:10422E0000680DC60C00000000480B0E021002C6FE
:10423E000CC217F6FF0000BF1754422066756C6C57
:04424E00000D0A0055
:00000001FF
