:100000000C94AD010C94CC120C94A1120C947612A9
:100010000C944B120C9420120C94F5110C94CA11F0
:100020000C949F110C94DE010C94DE010C94DE0103
:100030000C94DE010C943B130C94DE010C94DE0155
:100040000C94DE010C94DE010C94DE010C94DE01B4
:100050000C94DE010C94DE010C94DE010C9455111D
:100060000C94DE010C94440D0C941A0D0C94DE01DA
:100070000C94DE010C94DE010C94DE010C94DE0184
:100080000C94DE010C94DE010C94DE010C94DE0174
:100090000C94DE010C94DE010C94DE010C94DE075E
:1000A0000C94DE010C94DE010C94DE010C94DE0154
:1000B0000C94DE010C94DE010C94DE010C94DE0144
:1000C0000C94DE010C94DE010C94DE010C94DE0134
:1000D0000C94DE010C94DE010C94DE010C94DE0124
:1000E0000C94DE019C03A403AD03C103DB03EA030C
:1000F0000404240433045304630F660F550F590F8F
:100100005F0F9D0F6A0F6E0F740F780F7C0F820FB9
:10011000860F8A0F9D0F900F940F980F0C94370243
:100120000C9404030C9404040C946D0C0C94DB03E9
:100130000C94C1030C9453040C94780F0C94530248
:100140000C94F5020C94B4040C94700C0C942502DD
:100150000C940E030C94550C0C9456090C941E0F21
:100160000C94630F0C94AD030C94B8040C946B0CBA
:100170000C9489020C94A4030C9433040C94960BF5
:100180000C947F0C0C94E5020C9408030C94660FFD
:100190000C9424040C949E130C9454020C949B1302
:1001A0000C94820F0C949D0F0C94740F0C94550FAB
:1001B0000C9427020C941D0F0C946F0C0C946C0C77
:1001C0000C94610C0C9406030C94980F0C94E001B1
:1001D0000C9476160C94940F0C94900F0C940A0ABD
:1001E0000C947C0F0C946E0F0C9472160C94AB0C48
:1001F0000C946A0F0C944B020C94860F0C94EA0337
:100200000C945F0F0C94F80C0C940C030C948A0F54
:100210000C9402030C9428020C94B6020C94590F0F
:100220000C940A030C9426020C946E0C0C949C0300
:100230000C94930C000020002300260029002C00C1
:100240002F00320000010000030106010901020035
:10025000002100240027002A002D00300033000177
:10026000010000040107010A010000220025002806
:10027000002B002E003100340002010000050108AF
:10028000010B01050505050705080808080202021B
:10029000020A0A0808040404040101010101010121
:1002A000010303030303030303040707070C0C0CF8
:1002B0000C0C0C0C0C0202020206060606060606D0
:1002C000060B0B0B0B0B0B0B0B010210202008086D
:1002D00010204010204080020102010804020101A8
:1002E0000204081020408080402010080402018091
:1002F00004020180402010080402010804020101E8
:1003000002040810204080010204081020408000F0
:10031000000A0B02090C0D0E08070304010000007F
:1003200000000000000000000000000000000000CD
:10033000000000000000000000000012111000008A
:1003400000000000000000000000000000000000AD
:100350000000000000007616721611241FBECFEFB9
:10036000D1E2DEBFCDBF00E00CBF12E0A0E0B2E002
:10037000EAE4F5E300E00BBF02C007900D92A03C59
:10038000B107D9F724E0A0ECB2E001C01D92AE3A6B
:10039000B207E1F711E0CCEAD1E000E006C0219716
:1003A0000109802FFE010E942F19CB3AD10780E06E
:1003B0000807A9F70E94A1130C94931A0C9400004B
:1003C000FC01918D228D892F90E0805C9F4F821BD4
:1003D00091098F739927089580E090E0892B21F08F
:1003E0000E94A10C811125C080E090E0892B41F092
:1003F00080E090E0892B21F00E94000081111CC058
:1004000080E090E0892B41F080E090E0892B21F0A2
:100410000E940000811113C080E090E0892BA1F0C0
:1004200080E090E0892B81F00E94000081110AC0D9
:1004300008950E940000D8CF0E940000E1CF0E94E2
:100440000000EACF0C9400000895089508950895DF
:10045000E091410380914003E81730F4F0E0E45E5E
:10046000FC4F808190E008958FEF9FEF0895909169
:10047000410380914003981750F4E92FF0E0E45EC7
:10048000FC4F208130E09F5F9093410302C02FEF2B
:100490003FEFC90108958091400390E0209141030E
:1004A000821B91090895089580E090E0089585EDFC
:1004B0008093BC008091BC0084FDFCCF10926B0344
:1004C00008954091F902262F30E0240F311D21328A
:1004D0003105DCF420916B032430C9F4FC0180E089
:1004E00090E0861758F43091F9022191DC01A7526F
:1004F000BD4FA30FB11D2C930196F3CF8091F9024C
:10050000680F6093F90280E0089581E0089582E029
:100510000895CF92DF92EF92FF920F931F93CF93A4
:10052000DF937C01CB018A0120918E03222389F085
:10053000EB016B01C40ED51ECC15DD0569F0699188
:10054000D701ED91FC910190F081E02DC701199543
:10055000F3CF642F0E946102C801DF91CF911F91F8
:100560000F91FF90EF90DF90CF900895CF93DF939E
:100570001F92CDB7DEB7698320918E032223D1F07D
:1005800020918C03203240F021E030E0FC013383E5
:10059000228380E090E015C080918D03E82FF0E089
:1005A000E459FC4F998190838F5F80938D038093F2
:1005B0008C0305C061E0CE0101960E94610281E0DA
:1005C00090E00F90DF91CF910895BC016E5F7F4F57
:1005D000DC01ED91FC910190F081E02D40E0199556
:1005E00091E0811190E0892F0895809142039091CC
:1005F0004303892B31F482E090E09093430380938E
:10060000420308950E948E1A0C94051A0C94051A40
:100610000C94051A0C94051A0C94051AAF92BF920B
:10062000CF92DF92EF92FF920F931F93CF93DF93BE
:10063000EC0180914203909143032C8D222309F415
:1006400088C1029709F085C12FB7F8948091A10461
:100650009091A204A091A304B091A4042FBF4F8D48
:1006600058A169A17AA1841B950BA60BB70B893EF3
:100670009340A105B10508F049C11DC021503109C1
:10068000398F288F888D998D892B31F483E090E004
:1006900090934303809342032FB7F8948091A10471
:1006A0009091A204A091A304B091A4042FBF8F8FB6
:1006B00098A3A9A3BAA3CA8CDB8C8601000F111FD3
:1006C0000C0F1D1F8EEF9FEF5C01AC1ABD0A1C14AE
:1006D0001D040CF03EC1E12CF12CEE85FF85EE0DE2
:1006E000FF1D60E080810E949E0F82E0E80EF11CF9
:1006F000A0E1EA16F10489F77501E00EF11EEC8520
:10070000FD85EE0DFF1D60E080810E949E0FB1E02F
:10071000CB1AD108D8011E96ED91FC911F97EA30B3
:10072000F10508F0E1C0AE85BF8561E08827EE588D
:10073000FF4F8F4F0C942F198C910E949E0FEE85C6
:10074000FF8561E082859CC012968C910E949E0F6D
:10075000EE85FF8561E08481C5C08C910E949E0F6B
:10076000EE85FF8561E082810E949E0FEE85FF8508
:1007700061E086810E949E0FEE85FF8561E08085A5
:1007800013C08C910E949E0FEE85FF8561E08281EF
:100790000E949E0FEE85FF8561E084810E949E0F7E
:1007A000EE85FF8561E086810E949E0FEE85FF85C4
:1007B00061E0848597C012968C910E949E0FEE8511
:1007C000FF8561E084810E949E0FEE85FF8561E0D8
:1007D0008285EACF8C910E949E0FEE85FF8561E0B5
:1007E00082850E949E0FEE85FF8561E084850E94D0
:1007F0009E0FEE85FF8561E084810E949E0FEE854D
:10080000FF8561E086816EC08C910E949E0FEE850F
:10081000FF8561E082850E949E0FEE85FF8561E085
:1008200084850E949E0FEE85FF8561E084810E9491
:100830009E0FEE85FF8561E086810E949E0FEE850A
:10084000FF8561E080854EC012968C910E949E0FBC
:10085000EE85FF8561E084810E949E0FEE85FF8515
:1008600061E080813FC08C910E949E0FEE85FF85E4
:1008700061E082850E949E0FEE85FF8561E08485A0
:100880000E949E0FEE85FF8561E084810E949E0F8D
:10089000EE85FF8561E086810E949E0FEE85FF85D3
:1008A00061E0808519C08C910E949E0FEE85FF85C6
:1008B00061E082850E949E0FEE85FF8561E0848560
:1008C0000E949E0FEE85FF8561E084810E949E0F4D
:1008D000EE85FF8561E086810E949E0FEE85FF8593
:1008E00061E082810E949E0F61E070E080E090E014
:1008F0000E941B118C859D85FC01EE0DFF1D61E0A2
:1009000080810E949E0F02501109E1CE288D398D01
:100910002031B7E23B0708F0B5CE1B8E1A8EC90115
:100920000AE010E0009709F4A9CEEA8CFB8CF701ED
:100930003896EE0FFF1FEC0FFD1FB8010E94FC1848
:1009400091838083CB01A7014F5F5F4F5B8F4A8FFD
:10095000E9CFDF91CF911F910F91FF90EF90DF9042
:10096000CF90BF90AF900895FC0182850C94F71250
:100970008F929F92AF92BF92CF92DF92EF92FF92AF
:100980001F93CF93DF93FC018485843008F0148695
:10099000848591E0980F9487DF01A80FB11DA80FFF
:1009A000B11D1D96CD91DC911E9782859385209176
:1009B0001802281721F02F3F09F0D2C204C0EEE43C
:1009C000F2E01491EAC080931802EEE4F2E0149190
:1009D0001F3F09F4C5C2123009F472C048F5112353
:1009E00009F451C0113009F0D8C010928000109263
:1009F0008100209181002860209381002091810056
:100A00002160209381009C013327F901ED57FD4FB0
:100A1000E491F0E0EE0FFF1FE759FD4F459154912F
:100A2000F901E753FD4FE491E093C30211E059C18E
:100A3000143009F48FC008F46AC0153009F0ADC055
:100A40001092200110922101209121012860209311
:100A50002101209121012160209321019C01332754
:100A6000F901ED57FD4FE491F0E0EE0FFF1FE7595C
:100A7000FD4F45915491F901E753FD4FE491E09307
:100A8000C00215E02EC114BC15BC24B5226024BDE3
:100A900025B5216025BD9C013327F901ED57FD4F98
:100AA000E491F0E0EE0FFF1FE759FD4F459154919F
:100AB000F901E753FD4FE491E093C40210E04CC20A
:100AC0001092B0001092B1002091B00022602093EB
:100AD000B0002091B10021602093B1009C01332728
:100AE000F901ED57FD4FE491F0E0EE0FFF1FE759DC
:100AF000FD4F4591549150939B0440939A04F90102
:100B0000E753FD4FE491E0939C0412E025C210925C
:100B10009000109291002091910028602093910004
:100B2000209191002160209391009C013327F901CD
:100B3000ED57FD4FE491F0E0EE0FFF1FE759FD4F39
:100B400045915491F901E753FD4FE491E093C202BE
:100B500013E0C7C01092A0001092A1002091A10044
:100B600028602093A1002091A10021602093A10082
:100B70009C013327F901ED57FD4FE491F0E0EE0FB2
:100B8000FF1FE759FD4F45915491F901E753FD4F80
:100B9000E491E093C10214E0A4C017FDE1C161E05B
:100BA0000E94DF10812F8D7F09F09EC06E01E12C25
:100BB000F12C60E072E18AE790E0A70196010E94C3
:100BC000101949015A01BA01A9014150510961099D
:100BD00071094F3F51056105710509F008F445C0E1
:100BE00060E472E48FE090E0A70196010E94101982
:100BF000BA01A90141505109610971091230E9F4A2
:100C00004F3F51056105710509F008F445C160E9E0
:100C100070ED83E090E0A70196010E941019BA01DF
:100C2000A90141505109610971094F3F5105610501
:100C3000710509F020F583E04DC04F3F5105610576
:100C40007105A9F0A0F068E478EE81E090E0A701DA
:100C500096010E941019BA01A90141505109610978
:100C60007109112309F449C140C181E001C082E04A
:100C7000111130C095B5987F892B85BD92C068E46D
:100C800078EE81E090E0A70196010E941019BA0168
:100C9000A90141505109610971094F3F5105610591
:100CA000710509F008F4F6C064E274EF80E090E0AA
:100CB000A70196010E941019BA01A90141505109DA
:100CC000610971094F3F51056105710511F008F087
:100CD000E5C085E09091B100987F892B8093B100A9
:100CE0004FC061E00E94DF106E01E12CF12C60E04A
:100CF00072E18AE790E0A70196010E941019BA01FB
:100D0000A90141505109610971094115510581E05D
:100D10006807710580F068E478EE81E090E0A70153
:100D200096010E941019BA01A901415051096109A7
:100D3000710983E001C081E0113039F490918100A4
:100D4000987F892B809381003EC0133039F49091B5
:100D50009100987F892B809391005DC0143039F405
:100D60009091A100987F892B8093A10069C01530D4
:100D700039F490912101987F892B8093210175C0CE
:100D80001230B1F134F4112361F0113009F0E8C0F0
:100D90001AC0143009F454C0F4F1153009F465C0D8
:100DA000DFC047BD8FEF9FEFDC018093D5029093AA
:100DB000D602A093D702B093D80280916E008260D1
:100DC00080936E00CDC050938900409388008FEFD0
:100DD0009FEFDC018093D1029093D202A093D302C3
:100DE000B093D40280916F00826080936F00B8C08E
:100DF0004093B3008FEF9FEFDC0180939D049093AD
:100E00009E04A0939F04B093A00480917000826020
:100E100080937000A5C050939900409398008FEF85
:100E20009FEFDC018093CD029093CE02A093CF027E
:100E3000B093D0028091710082608093710090C065
:100E40005093A9004093A8008FEF9FEFDC0180939F
:100E5000C9029093CA02A093CB02B093CC028091B6
:100E600072008260809372007BC05093290140938E
:100E700028018FEF9FEFDC018093C5029093C6029B
:100E8000A093C702B093C8028091730082608093E0
:100E9000730066C084E01ECF82E01CCF62E17AE777
:100EA00080E090E0A70196010E941019BA01A90103
:100EB00041505109610971094F3F510561057105A3
:100EC00091F088F0D501C4012AE0B595A7959795D2
:100ED00087952A95D1F7AC01BD01415051096109AF
:100EE000710987E0F7CE86E0F5CE4F3F51056105E9
:100EF000710509F098F684E0BBCE4F3F51056105BE
:100F0000710541F138F162E17AE780E090E0A701F4
:100F100096010E941019BA01A901415051096109B5
:100F200071094F3F51056105710591F088F0D501B8
:100F3000C4013AE0B595A795979587953A95D1F76D
:100F4000AC01BD01415051096109710985E092CEA2
:100F500084E090CE83E08ECE61E00E94DF1026CE4A
:100F6000DF91CF911F91FF90EF90DF90CF90BF90D6
:100F7000AF909F908F900895FC01848DDF01A80FA2
:100F8000B11DA35ABF4F2C91848D90E001968F73B1
:100F90009927848FA689B7892C93A089B1898C91D0
:100FA000837080648C93938D848D981306C002881F
:100FB000F389E02D80818F7D808308951F920F92A9
:100FC0000FB60F9211240BB60F922F933F934F93AE
:100FD0005F936F937F938F939F93AF93BF93EF93A1
:100FE000FF938091B900887F803609F49CC068F532
:100FF000883209F45BC090F4803109F454C038F4AD
:10100000882309F4F6C0883009F44DC0F6C0883151
:1010100009F44CC0803209F45DC0EFC0803409F49B
:1010200068C048F4803309F455C0883309F0E5C03E
:1010300080936903D8C0803509F44FC0883509F41E
:101040005DC0883409F0D9C0D6C0883909F4C7C05A
:10105000A8F4883709F467C038F4883609F463C007
:10106000803709F460C0C9C0883809F4B8C0803935
:1010700009F45FC0803809F0C0C05BC0803B09F450
:1010800086C038F4803A09F466C0883A09F47FC013
:10109000B4C0803C09F4A7C0883C09F4A4C0883BD4
:1010A00009F48AC0AAC08091460310C090916803D9
:1010B00080916703981770F5E091680381E08E0FC7
:1010C00080936803F0E0E95BFC4F80818093BB0074
:1010D00085EC86C0809369038EC0E091680381E04F
:1010E0008E0F809368038091BB00F0E0E95BFC4FBA
:1010F000808390916803809167036EC0E0916803DC
:1011000081E08E0F809368038091BB00F0E0E95B83
:10111000FC4F808380916A0381116DC081E08093D0
:10112000450384EA61C083E080936B0310921B0344
:10113000CFCF80911B03803208F051C0E0911B0398
:1011400081E08E0F80931B038091BB00F0E0E5509F
:10115000FD4F8083BDCF85EC8093BC0010926B0364
:1011600080911B03803230F4E0911B03F0E0E550E6
:10117000FD4F108260911B0370E0E0913C03F09101
:101180003D038BEF92E0199510921B0336C084E06B
:1011900080936B031092FA021092F902E0913E03E1
:1011A000F0913F0319958091F902811105C081E00A
:1011B0008093F9021092D902E091FA0281E08E0F39
:1011C0008093FA02F0E0E752FD4F80818093BB00EC
:1011D0009091FA028091F902981708F479CF85E886
:1011E0008093BC000AC085EC8093BC0010926B0316
:1011F00004C0109269030E945702FF91EF91BF91C2
:10120000AF919F918F917F916F915F914F913F919E
:101210002F910F900BBE0F900FBE0F901F9018953F
:1012200008958EBD00000DB407FEFDCF8EB5089564
:101230008CBD9DBD08951F93CF93DF93EC01162FB6
:1012400083E590E00E94180960E08E850E949E0F61
:10125000812F80680E94110980E00E941109182FD7
:1012600061E08E850E949E0F812FDF91CF911F91AB
:1012700008950F931F93CF93DF93EC01062F142F44
:1012800083E590E00E94180960E08E850E949E0F21
:10129000802F0E941109812F0E94110961E08E8523
:1012A000DF91CF911F910F910C949E0F8F929F927F
:1012B000AF92CF92EF92FF920F931F93CF93DF9352
:1012C00000D01F921F92CDB7DEB74C0182E08D8314
:1012D00040E064E2C4010E94390940E066E2C401D2
:1012E0000E94390946E268E4C4010E94390986E295
:1012F0008B838D81823040F16CE1C4010E941B0917
:10130000482F4F776CE1C4010E94390987E08C8334
:10131000A12CC12CCE0104967C018E010B5F1F4FC6
:101320009E012F5F3F4F41E0BE016D5F7F4FC401C3
:101330000E94CD0F81110BC08D81823039F481E084
:101340009C81911104C008C084E001C081E091E05B
:10135000823019F090E001C091E0892F0F900F903A
:101360000F900F900F90DF91CF911F910F91FF90F1
:10137000EF90CF90AF909F908F900895CF92DF9293
:10138000EF92FF920F931F93CF93DF93EC016B01CA
:10139000142F790140E062E00E94390944E06AE0DC
:1013A000CE010E94390940E864E1CE010E9439096A
:1013B000A601612FCE010E94C60E43E062E0CE017D
:1013C0000E94390908E813E16AE0CE010E941B0976
:1013D00082FF13C040E062E0CE010E94390964E45C
:1013E000CE010E941B09F701808362E4CE010E94B6
:1013F0001B09F701818380E004C00150110921F726
:1014000083E0DF91CF911F910F91FF90EF90DF90DC
:10141000CF9008952F923F924F925F926F927F925A
:101420008F929F92AF92BF92CF92DF92EF92FF92F4
:101430000F931F93CF93DF93CDB7DEB72C970FB6E3
:10144000F894DEBF0FBECDBF413508F00BC1342E7E
:101450003B014C016CE10E941B09482F4F776CE166
:10146000C4010E9439092224239432E0231691F00A
:1014700083E02816E1F091E02912F6C083E9898320
:101480003320D1F081E0F3019081953008F480E0C1
:10149000B12C17C0F5E9F983332081F081E0F30125
:1014A0009081983008F480E043E0B42E0AC087E9C8
:1014B000898336E0B32E04C0B12C02C023E0B22EE3
:1014C00080E0D32CF8E0BF9ED0181124D7FCD12C9B
:1014D000882321F098E89B8333E001C032E021E0CB
:1014E0009D2D977009F420E09D2D959595959595E6
:1014F000290F31F4882309F492C038E0D30E8FC04D
:10150000811102C094E001C093E0291708F4922FE2
:10151000EB2DF0E03196E60DF71D232F4191A1E070
:10152000B0E0AC0FBD1FA20FB11D4C932F5F422F37
:10153000431B491798F3DECF8111DEC09FE19D1553
:101540000CF494C080E2D82E90E79A839B818C8122
:1015500089279D8189279E8189278F839E01285F06
:101560003F4F47E0BE016F5F7F4FC4010E94BE093D
:101570008111A3C01A86E3E0EB87CE0107962C0108
:1015800099E09C87CA844C2D4295407F4C0D6AE1BE
:10159000C4010E943909A12CCE010A967C018E015A
:1015A000055F1F4F92014C85BE016F5F7F4FC401E5
:1015B0000E94CD0F182F823009F0BECF6CE1C4011C
:1015C0000E941B0985FD98C08F7109F480E2282FC5
:1015D00030E04D2DDD0C550B421753070CF044C085
:1015E000D82E85958595859591E0980F422F477067
:1015F00081E009F480E0890FE1E0F0E0EC0FFD1FED
:10160000E80FF11D215031092770332781E090E068
:1016100001C0880F2A95EAF79081892B80838FE19A
:101620008D150CF491CF9D2D97709A878D2D8595F2
:10163000859585958E5F292FE0E18E9F200D1124E1
:101640002A8321E0911101C020E0280F2C87442437
:101650004394512C4C0E5D1E480E511CF9E0F81BB2
:10166000FB8790CF16E048C015E046C08B818838D4
:1016700009F43FC082E094E0EB2DF0E03196E60DF6
:10168000F71D980FA1E0B0E0AC0FBD1FA80FB11D72
:101690002C9121938F5F8913F5CF8B85833029F5AA
:1016A0008A85811122C09E012D5F3F4F41E0B2012A
:1016B000C4010E94BE09882311F0182F1DC09B8110
:1016C000F2018181981313C09C81828198130FC00D
:1016D000808182FF02C02394C8CEF3018387822DCC
:1016E000880F820D8F5F808307C011E005C017E06F
:1016F00003C083E093E0C0CF812F2C960FB6F894FF
:10170000DEBF0FBECDBFDF91CF911F910F91FF9034
:10171000EF90DF90CF90BF90AF909F908F907F9091
:101720006F905F904F903F902F9008956F927F92AF
:101730008F929F92AF92CF92EF92FF920F931F934F
:10174000CF93DF9300D01F92CDB7DEB74C013C01A1
:101750004AE0640E711CC3010E945609882309F4F3
:1017600093C0C3010E94E502882309F48DC080E57F
:1017700089831A829E012D5F3F4F42E0BE016F5F59
:101780007F4FC3010E94BE0981110FC0A12CC12C43
:10179000E12CF12C00E010E020E030E044E0BE015C
:1017A0006F5F7F4FC3010E94CD0FF4013D96D401BE
:1017B0001C968C9190E08150904E23E0880F991FE9
:1017C0002A95E1F700E010E09801883FBFEF9B0702
:1017D00091F0419150E060E070E0082E04C0440FA9
:1017E000551F661F771F0A94D2F7042B152B262B43
:1017F000372B0897EACF093D1A4D29443D4CD9F5BE
:10180000609142037091430340914203509143031E
:10181000209142033091430391E06230710509F059
:1018200090E081E0452B09F080E0982B81E02330A7
:10183000310509F080E0892BD4015C969C915C977E
:10184000981770F45A968D919C915B97DC01ED91FD
:10185000FC910190F081E02D199581E090E010C09D
:101860008091420390914303019771F410924303D6
:101870001092420309C081E0F401848F83E090E07C
:1018800090934303809342030F900F900F900F901B
:10189000DF91CF911F910F91FF90EF90CF90AF907C
:1018A0009F908F907F906F9008952FE532E0FC011C
:1018B0003183208382819381009711F00C94051A63
:1018C0000895CF93DF93EC010E94550CCE01DF9178
:1018D000CF910C94051A08950895089508950895D8
:1018E000FC01538D448D252F30E0842F90E0821B26
:1018F000930B541710F0CF96089501970895FC01AB
:10190000918D828D981761F0828DDF01A80FB11D36
:101910005D968C91928D9F5F9F73928F90E008955A
:101920008FEF9FEF0895FC01918D828D981731F014
:10193000828DE80FF11D858D90E008958FEF9FEF68
:1019400008958FE893E00E94E00121E0892B09F4DB
:1019500020E0822F0895EF92FF920F931F93CF9371
:10196000DF93EC0181E0888F9B8D8C8D981305C0EF
:10197000E889F989808185FD26C0F62E0B8D10E05F
:101980000F5F1F4F0F731127E02E8C8DE8120CC0D4
:101990000FB607FCFACFE889F989808185FFF5CF7A
:1019A000CE010E94BC07F1CF8B8DFE01E80FF11D27
:1019B000E35AFF4FF0829FB7F8940B8FEA89FB89B7
:1019C000808180620AC09FB7F894EE89FF896083A6
:1019D000E889F98980818370806480839FBF81E07A
:1019E00090E0DF91CF911F910F91FF90EF900895BC
:1019F000CF93DF93EC01888D8823C9F0EA89FB89B6
:101A0000808185FD05C0A889B9898C9186FD0FC0AC
:101A10000FB607FCF5CF808185FFF2CFA889B98981
:101A20008C9185FFEDCFCE010E94BC07E7CFDF91FF
:101A3000CF9108951F920F920FB60F9211240BB6FB
:101A40000F922F933F934F935F936F937F938F9357
:101A50009F93AF93BF93EF93FF938FE893E00E9420
:101A6000BC07FF91EF91BF91AF919F918F917F91B3
:101A70006F915F914F913F912F910F900BBE0F90FF
:101A80000FBE0F901F9018951F920F920FB60F92D6
:101A900011240BB60F922F938F939F93EF93FF9385
:101AA000E0919F03F091A0038081E091A503F09164
:101AB000A60382FD12C090818091A8038F5F8F736F
:101AC0002091A903821751F0E091A803F0E0E157BB
:101AD000FC4F958F8093A80301C08081FF91EF9107
:101AE0009F918F912F910F900BBE0F900FBE0F9073
:101AF0001F9018951F93CF93DF93182F60E085E216
:101B00000E949E0F60E083E20E949E0FC8E0D0E03A
:101B100060E085E20E949E0F612F607881E20E9462
:101B20009E0F110F61E085E20E949E0F219781F7C1
:101B300061E083E2DF91CF911F910C949E0FCF93D0
:101B4000DF93F89430918C044091890450918A0479
:101B5000FA0120E0321709F447C0EF01C41BD50B8E
:101B60006191719168177907E9F5DC01ED91FC91BC
:101B70000680F781E02D19958091890490918A045F
:101B8000C80FD91F1982188280918C0481508093CC
:101B90008C0440E020918C0430E0842F90E02817E2
:101BA000390714F12091890430918A04880F991F14
:101BB000F901E80FF91F60817181672B89F40296A2
:101BC000D901A80FB91F2D913C9131832083209119
:101BD000890430918A04F901E80FF91F11821082FB
:101BE0004F5FD8CF2F5FB6CF7894DF91CF91089514
:101BF000EF92FF92CF93DF93F894F0908C042F2D07
:101C000030E0E0918B04F0E02E173F078CF5E09177
:101C10008904F0918A04DF01E12CFE1469F0CD9172
:101C2000DD91C817D90731F47894DF91CF91FF90F7
:101C3000EF900895E394F1CFDC0112964D935D93FC
:101C40006D937C93159751E05F0D50938C04220F98
:101C5000331FE20FF31F918380837894ED91FC9101
:101C60000480F581E02DDF91CF91FF90EF901994E2
:101C7000789447E050E065EB72E08FE893E00E94D3
:101C80001E0F42E050E06DEB72E08FE893E0DF91D1
:101C9000CF91FF90EF900C941E0FCF93C62F91E041
:101CA00090938E0398E690938D0410928D0310927A
:101CB0008C03A0918504B0918604ED91FC9111975D
:101CC0000190F081E02D682FCD0119958091850458
:101CD00090918604DC01ED91FC910190F081E02D62
:101CE0006C2F199520918C03213208F047C0809108
:101CF0006B038111FCCF80918D0492E090936B0374
:101D000091E090936A039FEF9093690310926803A8
:101D100020936703ACE6B3E0E7E4F3E090E0291733
:101D200021F03D9131939F5FFACF1092460390913D
:101D30004603880F892B80934603809145038130A9
:101D400061F410924503809146038093BB0080911B
:101D5000BC0083FDF8CF85EC01C085EE8093BC000C
:101D600080916B038230E1F3809169038F3F31F002
:101D700080916903803211F08091690310928D0384
:101D800010928C0310928E03CF910895DF92EF9200
:101D9000FF920F931F93CF93DF938C01F62ED42ED7
:101DA000E52E83E590E00E94180960E0F801868541
:101DB0000E949E0F82E10E941109CD2DDE2DCE01E1
:101DC0008F0D911D7C01EC16FD0621F089910E947A
:101DD0001109F9CF61E0F80186850E949E0FDF911D
:101DE000CF911F910F91FF90EF90DF900C9410090D
:101DF0003FB7F8948091A6049091A704A091A804FD
:101E0000B091A90426B5A89B05C02F3F19F00196F3
:101E1000A11DB11D3FBFBA2FA92F982F8827820F70
:101E2000911DA11DB11DBC01CD0142E0660F771FC0
:101E3000881F991F4A95D1F708950895CF92DF9290
:101E4000EF92FF920F931F93CF93DF936C017A0170
:101E50008B01C0E0D0E0CE15DF0581F0D8016D9197
:101E60008D01D601ED91FC910190F081E02DC6012C
:101E70001995892B11F02196EECF7E01C701DF91D4
:101E8000CF911F910F91FF90EF90DF90CF90089529
:101E900090E0FC013197E231F10508F04EC088274F
:101EA000E458FF4F8F4F0C942F19809180008F774B
:101EB00003C0809180008F7D809380000895809181
:101EC0008000877FF9CF84B58F7702C084B58F7D7E
:101ED00084BD08958091B0008F7703C08091B000D9
:101EE0008F7D8093B0000895809190008F7707C018
:101EF000809190008F7D03C080919000877F8093B8
:101F0000900008958091A0008F7707C08091A00075
:101F10008F7D03C08091A000877F8093A0000895EB
:101F2000809120018F7707C0809120018F7D03C0B1
:101F300080912001877F8093200108951F93CF9384
:101F4000DF93282F30E0F901E15FFC4F8491F90124
:101F5000E753FD4FD491F901ED57FD4FC491CC23C8
:101F6000C1F0162F81110E94480FEC2FF0E0EE0F08
:101F7000FF1FE759FD4FA591B4919FB7F894111138
:101F800004C08C91D095D82302C0EC91DE2BDC9359
:101F90009FBFDF91CF911F9108954F925F926F92F3
:101FA0007F928F929F92AF92BF92CF92DF92EF92E9
:101FB000FF920F931F93CF93DF931F921F92CDB782
:101FC000DEB74C012B01D42E3901E114F10419F0D4
:101FD000F701408101C040E0B42EF0E1CF9EB00C8B
:101FE000112440E062E0C4010E9439094FE768E033
:101FF000C4010E94390940E864E1C4010E94390922
:10200000A2016D2DC4010E94C60E4B2D6AE1C401D0
:102010000E9439094CE062E0C4010E9439096AE17A
:10202000C4010E941B09482F40686AE1C4010E9454
:10203000390980ED482E87E0582E68E0C4010E94DF
:102040001B09982F907341F480FD04C081E0481A69
:10205000510899F783E0A0C06CE0C4010E941B09FD
:10206000D82E837109F095C06114710409F45AC027
:102070000115110509F456C064E1C4010E941B0951
:10208000B82EF80180818B1508F47DC0B082BB208A
:10209000F1F183E590E00E94180960E0F401868583
:1020A0000E949E0FBA9482E90E941109CC20A9F0E7
:1020B0008FEF90E02C0101C0440CCA94EAF782E94A
:1020C0000E941109242D2095F301908192238421EF
:1020D000892B8083CC24C39401C0C12C4C2C512C5F
:1020E000460C571CCB1438F482E90E941109F20106
:1020F0008083C394F3CF80E00E941109F2018083B2
:1021000061E0F40186850E949E0F0E94100968E13B
:10211000C4010E941B098770E114F10421F0F7014A
:10212000808301C080E0D3FC30C06114710479F178
:102130000115110561F1AA2051F1F80140814130EA
:1021400021F4843041F58FEF27C0423020F1811116
:1021500022C042509E012F5F3F4FB301C4010E9435
:10216000BE09811119C0F8018081680E711CF3014C
:1021700032979081898198130EC0319690818A811F
:10218000981309C004C084E007C082E005C080E065
:1021900003C081E001C087E00F900F90DF91CF91E5
:1021A0001F910F91FF90EF90DF90CF90BF90AF9075
:1021B0009F908F907F906F905F904F900895CF93F6
:1021C000DF9390E0FC01E753FD4F2491FC01ED57B4
:1021D000FD4F8491882361F190E0880F991FFC01E5
:1021E000E15BFD4FC591D491FC01E759FD4FA591ED
:1021F000B491611109C09FB7F8948881209582231A
:102200008883EC912E230BC0623061F49FB7F89461
:102210008881322F309583238883EC912E2B2C9349
:102220009FBF06C08FB7F894E8812E2B28838FBFFD
:10223000DF91CF9108958F929F92AF92BF92CF92EC
:10224000DF92EF92FF926B017C010E94F80E4B012E
:102250005C01C114D104E104F104F1F00E94F80E14
:10226000DC01CB0188199909AA09BB09883E934072
:10227000A105B10570F321E0C21AD108E108F10807
:1022800088EE880E83E0981EA11CB11CC114D104F5
:10229000E104F10419F7DDCFFF90EF90DF90CF90CC
:1022A000BF90AF909F908F9008951F920F920FB69E
:1022B0000F9211242F933F938F939F93AF93BF93CC
:1022C0008091A1049091A204A091A304B091A404D0
:1022D0003091A50423E0230F2D3720F40196A11D92
:1022E000B11D05C026E8230F0296A11DB11D209344
:1022F000A5048093A1049093A204A093A304B09397
:10230000A4048091A6049091A704A091A804B09180
:10231000A9040196A11DB11D8093A6049093A70462
:10232000A093A804B093A904BF91AF919F918F91FE
:102330003F912F910F900FBE0F901F9018951F92F5
:102340000F920FB60F9211240BB60F922F933F935B
:102350004F935F936F937F938F939F93AF93BF93AD
:10236000EF93FF93E0912702F09128021995FF91D6
:10237000EF91BF91AF919F918F917F916F915F91FD
:102380004F913F912F910F900BBE0F900FBE0F906A
:102390001F9018951F920F920FB60F9211240BB633
:1023A0000F922F933F934F935F936F937F938F93EE
:1023B0009F93AF93BF93EF93FF93E0912502F0912A
:1023C00026021995FF91EF91BF91AF919F918F9147
:1023D0007F916F915F914F913F912F910F900BBE25
:1023E0000F900FBE0F901F9018951F920F920FB66F
:1023F0000F9211240BB60F922F933F934F935F933D
:102400006F937F938F939F93AF93BF93EF93FF93BC
:10241000E0911B02F0911C021995FF91EF91BF9181
:10242000AF919F918F917F916F915F914F913F916C
:102430002F910F900BBE0F900FBE0F901F9018950D
:102440001F920F920FB60F9211240BB60F922F937B
:102450003F934F935F936F937F938F939F93AF932C
:10246000BF93EF93FF93E0911902F0911A0219952F
:10247000FF91EF91BF91AF919F918F917F916F915C
:102480005F914F913F912F910F900BBE0F900FBE18
:102490000F901F9018951F920F920FB60F92112454
:1024A0000BB60F922F933F934F935F936F937F934E
:1024B0008F939F93AF93BF93EF93FF93E09123028A
:1024C000F09124021995FF91EF91BF91AF919F91E7
:1024D0008F917F916F915F914F913F912F910F90CD
:1024E0000BBE0F900FBE0F901F9018951F920F926A
:1024F0000FB60F9211240BB60F922F933F934F9369
:102500005F936F937F938F939F93AF93BF93EF935B
:10251000FF93E0912102F09122021995FF91EF9132
:10252000BF91AF919F918F917F916F915F914F91EB
:102530003F912F910F900BBE0F900FBE0F901F90E9
:1025400018951F920F920FB60F9211240BB60F928F
:102550002F933F934F935F936F937F938F939F93AB
:10256000AF93BF93EF93FF93E0911F02F09120028E
:102570001995FF91EF91BF91AF919F918F917F91AD
:102580006F915F914F913F912F910F900BBE0F90E4
:102590000FBE0F901F9018951F920F920FB60F92BB
:1025A00011240BB60F922F933F934F935F936F932A
:1025B0007F938F939F93AF93BF93EF93FF93E0919C
:1025C0001D02F0911E021995FF91EF91BF91AF91FD
:1025D0009F918F917F916F915F914F913F912F913B
:1025E0000F900BBE0F900FBE0F901F9018959091FB
:1025F000180289133DC0EEE4F2E0E4919FEF90935E
:102600001802E230C9F050F4EE2399F0E13081F580
:1026100090916F009D7F90936F002AC0E43019F174
:10262000E0F0E53029F5909173009D7F9093730061
:102630001FC010926E001CC0909170009D7F9093FF
:10264000700091E09093B0009091B100987F9460F9
:102650009093B1001092B3000BC0909171009D7FD8
:102660009093710005C0909172009D7F90937200CD
:1026700060E00C949E0F1F920F920FB60F921124E0
:102680000BB60F922F933F934F935F936F937F936C
:102690008F939F93AF93BF93EF93FF9380919D048C
:1026A00090919E04A0919F04B091A004892B8A2B45
:1026B0008B2B51F190919C04E0919A04F0919B0432
:1026C00080818927808380919D0490919E04A091B0
:1026D0009F04B091A004181619061A061B06C4F42C
:1026E00080919D0490919E04A0919F04B091A004BC
:1026F0000197A109B10980939D0490939E04A09332
:102700009F04B093A00404C0809118020E94F712A5
:10271000FF91EF91BF91AF919F918F917F916F91B9
:102720005F914F913F912F910F900BBE0F900FBE75
:102730000F901F901895FC01128A0895FC01148EC9
:102740000895789484B5826084BD84B5816084BD29
:1027500085B5826085BD85B5816085BD80916E003F
:10276000816080936E001092810080918100826070
:1027700080938100809181008160809381008091AD
:1027800080008160809380008091B100846080939C
:10279000B1008091B00081608093B0008091910081
:1027A000826080939100809191008160809391007C
:1027B000809190008160809390008091A100826060
:1027C0008093A1008091A10081608093A1008091FD
:1027D000A00081608093A00080912101826080939D
:1027E000210180912101816080932101809120014C
:1027F00081608093200180917A00846080937A00C8
:1028000080917A00826080937A0080917A00816062
:1028100080937A0080917A00806880937A00109289
:10282000C100E0919F03F091A00382E08083E091DA
:102830009B03F0919C031082E0919D03F0919E0315
:102840008FEC80831092A703E091A303F091A4037F
:1028500086E08083E091A103F091A20380818061F2
:102860008083E091A103F091A2038081886080833E
:10287000E091A103F091A203808180688083E091C0
:10288000A103F091A20380818F7D8083CFB7F8945C
:1028900080914403811127C0E8EBF2E08491EEEFD0
:1028A000F2E09491E82FF0E0EE0FFF1FE15BFD4FA7
:1028B000A591B491EC91E92321F461E085E30E94B4
:1028C0009E0F61E085E30E94DF108CB580618CBDB6
:1028D0008CB580648CBD61E084E30E94DF1061E010
:1028E00083E30E94DF10809144038F5F8093440351
:1028F000CFBF61E0809169040E94DF1061E08091A8
:1029000069040E949E0F80916A048F3F41F44FE05A
:1029100062E08BE594E00E943909C3E025C060E0E5
:102920000E94DF1020916A0430E0F901E15FFC4F62
:102930008491F901E753FD4FD491F901ED57FD4F13
:10294000C491CC23F9F081110E94480FEC2FF0E0E4
:10295000EE0FFF1FEC5CFD4FA591B491EC91ED23C0
:1029600089F0D5CFC15039F162E370E080E090E0AA
:102970000E941B1162E08BE594E00E941B0984FF1A
:102980001AC0F0CF61E080916A040E94DF1060E01D
:1029900080916A040E949E0F83E090E00197F1F716
:1029A00061E080916A040E949E0F62E370E080E023
:1029B00090E00E941B1140E064E28BE594E00E94ED
:1029C000390940E066E28BE594E00E94390946E26D
:1029D00068E48BE594E00E94390940E864E58BE502
:1029E00094E00E94390949EA66E58BE594E00E948B
:1029F000390943E068E58BE594E00E94390948EE27
:102A00006AE58BE594E00E94390940E46AE28BE5CF
:102A100094E00E9439094DE362E28BE594E00E9464
:102A2000390968E28BE594E00E941B09982F9370A6
:102A3000933039F0482F436068E28BE594E00E94C0
:102A40003909109241031092400310928D031092A5
:102A50008C0310926B0381E080936A03109245030C
:102A600061E084E10E949E0F61E085E10E949E0F7B
:102A70008091B9008E7F8093B9008091B9008D7FDD
:102A80008093B90088E48093B80085E48093BC000B
:102A900085E292E090933F0380933E0386E292E0CA
:102AA00090933D0380933C0360E089E10E944D0ECA
:102AB00060E08AE10E944D0E68E08BE10E944D0EBD
:102AC00061E08CE10E944D0E68E087E30E944D0EAC
:102AD00060E488E30E944D0E61E08FE10E944D0E9C
:102AE00061E080E20E944D0E60E189E60E944D0E99
:102AF00061E08BE60E944D0E8AE080938B0484E1B6
:102B000090E00E946D1990938A048093890482E179
:102B100090E0E0918904F0918A04E80FF91F118296
:102B2000108202978E3F2FEF920799F782E00E9462
:102B30007A0D40E050E060E470E48CE294E00E94A2
:102B4000F80D40E050E068EC73E481E594E00E9409
:102B5000F80D85EF92E090932402809323028091F8
:102B60006900806C80936900EB9A01E09AE0C92EBD
:102B7000D12C8FB7F8948090A1049090A204A090DB
:102B8000A304B090A4048FBF10E080918C041817A8
:102B900008F04DC0C501B4010E9445182B013C014D
:102BA000C12FD0E0CC0FDD1FE0918904F0918A04A1
:102BB000EC0FFD1FE080F180D70116962D913D911D
:102BC0004D915C911997C301B2010E94D317F7018F
:102BD00022813381448155810E94F71818162CF503
:102BE000D70116964D925D926D927C921997ED9158
:102BF000FC910480F581E02DC7011995809189042D
:102C000090918A04C80FD91F0990D881C02D20E067
:102C100030E0A9016A817B818C819D810E944018EE
:102C2000811103C0CE010E949F0D1F5FAECF809126
:102C3000420390914303039749F440E050E06AEF68
:102C400073E48EE694E00E94F80D23C08091420365
:102C500090914303019751F480E20E947A0D109203
:102C60006D048EE694E00E949F0D39C0809142036E
:102C700090914303892B11F480E00CC080914203B2
:102C8000909143038230910551F52091480422230D
:102C900021F082E00E947A0D22C000934804D09275
:102CA0004504C0924404D0924A04C09249042FB70C
:102CB000F8944091A1045091A2046091A3047091F2
:102CC000A4042FBF40934B0450934C0460934D04D5
:102CD00070934E049093470480934604DACF0E9489
:102CE000EC0147CF87E894E00C94550CCF92DF922B
:102CF000EF92FF920F931F93CF93DF93CDB7DEB781
:102D000060970FB6F894DEBF0FBECDBF109292034E
:102D10001092910388EE93E0A0E0B0E080939303DB
:102D200090939403A0939503B09396032BE332E022
:102D30003093900320938F0325EC30E030939C0375
:102D400020939B0324EC30E030939E0320939D035B
:102D500020EC30E03093A00320939F0321EC30E07F
:102D60003093A2032093A10322EC30E03093A4031C
:102D70002093A30326EC30E03093A6032093A50311
:102D80001092A8031092A9031092AA031092AB0309
:102D90001092910410929004809392049093930463
:102DA000A0939404B09395048DE492E090938F04E3
:102DB00080938E048FE592E090938804809387043B
:102DC00010928C0410922E0410922F041092300452
:102DD0001092310410923204109233041092340491
:102DE0001092350485EA92E090932D0480932C0490
:102DF00083EB92E0909337048093360480E192E075
:102E0000909339048093380480E092E090933B04DF
:102E100080933A0488E0ECE3F4E0DF011D928A95A8
:102E2000E9F710924504109244041092470410925E
:102E300046041092480410924A041092490400E19A
:102E400012E0780161E0F80180810E94DF100E5FDE
:102E50001F4F61E0D7018C910E949E0FB2E00831B4
:102E60001B0779F700E012E080E1E82E82E0F82EFF
:102E7000680161E0F80180810E94DF100E5F1F4F42
:102E800060E0D6018C910E949E0FE016F10681F75A
:102E900081E792E09093500480934F0461E081E2D7
:102EA0000E94DF1061E085E20E94DF1061E083E2B2
:102EB0000E94DF1010925304109254041092550493
:102EC000109256041092570410925804109259040C
:102ED00010925A0489E792E090935204809351042F
:102EE00087E692E090935C0480935B0486E394E031
:102EF00090936C0480936B0410926D048CE0FE013F
:102F00003396ADE5B4E001900D928A95E1F781E347
:102F1000809369048FE180936A0410927004109288
:102F2000710410927204109273041092740410923F
:102F30007504109276041092770485E892E09093DD
:102F40006F0480936E0488E290E0909379048093FC
:102F5000780410927A0488E0EFE2F2E0ABE7B4E0A4
:102F600001900D928A95E1F761E088E20E94DF10FE
:102F700081E992E090938404809383048EE894E046
:102F8000909386048093850460960FB6F894DEBF14
:102F90000FBECDBFDF91CF911F910F91FF90EF90AA
:102FA000DF90CF9008955058BB27AA270E94EB17B7
:102FB0000C94BD180E94AF1838F00E94B61820F08B
:102FC00039F49F3F19F426F40C94AC180EF4E095F4
:102FD000E7FB0C94A618E92F0E94CE1858F3BA17F5
:102FE000620773078407950720F079F4A6F50C941F
:102FF000F0180EF4E0950B2EBA2FA02D0B01B9019D
:1030000090010C01CA01A0011124FF27591B99F05E
:10301000593F50F4503E68F11A16F040A22F232F6A
:10302000342F4427585FF3CF469537952795A795BA
:10303000F0405395C9F77EF41F16BA0B620B730B61
:10304000840BBAF09150A1F0FF0FBB1F661F771FD2
:10305000881FC2F70EC0BA0F621F731F841F48F487
:10306000879577956795B795F7959E3F08F0B0CF10
:103070009395880F08F09927EE0F979587950895F7
:103080000E94821808F481E00895E89409C097FB33
:103090003EF490958095709561957F4F8F4F9F4F2F
:1030A0009923A9F0F92F96E9BB279395F695879573
:1030B00077956795B795F111F8CFFAF4BB0F11F436
:1030C00060FF1BC06F5F7F4F8F4F9F4F16C08823DD
:1030D00011F096E911C0772321F09EE8872F762F13
:1030E00005C0662371F096E8862F70E060E02AF054
:1030F0009A95660F771F881FDAF7880F9695879540
:1031000097F90895990F0008550FAA0BE0E8FEEF14
:1031100016161706E807F907C0F012161306E4079B
:10312000F50798F0621B730B840B950B39F40A2694
:1031300061F0232B242B252B21F408950A2609F472
:10314000A140A6958FEF811D811D089597F99F6776
:1031500080E870E060E008959FEF80EC089500241F
:103160000A941616170618060906089500240A94EC
:1031700012161306140605060895092E0394000C72
:1031800011F4882352F0BB0F40F4BF2B11F460FF01
:1031900004C06F5F7F4F8F4F9F4F089557FD90582A
:1031A000440F551F59F05F3F71F04795880F97FB0B
:1031B000991F61F09F3F79F08795089512161306C5
:1031C0001406551FF2CF4695F1DF08C016161706F4
:1031D0001806991FF1CF8695710561050894089529
:1031E000E894BB2766277727CB0197F908950E94BB
:1031F000821808F48FEF089597FB072E16F40094B9
:1032000007D077FD09D00E94371907FC05D03EF49E
:10321000909581959F4F0895709561957F4F089582
:10322000052E97FB1EF400940E94271957FD07D026
:103230000E944B1907FC03D04EF40C9427195095AB
:103240004095309521953F4F4F4F5F4F0895909592
:103250008095709561957F4F8F4F9F4F0895EE0F2A
:10326000FF1F881F8BBF0790F691E02D1994AA1BB2
:10327000BB1B51E107C0AA1FBB1FA617B70710F061
:10328000A61BB70B881F991F5A95A9F78095909593
:10329000BC01CD010895A1E21A2EAA1BBB1BFD01A2
:1032A0000DC0AA1FBB1FEE1FFF1FA217B307E40725
:1032B000F50720F0A21BB30BE40BF50B661F771F7D
:1032C000881F991F1A9469F760957095809590955D
:1032D0009B01AC01BD01CF0108950F931F93CF93C4
:1032E000DF938230910510F482E090E0E091AC042D
:1032F000F091AD0420E030E0A0E0B0E0309719F1AB
:10330000408151810281138148175907C8F0841701
:10331000950769F4109731F012960C931297139653
:103320001C9327C00093AC041093AD0422C0211558
:10333000310519F04217530718F49A01BD01EF0146
:10334000DF01F801DBCF21153105F9F0281B390B1E
:103350002430310580F48A819B816115710521F04B
:10336000FB019383828304C09093AD048093AC04EB
:10337000FE01329644C0FE01E20FF31F8193919348
:1033800022503109398328833AC02091AA04309110
:10339000AB04232B41F420912B0230912C0230936B
:1033A000AB042093AA042091290230912A0221150E
:1033B000310541F42DB73EB740912D0250912E02B8
:1033C000241B350BE091AA04F091AB04E217F3073C
:1033D000A0F42E1B3F0B2817390778F0AC014E5F85
:1033E0005F4F2417350748F04E0F5F1F5093AB0413
:1033F0004093AA048193919302C0E0E0F0E0CF01F2
:10340000DF91CF911F910F910895CF93DF93009794
:1034100009F481C0FC01329713821282A091AC049E
:10342000B091AD04109781F420813181820F931FF8
:103430002091AA043091AB042817390751F5F09375
:10344000AB04E093AA0467C0ED0120E030E0CE17A2
:10345000DF0740F44A815B819E0141155105F1F07F
:10346000EA01F5CFD383C28340815181840F951F38
:10347000C817D90759F488819981840F951F02963E
:10348000918380838A819B81938382832115310577
:1034900029F4F093AD04E093AC043DC0E901FB8353
:1034A000EA8349915991C40FD51FEC17FD0761F4C8
:1034B00080819181840F951F0296E9019983888309
:1034C000828193819B838A83E0E0F0E012968D9164
:1034D0009C911397009719F0FD01DC01F7CF8D91B6
:1034E0009C9111979D012E5F3F4F820F931F20915A
:1034F000AA043091AB042817390769F4309729F4EE
:103500001092AD041092AC0402C013821282B093E8
:10351000AB04A093AA04DF91CF91089581E090E0DD
:10352000F8940C94931A11E0CCEAD1E000E006C0C4
:10353000802FFE010E942F192196011DCD3AD1073F
:0A35400080E00807A9F7F894FFCF18
:10354A000200030004000500060007000800090045
:10355A000A000B000C000D00FF1D0F1D0F1D0F1D93
:10356A000F1D0F1D0F1D0F1D0F0000AE048000B8A8
:10357A0001E803B801BC0200000000AB0C1E0F708A
:10358A000CF80CE0017F0C930C00000000B60289D5
:10359A0002540227024B023702280200000000559B
:1035AA000C610C000000000A0A5609E5020000003E
:1035BA00006B0C0403000000006C0C0603960B530E
:1035CA0002000000006E0C0A03B804B404000000F4
:1035DA00006D0C0803000000000000000002035305
:1035EA0002000000006F0C0C030E0353029E13F638
:1035FA00FF00009B1354422066756C6C000D0A0094
:00000001FF
